:020000040800F2
:10000000800C0020C16F0008376F0008396F0008AE
:100010003B6F00083D6F00083F6F000800000000C4
:10002000000000000000000000000000416F000818
:10003000436F000800000000456F0008476F00088C
:10004000E96F0008ED6F0008F16F0008F56F000818
:10005000F96F0008FD6F00080170000805700008C6
:10006000097000080D700008117000081570000874
:10007000197000081D700008217000082570000824
:10008000297000082D7000083170000835700008D4
:10009000397000083D700008417000084570000884
:1000A000497000084D700008517000085570000834
:1000B000A56A0008597000085D70000861700008AA
:1000C00065700008697000086D70000871700008A4
:1000D00075700008797000087D7000088170000854
:1000E00085700008897000088D7000082DE9FC41BA
:1000F000DFF8904C200005F053FFDFF88C5C2800FF
:1001000005F04EFF0121082006F03FF94FF4805022
:10011000ADF8000010208DF8030003208DF80200D8
:100120006946280005F093FF0121082006F02DF90B
:100130004FF40050ADF8000010208DF803000320AC
:100140008DF802006946280005F081FF0121042096
:1001500006F01BF94FF40076ADF8006010208DF822
:10016000030003208DF802006946200005F06FFFB0
:100170000121042006F009F94FF48077ADF80070F2
:1001800010208DF8030003208DF80200694620003E
:1001900005F05DFF0121082006F0F7F84FF48040DC
:1001A000ADF8000010208DF8030003208DF8020048
:1001B0006946280005F04BFF0121082006F0E5F80C
:1001C0004FF40048ADF8008010208DF803000320A4
:1001D0008DF802006946280005F039FF012108204A
:1001E00006F0D3F80820ADF8000010208DF80300C9
:1001F00003208DF802006946280005F028FF012140
:10020000012006F0C2F80121DFF8400D05F085FF5E
:100210000121082006F0B9F8ADF8007010208DF823
:10022000030003208DF802006946280005F00FFF47
:100230000121082006F0A9F8ADF8006010208DF823
:10024000030003208DF802006946280005F0FFFE38
:100250000121042006F099F8ADF8008010208DF8F7
:10026000030003208DF802006946200005F0EFFE30
:100270000821280005F04BFF4FF48071280005F09D
:1002800046FF4FF40071280005F041FF4FF4004194
:10029000200005F03CFF002113E0DFF8B43C0C0027
:1002A000E4B24FF4B870444303EB040013009BB274
:1002B0000024C454521C100080B2B0F5B87FECDBAF
:1002C000491C0800C0B2032801DA0022F3E700202D
:1002D00006E00021DFF87C2C0300DBB2D154401C87
:1002E0000100C9B23C29F4DB002006E00021DFF860
:1002F000682C0300DBB2D154401C0100C9B22E2986
:10030000F4DBBDE8F3812DE9F04704000D00160091
:100310001F005FF001085FF000094BE0DFF83C1CB4
:10032000086830F4407008600A682300DBB2404679
:10033000C0B230EA0303D9F1090083401A430A60CE
:100340000A682B00DBB24046C0B230EA0303D9F1A1
:10035000080083401A430A60DFF8041C086830F480
:10036000404008600A683300DBB24046C0B230EA61
:100370000303D9F10E0083401A430A600A683B0068
:10038000DBB24046C0B230EA0303D9F10F0083402C
:100390001A430A605FEA4808DFF8ECA94FF40051FD
:1003A000504605F0B7FE4FF40051504605F0AFFE41
:1003B00019F101094846C0B20828AFDBBDE8F08753
:1003C0002DE9F047DFF89C4BDFF89C0B217830F8E3
:1003D0001100DFF8981B08800120DFF8941B0880CB
:1003E000DFF8A4590821280005F091FE4FF4807130
:1003F000280005F08CFE4FF40071280005F087FE00
:10040000DFF880694FF40041300005F080FE1627C8
:1004100044E01720DFF85CCB4FF4B87EDFF8308B78
:1004200021780EFB01F108EB01029CF80030390045
:1004300049B200FB031302EB030191F81431217858
:100440000EFB01F108EB01029CF80090390049B263
:1004500000FB091902EB090191F8B82021780EFB85
:1004600001F108EB01099CF800A0390049B200FB3A
:100470000A1A09EB0A0191F85C1094F800900EFB3F
:1004800009FEC6449CF80080BC464FFA8CFC00FB79
:1004900008C01EF80000FFF736FF7F1E380040B28C
:1004A0000028B6D54FF48051280005F033FE4FF4F4
:1004B0008051280005F02BFEDFF8B87A3878002844
:1004C00005D002280ED007D3032811D015E008214B
:1004D000280005F01FFE10E04FF48071280005F0A1
:1004E00019FE0AE04FF40071280005F013FE04E045
:1004F0004FF40041300005F00DFE2078401C2070C4
:100500002078022809D1002020703878401C3870EB
:100510003878042801D100203870BDE8F0872DE933
:10052000F847099D8DF800206C4663708DF80250E5
:10053000020052B2121E102A80F0038100273A00F6
:10054000D2B2032A80F2C6818C465FFA8CFC032368
:100550003A00D2B203FB0C2C5FF0080E7FF0800350
:100560001725DFF8EC6988465FFA88F85FF0030921
:100570003A00D2B209FB0828082298FBF2F80200E0
:1005800052B205FB028889465FFA89F95FF0030AD7
:100590003A00D2B20AFB0929082299FBF2F28146FD
:1005A0004FFA89F905FB092216F802909CFBFEF22E
:1005B0000EFB12CC1A0052FA0CF212EA090906F8E4
:1005C00008908C465FFA8CFC5FF0030E3A00D2B2C2
:1005D0000EFB0C2C5FF0080E88465FFA88F85FF07F
:1005E00003093A00D2B209FB0828082298FBF2F866
:1005F000020052B205FB028889465FFA89F95FF072
:10060000030A3A00D2B20AFB0929082299FBF2F246
:1006100081464FFA89F905FB0922B25CB9465FFAB7
:1006200089F914F8099019F00109DCF1070A9CFB1B
:10063000FEFC0EFB0CAE19FA0EFE5EEA020E06F888
:1006400008E08C465FFA8CFC5FF0030E3A00D2B2F1
:100650000EFB0C2C5FF0080E88465FFA88F85FF0FE
:1006600003093A00D2B209FB0828082298FBF2F2EB
:1006700080464FFA88F805FB082206EB02088946F7
:100680005FFA89F95FF0030A3A00D2B20AFB09293E
:10069000082299FBF2F281464FFA89F905FB0922FB
:1006A000324492F870219CFBFEF90EFB19CC53FAF0
:1006B0000CF3134088F870310B00DBB25FF0030CD1
:1006C0003A00D2B20CFB03235FF0080C8E465FFAAF
:1006D0008EFE5FF003083A00D2B208FB0E2E08220D
:1006E0009EFBF2F286464FFA8EFE05FB0E2206EBCB
:1006F000020E88465FFA88F85FF003093A00D2B22A
:1007000009FB0828082298FBF2F280464FFA88F885
:1007100005FB082506EB050292F870213D00EDB2BD
:10072000655DC5F34005D3F1070693FBFCF30CFBB5
:10073000036C15FA0CFC5CEA020C8EF870C17F1C8D
:10074000FDE60023C1E00E00F6B203221800C0B29D
:1007500002FB06060827DFF800287FF080058C469C
:100760005FFA8CFC5FF0030E1800C0B20EFB0C0C9D
:1007700008209CFBF0FC8E465FFA8EFE5FF00308BB
:100780001800C0B208FB0E0E08209EFBF0F012F815
:1007900000E096FBF7F007FB10662800304110EAF6
:1007A0000E0E02F80CE00E00F6B203271800C0B2DD
:1007B00007FB060608278C465FFA8CFC5FF0030EE9
:1007C0001800C0B20EFB0C0C08209CFBF0FC8E46FF
:1007D0005FFA8EFE5FF003081800C0B208FB0E0E31
:1007E00008209EFBF0F0105C9E465FFA8EFE14F827
:1007F0000EE01EF0010ED6F1070896FBF7F607FB98
:1008000006871EFA07F7074302F80C700E00F6B2CF
:1008100003271800C0B207FB060608278C465FFABC
:100820008CFC5FF0030E1800C0B20EFB0C0C08200D
:100830009CFBF0F002EB000C8E465FFA8EFE5FF040
:1008400003081800C0B208FB0E0E08209EFBF0F053
:100850001044C07D96FBF7FE07FB1E663541054040
:100860008CF817500D00EDB203261800C0B206FB3D
:10087000050508260F00FFB25FF0030C1800C0B298
:100880000CFB0707082097FBF0F002EB00078C46F3
:100890005FFA8CFC5FF0030E1800C0B20EFB0C0C6C
:1008A00008209CFBF0F01044C07D1A00D2B2A25C7C
:1008B000C2F34002D5F1070C95FBF6F506FB05C621
:1008C00012FA06F60643FE755B1C1800C0B2032838
:1008D000FFF639AFBDE8F1872DE9FE4F03005FF069
:1008E000FF345BB2A34279D10B00DBB20320434358
:1008F0009B1C90465FFA88F85FEA58085FFA88F810
:10090000B3EB080808230C00E4B203204443A41C02
:1009100091465FFA89F95FEA59095FFA89F9B4EB00
:1009200009095FF0080A0D00EDB203204543AD1C34
:100930001400E4B26408E4B22C1B08250F00FFB2D7
:1009400003204743BF1C1600F6B27608F6B2BE1B62
:1009500008275FF0800CDFF800E68B465FFA8BFB20
:10096000032000FB0BFB1BF1020B1000C0B2BBEB22
:10097000600B08209BFBF0F01EF8000098FBF3FBD7
:1009800003FB1B88634653FA08F31840D9F10703A9
:1009900099FBFAF80AFB083A50FA0AF0C9B20323A5
:1009A0005943891CD2B2B1EB6201082291FBF2F1EA
:1009B0007144C97D94FBF5F205FB12445CFA04FC1A
:1009C0001CEA010CD6F1070196FBF7F207FB0217B0
:1009D0005CFA07FC50EA4C00C0B291E00C00E4B2B3
:1009E00003235C43A41C1300DBB25B08DBB2E31AF5
:1009F000082402940D00EDB203246543AD1C1400DD
:100A0000E4B26408E4B22C1B082501950E00F6B28E
:100A100003256E43B61C1500EDB26D08EDB2751BD3
:100A200008268C465FFA8CFC032707FB0CFC1CF1A4
:100A3000020C1700FFB27F08FFB2BCEB07075FF0A4
:100A4000080CDFF80CE55FF017085FF080098B46B3
:100A50005FFA8BFB5FF0030A0AFB0BFB1BF1020B37
:100A600092465FFA8AFABBEB6A0B5FF0080A9BFBBF
:100A7000FAFA83464FFA8BFB08FB0BAA1EF80AA072
:100A8000CDF800A0DDF808A093FBFAFBDDF808A084
:100A90000AFB1B33CA465AFA03FA009B1AEA030AF6
:100AA0005346D4F1070ADDF804B094FBFBF4DDF8FB
:100AB00004B00BFB04A42341C9B203246143891C85
:100AC000D2B2B1EB6201082291FBF2F140B208FB15
:100AD0000010704490F8700195FBF6F106FB11557B
:100AE00059FA05F919EA0009D7F1070097FBFCF15B
:100AF0000CFB010C59FA0CF953EA49031800C0B277
:100B0000BDE8FE8F70B4002145E0DFF844341724BF
:100B10001500EDB26D420800C0B204FB05051D448E
:100B20001600F6B276420800C0B204FB060603EBDC
:100B3000060090F8420185F859011500EDB26D42AA
:100B40000800C0B204FB05051D441600F6B276424B
:100B50000800C0B204FB060403EB040090F8B202E4
:100B600085F8C902521C1000C0B20F28CDDBDFF897
:100B7000E823DFF8DC030B00DBB2D35C0C00E4B24B
:100B800003550B00DBB21A44D27D0B00DBB21844D4
:100B900080F87021491C0800C0B2172801DA002231
:100BA000E1E770BC7047F8B400213BE017242E0049
:100BB000F6B276420800C0B204FB060616442F00C7
:100BC000FFB27F420800C0B204FB070702EB070038
:100BD00090F8420186F859012E00F6B276420800DC
:100BE000C0B204FB060616442F00FFB27F42080085
:100BF000C0B204FB070402EB040090F8B20286F8CE
:100C0000C9026D1C2800C0B20F28CFDB9DF8000080
:100C10000C00E4B2105558780B00DBB21A4482F88D
:100C20007001491C0800C0B2172810DAC84A080031
:100C3000C0B2104490F859018DF800006B460800CE
:100C4000C0B2104490F8C90258700025DAE7F1BC30
:100C5000704770B400213EE0BD4C17221D00EDB27C
:100C60000800C0B202FB05051E00F6B20800C0B2C3
:100C700002FB060604EB0600C07D60551D00EDB2C8
:100C80000800C0B202FB050525441E00F6B20800AC
:100C9000C0B202FB060204EB020090F8870185F85F
:100CA00070015B1C1800C0B20F28D5DBDFF8A8224A
:100CB000A7480B00DBB2D35C0C00E4B2044484F818
:100CC00059310B00DBB21A44D27D0B00DBB2184461
:100CD00080F8C922491C0800C0B2172801DA002395
:100CE000E0E770BC7047F8B4002136E017251E001D
:100CF000F6B20800C0B205FB06061F00FFB20800EE
:100D0000C0B205FB070702EB0700C07D90551E002F
:100D1000F6B20800C0B205FB060616441F00FFB27B
:100D20000800C0B205FB070502EB050090F887013B
:100D300086F870015B1C1800C0B20F28D6DB9DF846
:100D400000000B00DBB2134483F8590160780B00FC
:100D5000DBB21A4482F8C902491C0800C0B2172845
:100D60000EDA7B4A0800C0B2105C8DF800006C46B9
:100D70000800C0B2104490F8700160700023DAE7F8
:100D8000F1BC704700080140000C01402DE9F04320
:100D9000010049B2091E102980F0858000216DE014
:100DA0000F00FFB25F432744AC465FFA8CFCDCF1D6
:100DB000000C86464FFA8EFE02FB0ECC67448C4632
:100DC0005FFA8CFC03FB0CFCA444AE465FFA8EFE7B
:100DD000DEF1000E80464FFA88F802FB08EEF4447C
:100DE0009CF80BC05FFA8CFC8E465FFA8EFE03FB0C
:100DF0000EFEA644A8465FFA88F8D8F1000881469E
:100E00004FFA89F902FB0988C6449EF80AE05FEAB6
:100E10004E1E5EEADC0E87F80BE06D1C2F00FFB261
:100E20000B2FBDDB0D00EDB25D43254407007FB203
:100E300057433D440F00FFB25F43274484464FFAB7
:100E40008CFC02FB0CFC6744FF7A17F0F8073E436A
:100E5000EE720D00EDB25D432544060076B25643B6
:100E60000F00FFB203FB07F32344040064B202FB4C
:100E700004F29A5CD2B2D208AA55491C0A00D2B236
:100E8000022A60DA17224FF4B873314C0D00EDB22C
:100E90005D432544060076B256433544EE7A16F09B
:100EA00007060025BAE700203DE01D00EDB26D42C7
:100EB0000600F6B201FB065515441E00F6B2764256
:100EC0000700FFB201FB07661644F67AF6B21F0070
:100ED000FFB27F4284465FFA8CFC01FB0C7717441B
:100EE000BF7A7F0157EAD607EF725B1C1D00EDB297
:100EF0000B2DDADB0300DBB24B4313440500EDB2EC
:100F00004D431544ED7A15F0F8052C43DC720300CF
:100F1000DBB24B43D35CDBB2DB080400E4B201FB81
:100F200004F15354401C0100C9B202290BDADFF866
:100F3000902617210300DBB24B431344DC7A14F0F4
:100F400007040023D2E7BDE8F08300000002300070
:100F50002C00002090030020080400200C08014011
:100F60000C0C01404F04002000000020280000402D
:100F7000140000404E0400202DE9F84304000D0049
:100F800016001F005FF0000801E018F1010840465C
:100F9000C0B2042832DA5FF000094846C0B208281F
:100FA000F3DA4046C0B2285C802151FA09F10842C8
:100FB0000FD100200090002300224046C0B24946D5
:100FC000C9B211EBC001C9B2200040B2FFF7A7FAC5
:100FD00011E09DF8200000903B00DBB23200D2B25D
:100FE0004046C0B24946C9B211EBC001C9B22000A7
:100FF00040B2FFF794FA19F10109CEE7BDE8F18399
:101000002DE9FC4705000E00170098460A9C5FF08A
:10101000000901E019F101094846C0B2072832DA97
:101020005FF0000A5046C0B20828F3DA4846C0B262
:10103000305C802151FA0AF108420FD10020009063
:10104000002300224846C0B25146C9B211EBC0018C
:10105000C9B2280040B2FFF762FA11E02000C0B226
:1010600000904346DBB23A00D2B24846C0B2514685
:10107000C9B211EBC001C9B2280040B2FFF74FFA64
:101080001AF1010ACEE75FF0000921E0002000908C
:101090000023002219F13801C9B2280040B2FFF73D
:1010A0003EFA13E0F079802151FA09F10842EDD0BF
:1010B0002000C0B200904346DBB23A00D2B219F130
:1010C0003801C9B2280040B2FFF729FA19F1010925
:1010D0004846C0B20428E5DBBDE8F3872DE9F047B8
:1010E000010049B210296FD0010049B211F1010F7E
:1010F0006AD0002150E00F00FFB25F432744B4469E
:101100005FFA8CFC86464FFA8EFE02FB0ECC8E46B2
:101110005FFA8EFE03FB0EFEA644B0465FFA88F827
:1011200081464FFA89F902FB09881EF808E08846D3
:101130005FFA88F803FB08F8A044B1465FFA89F922
:1011400082464FFA8AFA02FB0A99C84498F801804D
:101150005FFA88F85FEA581858EACE0807F80C805A
:10116000761C3700FFB2162FC5DB0E00F6B25E43C9
:10117000264407007FB257433E440F00FFB203FBF3
:1011800007F32344040064B202FB04F21A44927D84
:1011900055EAC205B575491C0A00D2B2022A80F28E
:1011A000C98017224FF4B873DFF830490D00EDB253
:1011B0005D432544060076B25643AD5DEDB26D0841
:1011C00015F070050026CCE75FF0FF3140B2884291
:1011D0003FD100202DE02500EDB20600F6B201FB64
:1011E00006552600F6B20700FFB201FB0766965DC2
:1011F0002700FFB284465FFA8CFC01FB0C77174492
:101200007F78FFB27F0957EAC6075755641C25004F
:10121000EDB2162DDFDB0400E4B24C4314440500AC
:10122000EDB201FB05F11144897D53EAC103A375B9
:10123000401C0100C9B202297CDAE14A17210300EF
:10124000DBB24B43D35CDBB25B0813F070030024CA
:10125000DDE7002000E0401C0100C9B2022969DA84
:10126000002150E00700FFB25F432744B4465FFA15
:101270008CFC8E465FFA8EFE02FB0ECC86465FFA31
:101280008EFE03FB0EFEA644B0465FFA88F8894640
:101290005FFA89F902FB09881EF808E080465FFAC8
:1012A00088F803FB08F8A044B1465FFA89F98A463A
:1012B0005FFA8AFA02FB0A99C84498F801805FFA3B
:1012C00088F85FEA581858EACE0807F80C80761CB0
:1012D0003700FFB2162FC5DB0600F6B25E43264488
:1012E0000F00FFB257433E440700FFB203FB07F372
:1012F00023440C00E4B202FB04F21A44927D55EA46
:10130000C205B575491C0A00D2B2102AA3DA172209
:101310004FF4B873DFF8C4470500EDB25D432544D0
:101320000E00F6B25643AD5DEDB26D0815F07005D6
:101330000026CDE7BDE8F0872DE9F043010049B272
:10134000102977D0010049B211F1010F72D00021AC
:1013500058E00F00FFB25F432744AC465FFA8CFCB5
:10136000DCF1000C86464FFA8EFE02FB0ECC674481
:101370008C465FFA8CFC03FB0CFCA444AE465FFA7F
:101380008EFEDEF1000E80464FFA88F802FB08EE72
:10139000F4449CF816C05FFA8CFC8E465FFA8EFE11
:1013A00003FB0EFEA644A8465FFA88F8D8F10008B1
:1013B00081464FFA89F902FB0988C6449EF815E078
:1013C0005FEA4E1E5EEADC0E87F816E06D1C2F0009
:1013D000FFB2162FBDDB0D00EDB25D4325440700C3
:1013E0007FB257438C465FFA8CFC03FB0CF323441B
:1013F000040064B202FB04F29A5CD2B256EAD2064E
:10140000EE55491C0A00D2B2022A80F2D680172279
:101410004FF4B873DFF8C4460D00EDB25D432544C8
:10142000060076B256433544AE7D760016F0E006EF
:101430000025CCE75FF0FF3140B2884244D1002064
:1014400031E01D00EDB26D420600F6B201FB06551B
:1014500015441E00F6B276420700FFB201FB076694
:101460001644B67DF6B21F00FFB27F4284465FFA93
:101470008CFC01FB0C7717447F7D7F0157EAD60770
:10148000AF755B1C1D00EDB2162DDADB0300DBB27D
:101490004B43D35CDBB254EAD3040300DBB201FB61
:1014A00003F15454401C0100C9B2022980F2858026
:1014B000434A17210300DBB24B4313449C7D640075
:1014C00014F0E0040023DDE7002000E0401C0100F0
:1014D000C9B2022971DA002158E00700FFB25F4368
:1014E0002744AC465FFA8CFCDCF1000C8E465FFAB8
:1014F0008EFE02FB0ECC674484465FFA8CFC03FB35
:101500000CFCA444AE465FFA8EFEDEF1000E884667
:101510005FFA88F802FB08EEF4449CF816C05FFA04
:101520008CFC86465FFA8EFE03FB0EFEA644A846A0
:101530005FFA88F8D8F1000889465FFA89F902FB5A
:101540000988C6449EF815E05FEA4E1E5EEADC0E8E
:1015500087F816E06D1C2F00FFB2162FBDDB0500CB
:10156000EDB25D4325440F00FFB2574384465FFA56
:101570008CFC03FB0CF323440C00E4B202FB04F2EA
:101580009A5CD2B256EAD206EE55491C0A00D2B293
:10159000102A9BDA17224FF4B873DFF84045050094
:1015A000EDB25D4325440E00F6B256433544AE7DA0
:1015B000760016F0E0060025CDE7BDE8F0830000D8
:1015C000080400200100C9B204290DDA0321DFF864
:1015D000702C11700021DFF86C2C1170D0F1030019
:1015E000DFF8581C087090E00100C9B208290CDA35
:1015F0000321DFF84C2C1170001FDFF8481C087025
:101600000020DFF8381C08707FE00100C9B20C2907
:101610000EDAD0F10300F838DFF8241C087003203C
:10162000DFF8201C08700020DFF8101C08706CE048
:101630000100C9B210290CDA0021DFF8042C117066
:101640000321DFF8002C11700C38DFF8F01B087054
:101650005BE00100C9B214290EDA0021DFF8E02BAB
:101660001170D0F10300F038DFF8D81B08700320A8
:10167000DFF8C81B087048E00100C9B218290CDA6D
:101680001438DFF8BC1B08700020DFF8B81B0870A6
:101690000320DFF8A81B087037E00100C9B21C293D
:1016A00011DAD0F10301E839DFF8942B1170B0F1B1
:1016B0001801DFF8902B1170D0F10300E838DFF843
:1016C0007C1B087021E00100C9B220290EDA00213C
:1016D000DFF86C2B1170D0F10301E439DFF8642BD3
:1016E00011701C38DFF8541B08700EE0B0F12001B7
:1016F000DFF84C2B11700021DFF8482B1170D0F16E
:101700000300E038DFF8341B087070472DE9F84318
:1017100004000D0016001F005FF0000821E04046A5
:10172000C0B2285C802151FA09F1084211D09DF81D
:10173000200000903B00DBB23200D2B24046C0B283
:101740004946C9B211EBC001C9B2200040B2FEF750
:10175000E6FE19F101094846C0B20828DFDB18F19E
:1017600001084046C0B2042802DA5FF00009F2E73F
:10177000BDE8F1832DE9F84FAAB004008B461500AF
:101780001F0002A8DFF8741DA02204F065FE0826E1
:1017900000210FE002A8F6B20A00D2B2825C521E0B
:1017A000082392FBF3F2521C0B00DBB2C05C00FB7F
:1017B0000266491C08002A00C0B2D2B29042E9D3A6
:1017C0000DF108082800C0B218F80000401E0221E0
:1017D00090FBF1F9B9EB07098DF80440349C6AE1FC
:1017E0004946C9B208225FF0800A2800C0B218F842
:1017F0000000401E082390FBF3F35B1C2800C0B2DE
:1018000018F80000401E5FF0020C90FBFCFC380052
:10181000C0B2BCEB000C3000C0B20CFB0303484666
:10182000C0B25FF0080C90FBFCF0C31818F803007E
:1018300091FBF2F302FB131152460A41104223D0EE
:101840004946C9B25846C0B241183C2014F00302C0
:101850000092C4F38103DBB2C4F30112D2B291FB54
:10186000F0FC00FB1C11C9B22800C0B218F800003F
:101870005FF0020C90FBFCF038189DF904C01CEBE3
:10188000000040B2FEF74BFE4946C9B208222800CC
:10189000C0B218F80000401E082390FBF3F35B1C55
:1018A0002800C0B218F800005FF0020C90FBFCFCAE
:1018B0003800C0B210EB0C0C3000C0B20CFB0303BC
:1018C0004846C0B25FF0080C90FBFCF0C31818F853
:1018D000030091FBF2F302FB131152460A4110423E
:1018E00024D04946C9B25846C0B241183C2014F031
:1018F00003020092C4F38103DBB2C4F30112D2B23B
:1019000091FBF0FC00FB1C11C9B22800C0B218F812
:101910000000401E5FF0020C90FBFCF0C01B9DF924
:1019200004C01CEB000040B2FEF7F9FD2800C0B275
:1019300018F80000401E022190FBF1F03900C9B2F6
:10194000411A08222800C0B218F80000401E0823DF
:1019500090FBF3FC1CF1010C2800C0B218F8003019
:101960005B1E4846C0B21B1A2800C0B218F800001F
:10197000401E5FF0020E90FBFEFE3800C0B2BEEBD0
:10198000000E08209EFBF0FE03FB0CEE3000C0B200
:1019900010EB0E0E18F80E0091FBF2F302FB131180
:1019A00052460A41104223D02800C0B218F8000065
:1019B000401E022190FBF1F03900C9B2411A58468D
:1019C000C0B241183C2014F003020092C4F381031A
:1019D000DBB2C4F30112D2B291FBF0FC00FB1C118C
:1019E000C9B29DF9040010EB090040B2FEF797FD63
:1019F0002800C0B218F80000022190FBF1F1380075
:101A0000C0B2411808222800C0B218F80000401ED9
:101A1000082390FBF3FC1CF1010C4B46DBB22800C1
:101A2000C0B218F800005FF0020E90FBFEFE380016
:101A3000C0B210EB0E0E08209EFBF0FE03FB0CEE76
:101A40003000C0B210EB0E0E18F80E0091FBF2F34E
:101A500002FB13115AFA01FA10EA0A0F29D02800E2
:101A6000C0B218F80000022190FBF1F13800C0B2BA
:101A700041185846C0B241183C2014F003020092AD
:101A8000C4F38103DBB2C4F30112D2B291FBF0FCC8
:101A900000FB1C11C9B22800C0B218F90000401E9A
:101AA000B0EB09009DF904C01CEB000040B2FEF74A
:101AB00036FD19F101092800C0B218F80000022112
:101AC00090FBF1F13800C0B241184846C0B28142E3
:101AD000BFF686AE2BB0BDE8F08F00002C000020D2
:101AE0002DE9FF4101A8DFF8501B91E81C0080E8B8
:101AF0001C00002500E06D1C2800C0B2062880F202
:101B0000438104F009FD0600002735E03000C0B233
:101B100000903B00DBB22A00D2B22800C0B2205CA9
:101B2000401C022190FBF1F1D1F13D01C4465FFA66
:101B30008CFC01A8AE465FFA8EFE7044807900FBF3
:101B40000C11C9B22800C0B2205CD0F11000C0B2A4
:101B5000FFF710FE18F101083C2001A92A00D2B2BB
:101B60001144897990FBF1F04146C9B28142CDDB45
:101B7000642004F07DFD7F1C01AC2800C0B2205C15
:101B8000401C022190FBF1F03900C9B2814202DA17
:101B90005FF00008E0E72800C0B2002803D028006A
:101BA000C0B2012846D1002736E03000C0B280081C
:101BB00000903B00DBB22A00D2B22800C0B2205C09
:101BC000401C022190FBF1F1D1F14201C4465FFAC1
:101BD0008CFC01A8AE465FFA8EFE7044807900FB53
:101BE0000C11C9B22800C0B2205CD0F10800C0B20C
:101BF000FFF7C0FD18F101083C2001A92A00D2B26C
:101C00001144897990FBF1F04146C9B28142CCDBA5
:101C1000642004F02DFD7F1C2800C0B2205C401C15
:101C2000022190FBF1F03900C9B2814202DA5FF083
:101C30000008E1E7002606E01020FFF77DFB3220D8
:101C400004F016FD761C3000C0B23C28F4DB002600
:101C500006E01020FFF742FA322004F009FD761C5E
:101C60003000C0B23C28F4DB002633E000200090B6
:101C70003300DBB22A00D2B22800C0B2205C401C84
:101C8000022190FBF1F1D1F13D01BC465FFA8CFCE1
:101C900001A8AE465FFA8EFE7044807900FB0C11FD
:101CA000C9B22800C0B2205CD0F11000C0B2FFF76A
:101CB00061FD7F1C3C2001A92A00D2B21144897920
:101CC00090FBF1F03900C9B28142CFDB642004F00F
:101CD000CFFC761C2800C0B2205C401C022190FB87
:101CE000F1F03100C9B2814201DA0027E2E72800B1
:101CF000C0B2002804D02800C0B201287FF4FBAE97
:101D0000002633E0002000903300DBB22A00D2B27C
:101D10002800C0B2205C401C022190FBF1F1D1F1FF
:101D20004201BC465FFA8CFC01A8AE465FFA8EFE0B
:101D30007044807900FB0C11C9B22800C0B2205C4D
:101D4000D0F10800C0B2FFF715FD7F1C3C2001A9AF
:101D50002A00D2B21144897990FBF1F03900C9B25E
:101D60008142CFDB642004F083FC761C2800C0B2E3
:101D7000205C401C022190FBF1F03100C9B281428D
:101D8000BFF6B9AE0027E1E7BDE8FF812DE9F843D2
:101D9000002400E0641C2000C0B202284BDA0025B9
:101DA00039E05FF00A084846C0B200903300DBB269
:101DB00000222900C9B208FB01F13A31A4465FFABA
:101DC0008CFC192000FB1C11C9B2E4B2E000C0B2C7
:101DD000FFF7D0FC3800C0B200903300DBB2002225
:101DE0002800C0B208FB00F8D8F13A082100C9B2B7
:101DF000232000FB11884146C9B2E4B2E000C0B222
:101E0000FFF7B8FC322004F033FC761C3000C0B27F
:101E10000328C6DB6D1C2800C0B22100C9B2D1F175
:101E200004018842B6DA04F077FB814604F074FBC3
:101E300007000026EAE7002406E01020FFF77CFAFE
:101E40001E2004F015FC641C2000C0B23C28F4DB0A
:101E5000002406E01020FFF741F91E2004F008FCE2
:101E6000641C2000C0B23C28F4DB002400E0641CA9
:101E70002000C0B2022823DA00251BE000200090D9
:101E8000D5F10203DBB200220A21052000FB04F099
:101E900001FB06013A31C9B2E4B2E000C0B2FFF77B
:101EA00069FC761C3000C0B20628E7DB322004F063
:101EB000DFFB6D1C2800C0B20328D8DA0026F1E74A
:101EC000002400E0641C2000C0B2022861DA002572
:101ED00000E06D1C2800C0B22100C9B2D1F104019C
:101EE0008842EFDA04F018FB060004F015FB070047
:101EF0005FF000083FE000221FE000225FF00A09C7
:101F00003000C0B200904346DBB2D2B22900C9B261
:101F100009FB01F13931A4465FFA8CFC182000FB63
:101F20001C11C9B2092000FB04F0C0B2FFF722FC6B
:101F30002000C0B20028DED101223800C0B20090DB
:101F40004346DBB2D2B22800C0B209FB00F9D9F196
:101F500039092100C9B2222000FB11994946C9B2B2
:101F6000092000FB04F0C0B2FFF704FC642004F079
:101F70007FFB18F101084046C0B22100C9B2D1F17F
:101F800004018842A5DA2000C0B20028B5D10122A0
:101F9000B4E7002405E0FEF706FE322004F068FBFB
:101FA000641C2000C0B2A028F5DB002405E0FEF789
:101FB0009AFE322004F05CFB641C2000C0B2A02812
:101FC000F5DB002400E0641C2000C0B202282BDAFC
:101FD00000251FE000200090D5F103031B1BDBB29E
:101FE000D4F10102D2B20A21062000FB04F001FB69
:101FF00006013931C9B2092000FB04F0C0B2FFF775
:10200000B9FB761C3000C0B20628E3DB642004F084
:102010002FFB6D1C2800C0B22100C9B2D1F1040110
:102020008842D0DA0026EDE7BDE8F1832DE9F841DA
:102030008FB0040005A8DFF8C81C282204F00CFAB1
:1020400000250BE004F068FA042190FBF1F201FB9B
:10205000120001A92A00D2B288546D1C2800C0B217
:102060000F28EFDB002515E004F056FA04222B00C0
:10207000DBB25FF0030C3900C9B20CFB031390FB19
:10208000F2F102FB1100F0547F1C3800C0B20328AB
:10209000EADB6D1C2800C0B205281DDA01AE29005C
:1020A000C9B203204143705C0028F2D101A92A0083
:1020B000D2B20320424301EB020040780028E8D16D
:1020C00001A92A00D2B20320424301EB020080782A
:1020D0000028DED10027D8E7002500E06D1C28008D
:1020E000C0B2022880F2A680002607E0DFF8140CB8
:1020F000FEF708FD322004F0BBFA761C3000C0B2B7
:102100000A28EBDA002006E00021DFF8F82B0300B4
:10211000DBB2D154401C0100C9B22E29F4DB0027E8
:1021200000E07F1C3800C0B20528DFDA5FF000084D
:102130004046C0B20C28F4DA4146C9B208224046F3
:10214000C0B2082390FBF3F33000C0B213EB40039E
:10215000A4465FFA8CFC122000FB0C3305A8C05C7F
:10216000802391FBF2FC02FB1C110B4118425ED054
:102170002800C0B200282DD04246D2B23900C9B2E0
:102180000C2000FB0121491C5FF03C0C01AA3B0024
:10219000DBB20320434302EB03008078009001AAE6
:1021A0003B00DBB20320434302EB0300437801AA68
:1021B000BE465FFA8EFE032000FB0EFE12F80E20D4
:1021C00091FBFCF00CFB1011C9B25FF0FF30FEF781
:1021D000A6F92CE04246D2B23900C9B20C2000FB6D
:1021E000012137315FF03C0C01AA3B00DBB2032038
:1021F000434302EB03008078009001AA3B00DBB26E
:102200000320434302EB0300437801AABE465FFA72
:102210008EFE032000FB0EFE12F80E2091FBFCF058
:102220000CFB1011C9B25FF0FF30FEF778F918F11E
:1022300001087DE710B0BDE8F081000050040020E7
:1022400051040020520400202DE9F04F97B003A85C
:10225000DFF8B41A502204F0FFF804F05DF904210D
:1022600090FBF1F201FB12008DF8050004F054F927
:10227000042190FBF1F201FB12008DF8040004F040
:102280004BF9042190FBF1F401FB140404F044F930
:10229000042190FBF1F501FB150504F03DF9042143
:1022A00090FBF1F601FB160604F036F9042190FBD1
:1022B000F1F701FB17075FF000083CE001224946F7
:1022C000C9B25FF0FF30FEF707FB824602224946A3
:1022D000C9B25FF0FF30FEF7FFFA83460422494699
:1022E000C9B25FF0FF30FEF7F7FA02004846C0B20D
:1022F000D0F13C003C215FFA8AFACDF800A05B46A1
:10230000DBB2D2B290FBF1FC01FB1C000100C9B2B0
:102310005FF0FF30FEF703F919F101094846C0B23A
:102320001E28CBDBDFF89C0CFEF7ECFB322004F020
:102330009FF918F101084046C0B20A284FDA002080
:1023400006E00021DFF87C2C0300DBB2D154401CF6
:102350000100C9B22E29F4DB00200CE003A9020021
:10236000D2B24346DBB212EB8302895C02AA0300BD
:10237000DBB2D154401C0100C9B20429EEDB2000BD
:10238000C0B200909DF804309DF8052002A95FF0CE
:10239000FF30FFF7BBF900200EE003A90200D2B224
:1023A0004346DBB212EB8302114491F8281002AAD3
:1023B0000300DBB2D154401C0100C9B20429ECDB9C
:1023C0003800C0B200903300DBB22A00D2B202A9BA
:1023D0005FF0FF30FFF79AF95FF000099EE717B052
:1023E000BDE8F08F2DE9F0478CB002A8DFF8D81BCC
:1023F000282204F031F804F08FF80421DFF8CC4BE8
:1024000090FBF1F201FB1200207004F085F804212A
:10241000DFF8BC5B90FBF1F201FB1200287004F0C6
:102420007BF80421DFF8AC6B90FBF1F201FB1200AA
:10243000307000273BE001224146C9B25FF0FF3017
:10244000FEF74AFA814602224146C9B25FF0FF30E8
:10245000FEF742FA824604224146C9B25FF0FF30DD
:10246000FEF73AFA02004046C0B2D0F13C003C21EF
:102470005FFA89F9CDF800905346DBB2D2B290FBF7
:10248000F1FC01FB1C000100C9B25FF0FF30FEF758
:1024900046F818F101084046C0B21E28CBDBDFF831
:1024A000240BFEF72FFB322004F0E2F87F1C3800EB
:1024B000C0B20A281EDA00200CE002A90200D2B243
:1024C0003B00DBB212EB8302895C01AA0300DBB2A2
:1024D000D154401C0100C9B20429EEDB30780090D1
:1024E0002B78227801A95FF0FF30FEF745FD5FF001
:1024F0000008D0E70CB0BDE8F0870000C46A00080F
:102500002DE9F84F8EB002A8DFF8CC1A302203F084
:10251000A3FF002400E0641C2000C0B2022880F267
:10252000878003F0F9FF0421DFF8A05A90FBF1F255
:1025300001FB1200287003F0EFFF0421DFF8906A1E
:1025400090FBF1F201FB1200307003F0E5FF042173
:10255000DFF8807A90FBF1F201FB120038705FF037
:1025600000083CE001224946C9B25FF0FF30FEF7A7
:10257000B3F9824602224946C9B25FF0FF30FEF746
:10258000ABF9834604224946C9B25FF0FF30FEF73B
:10259000A3F902004846C0B2D0F13C003C215FFAEA
:1025A0008AFACDF800A05B46DBB2D2B290FBF1FC18
:1025B00001FB1C000100C9B25FF0FF30FDF7AFFF67
:1025C00019F101094846C0B21E28CBDBDFF8F40937
:1025D000FEF798FA322004F04BF818F10108404653
:1025E000C0B2062897DA002112E002AA0B00DBB283
:1025F0004046C0B213EB8003A4465FFA8CFC18205F
:1026000000FB0C33D05C01AA0B00DBB2D054491C98
:102610000800C0B20428E8DB3878009033782A78C4
:1026200001A95FF0FF30FEF7A7FC5FF00009C9E7E2
:102630000FB0BDE8F08F0000D06F00082DE9F04129
:102640008AB002A8DFF89419202203F005FF0024C5
:1026500000E0641C2000C0B2022880F2DF80002568
:1026600038E001223100C9B25FF0FF30FEF734F9E3
:10267000070002223100C9B25FF0FF30FEF72CF9EB
:10268000804604223100C9B25FF0FF30FEF724F922
:102690003100C9B2D1F13C015FF03C0CFFB20097B0
:1026A0004346DBB20200D2B291FBFCF00CFB1011EE
:1026B000C9B25FF0FF30FDF732FF761C3000C0B2C8
:1026C0001E28CEDBDFF83C06FEF71CFA322003F0B2
:1026D000CFFF6D1C2800C0B20828BADA2800C0B2AB
:1026E00000281DD103F018FF042190FBF1F201FB3B
:1026F0001200DFF8EC18087003F00EFF042190FBC5
:10270000F1F201FB1200DFF8DC18087003F004FF9F
:10271000042190FBF1F201FB1200DFF8CC180870E5
:102720002800C0B204281DD103F0F6FE042190FB5E
:10273000F1F201FB1200DFF8B418087003F0ECFEB0
:10274000042190FBF1F201FB1200DFF8A4180870DD
:1027500003F0E2FE042190FBF1F201FB1200DFF82E
:1027600094180870002006E00021DFF89825030087
:10277000DBB2D154401C0100C9B22E29F4DB002089
:102780000CE002A90200D2B22B00DBB212EB8302F2
:10279000895C01AA0300DBB2D154401C0100C9B21C
:1027A0000429EEDBDFF8400800780090DFF83408F9
:1027B0000378DFF82C08027801A95FF0FF30FEF7FC
:1027C000A5FF002015E02900C9B2091D06E0290077
:1027D000C9B20429F7DB2900C9B2091F02AA030004
:1027E000DBB213EB8103D15C01AA0300DBB2D1544D
:1027F000401C0100C9B20429E9DBDFF8F8070078C2
:102800000090DFF8EC070378DFF8E007027801A911
:102810005FF0FF30FEF77AFF00264FE7002438E034
:1028200001222900C9B25FF0FF30FEF755F806001B
:1028300002222900C9B25FF0FF30FEF74DF8070011
:1028400004222900C9B25FF0FF30FEF745F802000C
:102850002800C0B2D0F13C003C21F6B200963B000B
:10286000DBB2D2B290FBF1F601FB16000100C9B257
:102870005FF0FF30FDF753FE6D1C2800C0B21E282C
:10288000CEDBDFF88004FEF73DF9322003F0F0FEE6
:10289000641C2000C0B2042831DA002006E00021C8
:1028A000DFF860240300DBB2D154401C0100C9B240
:1028B0002E29F4DB00200DE002A90200D2B2230091
:1028C000DBB212EB83021144097C01AA0300DBB2E4
:1028D000D154401C0100C9B20429EDDBDFF8140714
:1028E00000780090DFF808070378DFF80007027827
:1028F00001A95FF0FF30FEF709FF0025BDE70024C6
:1029000007E0DFF80004FEF7FDF8322003F0B0FE28
:10291000641C2000C0B20828F3DB0020DFF8D416C6
:102920000870DFF8CC160870DFF8C0160870DFF802
:10293000B8160870DFF8AC160870DFF8A416087037
:102940000AB0BDE8F0812DE9F04788B002A8DFF8B1
:10295000B41B182203F080FD03F0DEFD0421DFF834
:102960006C4690FBF1F201FB1200207003F0D4FDE5
:102970000421DFF85C5690FBF1F201FB1200287095
:1029800003F0CAFD0421DFF84C6690FBF1F201FB75
:102990001200307000273BE001224146C9B25FF0CF
:1029A000FF30FDF799FF814602224146C9B25FF030
:1029B000FF30FDF791FF824604224146C9B25FF025
:1029C000FF30FDF789FF02004046C0B2D0F13C0065
:1029D0003C215FFA89F9CDF800905346DBB2D2B2C0
:1029E00090FBF1FC01FB1C000100C9B25FF0FF305D
:1029F000FDF795FD18F101084046C0B21E28CBDB5B
:102A0000DFF8C005FEF77EF8322003F031FE7F1CB0
:102A10003800C0B206282BDA002006E00021DFF8DB
:102A2000A4250300DBB2D154401C0100C9B22E29F9
:102A3000F4DB00200CE002A90200D2B23B00DBB2C2
:102A400012EB8302895C01AA0300DBB2D154401C63
:102A50000100C9B20429EEDB307800902B7822788F
:102A600001A95FF0FF30FEF751FE5FF00008C3E7F9
:102A700008B0BDE8F087F8B594B002A8DFF8881A6E
:102A8000482203F0E9FC002437E001222900C9B202
:102A90005FF0FF30FDF720FF060002222900C9B2D7
:102AA0005FF0FF30FDF718FF070004222900C9B2CC
:102AB0005FF0FF30FDF710FF2900C9B2D1F13C01F2
:102AC0005FF03C0CF6B200963B00DBB20200D2B2E3
:102AD00091FBFCF00CFB1011C9B25FF0FF30FDF769
:102AE0001EFD6D1C2800C0B21E28CEDB8548FEF7F7
:102AF00009F8322003F0BCFD641C2000C0B212288B
:102B000080F2FB802000C0B200281DD103F004FD3C
:102B1000042190FBF1F201FB1200DFF8C81C0870E1
:102B200003F0FAFC042190FBF1F201FB1200DFF844
:102B3000B81C087003F0F0FC042190FBF1F201FBDB
:102B40001200DFF8A81C08702000C0B206281DD1B2
:102B500003F0E2FC042190FBF1F201FB1200DFF82C
:102B6000901C087003F0D8FC042190FBF1F201FBEB
:102B70001200DFF8801C087003F0CEFC042190FBEB
:102B8000F1F201FB1200DFF8701C08702000C0B2E7
:102B90000C281DD103F0C0FC042190FBF1F201FBD5
:102BA0001200DFF8581C087003F0B6FC042190FBFB
:102BB000F1F201FB1200DFF8481C087003F0ACFCD6
:102BC000042190FBF1F201FB1200DFF8381C0870C1
:102BD000002005E000214B4A0300DBB2D154401C29
:102BE0000100C9B22E29F5DB002011E02100C9B295
:102BF00012220300DBB291FBF2F502FB151113EB7D
:102C0000810302A9C95C01AA0300DBB2D154401CB4
:102C10000100C9B20429E9DBDFF8D00B007800908D
:102C2000DFF8C40B0378DFF8BC0B027801A95FF072
:102C3000FF30FEF76BFD00201AE02100C9B20C3115
:102C400006E02100C9B20629F7DB2100C9B2891FBD
:102C500012220300DBB291FBF2F502FB151113EB1C
:102C6000810302A9C95C01AA0300DBB2D154401C54
:102C70000100C9B20429E4DBDFF87C0B0078009086
:102C8000DFF8700B0378DFF8680B027801A95FF0BA
:102C9000FF30FEF73BFD00201AE02100C9B2891D7C
:102CA00006E02100C9B20C29F7DB2100C9B20C39BA
:102CB00012220300DBB291FBF2F502FB151113EBBC
:102CC000810302A9C95C01AA0300DBB2D154401CF4
:102CD0000100C9B20429E4DBDFF8280B007800907A
:102CE000DFF81C0B0378DFF8140B027801A95FF002
:102CF000FF30FEF70BFD0025F4E615B0F0BD000037
:102D0000546E000808040020646C0008F8B592B006
:102D100002A8DFF8E81C402203F09EFB002437E005
:102D200001222900C9B25FF0FF30FDF7D5FD060092
:102D300002222900C9B25FF0FF30FDF7CDFD070088
:102D400004222900C9B25FF0FF30FDF7C5FD29005C
:102D5000C9B2D1F13C015FF03C0CF6B200963B00E9
:102D6000DBB20200D2B291FBFCF00CFB1011C9B235
:102D70005FF0FF30FDF7D3FB6D1C2800C0B21E28AA
:102D8000CEDB9048FDF7BEFE322003F071FC641CE0
:102D90002000C0B2102880F213812000C0B20028A9
:102DA00007D02000C0B2102803D02000C0B22028D5
:102DB0001DD103F0B1FB042190FBF1F201FB1200E5
:102DC000DFF83C1C087003F0A7FB042190FBF1F234
:102DD00001FB1200DFF82C1C087003F09DFB04219E
:102DE00090FBF1F201FB1200DFF81C1C08702000C0
:102DF000C0B2062807D02000C0B2162803D0200099
:102E0000C0B226281DD103F087FB042190FBF1F20C
:102E100001FB1200DFF8F41B087003F07DFB0421B6
:102E200090FBF1F201FB1200DFF8E41B087003F0E5
:102E300073FB042190FBF1F201FB1200DFF8D41BBD
:102E400008702000C0B20C2807D02000C0B21C2897
:102E500003D02000C0B22C281DD103F05DFB04215B
:102E600090FBF1F201FB1200DFF8AC1B087003F0DD
:102E700053FB042190FBF1F201FB1200DFF89C1BD5
:102E8000087003F049FB042190FBF1F201FB1200F2
:102E9000DFF88C1B0870002005E00021494A030080
:102EA000DBB2D154401C0100C9B22E29F5DB002051
:102EB00011E02100C9B210220300DBB291FBF2F550
:102EC00002FB151113EB810302A9C95C01AA0300DF
:102ED000DBB2D154401C0100C9B20429E9DBDFF8A0
:102EE000280B00780090DFF81C0B0378DFF8100B3C
:102EF000027801A95FF0FF30FEF708FC00201AE01D
:102F00002100C9B20A3106E02100C9B20629F7DB67
:102F10002100C9B2891F10220300DBB291FBF2F538
:102F200002FB151113EB810302A9C95C01AA03007E
:102F3000DBB2D154401C0100C9B20429E4DBDFF844
:102F4000D40A00780090DFF8C80A0378DFF8BC0ADA
:102F5000027801A95FF0FF30FEF7D8FB00201AE0ED
:102F60002100C9B2091D06E02100C9B20C29F7DB16
:102F70002100C9B20C3910220300DBB291FBF2F53B
:102F800002FB151113EB810302A9C95C01AA03001E
:102F9000DBB2D154401C0100C9B20429E4DBDFF8E4
:102FA000800A00780090DFF8740A0378DFF8680A76
:102FB000027801A95FF0FF30FEF7A8FB0025DCE6F0
:102FC00013B0F0BD080400207C6E000850040020FF
:102FD0005104002052040020F86D0008F06E000833
:102FE00053040020540400205504002056040020FF
:102FF00057040020580400202DE9F04F91B002A89A
:10300000DFF8141D3C2203F027FA03F085FA0421AF
:10301000DFF8084D90FBF1F201FB1200207003F085
:103020007BFA0421DFF8F85C90FBF1F201FB12005F
:10303000287003F071FA0421DFF8E86C90FBF1F2DC
:1030400001FB1200307000273BE001224146C9B26B
:103050005FF0FF30FDF740FC814602224146C9B2D5
:103060005FF0FF30FDF738FC824604224146C9B2CA
:103070005FF0FF30FDF730FC4146C9B2D1F13C01B1
:103080005FF03C0C5FFA89F9CDF800905346DBB253
:103090000200D2B291FBFCF00CFB1011C9B25FF040
:1030A000FF30FDF73CFA18F101084046C0B21E2877
:1030B000CBDBDFF8180DFDF725FD322003F0D8FA41
:1030C0007F1C3800C0B2052872DA002006E000211B
:1030D000DFF8F82C0300DBB2D154401C0100C9B268
:1030E0002E29F4DB00200CE002A90200D2B23B0042
:1030F000DBB212EB8302895C01AA0300DBB2D1547C
:10310000401C0100C9B20429EEDB307800902B7816
:10311000227801A95FF0FF30FEF7F8FA00200EE0F8
:1031200002A90200D2B23B00DBB212EB83021144CF
:1031300091F8281001AA0300DBB2D154401C010011
:10314000C9B20429ECDBDFF8880C00780090DFF8C6
:10315000840C0378DFF8800C027801A95FF0FF305F
:10316000FEF7D4FA00200DE002A90200D2B23B0023
:10317000DBB212EB83021144097D01AA0300DBB22A
:10318000D154401C0100C9B20429EDDBDFF84C0C1E
:1031900000780090DFF8480C0378DFF8480C0278DC
:1031A00001A95FF0FF30FEF7B1FA5FF000087CE79D
:1031B00003F0B2F9042190FBF1F201FB1200DFF8F9
:1031C000181C087003F0A8F9042190FBF1F201FB30
:1031D0001200DFF8001C087003F09EF90421DFF8EC
:1031E000F07B90FBF1F201FB120038705FF00008F9
:1031F0003CE001224946C9B25FF0FF30FDF76CFBAD
:10320000824602224946C9B25FF0FF30FDF764FBF7
:10321000834604224946C9B25FF0FF30FDF75CFBEC
:103220004946C9B2D1F13C015FF03C0C5FFA8AFA21
:10323000CDF800A05B46DBB20200D2B291FBFCF0FD
:103240000CFB1011C9B25FF0FF30FDF768F919F1FE
:1032500001094846C0B21E28CBDBDFF8700BFDF732
:1032600051FC322003F004FA18F101084046C0B2C4
:10327000052870DA002006E00021DFF8502B03005B
:10328000DBB2D154401C0100C9B22E29F4DB00206E
:103290000DE002A90200D2B24346DBB212EB830278
:1032A0001144097D01AA0300DBB2D154401C010086
:1032B000C9B20429EDDB307800902B78227801A97F
:1032C0005FF0FF30FEF722FA00200CE002A90200B6
:1032D000D2B24346DBB212EB8302895C01AA03003F
:1032E000DBB2D154401C0100C9B20429EEDB3878AE
:1032F0000090DFF8E00A0378DFF8DC0A027801A921
:103300005FF0FF30FEF702FA00200EE002A9020093
:10331000D2B24346DBB212EB8302114491F828107B
:1033200001AA0300DBB2D154401C0100C9B2042938
:10333000ECDBDFF8A80A00780090DFF8A40A037835
:10334000DFF8A00A027801A95FF0FF30FEF7DEF98E
:103350005FF000097DE703F0DFF8042190FBF1F254
:1033600001FB1200DFF87C1A087003F0D5F8042185
:1033700090FBF1F201FB1200DFF8641A087003F011
:10338000CBF8042190FBF1F201FB1200DFF84C1A9C
:1033900008705FF000083CE001224946C9B25FF0C6
:1033A000FF30FDF799FA824602224946C9B25FF022
:1033B000FF30FDF791FA834604224946C9B25FF017
:1033C000FF30FDF789FA02004846C0B2D0F13C0058
:1033D0003C215FFA8AFACDF800A05B46DBB2D2B29C
:1033E00090FBF1FC01FB1C000100C9B25FF0FF3053
:1033F000FDF795F819F101094846C0B21E28CBDB4C
:10340000DFF8C809FDF77EFB322003F031F918F12F
:1034100001084046C0B2052870DA002006E000210D
:10342000DFF8A8290300DBB2D154401C0100C9B267
:103430002E29F4DB00200EE002A90200D2B243469E
:10344000DBB212EB8302114491F8281001AA0300A9
:10345000DBB2D154401C0100C9B20429ECDB307846
:1034600000902B78227801A95FF0FF30FEF74EF92B
:1034700000200DE002A90200D2B24346DBB212EBFB
:1034800083021144097D01AA0300DBB2D154401C20
:103490000100C9B20429EDDB38780090DFF8340967
:1034A0000378DFF83409027801A95FF0FF30FEF7F6
:1034B0002DF900200CE002A90200D2B24346DBB293
:1034C00012EB8302895C01AA0300DBB2D154401CD9
:1034D0000100C9B20429EEDBDFF800090078009092
:1034E000DFF8FC080378DFF8FC08027801A95FF038
:1034F000FF30FEF70BF95FF000097DE711B0BDE882
:10350000F08F0000686F0008B46C00082DE9F84FD8
:1035100092B002A8DFF8D018402202F09DFF02F01E
:10352000FBFF0421DFF8C44890FBF1F201FB12001D
:10353000207002F0F1FF0421DFF8B45890FBF1F2A3
:1035400001FB1200287002F0E7FF0421DFF8A468F5
:1035500090FBF1F201FB1200307000273BE00122EA
:103560004146C9B25FF0FF30FDF7B6F9814602224D
:103570004146C9B25FF0FF30FDF7AEF98246042242
:103580004146C9B25FF0FF30FDF7A6F94146C9B226
:10359000D1F13C015FF03C0C5FFA89F9CDF8009065
:1035A0005346DBB20200D2B291FBFCF00CFB1011CF
:1035B000C9B25FF0FF30FCF7B2FF18F101084046D6
:1035C000C0B21E28CBDBDFF80408FDF79BFA3220DF
:1035D00003F04EF87F1C3800C0B208284FDA0020F4
:1035E00006E00021DFF8E4270300DBB2D154401CE1
:1035F0000100C9B22E29F4DB00200CE002A9020070
:10360000D2B23B00DBB212EB8302895C01AA030059
:10361000DBB2D154401C0100C9B20429EEDB307882
:1036200000902B78227801A95FF0FF30FEF76EF84A
:1036300000200EE002A90200D2B23B00DBB212EB86
:103640008302114491F8201001AA0300DBB2D15487
:10365000401C0100C9B20429ECDBDFF8080900783E
:103660000090DFF804090378DFF80009027801A967
:103670005FF0FF30FEF74AF85FF000089FE702F0C6
:103680004BFF042190FBF1F201FB1200DFF8DC1884
:10369000087002F041FF042190FBF1F201FB1200DF
:1036A000DFF8C418087002F037FF0421DFF8B4789F
:1036B00090FBF1F201FB120038705FF000083CE073
:1036C00001224946C9B25FF0FF30FDF705F9824695
:1036D00002224946C9B25FF0FF30FDF7FDF883468C
:1036E00004224946C9B25FF0FF30FDF7F5F8020049
:1036F0004846C0B2D0F13C003C215FFA8AFACDF8CE
:1037000000A05B46DBB2D2B290FBF1FC01FB1C00D7
:103710000100C9B25FF0FF30FCF701FF19F10109A8
:103720004846C0B21E28CBDBDFF8A006FDF7EAF959
:10373000322002F09DFF18F101084046C0B208286F
:103740004DDA002006E00021DFF880260300DBB21E
:10375000D154401C0100C9B22E29F4DB00200EE038
:1037600002A90200D2B24346DBB212EB830211443B
:1037700091F8201001AA0300DBB2D154401C0100D3
:10378000C9B20429ECDB307800902B78227801A9AB
:103790005FF0FF30FDF7BAFF00200CE002A9020045
:1037A000D2B24346DBB212EB8302895C01AA03006A
:1037B000DBB2D154401C0100C9B20429EEDB3878D9
:1037C0000090DFF8A4070378DFF8A007027801A9CA
:1037D0005FF0FF30FDF79AFF5FF00009A0E713B03C
:1037E000BDE8F08F590400205A0400205B0400203B
:1037F0005C0400205D0400205E0400205F040020C3
:10380000600400206104002030B587B003A8DFF811
:10381000C418102202F020FE00241AE02000C0B2DA
:10382000FDF7D0FEDFF8B00800780090DFF8AC08B4
:103830000378DFF8AC08027801A95FF0FF30FDF7EC
:10384000DFFBDFF88805FDF75DF9322002F010FF9D
:10385000641C2000C0B210281CDA00200100C9B28C
:103860000829DBDA2100C9B2052909DB03A9020016
:10387000D2B21144097A01AA0300DBB2D15407E0A5
:1038800003A90200D2B2895C01AA0300DBB2D154C1
:10389000401CE3E7002403E0322002F0E9FE641C50
:1038A0002000C0B2B42841DA00251EE02900C9B2C8
:1038B0002000C0B24118242091FBF0F200FB12114D
:1038C0000800C0B2FDF77EFEDFF80C08007800901B
:1038D000DFF808080378DFF80808027801A9D5F1B5
:1038E0000F0040B2FDF78CFB6D1C2800C0B2102801
:1038F000D2DA00200100C9B20829D7DA2900C9B2FA
:10390000052909DB03A90200D2B21144097A01AAF0
:103910000300DBB2D15407E003A90200D2B2895CF4
:1039200001AA0300DBB2D154401CE3E7002406E007
:103930001020FDF701FD322002F09AFE641C2000E9
:10394000C0B2F028F4DB002403E0322002F090FE45
:10395000641C2000C0B2B42840DA00251DE0290014
:10396000C9B22000C0B24118242091FBF0F200FB44
:1039700012110800C0B2FDF725FEDFF85C070078E1
:103980000090DFF858070378DFF85407027801A9A0
:10399000280040B2FDF734FB6D1C2800C0B210288F
:1039A000D3DA00200100C9B20829D8DA2900C9B247
:1039B0000B2908DB03A90200D2B2895C01AA03002B
:1039C000DBB2D15408E003A90200D2B21144097A53
:1039D00001AA0300DBB2D154401CE3E7002406E057
:1039E0001020FDF77BFB322002F042FE641C200019
:1039F000C0B2F028F4DB07B030BD0000FC6C00085A
:103A00006204002063040020640400206504002098
:103A10006604002067040020680400206904002078
:103A20006A0400202DE9F843A2B0040002A8DFF8E0
:103A3000B416802202F010FD002537E0012231008B
:103A4000C9B25FF0FF30FCF747FF070002223100E8
:103A5000C9B25FF0FF30FCF73FFF8046042231001F
:103A6000C9B25FF0FF30FCF737FF3100C9B2D1F1C6
:103A70003C015FF03C0CFFB200974346DBB2020012
:103A8000D2B291FBFCF00CFB1011C9B25FF0FF3019
:103A9000FCF745FD761C3000C0B21E28CEDBCB48BB
:103AA000FDF730F8322002F0E3FD6D1C2800C0B2B3
:103AB00010282CDA002111E002AA0B00DBB228004A
:103AC000C0B213EB80032600F6B2402000FB0633A1
:103AD000D05C01AA0B00DBB2D054491C0800C0B274
:103AE0000428E9DB2800C0B2FDF76CFDDFF8E8052B
:103AF00000780090DFF8E4050378DFF8E405027849
:103B000001A95FF0FF30FDF737FA0026C3E7002573
:103B100003E0322002F0ACFD6D1C2800C0B2B428D6
:103B200077DA002637E001223900C9B2D6F10E005B
:103B300040B2FCF7D1FE804602223900C9B2D6F16C
:103B40000E0040B2FCF7C8FE814604223900C9B21B
:103B5000D6F10E0040B2FCF7BFFE3900C9B2D1F178
:103B60003C015FF03C0C5FFA88F8CDF800804B46D2
:103B7000DBB20200D2B291FBFCF00CFB1011C9B217
:103B8000D6F10E0040B2FCF7CAFC7F1C3800C0B270
:103B90001E28C8DB761C3000C0B20F28B9DA00211D
:103BA00013E002AA0B00DBB23000C0B213EB8003BB
:103BB0002700FFB2402000FB073302EB030000792F
:103BC00001AA0B00DBB2D054491C0800C0B2042883
:103BD000E7DB3100C9B22800C0B24118242091FBB4
:103BE000F0F200FB12110800C0B2FDF7EBFCDFF8A9
:103BF000E80400780090DFF8E4040378DFF8E004DC
:103C0000027801A9D6F10E0040B2FDF7B5F9002700
:103C1000BCE7002503E0322002F02AFD6D1C2800DD
:103C2000C0B2B42874DA002633E001223900C9B2E8
:103C3000300040B2FCF750FE804602223900C9B283
:103C4000300040B2FCF748FE814604223900C9B278
:103C5000300040B2FCF740FE02003800C0B2D0F1A4
:103C60003C003C215FFA88F8CDF800804B46DBB27F
:103C7000D2B290FBF1FC01FB1C000100C9B2300084
:103C800040B2FCF74CFC7F1C3800C0B21E28CCDBD5
:103C9000761C3000C0B20F28BDDA002115E002AA60
:103CA0000B00DBB23000C0B2404213EB80032700B0
:103CB000FFB2402000FB073302EB030090F83C000A
:103CC00001AA0B00DBB2D054491C0800C0B2042882
:103CD000E5DB3100C9B22800C0B24118242091FBB5
:103CE000F0F200FB12110800C0B2FDF76BFCDFF828
:103CF000E80300780090DFF8E4030378DFF8E003DE
:103D0000027801A9300040B2FDF736F90027BBE781
:103D100023B0BDE8F0830000BC6D00086B040020F8
:103D20006C0400206D04002038B500241BE0DFF88F
:103D3000A80300780090DFF8A4030378DFF8A0035D
:103D400002782900C9B25FF0FF30FCF7E8FB6D1C78
:103D50002800C0B23C28EADB1C48FCF7D3FE322026
:103D600002F086FC641C2000C0B2242805DA200082
:103D7000C0B2FDF727FC0025EAE700241BE0DFF8CE
:103D8000580300780090DFF854030378DFF85003FD
:103D900002782900C9B25FF0FF30FCF7C0FB6D1C50
:103DA0002800C0B23C28EADB0848FCF752FF32206A
:103DB00002F05EFC641C2000C0B2242805DA20005A
:103DC000C0B2FDF7FFFB0025EAE731BD0804002083
:103DD000700400206F0400206E0400207304002093
:103DE00072040020710400203C6D0008740400205F
:103DF00075040020760400202DE9F84187B003A85F
:103E0000DFF8581B102202F027FB02F085FB04218B
:103E1000B34C90FBF1F201FB1200207002F07CFB2E
:103E20000421AE4D90FBF1F201FB1200287002F06C
:103E300073FB0421A84E90FBF1F201FB12003070DD
:103E4000002005E0FF2101AA0300DBB2D154401C91
:103E50000100C9B20829F5DB307800902B78227870
:103E600001A95FF0FF30FDF7CBF8DFF8E876380006
:103E7000FCF7EFFE192002F0FBFB002009E003A98C
:103E80000200D2B21144097A01AA0300DBB2D15474
:103E9000401C0100C9B20829F1DB307800902B7872
:103EA000227801A95FF0FF30FDF7AAF85FF0000863
:103EB00007E03800FCF7CDFE192002F0D9FB18F11D
:103EC00001084046C0B20828F3DB002008E003A93F
:103ED0000200D2B2895C01AA0300DBB2D154401CBB
:103EE0000100C9B20829F2DB307800902B782278E3
:103EF00001A95FF0FF30FDF783F85FF0000807E0ED
:103F00003800FCF7A6FE192002F0B2FB18F10108F8
:103F10004046C0B20528F3DB002005E0002101AADD
:103F20000300DBB2D154401C0100C9B20829F5DB03
:103F3000307800902B78227801A95FF0FF30FDF7F0
:103F40005FF8002406E03800FCF783FE192002F039
:103F50008FFB641C2000C0B21028F4DB08B0BDE861
:103F6000F08100007904002078040020770400200C
:103F7000F0B587B003A8DFF8341B102202F06CFA0A
:103F800002F0CAFA0421564C90FBF1F201FB120038
:103F9000207002F0C1FA0421504D90FBF1F201FBB8
:103FA0001200287002F0B8FA04214B4E90FBF1F297
:103FB00001FB12003070002008E003A90200D2B219
:103FC000895C01AA0300DBB2D154401C0100C9B2D4
:103FD0000829F2DB307800902B78227801A95FF075
:103FE000FF30FDF70DF8002707E0DFF86805FCF764
:103FF00089FD192002F03CFB7F1C3800C0B2052867
:10400000F3DB002009E003A90200D2B21144097ACF
:1040100001AA0300DBB2D154401C0100C9B2082937
:10402000F1DB307800902B78227801A95FF0FF3027
:10403000FCF7E6FF002707E0DFF81805FCF762FD54
:10404000192002F015FB7F1C3800C0B20828F3DBF2
:10405000002005E0FF2101AA0300DBB2D154401C7F
:104060000100C9B20829F5DB307800902B7822785E
:1040700001A95FF0FF30FCF7C3FFDFF8D874380008
:10408000FCF740FD192002F0F3FA002005E00021C2
:1040900001AA0300DBB2D154401C0100C9B20829B7
:1040A000F5DB307800902B78227801A95FF0FF30A3
:1040B000FCF7A6FF002406E03800FCF723FD1920DA
:1040C00002F0D6FA641C2000C0B21028F4DB07B05E
:1040D000F0BD0000806F0008520400205104002051
:1040E00050040020646B00082DE9F843002400E030
:1040F000641C2000C0B2062880F22A82002500E05D
:104100006D1C2800C0B2032880F2DD8100263AE051
:1041100001223900C9B25FF0FF30FCF7DDFB8046B9
:1041200002223900C9B25FF0FF30FCF7D5FB8146AF
:1041300004223900C9B25FF0FF30FCF7CDFB02006A
:104140003800C0B2D0F13C003C215FFA88F8CDF8CD
:1041500000804B46DBB2D2B290FBF1FC01FB1C00AD
:104160000100C9B25FF0FF30FCF7D9F97F1C3800BD
:10417000C0B21E28CCDBDFF8DC03FCF7C3FC19203F
:1041800002F076FA761C3000C0B20928B8DA5FF087
:10419000FF30FCF7FBFD2800C0B2002803D120004F
:1041A000C0B200280FD02800C0B2012803D12000DF
:1041B000C0B2012807D02800C0B2022832D12000A6
:1041C000C0B202282ED13000C0B203280ADA300073
:1041D000C0B200900023002200215FF0FF30FCF706
:1041E0009EF96EE13000C0B2C01E03280AD203203F
:1041F00000900023F21ED2B200215FF0FF30FCF7E6
:104200008EF95EE13000C0B20628C0F25A81032068
:104210000090B31FDBB2032200215FF0FF30FCF7F8
:104220007EF94EE12800C0B2012803D12000C0B2BF
:1042300000280FD02800C0B2022803D12000C0B24D
:10424000012807D02800C0B2002832D12000C0B217
:1042500002282ED13000C0B203280ADA00200090D4
:1042600000233200D2B200215FF0FF30FCF757F993
:1042700027E13000C0B2C01E03280AD2F01EC0B22F
:1042800000900023032200215FF0FF30FCF747F984
:1042900017E13000C0B20628C0F21381032000905D
:1042A000B31FDBB2032200215FF0FF30FCF737F9C8
:1042B00007E12800C0B2022803D12000C0B20028C4
:1042C0000FD02800C0B2002803D12000C0B20128BE
:1042D00007D02800C0B2012832D12000C0B2022885
:1042E0002ED13000C0B203280ADA0020009033003B
:1042F000DBB2002200215FF0FF30FCF710F9E0E0B4
:104300003000C0B2C01E03280AD200200090032350
:10431000F21ED2B200215FF0FF30FCF700F9D0E0CE
:104320003000C0B20628C0F2CC80B01FC0B20090EE
:104330000323032200215FF0FF30FCF7F0F8C0E018
:104340002800C0B2002803D12000C0B203280FD03B
:104350002800C0B2012803D12000C0B2042807D031
:104360002800C0B202282CD12000C0B2052828D1D4
:104370003000C0B2062814DA3000C0B2022190FB2F
:10438000F1F0C0B2009000233000C0B2022190FBD7
:10439000F1F00200D2B200215FF0FF30FCF7BFF86D
:1043A0008FE03000C0B20628C0F28B80032000905E
:1043B000B31FDBB2032200215FF0FF30FCF7AFF840
:1043C0007FE02800C0B2012803D12000C0B203283A
:1043D0000FD02800C0B2022803D12000C0B20428A8
:1043E00007D02800C0B200282BD12000C0B2052879
:1043F00027D13000C0B2062814DA3000C0B2022142
:1044000090FBF1F0C0B200903000C0B2022190FBEE
:10441000F1F00300DBB2002200215FF0FF30FCF777
:104420007EF84EE03000C0B206284ADB0320009040
:104430000323B21FD2B200215FF0FF30FCF76FF808
:104440003FE02800C0B2022803D12000C0B20328F8
:104450000FD02800C0B2002803D12000C0B2042829
:1044600007D02800C0B201282BD12000C0B20528F7
:1044700027D13000C0B2062815DA002000903000A5
:10448000C0B2022190FBF1F00300DBB23000C0B2F9
:10449000022190FBF1F00200D2B200215FF0FF3068
:1044A000FCF73DF80DE03000C0B2062809DBB01F74
:1044B000C0B200900323032200215FF0FF30FCF71D
:1044C0002EF8002753E6002537E001223100C9B25B
:1044D0005FF0FF30FCF700FA070002223100C9B29A
:1044E0005FF0FF30FCF7F8F9804604223100C9B2D2
:1044F0005FF0FF30FCF7F0F93100C9B2D1F13C01B7
:104500005FF03C0CFFB200974346DBB20200D2B230
:1045100091FBFCF00CFB1011C9B25FF0FF30FBF710
:10452000FEFF761C3000C0B21E28CEDB0948FCF727
:10453000E9FA192002F09CF86D1C2800C0B210287E
:10454000BFF6D6AD5FF0FF30FCF720FC0026E9E7B0
:10455000BDE8F183080400202DE9FC41002415E0AA
:104560003878009033782A782000C0B24146C9B22A
:1045700011EB8001C9B25FF0FF30FBF7D0FF18F1FB
:1045800001084046C0B20328EADB641C2000C0B228
:10459000042820DA01F0C0FF0421DFF83C5A90FB28
:1045A000F1F201FB1200287001F0B6FF0421DFF8E0
:1045B0002C6A90FBF1F201FB1200307001F0ACFFAD
:1045C0000421DFF81C7A90FBF1F201FB1200387035
:1045D0005FF00008D5E700242AE04046C0B2210081
:1045E000C9B210EB41003C213A78009233782A7826
:1045F00090FBF1FC01FB1C000100C9B25FF0FF3031
:10460000FBF78DFF18F101084046C0B23C28E4DBFF
:10461000DFF8B80CFCF776FA5FF0FF30FCF78CFEA1
:104620005FF0FF30FCF788FE192002F021F8641CCF
:104630002000C0B2F02832DA01F06EFF0221DFF86C
:10464000985990FBF1F201FB1200287001F064FF11
:104650000221DFF8886990FBF1F201FB1200307053
:1046600001F05AFF0221DFF8787990FBF1F201FBAB
:10467000120038702000C0B2082190FBF1F201FB5B
:1046800012000028C4D1297830780143C9B200292A
:1046900002D138780028BBD05FF00C08B4E7BDE841
:1046A000F3812DE9FC41002417E03878009033783D
:1046B0002A782100C9B25FF00F0C4046C0B20CFB53
:1046C0000101C9B25FF0FF30FBF729FF18F10108C3
:1046D0004046C0B20C28E8DB641C2000C0B20428AD
:1046E00029DA01F019FF0421DFF8EC5890FBF1F210
:1046F00001FB1200287001F00FFF0421DFF8DC68D5
:1047000090FBF1F201FB1200307001F005FF042173
:10471000DFF8CC7890FBF1F201FB120038702978B9
:1047200030780143C9B2002902D138780028D3D0AB
:104730005FF00008CCE700240FE0DFF8900BFCF7F7
:10474000E1F95FF0FF30FCF7F7FD5FF0FF30FCF7B9
:10475000F3FD192001F08CFF641C2000C0B2F0288A
:10476000EBDB00240FE0DFF8640BFCF7CBF95FF024
:10477000FF30FCF7B3FC5FF0FF30FCF7AFFC192013
:1047800001F076FF641C2000C0B2F028EBDBBDE82E
:10479000F3812DE9F04792B002A8DFF8341B4022E4
:1047A00001F05AFE01F0B8FE0421DFF82C4890FB1E
:1047B000F1F201FB1200207001F0AEFE0421DFF8DF
:1047C0001C5890FBF1F201FB1200287001F0A4FECE
:1047D0000421DFF80C6890FBF1F201FB120030704D
:1047E000002733E001224146C9B25FF0FF30FCF7F9
:1047F00073F8814602224146C9B25FF0FF30FCF7F0
:104800006BF8824604224146C9B25FF0FF30FCF7E4
:1048100063F85FFA89F9CDF800905346DBB20200E5
:10482000D2B2D8F13B01C9B25FF0FF30FBF777FE9F
:1048300018F101084046C0B21E28D3DBDFF88C0A0D
:10484000FCF760F9192001F013FF7F1C3800C0B29B
:10485000102880F27F8000200CE002A93A00D2B23A
:104860000300DBB213EB8203C95C01AA0300DBB2D5
:10487000D154401C0100C9B20429EEDB307800900D
:104880002B78227801A95FF0FF30FCF775FB380028
:10489000C0B2092803D03800C0B20A2823D120783A
:1048A000009033782A7800215FF0FF30FBF737FE65
:1048B0002078009033782A780E215FF0FF30FBF7E4
:1048C0002EFE2078009033782A780F215FF0FF3099
:1048D000FBF725FE2078009033782A781D215FF0C1
:1048E000FF30FBF71CFE3800C0B20A280BD038009E
:1048F000C0B20B2807D03800C0B20C2803D0380053
:10490000C0B20D2823D12078009033782A78012175
:104910005FF0FF30FBF703FE2078009033782A78B1
:104920000D215FF0FF30FBF7FAFD2078009033781F
:104930002A7810215FF0FF30FBF7F1FD207800901E
:1049400033782A781C215FF0FF30FBF7E8FD5FF039
:1049500000086FE712B0BDE8F0870000906F000814
:104960002DE9F84F01F0D8FD0421DFF86C4690FBEB
:10497000F1F201FB1200207001F0CEFD0421DFF8FE
:104980005C5690FBF1F201FB1200287001F0C4FDAF
:104990000421DFF84C6690FBF1F201FB120030704D
:1049A000002707E0DFF82409FCF7ACF8322001F01B
:1049B0005FFE7F1C3800C0B2102874DA01F0ACFD35
:1049C000042190FBF1F801FB180801F0A5FD04217A
:1049D00090FBF1F901FB190901F09EFD042190FB08
:1049E000F1FA01FB1A0A5FF0000B2DE000200090A5
:1049F000002300225946C9B25FF0FF30FBF78FFD5C
:104A000020E03800C0B200280FD03800C0B206281D
:104A10000BD03800C0B2072807D03800C0B2082831
:104A200003D03800C0B20F28E0D15046C0B2009089
:104A30004B46DBB24246D2B25946C9B25FF0FF30B4
:104A4000FBF76DFD1BF1010B5846C0B23C28A9DAFB
:104A50005846C0B200281BD05846C0B20F2817D005
:104A60005846C0B21E2813D05846C0B22D280FD0C9
:104A70005846C0B207280BD05846C0B2162807D0F7
:104A80005846C0B2252803D05846C0B23428B8D101
:104A9000307800902B7822785946C9B25FF0FF3009
:104AA000FBF73DFDCEE7BDE8F18F0000A06F0008E9
:104AB0002DE9F84FA2B002A8DFF8E01C802201F037
:104AC000CBFC01F029FD042190FBF1F201FB120067
:104AD000DFF80415087001F01FFD0421DFF8FC4425
:104AE00090FBF1F201FB1200207001F015FD042192
:104AF000DFF8EC5490FBF1F201FB12002870002665
:104B00000BE01020FCF7EAFA192001F0B1FD7F1C40
:104B10003800C0B2F028F4DB761C3000C0B20428A4
:104B200080F2B180002700E07F1C3800C0B2052869
:104B300080F290805FF000083CE001224946C9B253
:104B40005FF0FF30FBF7C8FE824602224946C9B239
:104B50005FF0FF30FBF7C0FE834604224946C9B22E
:104B60005FF0FF30FBF7B8FE02004846C0B2D0F15C
:104B70003C003C215FFA8AFACDF800A05B46DBB22C
:104B8000D2B290FBF1FC01FB1C000100C9B25FF046
:104B9000FF30FBF7C4FC19F101094846C0B21E28DA
:104BA000CBDBDFF82807FBF7ADFF192001F060FD34
:104BB00018F101084046C0B21028B5DA002114E00F
:104BC0004046C0B20A00D2B212EB80023000C0B23E
:104BD000022390FBF3F3402000FB032202A8805C39
:104BE00001AA0B00DBB2D054491C0800C0B2042853
:104BF000E6DB4046C0B2082190FBF1F201FB120057
:104C0000002819D101F088FC042190FBF1F201FB8E
:104C10001200DFF8C413087001F07EFC042190FB41
:104C2000F1F201FB1200207001F076FC042190FBF0
:104C3000F1F201FB12002870287800902378DFF849
:104C40009803027801A95FF0FF30FCF795F95FF057
:104C50000009A2E73000C0B2022190FBF1F201FB93
:104C6000120000280DD100273800C0B2F028BFF68E
:104C700053AF1020FCF760FB192001F0F9FC7F1CFA
:104C8000F2E7002744E723B0BDE8F08F2DE9F043B9
:104C900085B001A8DFF8C41C102201F0DDFB01F093
:104CA0003BFC0421CC4C90FBF1F201FB1200207084
:104CB00001F032FC0421C94D90FBF1F201FB12001E
:104CC000287001F029FC0421C54E90FBF1F201FB94
:104CD00012003070002707E0DFF8F005FBF712FF45
:104CE000322001F0C5FC7F1C3800C0B210284EDA1B
:104CF0005FF0000831E000200090002300224046D1
:104D0000C0B28000801C0100C9B25FF0FF30FBF729
:104D100006FC20E000200090002300225FFA88F8C3
:104D20005FEA8801C9B25FF0FF30FBF7F8FB38009B
:104D3000C0B219F800008007DDD5307800902B78DC
:104D400022784046C0B28000801C0100C9B25FF0EA
:104D5000FF30FBF7E4FB18F101084046C0B20F2812
:104D6000BADA0DF104093800C0B219F80000C00722
:104D7000D0D5307800902B7822785FFA88F85FEAF7
:104D80008801C9B25FF0FF30FBF7C9FBCFE705B080
:104D9000BDE8F0832DE9F04399B08146002006E09C
:104DA0000021DFF828250300DBB2D154401C0100AC
:104DB000C9B22E29F4DB002401E0641E641C20002B
:104DC000C0B24946C9B24900891C88426DDA01F077
:104DD000A3FB0421804D90FBF1F201FB120028702F
:104DE00001F09AFB04217D4E90FBF1F201FB1200D1
:104DF000307001F091FB0421794F90FBF1F201FB3F
:104E00001200387029783078014338780143C9B2EC
:104E10000029D2D05FF0000828E03878009033787D
:104E20002A784146C9B2A4465FFA8CFC0A2000FBEE
:104E30000C11C9B25FF0FF30FBF771FB14E048467C
:104E4000C0B20128E9D13878009033782A784146F9
:104E5000C9B2A4465FFA8CFC0F2000FB0C11C9B24A
:104E60005FF0FF30FBF75BFB18F101084046C0B272
:104E70004946C9B24900D1F1090188429EDA484643
:104E8000C0B20028DBD13878009033782A784146C8
:104E9000C9B2A4465FFA8CFC1E2000FB0C11C9B2FB
:104EA0005FF0FF30FBF73BFBDEE7002404E05FF040
:104EB000FF30FCF713F9641C2000C0B24946C9B2A8
:104EC000D1F104018842F2DB002009E0DFF8FC1395
:104ED0000200D2B2895C01AA0300DBB2D154401CAB
:104EE0000100C9B22E29F1DB01A8FBF70BFE00245B
:104EF00019E0DFF8D8030A00D2B2825C01A80B00E7
:104F0000DBB2C05C02430DA80B00DBB2C254491CEB
:104F10000800C0B22E28ECDB0DA8FBF7F3FD19202A
:104F200001F0A6FB641C2000C0B2F02850DA5FF04C
:104F3000FF30FCF7D3F8002038E001AD1E00F6B2D8
:104F400076420700FFB201FB0766354401AE1F0041
:104F5000FFB27F4284465FFA8CFC01FB0C773E4433
:104F6000B67DF6B201AF9C465FFA8CFCDCF1000C1A
:104F700086465FFA8EFE01FB0ECC67447F7D7F0183
:104F800057EAD607AF755B1C1D00EDB2162DD4DBBA
:104F900001AB0500EDB24D435D5DEDB252EAD502C5
:104FA0000500EDB201FB05F15A54401C0100C9B2E5
:104FB00002290BDA172101AA0300DBB24B431A4482
:104FC000927D520012F0E0020023DDE700219FE70E
:104FD00019B0BDE8F0830000500400205104002007
:104FE000520400202DE9FC4701F096FA0421DFF875
:104FF000544D90FBF1F201FB1200207001F08CFA8D
:105000000421DFF8445D90FBF1F201FB12002870EF
:1050100001F082FA0421DFF8346D90FBF1F201FB1C
:105020001200307000270AE00020009000230022C8
:105030003900C9B25FF0FF30FBF771FA7F1C38000E
:10504000C0B21E28F0DB002742E001224146C9B26F
:105050005FF0FF30FBF740FC814602224146C9B2B7
:105060005FF0FF30FBF738FC824604224146C9B2AC
:105070005FF0FF30FBF730FC4146C9B2D1F13C0193
:105080005FF03C0C5FFA89F9CDF800905346DBB233
:105090000200D2B291FBFCF00CFB1011C9B25FF020
:1050A000FF30FBF73CFA18F101084046C0B21E2859
:1050B000CBDBDFF818824046FBF724FD322001F0FD
:1050C000D7FA4046FBF71EFD322001F0D1FA7F1CD3
:1050D0003800C0B2052871DA0020009000230022B9
:1050E000781EC0B24100C9B25FF0FF30FBF717FA7B
:1050F00000200090002300223800C0B24000D0F110
:1051000011000100C9B25FF0FF30FBF708FA002080
:105110000090002300223800C0B240000D30010092
:10512000C9B25FF0FF30FBF7FAF9002000900023CE
:1051300000223800C0B24000D0F120000100C9B206
:105140005FF0FF30FBF7EBF9307800902B78227896
:10515000FFB27900C9B25FF0FF30FBF7E0F93078B9
:1051600000902B7822783800C0B24000D0F10F00B8
:105170000100C9B25FF0FF30FBF7D1F93078009041
:105180002B7822783800C0B240000F300100C9B23D
:105190005FF0FF30FBF7C3F9307800902B7822786E
:1051A0003800C0B24000D0F11E000100C9B25FF06B
:1051B000FF30FBF7B4F95FF0000876E7002742E024
:1051C00001224146C9B25FF0FF30FBF785FB814603
:1051D00002224146C9B25FF0FF30FBF77DFB8246F9
:1051E00004224146C9B25FF0FF30FBF775FB0200B5
:1051F0004046C0B2D0F13C003C215FFA89F9CDF8BD
:1052000000905346DBB2D2B290FBF1FC01FB1C00D4
:105210000100C9B25FF0FF30FBF781F918F1010816
:105220004046C0B21E28CBDBDFF8A0804046FBF72B
:1052300069FC322001F01CFA4046FBF763FC322087
:1052400001F016FA7F1C3800C0B204283CDA30782E
:1052500000902B7822783800C0B24000D0F10600D0
:105260000100C9B25FF0FF30FBF759F930780090C8
:105270002B7822783800C0B24000C01D0100C9B2AE
:105280005FF0FF30FBF74BF9307800902B782278F5
:105290003800C0B24000D0F117000100C9B25FF081
:1052A000FF30FBF73CF9307800902B7822783800FB
:1052B000C0B2400016300100C9B25FF0FF30FBF70A
:1052C0002EF95FF00008ABE7BDE8F3870804002083
:1052D0007C6D00082DE9FC4701F01EF90421DFF880
:1052E000644A90FBF1F201FB1200207001F014F906
:1052F0000421DFF8545A90FBF1F201FB12002870F0
:1053000001F00AF90421DFF8446A90FBF1F201FB95
:105310001200307000270AE00020009000230022D5
:105320003900C9B25FF0FF30FBF7F9F87F1C380095
:10533000C0B21E28F0DB00273BE001224146C9B283
:105340005FF0FF30FBF7C8FA814602224146C9B23E
:105350005FF0FF30FBF7C0FA824604224146C9B233
:105360005FF0FF30FBF7B8FA4146C9B2D1F13C011A
:105370005FF03C0C5FFA89F9CDF800905346DBB240
:105380000200D2B291FBFCF00CFB1011C9B25FF02D
:10539000FF30FBF7C4F818F101084046C0B21E28E0
:1053A000CBDBDFF8E00BFBF7ADFB322001F060F95F
:1053B0007F1C3800C0B2082858DA00200090002373
:1053C0000022791EC9B25FF0FF30FBF7A8F8002079
:1053D000009000230022D7F11001C9B25FF0FF3026
:1053E000FBF79DF8002000900023002217F10E012A
:1053F000C9B25FF0FF30FBF792F800200090002365
:105400000022D7F11F01C9B25FF0FF30FBF787F828
:10541000307800902B7822783900C9B25FF0FF30E5
:10542000FBF77DF8307800902B782278D7F10F01C8
:10543000C9B25FF0FF30FBF772F8307800902B783C
:10544000227817F10F01C9B25FF0FF30FBF767F860
:10545000307800902B782278D7F11E01C9B25FF026
:10546000FF30FBF75CF85FF0000896E700273BE0B1
:1054700001224146C9B25FF0FF30FBF72DFA8146A9
:1054800002224146C9B25FF0FF30FBF725FA82469F
:1054900004224146C9B25FF0FF30FBF71DFA02005B
:1054A0004046C0B2D0F13C003C215FFA89F9CDF80A
:1054B00000905346DBB2D2B290FBF1FC01FB1C0022
:1054C0000100C9B25FF0FF30FBF729F818F10108BD
:1054D0004046C0B21E28CBDBDFF8A80AFBF712FB60
:1054E000322001F0C5F87F1C3800C0B208282EDA3F
:1054F000307800902B782278D7F10701C9B25FF09D
:10550000FF30FBF70CF8307800902B78227817F1F9
:105510000801C9B25FF0FF30FBF701F83078009066
:105520002B782278D7F11601C9B25FF0FF30FAF775
:10553000F6FF307800902B78227817F11701C9B266
:105540005FF0FF30FAF7EBFF5FF00008C0E7BDE85F
:10555000F3872DE9FC4700F0DFFF0421DFF8E44783
:1055600090FBF1F201FB1200207000F0D5FF042146
:10557000DFF8D45790FBF1F201FB1200287000F025
:10558000CBFF0421DFF8C46790FBF1F201FB1200AE
:10559000307000273BE001224146C9B25FF0FF3086
:1055A000FBF79AF9814602224146C9B25FF0FF300B
:1055B000FBF792F9824604224146C9B25FF0FF3000
:1055C000FBF78AF902004046C0B2D0F13C003C2112
:1055D0005FFA89F9CDF800905346DBB2D2B290FB66
:1055E000F1FC01FB1C000100C9B25FF0FF30FAF7CB
:1055F00096FF18F101084046C0B21E28CBDBDFF849
:105600008409FBF77FFA322001F032F87F1C380062
:10561000C0B210283DDA3800C0B20F282BD15FF09D
:1056200000084046C0B2102830DA3278022395F8DC
:1056300000C05FF0020E2078022192FBF3F903FB19
:105640001922D2B200929CFBFEF20EFB12CC6346F2
:10565000DBB290FBF1F201FB12000200D2B25FFA62
:1056600088F85FEA4801C9B25FF0FF30FAF757FFE8
:1056700018F10108D5E7307800902B782278FFB236
:105680007900C9B25FF0FF30FAF749FF5FF0000818
:10569000B1E7BDE8F3872DE9FC4700F03DFF0421A9
:1056A000DFF8A04690FBF1F201FB1200207000F041
:1056B00033FF0421DFF8905690FBF1F201FB12005A
:1056C000287000F029FF0421DFF8806690FBF1F2DA
:1056D00001FB1200307000273FE001224146C9B2B1
:1056E0005FF0FF30FBF7F8F8814602224146C9B26D
:1056F0005FF0FF30FBF7F0F8824604224146C9B262
:105700005FF0FF30FBF7E8F802004046C0B2D0F18E
:105710003C003C215FFA89F9CDF800905346DBB29A
:10572000D2B290FBF1FC01FB1C000100C9B25FF09A
:10573000FF30FAF7F4FE18F101084046C0B21E2807
:10574000CBDBDFF84008FBF7DDF9192000F090FF14
:105750005FF0FF30FBF71AFB7F1C3800C0B20A284D
:1057600019DA3800C0B2052809DA307800902B78B1
:10577000227800215FF0FF30FAF7D1FE08E0002028
:1057800000900023002200215FF0FF30FAF7C7FEEF
:105790005FF00008D1E7BDE8F3870000E46B000884
:1057A0002DE9F84300F0B8FE0421DFF8984590FB9E
:1057B000F1F201FB1200207000F0AEFE0421DFF8D0
:1057C000885590FBF1F201FB1200287000F0A4FE56
:1057D0000421DFF8786590FBF1F201FB12003070D4
:1057E0000027B3E03800C0B20F2852DA012217F1C7
:1057F0000F01C9B25FF0FF30FBF76EF8804602225E
:1058000017F10F01C9B25FF0FF30FBF765F8814671
:10581000042217F10F01C9B25FF0FF30FBF75CF80B
:1058200002005FFA88F8CDF800804B46DBB2D2B2B6
:1058300017F11001C9B25FF0FF30FAF770FE0122D4
:1058400017F10F01C9B25FF0FF30FBF745F8804652
:10585000022217F10F01C9B25FF0FF30FBF73CF8ED
:105860008146042217F10F01C9B25FF0FF30FBF748
:1058700033F85FFA88F8CDF800804B46DBB20200BF
:10588000D2B2D7F13C011039C9B25FF0FF30FAF75C
:1058900046FE307800902B7822783900C9B25FF04C
:1058A000FF30FAF73CFE3800C0B2D0F13C003C219A
:1058B000327800922B78227890FBF1FC01FB1C00DF
:1058C0000100C9B25FF0FF30FAF729FE0020009016
:1058D0000023002217F10F01C9B25FF0FF30FAF781
:1058E0001EFE0020009000230022D7F13D01103958
:1058F000C9B25FF0FF30FAF712FE3800C0B20028DC
:105900001CD00020009000230022791EC9B25FF055
:10591000FF30FAF704FE3800C0B2D0F13D003C2160
:10592000002200920023002290FBF1FC01FB1C00EE
:105930000100C9B25FF0FF30FAF7F1FDDFF844066D
:10594000FBF7E0F8192000F093FE7F1C3800C0B28E
:105950001028FFF647AFBDE8F1830000B06F0008E4
:105960002DE9F84300F0D8FD0421DFF8D84390FB7F
:10597000F1F201FB1200207000F0CEFD0421DFF8EF
:10598000C85390FBF1F201FB1200287000F0C4FD37
:105990000421DFF8B86390FBF1F201FB12003070D4
:1059A000002771E001223900C9B25FF0FF30FAF739
:1059B00093FF804602223900C9B25FF0FF30FAF748
:1059C0008BFF814604223900C9B25FF0FF30FAF73D
:1059D00083FF02005FFA88F8CDF800804B46DBB207
:1059E000D2B217F11001C9B25FF0FF30FAF797FD9C
:1059F00001223900C9B25FF0FF30FAF76DFF80462F
:105A000002223900C9B25FF0FF30FAF765FF814624
:105A100004223900C9B25FF0FF30FAF75DFF5FFA88
:105A200088F8CDF800804B46DBB20200D2B2D7F145
:105A30003C011039C9B25FF0FF30FAF770FD3078E1
:105A400000902B7822783900C9B25FF0FF30FAF766
:105A500066FD3800C0B2D0F13C003C2132780092A3
:105A60002B78227890FBF1FC01FB1C000100C9B2ED
:105A70005FF0FF30FAF753FDDFF80805FBF742F857
:105A8000192000F0F5FD7F1C3800C0B2102889DB1A
:105A9000BDE8F1832DE9F8430400002549E02A0020
:105AA000D2B20800C0B282183C2092FBF0F300FB97
:105AB0001322DFF8D434387898F800C05FEA8C0CF1
:105AC0005CEA001C99F8000050EA0C0C03F802C0D4
:105AD0002A00D2B20800C0B282183C2092FBF0F338
