:020000040800F2
:10000000800C00204D700008AF670008B167000841
:10001000B3670008B5670008B76700080000000074
:10002000000000000000000000000000B9670008A8
:10003000BB67000800000000BD670008BF6700083C
:1000400075700008797000087D70000881700008E4
:1000500085700008897000088D7000089170000894
:1000600095700008997000089D700008A170000844
:10007000A5700008A9700008AD700008B1700008F4
:10008000B5700008B9700008BD700008C1700008A4
:10009000C5700008C9700008CD700008D170000854
:1000A000D5700008D9700008DD700008E170000804
:1000B000416B0008E5700008E9700008ED70000869
:1000C000F1700008F5700008F9700008FD70000874
:1000D0000171000805710008097100080D71000820
:1000E0001171000815710008197100082DE9FC4113
:1000F000DFF8A04C200005F05BFFDFF89C5C2800D7
:1001000005F056FF0121082006F047F94FF4805012
:10011000ADF8000010208DF8030003208DF80200D8
:100120006946280005F09BFF0121082006F035F9FB
:100130004FF40050ADF8000010208DF803000320AC
:100140008DF802006946280005F089FF012104208E
:1001500006F023F94FF40076ADF8006010208DF81A
:10016000030003208DF802006946200005F077FFA8
:100170000121042006F011F94FF48077ADF80070EA
:1001800010208DF8030003208DF80200694620003E
:1001900005F065FF0121082006F0FFF84FF48040CC
:1001A000ADF8000010208DF8030003208DF8020048
:1001B0006946280005F053FF0121082006F0EDF8FC
:1001C0004FF40048ADF8008010208DF803000320A4
:1001D0008DF802006946280005F041FF0121082042
:1001E00006F0DBF80820ADF8000010208DF80300C1
:1001F00003208DF802006946280005F030FF012138
:10020000012006F0CAF80121DFF8500D05F08DFF3E
:100210000121082006F0C1F8ADF8007010208DF81B
:10022000030003208DF802006946280005F017FF3F
:100230000121082006F0B1F8ADF8006010208DF81B
:10024000030003208DF802006946280005F007FF2F
:100250000121042006F0A1F8ADF8008010208DF8EF
:10026000030003208DF802006946200005F0F7FE28
:100270000821280005F053FF4FF48071280005F095
:100280004EFF4FF40071280005F049FF4FF4004184
:10029000200005F044FF002113E0DFF8C43C0C000F
:1002A000E4B24FF4B870444303EB040013009BB274
:1002B0000024C454521C100080B2B0F5B87FECDBAF
:1002C000491C0800C0B2032801DA0022F3E700202D
:1002D00006E00021DFF88C2C0300DBB2D154401C77
:1002E0000100C9B23C29F4DB002006E00021DFF860
:1002F000782C0300DBB2D154401C0100C9B22E2976
:10030000F4DBBDE8F3812DE9F04704000D00160091
:100310001F005FF001085FF000094BE0DFF84C1CA4
:10032000086830F4407008600A682300DBB2404679
:10033000C0B230EA0303D9F1090083401A430A60CE
:100340000A682B00DBB24046C0B230EA0303D9F1A1
:10035000080083401A430A60DFF8141C086830F470
:10036000404008600A683300DBB24046C0B230EA61
:100370000303D9F10E0083401A430A600A683B0068
:10038000DBB24046C0B230EA0303D9F10F0083402C
:100390001A430A605FEA4808DFF8FCA94FF40051ED
:1003A000504605F0BFFE4FF40051504605F0B7FE31
:1003B00019F101094846C0B20828AFDBBDE8F08753
:1003C0002DE9F047DFF8AC4BDFF8AC0B217830F8C3
:1003D0001100DFF8A81B08800120DFF8A41B0880AB
:1003E000DFF8B4590821280005F099FE4FF4807118
:1003F000280005F094FE4FF40071280005F08FFEF0
:10040000DFF890694FF40041300005F088FE1627B0
:1004100044E01720DFF86CCB4FF4B87EDFF8408B58
:1004200021780EFB01F108EB01029CF80030390045
:1004300049B200FB031302EB030191F81431217858
:100440000EFB01F108EB01029CF80090390049B263
:1004500000FB091902EB090191F8B82021780EFB85
:1004600001F108EB01099CF800A0390049B200FB3A
:100470000A1A09EB0A0191F85C1094F800900EFB3F
:1004800009FEC6449CF80080BC464FFA8CFC00FB79
:1004900008C01EF80000FFF736FF7F1E380040B28C
:1004A0000028B6D54FF48051280005F03BFE4FF4EC
:1004B0008051280005F033FEDFF8C87A387800282C
:1004C00005D002280ED007D3032811D015E008214B
:1004D000280005F027FE10E04FF48071280005F099
:1004E00021FE0AE04FF40071280005F01BFE04E035
:1004F0004FF40041300005F015FE2078401C2070BC
:100500002078022809D1002020703878401C3870EB
:100510003878042801D100203870BDE8F0872DE933
:10052000F847099D8DF800206C4663708DF80250E5
:10053000020052B2121E102A80F0038100273A00F6
:10054000D2B2032A80F2C6818C465FFA8CFC032368
:100550003A00D2B203FB0C2C5FF0080E7FF0800350
:100560001725DFF8FC6988465FFA88F85FF0030911
:100570003A00D2B209FB0828082298FBF2F80200E0
:1005800052B205FB028889465FFA89F95FF0030AD7
:100590003A00D2B20AFB0929082299FBF2F28146FD
:1005A0004FFA89F905FB092216F802909CFBFEF22E
:1005B0000EFB12CC1A0052FA0CF212EA090906F8E4
:1005C00008908C465FFA8CFC5FF0030E3A00D2B2C2
:1005D0000EFB0C2C5FF0080E88465FFA88F85FF07F
:1005E00003093A00D2B209FB0828082298FBF2F866
:1005F000020052B205FB028889465FFA89F95FF072
:10060000030A3A00D2B20AFB0929082299FBF2F246
:1006100081464FFA89F905FB0922B25CB9465FFAB7
:1006200089F914F8099019F00109DCF1070A9CFB1B
:10063000FEFC0EFB0CAE19FA0EFE5EEA020E06F888
:1006400008E08C465FFA8CFC5FF0030E3A00D2B2F1
:100650000EFB0C2C5FF0080E88465FFA88F85FF0FE
:1006600003093A00D2B209FB0828082298FBF2F2EB
:1006700080464FFA88F805FB082206EB02088946F7
:100680005FFA89F95FF0030A3A00D2B20AFB09293E
:10069000082299FBF2F281464FFA89F905FB0922FB
:1006A000324492F870219CFBFEF90EFB19CC53FAF0
:1006B0000CF3134088F870310B00DBB25FF0030CD1
:1006C0003A00D2B20CFB03235FF0080C8E465FFAAF
:1006D0008EFE5FF003083A00D2B208FB0E2E08220D
:1006E0009EFBF2F286464FFA8EFE05FB0E2206EBCB
:1006F000020E88465FFA88F85FF003093A00D2B22A
:1007000009FB0828082298FBF2F280464FFA88F885
:1007100005FB082506EB050292F870213D00EDB2BD
:10072000655DC5F34005D3F1070693FBFCF30CFBB5
:10073000036C15FA0CFC5CEA020C8EF870C17F1C8D
:10074000FDE60023C1E00E00F6B203221800C0B29D
:1007500002FB06060827DFF810287FF080058C468C
:100760005FFA8CFC5FF0030E1800C0B20EFB0C0C9D
:1007700008209CFBF0FC8E465FFA8EFE5FF00308BB
:100780001800C0B208FB0E0E08209EFBF0F012F815
:1007900000E096FBF7F007FB10662800304110EAF6
:1007A0000E0E02F80CE00E00F6B203271800C0B2DD
:1007B00007FB060608278C465FFA8CFC5FF0030EE9
:1007C0001800C0B20EFB0C0C08209CFBF0FC8E46FF
:1007D0005FFA8EFE5FF003081800C0B208FB0E0E31
:1007E00008209EFBF0F0105C9E465FFA8EFE14F827
:1007F0000EE01EF0010ED6F1070896FBF7F607FB98
:1008000006871EFA07F7074302F80C700E00F6B2CF
:1008100003271800C0B207FB060608278C465FFABC
:100820008CFC5FF0030E1800C0B20EFB0C0C08200D
:100830009CFBF0F002EB000C8E465FFA8EFE5FF040
:1008400003081800C0B208FB0E0E08209EFBF0F053
:100850001044C07D96FBF7FE07FB1E663541054040
:100860008CF817500D00EDB203261800C0B206FB3D
:10087000050508260F00FFB25FF0030C1800C0B298
:100880000CFB0707082097FBF0F002EB00078C46F3
:100890005FFA8CFC5FF0030E1800C0B20EFB0C0C6C
:1008A00008209CFBF0F01044C07D1A00D2B2A25C7C
:1008B000C2F34002D5F1070C95FBF6F506FB05C621
:1008C00012FA06F60643FE755B1C1800C0B2032838
:1008D000FFF639AFBDE8F1872DE9FE4F03005FF069
:1008E000FF345BB2A34279D10B00DBB20320434358
:1008F0009B1C90465FFA88F85FEA58085FFA88F810
:10090000B3EB080808230C00E4B203204443A41C02
:1009100091465FFA89F95FEA59095FFA89F9B4EB00
:1009200009095FF0080A0D00EDB203204543AD1C34
:100930001400E4B26408E4B22C1B08250F00FFB2D7
:1009400003204743BF1C1600F6B27608F6B2BE1B62
:1009500008275FF0800CDFF810E68B465FFA8BFB10
:10096000032000FB0BFB1BF1020B1000C0B2BBEB22
:10097000600B08209BFBF0F01EF8000098FBF3FBD7
:1009800003FB1B88634653FA08F31840D9F10703A9
:1009900099FBFAF80AFB083A50FA0AF0C9B20323A5
:1009A0005943891CD2B2B1EB6201082291FBF2F1EA
:1009B0007144C97D94FBF5F205FB12445CFA04FC1A
:1009C0001CEA010CD6F1070196FBF7F207FB0217B0
:1009D0005CFA07FC50EA4C00C0B291E00C00E4B2B3
:1009E00003235C43A41C1300DBB25B08DBB2E31AF5
:1009F000082402940D00EDB203246543AD1C1400DD
:100A0000E4B26408E4B22C1B082501950E00F6B28E
:100A100003256E43B61C1500EDB26D08EDB2751BD3
:100A200008268C465FFA8CFC032707FB0CFC1CF1A4
:100A3000020C1700FFB27F08FFB2BCEB07075FF0A4
:100A4000080CDFF81CE55FF017085FF080098B46A3
:100A50005FFA8BFB5FF0030A0AFB0BFB1BF1020B37
:100A600092465FFA8AFABBEB6A0B5FF0080A9BFBBF
:100A7000FAFA83464FFA8BFB08FB0BAA1EF80AA072
:100A8000CDF800A0DDF808A093FBFAFBDDF808A084
:100A90000AFB1B33CA465AFA03FA009B1AEA030AF6
:100AA0005346D4F1070ADDF804B094FBFBF4DDF8FB
:100AB00004B00BFB04A42341C9B203246143891C85
:100AC000D2B2B1EB6201082291FBF2F140B208FB15
:100AD0000010704490F8700195FBF6F106FB11557B
:100AE00059FA05F919EA0009D7F1070097FBFCF15B
:100AF0000CFB010C59FA0CF953EA49031800C0B277
:100B0000BDE8FE8F70B4002145E0DFF854341724AF
:100B10001500EDB26D420800C0B204FB05051D448E
:100B20001600F6B276420800C0B204FB060603EBDC
:100B3000060090F8420185F859011500EDB26D42AA
:100B40000800C0B204FB05051D441600F6B276424B
:100B50000800C0B204FB060403EB040090F8B202E4
:100B600085F8C902521C1000C0B20F28CDDBDFF897
:100B7000F823DFF8EC030B00DBB2D35C0C00E4B22B
:100B800003550B00DBB21A44D27D0B00DBB21844D4
:100B900080F87021491C0800C0B2172801DA002231
:100BA000E1E770BC7047F8B500243BE017232E0046
:100BB000F6B276422000C0B203FB06060E442F00B8
:100BC000FFB27F422000C0B203FB070701EB070022
:100BD00090F8420186F859012E00F6B276422000C4
:100BE000C0B203FB06060E442F00FFB27F42200076
:100BF000C0B203FB070301EB030090F8B20286F8D2
:100C0000C9026D1C2800C0B20F28CFDB9DF8000080
:100C10002300DBB2C85450782200D2B2114481F8CC
:100C20007001641C2000C0B2172815DA02220021CE
:100C3000684605F019FCCA492000C0B2084490F883
:100C400059018DF800006A462000C0B2084490F8AF
:100C5000C90250700025D5E7F1BD70B400213EE017
:100C6000BF4C17221D00EDB20800C0B202FB050503
:100C70001E00F6B20800C0B202FB060604EB060036
:100C8000C07D60551D00EDB20800C0B202FB050535
:100C900025441E00F6B20800C0B202FB060204EBB7
:100CA000020090F8870185F870015B1C1800C0B243
:100CB0000F28D5DBDFF8B022A9480B00DBB2D35CEC
:100CC0000C00E4B2044484F859310B00DBB21A443E
:100CD000D27D0B00DBB2184480F8C922491C080001
:100CE000C0B2172801DA0023E0E770BC7047F8B5FE
:100CF000002436E017251600F6B22000C0B205FB2E
:100D000006061700FFB22000C0B205FB070701EB83
:100D10000700C07D88551600F6B22000C0B205FB62
:100D200006060E441700FFB22000C0B205FB0705FF
:100D300001EB050090F8870186F87001521C100045
:100D4000C0B20F28D6DB9DF800002200D2B20A44C0
:100D500082F8590158782200D2B2114481F8C902B0
:100D6000641C2000C0B2172813DA02220021684652
:100D700005F07AFB7A492000C0B2085C8DF80000CB
:100D80006B462000C0B2084490F8700158700022F1
:100D9000D5E7F1BD00080140000C01402DE9F0430A
:100DA000010049B2091E102980F0858000216DE004
:100DB0000F00FFB25F432744AC465FFA8CFCDCF1C6
:100DC000000C86464FFA8EFE02FB0ECC67448C4622
:100DD0005FFA8CFC03FB0CFCA444AE465FFA8EFE6B
:100DE000DEF1000E80464FFA88F802FB08EEF4446C
:100DF0009CF80BC05FFA8CFC8E465FFA8EFE03FBFC
:100E00000EFEA644A8465FFA88F8D8F1000881468D
:100E10004FFA89F902FB0988C6449EF80AE05FEAA6
:100E20004E1E5EEADC0E87F80BE06D1C2F00FFB251
:100E30000B2FBDDB0D00EDB25D43254407007FB2F3
:100E400057433D440F00FFB25F43274484464FFAA7
:100E50008CFC02FB0CFC6744FF7A17F0F8073E435A
:100E6000EE720D00EDB25D432544060076B25643A6
:100E70000F00FFB203FB07F32344040064B202FB3C
:100E800004F29A5CD2B2D208AA55491C0A00D2B226
:100E9000022A60DA17224FF4B873314C0D00EDB21C
:100EA0005D432544060076B256433544EE7A16F08B
:100EB00007060025BAE700203DE01D00EDB26D42B7
:100EC0000600F6B201FB065515441E00F6B2764246
:100ED0000700FFB201FB07661644F67AF6B21F0060
:100EE000FFB27F4284465FFA8CFC01FB0C7717440B
:100EF000BF7A7F0157EAD607EF725B1C1D00EDB287
:100F00000B2DDADB0300DBB24B4313440500EDB2DB
:100F10004D431544ED7A15F0F8052C43DC720300BF
:100F2000DBB24B43D35CDBB2DB080400E4B201FB71
:100F300004F15354401C0100C9B202290BDADFF856
:100F4000902617210300DBB24B431344DC7A14F0E4
:100F500007040023D2E7BDE8F08300000002300060
:100F60002C00002090030020080400200C08014001
:100F70000C0C01404F04002000000020280000401D
:100F8000140000404E0400202DE9F84304000D0039
:100F900016001F005FF0000801E018F1010840464C
:100FA000C0B2042832DA5FF000094846C0B208280F
:100FB000F3DA4046C0B2285C802151FA09F10842B8
:100FC0000FD100200090002300224046C0B24946C5
:100FD000C9B211EBC001C9B2200040B2FFF79FFABD
:100FE00011E09DF8200000903B00DBB23200D2B24D
:100FF0004046C0B24946C9B211EBC001C9B2200097
:1010000040B2FFF78CFA19F10109CEE7BDE8F18390
:101010002DE9FC4705000E00170098460A9C5FF07A
:10102000000901E019F101094846C0B2072832DA87
:101030005FF0000A5046C0B20828F3DA4846C0B252
:10104000305C802151FA0AF108420FD10020009053
:10105000002300224846C0B25146C9B211EBC0017C
:10106000C9B2280040B2FFF75AFA11E02000C0B21E
:1010700000904346DBB23A00D2B24846C0B2514675
:10108000C9B211EBC001C9B2280040B2FFF747FA5C
:101090001AF1010ACEE75FF0000921E0002000907C
:1010A0000023002219F13801C9B2280040B2FFF72D
:1010B00036FA13E0F079802151FA09F10842EDD0B7
:1010C0002000C0B200904346DBB23A00D2B219F120
:1010D0003801C9B2280040B2FFF721FA19F101091D
:1010E0004846C0B20428E5DBBDE8F3872DE9F047A8
:1010F000010049B210296FD0010049B211F1010F6E
:101100006AD0002150E00F00FFB25F432744B4468D
:101110005FFA8CFC86464FFA8EFE02FB0ECC8E46A2
:101120005FFA8EFE03FB0EFEA644B0465FFA88F817
:1011300081464FFA89F902FB09881EF808E08846C3
:101140005FFA88F803FB08F8A044B1465FFA89F912
:1011500082464FFA8AFA02FB0A99C84498F801803D
:101160005FFA88F85FEA581858EACE0807F80C804A
:10117000761C3700FFB2162FC5DB0E00F6B25E43B9
:10118000264407007FB257433E440F00FFB203FBE3
:1011900007F32344040064B202FB04F21A44927D74
:1011A00055EAC205B575491C0A00D2B2022A80F27E
:1011B000C98017224FF4B873DFF830490D00EDB243
:1011C0005D432544060076B25643AD5DEDB26D0831
:1011D00015F070050026CCE75FF0FF3140B2884281
:1011E0003FD100202DE02500EDB20600F6B201FB54
:1011F00006552600F6B20700FFB201FB0766965DB2
:101200002700FFB284465FFA8CFC01FB0C77174481
:101210007F78FFB27F0957EAC6075755641C25003F
:10122000EDB2162DDFDB0400E4B24C43144405009C
:10123000EDB201FB05F11144897D53EAC103A375A9
:10124000401C0100C9B202297CDAE14A17210300DF
:10125000DBB24B43D35CDBB25B0813F070030024BA
:10126000DDE7002000E0401C0100C9B2022969DA74
:10127000002150E00700FFB25F432744B4465FFA05
:101280008CFC8E465FFA8EFE02FB0ECC86465FFA21
:101290008EFE03FB0EFEA644B0465FFA88F8894630
:1012A0005FFA89F902FB09881EF808E080465FFAB8
:1012B00088F803FB08F8A044B1465FFA89F98A462A
:1012C0005FFA8AFA02FB0A99C84498F801805FFA2B
:1012D00088F85FEA581858EACE0807F80C80761CA0
:1012E0003700FFB2162FC5DB0600F6B25E43264478
:1012F0000F00FFB257433E440700FFB203FB07F362
:1013000023440C00E4B202FB04F21A44927D55EA35
:10131000C205B575491C0A00D2B2102AA3DA1722F9
:101320004FF4B873DFF8C4470500EDB25D432544C0
:101330000E00F6B25643AD5DEDB26D0815F07005C6
:101340000026CDE7BDE8F0872DE9F043010049B262
:10135000102977D0010049B211F1010F72D000219C
:1013600058E00F00FFB25F432744AC465FFA8CFCA5
:10137000DCF1000C86464FFA8EFE02FB0ECC674471
:101380008C465FFA8CFC03FB0CFCA444AE465FFA6F
:101390008EFEDEF1000E80464FFA88F802FB08EE62
:1013A000F4449CF816C05FFA8CFC8E465FFA8EFE01
:1013B00003FB0EFEA644A8465FFA88F8D8F10008A1
:1013C00081464FFA89F902FB0988C6449EF815E068
:1013D0005FEA4E1E5EEADC0E87F816E06D1C2F00F9
:1013E000FFB2162FBDDB0D00EDB25D4325440700B3
:1013F0007FB257438C465FFA8CFC03FB0CF323440B
:10140000040064B202FB04F29A5CD2B256EAD2063D
:10141000EE55491C0A00D2B2022A80F2D680172269
:101420004FF4B873DFF8C4460D00EDB25D432544B8
:10143000060076B256433544AE7D760016F0E006DF
:101440000025CCE75FF0FF3140B2884244D1002054
:1014500031E01D00EDB26D420600F6B201FB06550B
:1014600015441E00F6B276420700FFB201FB076684
:101470001644B67DF6B21F00FFB27F4284465FFA83
:101480008CFC01FB0C7717447F7D7F0157EAD60760
:10149000AF755B1C1D00EDB2162DDADB0300DBB26D
:1014A0004B43D35CDBB254EAD3040300DBB201FB51
:1014B00003F15454401C0100C9B2022980F2858016
:1014C000434A17210300DBB24B4313449C7D640065
:1014D00014F0E0040023DDE7002000E0401C0100E0
:1014E000C9B2022971DA002158E00700FFB25F4358
:1014F0002744AC465FFA8CFCDCF1000C8E465FFAA8
:101500008EFE02FB0ECC674484465FFA8CFC03FB24
:101510000CFCA444AE465FFA8EFEDEF1000E884657
:101520005FFA88F802FB08EEF4449CF816C05FFAF4
:101530008CFC86465FFA8EFE03FB0EFEA644A84690
:101540005FFA88F8D8F1000889465FFA89F902FB4A
:101550000988C6449EF815E05FEA4E1E5EEADC0E7E
:1015600087F816E06D1C2F00FFB2162FBDDB0500BB
:10157000EDB25D4325440F00FFB2574384465FFA46
:101580008CFC03FB0CF323440C00E4B202FB04F2DA
:101590009A5CD2B256EAD206EE55491C0A00D2B283
:1015A000102A9BDA17224FF4B873DFF84045050084
:1015B000EDB25D4325440E00F6B256433544AE7D90
:1015C000760016F0E0060025CDE7BDE8F0830000C8
:1015D000080400200100C9B204290DDA0321DFF854
:1015E000702C11700021DFF86C2C1170D0F1030009
:1015F000DFF8581C087090E00100C9B208290CDA25
:101600000321DFF84C2C1170001FDFF8481C087014
:101610000020DFF8381C08707FE00100C9B20C29F7
:101620000EDAD0F10300F838DFF8241C087003202C
:10163000DFF8201C08700020DFF8101C08706CE038
:101640000100C9B210290CDA0021DFF8042C117056
:101650000321DFF8002C11700C38DFF8F01B087044
:101660005BE00100C9B214290EDA0021DFF8E02B9B
:101670001170D0F10300F038DFF8D81B0870032098
:10168000DFF8C81B087048E00100C9B218290CDA5D
:101690001438DFF8BC1B08700020DFF8B81B087096
:1016A0000320DFF8A81B087037E00100C9B21C292D
:1016B00011DAD0F10301E839DFF8942B1170B0F1A1
:1016C0001801DFF8902B1170D0F10300E838DFF833
:1016D0007C1B087021E00100C9B220290EDA00212C
:1016E000DFF86C2B1170D0F10301E439DFF8642BC3
:1016F00011701C38DFF8541B08700EE0B0F12001A7
:10170000DFF84C2B11700021DFF8482B1170D0F15D
:101710000300E038DFF8341B087070472DE9F84308
:1017200004000D0016001F005FF0000821E0404695
:10173000C0B2285C802151FA09F1084211D09DF80D
:10174000200000903B00DBB23200D2B24046C0B273
:101750004946C9B211EBC001C9B2200040B2FEF740
:10176000DEFE19F101094846C0B20828DFDB18F196
:1017700001084046C0B2042802DA5FF00009F2E72F
:10178000BDE8F1832DE9F84FAAB004008B4615009F
:101790001F0002A8DFF8741DA02204F06FFE0826C7
:1017A00000210FE002A8F6B20A00D2B2825C521EFB
:1017B000082392FBF3F2521C0B00DBB2C05C00FB6F
:1017C0000266491C08002A00C0B2D2B29042E9D396
:1017D0000DF108082800C0B218F80000401E0221D0
:1017E00090FBF1F9B9EB07098DF80440349C6AE1EC
:1017F0004946C9B208225FF0800A2800C0B218F832
:101800000000401E082390FBF3F35B1C2800C0B2CD
:1018100018F80000401E5FF0020C90FBFCFC380042
:10182000C0B2BCEB000C3000C0B20CFB0303484656
:10183000C0B25FF0080C90FBFCF0C31818F803006E
:1018400091FBF2F302FB131152460A41104223D0DE
:101850004946C9B25846C0B241183C2014F00302B0
:101860000092C4F38103DBB2C4F30112D2B291FB44
:10187000F0FC00FB1C11C9B22800C0B218F800002F
:101880005FF0020C90FBFCF038189DF904C01CEBD3
:10189000000040B2FEF743FE4946C9B208222800C4
:1018A000C0B218F80000401E082390FBF3F35B1C45
:1018B0002800C0B218F800005FF0020C90FBFCFC9E
:1018C0003800C0B210EB0C0C3000C0B20CFB0303AC
:1018D0004846C0B25FF0080C90FBFCF0C31818F843
:1018E000030091FBF2F302FB131152460A4110422E
:1018F00024D04946C9B25846C0B241183C2014F021
:1019000003020092C4F38103DBB2C4F30112D2B22A
:1019100091FBF0FC00FB1C11C9B22800C0B218F802
:101920000000401E5FF0020C90FBFCF0C01B9DF914
:1019300004C01CEB000040B2FEF7F1FD2800C0B26D
:1019400018F80000401E022190FBF1F03900C9B2E6
:10195000411A08222800C0B218F80000401E0823CF
:1019600090FBF3FC1CF1010C2800C0B218F8003009
:101970005B1E4846C0B21B1A2800C0B218F800000F
:10198000401E5FF0020E90FBFEFE3800C0B2BEEBC0
:10199000000E08209EFBF0FE03FB0CEE3000C0B2F0
:1019A00010EB0E0E18F80E0091FBF2F302FB131170
:1019B00052460A41104223D02800C0B218F8000055
:1019C000401E022190FBF1F03900C9B2411A58467D
:1019D000C0B241183C2014F003020092C4F381030A
:1019E000DBB2C4F30112D2B291FBF0FC00FB1C117C
:1019F000C9B29DF9040010EB090040B2FEF78FFD5B
:101A00002800C0B218F80000022190FBF1F1380064
:101A1000C0B2411808222800C0B218F80000401EC9
:101A2000082390FBF3FC1CF1010C4B46DBB22800B1
:101A3000C0B218F800005FF0020E90FBFEFE380006
:101A4000C0B210EB0E0E08209EFBF0FE03FB0CEE66
:101A50003000C0B210EB0E0E18F80E0091FBF2F33E
:101A600002FB13115AFA01FA10EA0A0F29D02800D2
:101A7000C0B218F80000022190FBF1F13800C0B2AA
:101A800041185846C0B241183C2014F0030200929D
:101A9000C4F38103DBB2C4F30112D2B291FBF0FCB8
:101AA00000FB1C11C9B22800C0B218F90000401E8A
:101AB000B0EB09009DF904C01CEB000040B2FEF73A
:101AC0002EFD19F101092800C0B218F8000002210A
:101AD00090FBF1F13800C0B241184846C0B28142D3
:101AE000BFF686AE2BB0BDE8F08F00002C000020C2
:101AF0002DE9FF4101A8DFF8501B91E81C0080E8A8
:101B00001C00002500E06D1C2800C0B2062880F2F1
:101B1000438104F013FD0600002735E03000C0B219
:101B200000903B00DBB22A00D2B22800C0B2205C99
:101B3000401C022190FBF1F1D1F13D01C4465FFA56
:101B40008CFC01A8AE465FFA8EFE7044807900FBE3
:101B50000C11C9B22800C0B2205CD0F11000C0B294
:101B6000FFF710FE18F101083C2001A92A00D2B2AB
:101B70001144897990FBF1F04146C9B28142CDDB35
:101B8000642004F087FD7F1C01AC2800C0B2205CFB
:101B9000401C022190FBF1F03900C9B2814202DA07
:101BA0005FF00008E0E72800C0B2002803D028005A
:101BB000C0B2012846D1002736E03000C0B280080C
:101BC00000903B00DBB22A00D2B22800C0B2205CF9
:101BD000401C022190FBF1F1D1F14201C4465FFAB1
:101BE0008CFC01A8AE465FFA8EFE7044807900FB43
:101BF0000C11C9B22800C0B2205CD0F10800C0B2FC
:101C0000FFF7C0FD18F101083C2001A92A00D2B25B
:101C10001144897990FBF1F04146C9B28142CCDB95
:101C2000642004F037FD7F1C2800C0B2205C401CFB
:101C3000022190FBF1F03900C9B2814202DA5FF073
:101C40000008E1E7002606E01020FFF77DFB3220C8
:101C500004F020FD761C3000C0B23C28F4DB0026E6
:101C600006E01020FFF742FA322004F013FD761C44
:101C70003000C0B23C28F4DB002633E000200090A6
:101C80003300DBB22A00D2B22800C0B2205C401C74
:101C9000022190FBF1F1D1F13D01BC465FFA8CFCD1
:101CA00001A8AE465FFA8EFE7044807900FB0C11ED
:101CB000C9B22800C0B2205CD0F11000C0B2FFF75A
:101CC00061FD7F1C3C2001A92A00D2B21144897910
:101CD00090FBF1F03900C9B28142CFDB642004F0FF
:101CE000D9FC761C2800C0B2205C401C022190FB6D
:101CF000F1F03100C9B2814201DA0027E2E72800A1
:101D0000C0B2002804D02800C0B201287FF4FBAE86
:101D1000002633E0002000903300DBB22A00D2B26C
:101D20002800C0B2205C401C022190FBF1F1D1F1EF
:101D30004201BC465FFA8CFC01A8AE465FFA8EFEFB
:101D40007044807900FB0C11C9B22800C0B2205C3D
:101D5000D0F10800C0B2FFF715FD7F1C3C2001A99F
:101D60002A00D2B21144897990FBF1F03900C9B24E
:101D70008142CFDB642004F08DFC761C2800C0B2C9
:101D8000205C401C022190FBF1F03100C9B281427D
:101D9000BFF6B9AE0027E1E7BDE8FF812DE9F843C2
:101DA000002400E0641C2000C0B202284BDA0025A9
:101DB00039E05FF00A084846C0B200903300DBB259
:101DC00000222900C9B208FB01F13A31A4465FFAAA
:101DD0008CFC192000FB1C11C9B2E4B2E000C0B2B7
:101DE000FFF7D0FC3800C0B200903300DBB2002215
:101DF0002800C0B208FB00F8D8F13A082100C9B2A7
:101E0000232000FB11884146C9B2E4B2E000C0B211
:101E1000FFF7B8FC322004F03DFC761C3000C0B265
:101E20000328C6DB6D1C2800C0B22100C9B2D1F165
:101E300004018842B6DA04F081FB814604F07EFB9F
:101E400007000026EAE7002406E01020FFF77CFAEE
:101E50001E2004F01FFC641C2000C0B23C28F4DBF0
:101E6000002406E01020FFF741F91E2004F012FCC8
:101E7000641C2000C0B23C28F4DB002400E0641C99
:101E80002000C0B2022823DA00251BE000200090C9
:101E9000D5F10203DBB200220A21052000FB04F089
:101EA00001FB06013A31C9B2E4B2E000C0B2FFF76B
:101EB00069FC761C3000C0B20628E7DB322004F053
:101EC000E9FB6D1C2800C0B20328D8DA0026F1E730
:101ED000002400E0641C2000C0B2022861DA002562
:101EE00000E06D1C2800C0B22100C9B2D1F104018C
:101EF0008842EFDA04F022FB060004F01FFB070023
:101F00005FF000083FE000221FE000225FF00A09B6
:101F10003000C0B200904346DBB2D2B22900C9B251
:101F200009FB01F13931A4465FFA8CFC182000FB53
:101F30001C11C9B2092000FB04F0C0B2FFF722FC5B
:101F40002000C0B20028DED101223800C0B20090CB
:101F50004346DBB2D2B22800C0B209FB00F9D9F186
:101F600039092100C9B2222000FB11994946C9B2A2
:101F7000092000FB04F0C0B2FFF704FC642004F069
:101F800089FB18F101084046C0B22100C9B2D1F165
:101F900004018842A5DA2000C0B20028B5D1012290
:101FA000B4E7002405E0FEF7FEFD322004F072FBEA
:101FB000641C2000C0B2A028F5DB002405E0FEF779
:101FC00096FE322004F066FB641C2000C0B2A028FC
:101FD000F5DB002400E0641C2000C0B202282BDAEC
:101FE00000251FE000200090D5F103031B1BDBB28E
:101FF000D4F10102D2B20A21062000FB04F001FB59
:1020000006013931C9B2092000FB04F0C0B2FFF764
:10201000B9FB761C3000C0B20628E3DB642004F074
:1020200039FB6D1C2800C0B22100C9B2D1F10401F6
:102030008842D0DA0026EDE7BDE8F1832DE9F841CA
:102040008FB0040005A8DFF8C81C282204F016FA97
:1020500000250BE004F072FA042190FBF1F201FB81
:10206000120001A92A00D2B288546D1C2800C0B207
:102070000F28EFDB002515E004F060FA04222B00A6
:10208000DBB25FF0030C3900C9B20CFB031390FB09
:10209000F2F102FB1100F0547F1C3800C0B203289B
:1020A000EADB6D1C2800C0B205281DDA01AE29004C
:1020B000C9B203204143705C0028F2D101A92A0073
:1020C000D2B20320424301EB020040780028E8D15D
:1020D00001A92A00D2B20320424301EB020080781A
:1020E0000028DED10027D8E7002500E06D1C28007D
:1020F000C0B2022880F2A680002607E0DFF8140CA8
:10210000FEF700FD322004F0C5FA761C3000C0B2A4
:102110000A28EBDA002006E00021DFF8F82B0300A4
:10212000DBB2D154401C0100C9B22E29F4DB0027D8
:1021300000E07F1C3800C0B20528DFDA5FF000083D
:102140004046C0B20C28F4DA4146C9B208224046E3
:10215000C0B2082390FBF3F33000C0B213EB40038E
:10216000A4465FFA8CFC122000FB0C3305A8C05C6F
:10217000802391FBF2FC02FB1C110B4118425ED044
:102180002800C0B200282DD04246D2B23900C9B2D0
:102190000C2000FB0121491C5FF03C0C01AA3B0014
:1021A000DBB20320434302EB03008078009001AAD6
:1021B0003B00DBB20320434302EB0300437801AA58
:1021C000BE465FFA8EFE032000FB0EFE12F80E20C4
:1021D00091FBFCF00CFB1011C9B25FF0FF30FEF771
:1021E0009EF92CE04246D2B23900C9B20C2000FB65
:1021F000012137315FF03C0C01AA3B00DBB2032028
:10220000434302EB03008078009001AA3B00DBB25D
:102210000320434302EB0300437801AABE465FFA62
:102220008EFE032000FB0EFE12F80E2091FBFCF048
:102230000CFB1011C9B25FF0FF30FEF770F918F116
:1022400001087DE710B0BDE8F081000050040020D7
:1022500051040020520400202DE9F04F97B003A84C
:10226000DFF8B41A502204F009F904F067F90421E8
:1022700090FBF1F201FB12008DF8050004F05EF90D
:10228000042190FBF1F201FB12008DF8040004F030
:1022900055F9042190FBF1F401FB140404F04EF90C
:1022A000042190FBF1F501FB150504F047F9042129
:1022B00090FBF1F601FB160604F040F9042190FBB7
:1022C000F1F701FB17075FF000083CE001224946E7
:1022D000C9B25FF0FF30FEF7FFFA8246022249469C
:1022E000C9B25FF0FF30FEF7F7FA83460422494691
:1022F000C9B25FF0FF30FEF7EFFA02004846C0B205
:10230000D0F13C003C215FFA8AFACDF800A05B4690
:10231000DBB2D2B290FBF1FC01FB1C000100C9B2A0
:102320005FF0FF30FEF7FBF819F101094846C0B233
:102330001E28CBDBDFF89C0CFEF7E4FB322004F018
:10234000A9F918F101084046C0B20A284FDA002066
:1023500006E00021DFF87C2C0300DBB2D154401CE6
:102360000100C9B22E29F4DB00200CE003A9020011
:10237000D2B24346DBB212EB8302895C02AA0300AD
:10238000DBB2D154401C0100C9B20429EEDB2000AD
:10239000C0B200909DF804309DF8052002A95FF0BE
:1023A000FF30FFF7BBF900200EE003A90200D2B214
:1023B0004346DBB212EB8302114491F8281002AAC3
:1023C0000300DBB2D154401C0100C9B20429ECDB8C
:1023D0003800C0B200903300DBB22A00D2B202A9AA
:1023E0005FF0FF30FFF79AF95FF000099EE717B042
:1023F000BDE8F08F2DE9F0478CB002A8DFF8D81BBC
:10240000282204F03BF804F099F80421DFF8CC4BC3
:1024100090FBF1F201FB1200207004F08FF8042110
:10242000DFF8BC5B90FBF1F201FB1200287004F0B6
:1024300085F80421DFF8AC6B90FBF1F201FB120090
:10244000307000273BE001224146C9B25FF0FF3007
:10245000FEF742FA814602224146C9B25FF0FF30E0
:10246000FEF73AFA824604224146C9B25FF0FF30D5
:10247000FEF732FA02004046C0B2D0F13C003C21E7
:102480005FFA89F9CDF800905346DBB2D2B290FBE7
:10249000F1FC01FB1C000100C9B25FF0FF30FEF748
:1024A0003EF818F101084046C0B21E28CBDBDFF829
:1024B000240BFEF727FB322004F0ECF87F1C3800D9
:1024C000C0B20A281EDA00200CE002A90200D2B233
:1024D0003B00DBB212EB8302895C01AA0300DBB292
:1024E000D154401C0100C9B20429EEDB30780090C1
:1024F0002B78227801A95FF0FF30FEF745FD5FF0F1
:102500000008D0E70CB0BDE8F0870000606B000861
:102510002DE9F84F8EB002A8DFF8CC1A302203F074
:10252000ADFF002400E0641C2000C0B2022880F24D
:10253000878004F003F80421DFF8A05A90FBF1F241
:1025400001FB1200287003F0F9FF0421DFF8906A04
:1025500090FBF1F201FB1200307003F0EFFF042159
:10256000DFF8807A90FBF1F201FB120038705FF027
:1025700000083CE001224946C9B25FF0FF30FEF797
:10258000ABF9824602224946C9B25FF0FF30FEF73E
:10259000A3F9834604224946C9B25FF0FF30FEF733
:1025A0009BF902004846C0B2D0F13C003C215FFAE2
:1025B0008AFACDF800A05B46DBB2D2B290FBF1FC08
:1025C00001FB1C000100C9B25FF0FF30FDF7A7FF5F
:1025D00019F101094846C0B21E28CBDBDFF8F40927
:1025E000FEF790FA322004F055F818F10108404641
:1025F000C0B2062897DA002112E002AA0B00DBB273
:102600004046C0B213EB8003A4465FFA8CFC18204E
:1026100000FB0C33D05C01AA0B00DBB2D054491C88
:102620000800C0B20428E8DB3878009033782A78B4
:1026300001A95FF0FF30FEF7A7FC5FF00009C9E7D2
:102640000FB0BDE8F08F00005C7000082DE9F0418C
:102650008AB002A8DFF89419202203F00FFF0024AB
:1026600000E0641C2000C0B2022880F2DF80002558
:1026700038E001223100C9B25FF0FF30FEF72CF9DB
:10268000070002223100C9B25FF0FF30FEF724F9E3
:10269000804604223100C9B25FF0FF30FEF71CF91A
:1026A0003100C9B2D1F13C015FF03C0CFFB20097A0
:1026B0004346DBB20200D2B291FBFCF00CFB1011DE
:1026C000C9B25FF0FF30FDF72AFF761C3000C0B2C0
:1026D0001E28CEDBDFF83C06FEF714FA322003F0AA
:1026E000D9FF6D1C2800C0B20828BADA2800C0B291
:1026F00000281DD103F022FF042190FBF1F201FB21
:102700001200DFF8EC18087003F018FF042190FBAA
:10271000F1F201FB1200DFF8DC18087003F00EFF85
:10272000042190FBF1F201FB1200DFF8CC180870D5
:102730002800C0B204281DD103F000FF042190FB43
:10274000F1F201FB1200DFF8B418087003F0F6FE96
:10275000042190FBF1F201FB1200DFF8A4180870CD
:1027600003F0ECFE042190FBF1F201FB1200DFF814
:1027700094180870002006E00021DFF89825030077
:10278000DBB2D154401C0100C9B22E29F4DB002079
:102790000CE002A90200D2B22B00DBB212EB8302E2
:1027A000895C01AA0300DBB2D154401C0100C9B20C
:1027B0000429EEDBDFF8400800780090DFF83408E9
:1027C0000378DFF82C08027801A95FF0FF30FEF7EC
:1027D000A5FF002015E02900C9B2091D06E0290067
:1027E000C9B20429F7DB2900C9B2091F02AA0300F4
:1027F000DBB213EB8103D15C01AA0300DBB2D1543D
:10280000401C0100C9B20429E9DBDFF8F8070078B1
:102810000090DFF8EC070378DFF8E007027801A901
:102820005FF0FF30FEF77AFF00264FE7002438E024
:1028300001222900C9B25FF0FF30FEF74DF8060013
:1028400002222900C9B25FF0FF30FEF745F8070009
:1028500004222900C9B25FF0FF30FEF73DF8020004
:102860002800C0B2D0F13C003C21F6B200963B00FB
:10287000DBB2D2B290FBF1F601FB16000100C9B247
:102880005FF0FF30FDF74BFE6D1C2800C0B21E2824
:10289000CEDBDFF88004FEF735F9322003F0FAFED4
:1028A000641C2000C0B2042831DA002006E00021B8
:1028B000DFF860240300DBB2D154401C0100C9B230
:1028C0002E29F4DB00200DE002A90200D2B2230081
:1028D000DBB212EB83021144097C01AA0300DBB2D4
:1028E000D154401C0100C9B20429EDDBDFF8140704
:1028F00000780090DFF808070378DFF80007027817
:1029000001A95FF0FF30FEF709FF0025BDE70024B5
:1029100007E0DFF80004FEF7F5F8322003F0BAFE16
:10292000641C2000C0B20828F3DB0020DFF8D416B6
:102930000870DFF8CC160870DFF8C0160870DFF8F2
:10294000B8160870DFF8AC160870DFF8A416087027
:102950000AB0BDE8F0812DE9F04788B002A8DFF8A1
:10296000B41B182203F08AFD03F0E8FD0421DFF810
:102970006C4690FBF1F201FB1200207003F0DEFDCB
:102980000421DFF85C5690FBF1F201FB1200287085
:1029900003F0D4FD0421DFF84C6690FBF1F201FB5B
:1029A0001200307000273BE001224146C9B25FF0BF
:1029B000FF30FDF791FF814602224146C9B25FF028
:1029C000FF30FDF789FF824604224146C9B25FF01D
:1029D000FF30FDF781FF02004046C0B2D0F13C005D
:1029E0003C215FFA89F9CDF800905346DBB2D2B2B0
:1029F00090FBF1FC01FB1C000100C9B25FF0FF304D
:102A0000FDF78DFD18F101084046C0B21E28CBDB52
:102A1000DFF8C005FEF776F8322003F03BFE7F1C9E
:102A20003800C0B206282BDA002006E00021DFF8CB
:102A3000A4250300DBB2D154401C0100C9B22E29E9
:102A4000F4DB00200CE002A90200D2B23B00DBB2B2
:102A500012EB8302895C01AA0300DBB2D154401C53
:102A60000100C9B20429EEDB307800902B7822787F
:102A700001A95FF0FF30FEF751FE5FF00008C3E7E9
:102A800008B0BDE8F087F8B594B002A8DFF8881A5E
:102A9000482203F0F3FC002437E001222900C9B2E8
:102AA0005FF0FF30FDF718FF060002222900C9B2CF
:102AB0005FF0FF30FDF710FF070004222900C9B2C4
:102AC0005FF0FF30FDF708FF2900C9B2D1F13C01EA
:102AD0005FF03C0CF6B200963B00DBB20200D2B2D3
:102AE00091FBFCF00CFB1011C9B25FF0FF30FDF759
:102AF00016FD6D1C2800C0B21E28CEDB8548FEF7EF
:102B000001F8322003F0C6FD641C2000C0B2122878
:102B100080F2FB802000C0B200281DD103F00EFD22
:102B2000042190FBF1F201FB1200DFF8C81C0870D1
:102B300003F004FD042190FBF1F201FB1200DFF829
:102B4000B81C087003F0FAFC042190FBF1F201FBC1
:102B50001200DFF8A81C08702000C0B206281DD1A2
:102B600003F0ECFC042190FBF1F201FB1200DFF812
:102B7000901C087003F0E2FC042190FBF1F201FBD1
:102B80001200DFF8801C087003F0D8FC042190FBD1
:102B9000F1F201FB1200DFF8701C08702000C0B2D7
:102BA0000C281DD103F0CAFC042190FBF1F201FBBB
:102BB0001200DFF8581C087003F0C0FC042190FBE1
:102BC000F1F201FB1200DFF8481C087003F0B6FCBC
:102BD000042190FBF1F201FB1200DFF8381C0870B1
:102BE000002005E000214B4A0300DBB2D154401C19
:102BF0000100C9B22E29F5DB002011E02100C9B285
:102C000012220300DBB291FBF2F502FB151113EB6C
:102C1000810302A9C95C01AA0300DBB2D154401CA4
:102C20000100C9B20429E9DBDFF8D00B007800907D
:102C3000DFF8C40B0378DFF8BC0B027801A95FF062
:102C4000FF30FEF76BFD00201AE02100C9B20C3105
:102C500006E02100C9B20629F7DB2100C9B2891FAD
:102C600012220300DBB291FBF2F502FB151113EB0C
:102C7000810302A9C95C01AA0300DBB2D154401C44
:102C80000100C9B20429E4DBDFF87C0B0078009076
:102C9000DFF8700B0378DFF8680B027801A95FF0AA
:102CA000FF30FEF73BFD00201AE02100C9B2891D6C
:102CB00006E02100C9B20C29F7DB2100C9B20C39AA
:102CC00012220300DBB291FBF2F502FB151113EBAC
:102CD000810302A9C95C01AA0300DBB2D154401CE4
:102CE0000100C9B20429E4DBDFF8280B007800906A
:102CF000DFF81C0B0378DFF8140B027801A95FF0F2
:102D0000FF30FEF70BFD0025F4E615B0F0BD000026
:102D1000F06E000808040020006D0008F8B592B0BD
:102D200002A8DFF8E81C402203F0A8FB002437E0EB
:102D300001222900C9B25FF0FF30FDF7CDFD06008A
:102D400002222900C9B25FF0FF30FDF7C5FD070080
:102D500004222900C9B25FF0FF30FDF7BDFD290054
:102D6000C9B2D1F13C015FF03C0CF6B200963B00D9
:102D7000DBB20200D2B291FBFCF00CFB1011C9B225
:102D80005FF0FF30FDF7CBFB6D1C2800C0B21E28A2
:102D9000CEDB9048FDF7B6FE322003F07BFC641CCE
:102DA0002000C0B2102880F213812000C0B2002899
:102DB00007D02000C0B2102803D02000C0B22028C5
:102DC0001DD103F0BBFB042190FBF1F201FB1200CB
:102DD000DFF83C1C087003F0B1FB042190FBF1F21A
:102DE00001FB1200DFF82C1C087003F0A7FB042184
:102DF00090FBF1F201FB1200DFF81C1C08702000B0
:102E0000C0B2062807D02000C0B2162803D0200088
:102E1000C0B226281DD103F091FB042190FBF1F2F2
:102E200001FB1200DFF8F41B087003F087FB04219C
:102E300090FBF1F201FB1200DFF8E41B087003F0D5
:102E40007DFB042190FBF1F201FB1200DFF8D41BA3
:102E500008702000C0B20C2807D02000C0B21C2887
:102E600003D02000C0B22C281DD103F067FB042141
:102E700090FBF1F201FB1200DFF8AC1B087003F0CD
:102E80005DFB042190FBF1F201FB1200DFF89C1BBB
:102E9000087003F053FB042190FBF1F201FB1200D8
:102EA000DFF88C1B0870002005E00021494A030070
:102EB000DBB2D154401C0100C9B22E29F5DB002041
:102EC00011E02100C9B210220300DBB291FBF2F540
:102ED00002FB151113EB810302A9C95C01AA0300CF
:102EE000DBB2D154401C0100C9B20429E9DBDFF890
:102EF000280B00780090DFF81C0B0378DFF8100B2C
:102F0000027801A95FF0FF30FEF708FC00201AE00C
:102F10002100C9B20A3106E02100C9B20629F7DB57
:102F20002100C9B2891F10220300DBB291FBF2F528
:102F300002FB151113EB810302A9C95C01AA03006E
:102F4000DBB2D154401C0100C9B20429E4DBDFF834
:102F5000D40A00780090DFF8C80A0378DFF8BC0ACA
:102F6000027801A95FF0FF30FEF7D8FB00201AE0DD
:102F70002100C9B2091D06E02100C9B20C29F7DB06
:102F80002100C9B20C3910220300DBB291FBF2F52B
:102F900002FB151113EB810302A9C95C01AA03000E
:102FA000DBB2D154401C0100C9B20429E4DBDFF8D4
:102FB000800A00780090DFF8740A0378DFF8680A66
:102FC000027801A95FF0FF30FEF7A8FB0025DCE6E0
:102FD00013B0F0BD08040020186F00085004002052
:102FE0005104002052040020946E00088C6F0008E9
:102FF00053040020540400205504002056040020EF
:1030000057040020580400202DE9F04F91B002A889
:10301000DFF8141D3C2203F031FA03F08FFA04218B
:10302000DFF8084D90FBF1F201FB1200207003F075
:1030300085FA0421DFF8F85C90FBF1F201FB120045
:10304000287003F07BFA0421DFF8E86C90FBF1F2C2
:1030500001FB1200307000273BE001224146C9B25B
:103060005FF0FF30FDF738FC814602224146C9B2CD
:103070005FF0FF30FDF730FC824604224146C9B2C2
:103080005FF0FF30FDF728FC4146C9B2D1F13C01A9
:103090005FF03C0C5FFA89F9CDF800905346DBB243
:1030A0000200D2B291FBFCF00CFB1011C9B25FF030
:1030B000FF30FDF734FA18F101084046C0B21E286F
:1030C000CBDBDFF8180DFDF71DFD322003F0E2FA2F
:1030D0007F1C3800C0B2052872DA002006E000210B
:1030E000DFF8F82C0300DBB2D154401C0100C9B258
:1030F0002E29F4DB00200CE002A90200D2B23B0032
:10310000DBB212EB8302895C01AA0300DBB2D1546B
:10311000401C0100C9B20429EEDB307800902B7806
:10312000227801A95FF0FF30FEF7F8FA00200EE0E8
:1031300002A90200D2B23B00DBB212EB83021144BF
:1031400091F8281001AA0300DBB2D154401C010001
:10315000C9B20429ECDBDFF8880C00780090DFF8B6
:10316000840C0378DFF8800C027801A95FF0FF304F
:10317000FEF7D4FA00200DE002A90200D2B23B0013
:10318000DBB212EB83021144097D01AA0300DBB21A
:10319000D154401C0100C9B20429EDDBDFF84C0C0E
:1031A00000780090DFF8480C0378DFF8480C0278CC
:1031B00001A95FF0FF30FEF7B1FA5FF000087CE78D
:1031C00003F0BCF9042190FBF1F201FB1200DFF8DF
:1031D000181C087003F0B2F9042190FBF1F201FB16
:1031E0001200DFF8001C087003F0A8F90421DFF8D2
:1031F000F07B90FBF1F201FB120038705FF00008E9
:103200003CE001224946C9B25FF0FF30FDF764FBA4
:10321000824602224946C9B25FF0FF30FDF75CFBEF
:10322000834604224946C9B25FF0FF30FDF754FBE4
:103230004946C9B2D1F13C015FF03C0C5FFA8AFA11
:10324000CDF800A05B46DBB20200D2B291FBFCF0ED
:103250000CFB1011C9B25FF0FF30FDF760F919F1F6
:1032600001094846C0B21E28CBDBDFF8700BFDF722
:1032700049FC322003F00EFA18F101084046C0B2B2
:10328000052870DA002006E00021DFF8502B03004B
:10329000DBB2D154401C0100C9B22E29F4DB00205E
:1032A0000DE002A90200D2B24346DBB212EB830268
:1032B0001144097D01AA0300DBB2D154401C010076
:1032C000C9B20429EDDB307800902B78227801A96F
:1032D0005FF0FF30FEF722FA00200CE002A90200A6
:1032E000D2B24346DBB212EB8302895C01AA03002F
:1032F000DBB2D154401C0100C9B20429EEDB38789E
:103300000090DFF8E00A0378DFF8DC0A027801A910
:103310005FF0FF30FEF702FA00200EE002A9020083
:10332000D2B24346DBB212EB8302114491F828106B
:1033300001AA0300DBB2D154401C0100C9B2042928
:10334000ECDBDFF8A80A00780090DFF8A40A037825
:10335000DFF8A00A027801A95FF0FF30FEF7DEF97E
:103360005FF000097DE703F0E9F8042190FBF1F23A
:1033700001FB1200DFF87C1A087003F0DFF804216B
:1033800090FBF1F201FB1200DFF8641A087003F001
:10339000D5F8042190FBF1F201FB1200DFF84C1A82
:1033A00008705FF000083CE001224946C9B25FF0B6
:1033B000FF30FDF791FA824602224946C9B25FF01A
:1033C000FF30FDF789FA834604224946C9B25FF00F
:1033D000FF30FDF781FA02004846C0B2D0F13C0050
:1033E0003C215FFA8AFACDF800A05B46DBB2D2B28C
:1033F00090FBF1FC01FB1C000100C9B25FF0FF3043
:10340000FDF78DF819F101094846C0B21E28CBDB43
:10341000DFF8C809FDF776FB322003F03BF918F11D
:1034200001084046C0B2052870DA002006E00021FD
:10343000DFF8A8290300DBB2D154401C0100C9B257
:103440002E29F4DB00200EE002A90200D2B243468E
:10345000DBB212EB8302114491F8281001AA030099
:10346000DBB2D154401C0100C9B20429ECDB307836
:1034700000902B78227801A95FF0FF30FEF74EF91B
:1034800000200DE002A90200D2B24346DBB212EBEB
:1034900083021144097D01AA0300DBB2D154401C10
:1034A0000100C9B20429EDDB38780090DFF8340957
:1034B0000378DFF83409027801A95FF0FF30FEF7E6
:1034C0002DF900200CE002A90200D2B24346DBB283
:1034D00012EB8302895C01AA0300DBB2D154401CC9
:1034E0000100C9B20429EEDBDFF800090078009082
:1034F000DFF8FC080378DFF8FC08027801A95FF028
:10350000FF30FEF70BF95FF000097DE711B0BDE871
:10351000F08F0000F46F0008506D00082DE9F84F9F
:1035200092B002A8DFF8D018402202F0A7FF03F003
:1035300005F80421DFF8C44890FBF1F201FB12000A
:10354000207002F0FBFF0421DFF8B45890FBF1F289
:1035500001FB1200287002F0F1FF0421DFF8A468DB
:1035600090FBF1F201FB1200307000273BE00122DA
:103570004146C9B25FF0FF30FDF7AEF98146022245
:103580004146C9B25FF0FF30FDF7A6F9824604223A
:103590004146C9B25FF0FF30FDF79EF94146C9B21E
:1035A000D1F13C015FF03C0C5FFA89F9CDF8009055
:1035B0005346DBB20200D2B291FBFCF00CFB1011BF
:1035C000C9B25FF0FF30FCF7AAFF18F101084046CE
:1035D000C0B21E28CBDBDFF80408FDF793FA3220D7
:1035E00003F058F87F1C3800C0B208284FDA0020DA
:1035F00006E00021DFF8E4270300DBB2D154401CD1
:103600000100C9B22E29F4DB00200CE002A902005F
:10361000D2B23B00DBB212EB8302895C01AA030049
:10362000DBB2D154401C0100C9B20429EEDB307872
:1036300000902B78227801A95FF0FF30FEF76EF83A
:1036400000200EE002A90200D2B23B00DBB212EB76
:103650008302114491F8201001AA0300DBB2D15477
:10366000401C0100C9B20429ECDBDFF8080900782E
:103670000090DFF804090378DFF80009027801A957
:103680005FF0FF30FEF74AF85FF000089FE702F0B6
:1036900055FF042190FBF1F201FB1200DFF8DC186A
:1036A000087002F04BFF042190FBF1F201FB1200C5
:1036B000DFF8C418087002F041FF0421DFF8B47885
:1036C00090FBF1F201FB120038705FF000083CE063
:1036D00001224946C9B25FF0FF30FDF7FDF882468E
:1036E00002224946C9B25FF0FF30FDF7F5F8834684
:1036F00004224946C9B25FF0FF30FDF7EDF8020041
:103700004846C0B2D0F13C003C215FFA8AFACDF8BD
:1037100000A05B46DBB2D2B290FBF1FC01FB1C00C7
:103720000100C9B25FF0FF30FCF7F9FE19F10109A1
:103730004846C0B21E28CBDBDFF8A006FDF7E2F951
:10374000322002F0A7FF18F101084046C0B2082855
:103750004DDA002006E00021DFF880260300DBB20E
:10376000D154401C0100C9B22E29F4DB00200EE028
:1037700002A90200D2B24346DBB212EB830211442B
:1037800091F8201001AA0300DBB2D154401C0100C3
:10379000C9B20429ECDB307800902B78227801A99B
:1037A0005FF0FF30FDF7BAFF00200CE002A9020035
:1037B000D2B24346DBB212EB8302895C01AA03005A
:1037C000DBB2D154401C0100C9B20429EEDB3878C9
:1037D0000090DFF8A4070378DFF8A007027801A9BA
:1037E0005FF0FF30FDF79AFF5FF00009A0E713B02C
:1037F000BDE8F08F590400205A0400205B0400202B
:103800005C0400205D0400205E0400205F040020B2
:10381000600400206104002030B587B003A8DFF801
:10382000C418102202F02AFE00241AE02000C0B2C0
:10383000FDF7D0FEDFF8B00800780090DFF8AC08A4
:103840000378DFF8AC08027801A95FF0FF30FDF7DC
:10385000DFFBDFF88805FDF755F9322002F01AFF8B
:10386000641C2000C0B210281CDA00200100C9B27C
:103870000829DBDA2100C9B2052909DB03A9020006
:10388000D2B21144097A01AA0300DBB2D15407E095
:1038900003A90200D2B2895C01AA0300DBB2D154B1
:1038A000401CE3E7002403E0322002F0F3FE641C36
:1038B0002000C0B2B42841DA00251EE02900C9B2B8
:1038C0002000C0B24118242091FBF0F200FB12113D
:1038D0000800C0B2FDF77EFEDFF80C08007800900B
:1038E000DFF808080378DFF80808027801A9D5F1A5
:1038F0000F0040B2FDF78CFB6D1C2800C0B21028F1
:10390000D2DA00200100C9B20829D7DA2900C9B2E9
:10391000052909DB03A90200D2B21144097A01AAE0
:103920000300DBB2D15407E003A90200D2B2895CE4
:1039300001AA0300DBB2D154401CE3E7002406E0F7
:103940001020FDF701FD322002F0A4FE641C2000CF
:10395000C0B2F028F4DB002403E0322002F09AFE2B
:10396000641C2000C0B2B42840DA00251DE0290004
:10397000C9B22000C0B24118242091FBF0F200FB34
:1039800012110800C0B2FDF725FEDFF85C070078D1
:103990000090DFF858070378DFF85407027801A990
:1039A000280040B2FDF734FB6D1C2800C0B210287F
:1039B000D3DA00200100C9B20829D8DA2900C9B237
:1039C0000B2908DB03A90200D2B2895C01AA03001B
:1039D000DBB2D15408E003A90200D2B21144097A43
:1039E00001AA0300DBB2D154401CE3E7002406E047
:1039F0001020FDF77BFB322002F04CFE641C2000FF
:103A0000C0B2F028F4DB07B030BD0000986D0008AC
:103A10006204002063040020640400206504002088
:103A20006604002067040020680400206904002068
:103A30006A0400202DE9F843A2B0040002A8DFF8D0
:103A4000B416802202F01AFD002537E00122310071
:103A5000C9B25FF0FF30FCF73FFF070002223100E0
:103A6000C9B25FF0FF30FCF737FF80460422310017
:103A7000C9B25FF0FF30FCF72FFF3100C9B2D1F1BE
:103A80003C015FF03C0CFFB200974346DBB2020002
:103A9000D2B291FBFCF00CFB1011C9B25FF0FF3009
:103AA000FCF73DFD761C3000C0B21E28CEDBCB48B3
:103AB000FDF728F8322002F0EDFD6D1C2800C0B2A1
:103AC00010282CDA002111E002AA0B00DBB228003A
:103AD000C0B213EB80032600F6B2402000FB063391
:103AE000D05C01AA0B00DBB2D054491C0800C0B264
:103AF0000428E9DB2800C0B2FDF76CFDDFF8E8051B
:103B000000780090DFF8E4050378DFF8E405027838
:103B100001A95FF0FF30FDF737FA0026C3E7002563
:103B200003E0322002F0B6FD6D1C2800C0B2B428BC
:103B300077DA002637E001223900C9B2D6F10E004B
:103B400040B2FCF7C9FE804602223900C9B2D6F164
:103B50000E0040B2FCF7C0FE814604223900C9B213
:103B6000D6F10E0040B2FCF7B7FE3900C9B2D1F170
:103B70003C015FF03C0C5FFA88F8CDF800804B46C2
:103B8000DBB20200D2B291FBFCF00CFB1011C9B207
:103B9000D6F10E0040B2FCF7C2FC7F1C3800C0B268
:103BA0001E28C8DB761C3000C0B20F28B9DA00210D
:103BB00013E002AA0B00DBB23000C0B213EB8003AB
:103BC0002700FFB2402000FB073302EB030000791F
:103BD00001AA0B00DBB2D054491C0800C0B2042873
:103BE000E7DB3100C9B22800C0B24118242091FBA4
:103BF000F0F200FB12110800C0B2FDF7EBFCDFF899
:103C0000E80400780090DFF8E4040378DFF8E004CB
:103C1000027801A9D6F10E0040B2FDF7B5F90027F0
:103C2000BCE7002503E0322002F034FD6D1C2800C3
:103C3000C0B2B42874DA002633E001223900C9B2D8
:103C4000300040B2FCF748FE804602223900C9B27B
:103C5000300040B2FCF740FE814604223900C9B270
:103C6000300040B2FCF738FE02003800C0B2D0F19C
:103C70003C003C215FFA88F8CDF800804B46DBB26F
:103C8000D2B290FBF1FC01FB1C000100C9B2300074
:103C900040B2FCF744FC7F1C3800C0B21E28CCDBCD
:103CA000761C3000C0B20F28BDDA002115E002AA50
:103CB0000B00DBB23000C0B2404213EB80032700A0
:103CC000FFB2402000FB073302EB030090F83C00FA
:103CD00001AA0B00DBB2D054491C0800C0B2042872
:103CE000E5DB3100C9B22800C0B24118242091FBA5
:103CF000F0F200FB12110800C0B2FDF76BFCDFF818
:103D0000E80300780090DFF8E4030378DFF8E003CD
:103D1000027801A9300040B2FDF736F90027BBE771
:103D200023B0BDE8F0830000586E00086B0400204B
:103D30006C0400206D04002038B500241BE0DFF87F
:103D4000A80300780090DFF8A4030378DFF8A0034D
:103D500002782900C9B25FF0FF30FCF7E0FB6D1C70
:103D60002800C0B23C28EADB1C48FCF7CBFE32201E
:103D700002F090FC641C2000C0B2242805DA200068
:103D8000C0B2FDF727FC0025EAE700241BE0DFF8BE
:103D9000580300780090DFF854030378DFF85003ED
:103DA00002782900C9B25FF0FF30FCF7B8FB6D1C48
:103DB0002800C0B23C28EADB0848FCF74EFF32205E
:103DC00002F068FC641C2000C0B2242805DA200040
:103DD000C0B2FDF7FFFB0025EAE731BD0804002073
:103DE000700400206F0400206E0400207304002083
:103DF0007204002071040020D86D000874040020B3
:103E000075040020760400202DE9F84187B003A84E
:103E1000DFF8581B102202F031FB02F08FFB042167
:103E2000B34C90FBF1F201FB1200207002F086FB14
:103E30000421AE4D90FBF1F201FB1200287002F05C
:103E40007DFB0421A84E90FBF1F201FB12003070C3
:103E5000002005E0FF2101AA0300DBB2D154401C81
:103E60000100C9B20829F5DB307800902B78227860
:103E700001A95FF0FF30FDF7CBF8DFF8E8763800F6
:103E8000FCF7EBFE192002F005FC002009E003A975
:103E90000200D2B21144097A01AA0300DBB2D15464
:103EA000401C0100C9B20829F1DB307800902B7862
:103EB000227801A95FF0FF30FDF7AAF85FF0000853
:103EC00007E03800FCF7C9FE192002F0E3FB18F107
:103ED00001084046C0B20828F3DB002008E003A92F
:103EE0000200D2B2895C01AA0300DBB2D154401CAB
:103EF0000100C9B20829F2DB307800902B782278D3
:103F000001A95FF0FF30FDF783F85FF0000807E0DC
:103F10003800FCF7A2FE192002F0BCFB18F10108E2
:103F20004046C0B20528F3DB002005E0002101AACD
:103F30000300DBB2D154401C0100C9B20829F5DBF3
:103F4000307800902B78227801A95FF0FF30FDF7E0
:103F50005FF8002406E03800FCF77FFE192002F02D
:103F600099FB641C2000C0B21028F4DB08B0BDE847
:103F7000F0810000790400207804002077040020FC
:103F8000F0B587B003A8DFF8341B102202F076FAF0
:103F900002F0D4FA0421564C90FBF1F201FB12001E
:103FA000207002F0CBFA0421504D90FBF1F201FB9E
:103FB0001200287002F0C2FA04214B4E90FBF1F27D
:103FC00001FB12003070002008E003A90200D2B209
:103FD000895C01AA0300DBB2D154401C0100C9B2C4
:103FE0000829F2DB307800902B78227801A95FF065
:103FF000FF30FDF70DF8002707E0DFF86805FCF754
:1040000081FD192002F046FB7F1C3800C0B2052854
:10401000F3DB002009E003A90200D2B21144097ABF
:1040200001AA0300DBB2D154401C0100C9B2082927
:10403000F1DB307800902B78227801A95FF0FF3017
:10404000FCF7E6FF002707E0DFF81805FCF75AFD4C
:10405000192002F01FFB7F1C3800C0B20828F3DBD8
:10406000002005E0FF2101AA0300DBB2D154401C6F
:104070000100C9B20829F5DB307800902B7822784E
:1040800001A95FF0FF30FCF7C3FFDFF8D8743800F8
:10409000FCF738FD192002F0FDFA002005E00021B0
:1040A00001AA0300DBB2D154401C0100C9B20829A7
:1040B000F5DB307800902B78227801A95FF0FF3093
:1040C000FCF7A6FF002406E03800FCF71BFD1920D2
:1040D00002F0E0FA641C2000C0B21028F4DB07B044
:1040E000F0BD00000C7000085204002051040020B4
:1040F00050040020006C00082DE9F843002400E083
:10410000641C2000C0B2062880F22A82002500E04C
:104110006D1C2800C0B2032880F2DD8100263AE041
:1041200001223900C9B25FF0FF30FCF7D5FB8046B1
:1041300002223900C9B25FF0FF30FCF7CDFB8146A7
:1041400004223900C9B25FF0FF30FCF7C5FB020062
:104150003800C0B2D0F13C003C215FFA88F8CDF8BD
:1041600000804B46DBB2D2B290FBF1FC01FB1C009D
:104170000100C9B25FF0FF30FCF7D1F97F1C3800B5
:10418000C0B21E28CCDBDFF8DC03FCF7BBFC192037
:1041900002F080FA761C3000C0B20928B8DA5FF06D
:1041A000FF30FCF7FBFD2800C0B2002803D120003F
:1041B000C0B200280FD02800C0B2012803D12000CF
:1041C000C0B2012807D02800C0B2022832D1200096
:1041D000C0B202282ED13000C0B203280ADA300063
:1041E000C0B200900023002200215FF0FF30FCF7F6
:1041F00096F96EE13000C0B2C01E03280AD2032037
:1042000000900023F21ED2B200215FF0FF30FCF7D5
:1042100086F95EE13000C0B20628C0F25A81032060
:104220000090B31FDBB2032200215FF0FF30FCF7E8
:1042300076F94EE12800C0B2012803D12000C0B2B7
:1042400000280FD02800C0B2022803D12000C0B23D
:10425000012807D02800C0B2002832D12000C0B207
:1042600002282ED13000C0B203280ADA00200090C4
:1042700000233200D2B200215FF0FF30FCF74FF98B
:1042800027E13000C0B2C01E03280AD2F01EC0B21F
:1042900000900023032200215FF0FF30FCF73FF97C
:1042A00017E13000C0B20628C0F21381032000904D
:1042B000B31FDBB2032200215FF0FF30FCF72FF9C0
:1042C00007E12800C0B2022803D12000C0B20028B4
:1042D0000FD02800C0B2002803D12000C0B20128AE
:1042E00007D02800C0B2012832D12000C0B2022875
:1042F0002ED13000C0B203280ADA0020009033002B
:10430000DBB2002200215FF0FF30FCF708F9E0E0AB
:104310003000C0B2C01E03280AD200200090032340
:10432000F21ED2B200215FF0FF30FCF7F8F8D0E0C7
:104330003000C0B20628C0F2CC80B01FC0B20090DE
:104340000323032200215FF0FF30FCF7E8F8C0E010
:104350002800C0B2002803D12000C0B203280FD02B
:104360002800C0B2012803D12000C0B2042807D021
:104370002800C0B202282CD12000C0B2052828D1C4
:104380003000C0B2062814DA3000C0B2022190FB1F
:10439000F1F0C0B2009000233000C0B2022190FBC7
:1043A000F1F00200D2B200215FF0FF30FCF7B7F865
:1043B0008FE03000C0B20628C0F28B80032000904E
:1043C000B31FDBB2032200215FF0FF30FCF7A7F838
:1043D0007FE02800C0B2012803D12000C0B203282A
:1043E0000FD02800C0B2022803D12000C0B2042898
:1043F00007D02800C0B200282BD12000C0B2052869
:1044000027D13000C0B2062814DA3000C0B2022131
:1044100090FBF1F0C0B200903000C0B2022190FBDE
:10442000F1F00300DBB2002200215FF0FF30FCF767
:1044300076F84EE03000C0B206284ADB0320009038
:104440000323B21FD2B200215FF0FF30FCF767F800
:104450003FE02800C0B2022803D12000C0B20328E8
:104460000FD02800C0B2002803D12000C0B2042819
:1044700007D02800C0B201282BD12000C0B20528E7
:1044800027D13000C0B2062815DA00200090300095
:10449000C0B2022190FBF1F00300DBB23000C0B2E9
:1044A000022190FBF1F00200D2B200215FF0FF3058
:1044B000FCF735F80DE03000C0B2062809DBB01F6C
:1044C000C0B200900323032200215FF0FF30FCF70D
:1044D00026F8002753E6002537E001223100C9B253
:1044E0005FF0FF30FCF7F8F9070002223100C9B293
:1044F0005FF0FF30FCF7F0F9804604223100C9B2CA
:104500005FF0FF30FCF7E8F93100C9B2D1F13C01AE
:104510005FF03C0CFFB200974346DBB20200D2B220
:1045200091FBFCF00CFB1011C9B25FF0FF30FBF700
:10453000F6FF761C3000C0B21E28CEDB0948FCF71F
:10454000E1FA192002F0A6F86D1C2800C0B210286C
:10455000BFF6D6AD5FF0FF30FCF720FC0026E9E7A0
:10456000BDE8F183080400202DE9FC41002415E09A
:104570003878009033782A782000C0B24146C9B21A
:1045800011EB8001C9B25FF0FF30FBF7C8FF18F1F3
:1045900001084046C0B20328EADB641C2000C0B218
:1045A000042820DA01F0CAFF0421DFF83C5A90FB0E
:1045B000F1F201FB1200287001F0C0FF0421DFF8C6
:1045C0002C6A90FBF1F201FB1200307001F0B6FF93
:1045D0000421DFF81C7A90FBF1F201FB1200387025
:1045E0005FF00008D5E700242AE04046C0B2210071
:1045F000C9B210EB41003C213A78009233782A7816
:1046000090FBF1FC01FB1C000100C9B25FF0FF3020
:10461000FBF785FF18F101084046C0B23C28E4DBF7
:10462000DFF8B80CFCF76EFA5FF0FF30FCF78CFE99
:104630005FF0FF30FCF788FE192002F02BF8641CB5
:104640002000C0B2F02832DA01F078FF0221DFF852
:10465000985990FBF1F201FB1200287001F06EFFF7
:104660000221DFF8886990FBF1F201FB1200307043
:1046700001F064FF0221DFF8787990FBF1F201FB91
:10468000120038702000C0B2082190FBF1F201FB4B
:1046900012000028C4D1297830780143C9B200291A
:1046A00002D138780028BBD05FF00C08B4E7BDE831
:1046B000F3812DE9FC41002417E03878009033782D
:1046C0002A782100C9B25FF00F0C4046C0B20CFB43
:1046D0000101C9B25FF0FF30FBF721FF18F10108BB
:1046E0004046C0B20C28E8DB641C2000C0B204289D
:1046F00029DA01F023FF0421DFF8EC5890FBF1F2F6
:1047000001FB1200287001F019FF0421DFF8DC68BA
:1047100090FBF1F201FB1200307001F00FFF042159
:10472000DFF8CC7890FBF1F201FB120038702978A9
:1047300030780143C9B2002902D138780028D3D09B
:104740005FF00008CCE700240FE0DFF8900BFCF7E7
:10475000D9F95FF0FF30FCF7F7FD5FF0FF30FCF7B1
:10476000F3FD192001F096FF641C2000C0B2F02870
:10477000EBDB00240FE0DFF8640BFCF7C3F95FF01C
:10478000FF30FCF7B3FC5FF0FF30FCF7AFFC192003
:1047900001F080FF641C2000C0B2F028EBDBBDE814
:1047A000F3812DE9F04792B002A8DFF8341B4022D4
:1047B00001F064FE01F0C2FE0421DFF82C4890FBFA
:1047C000F1F201FB1200207001F0B8FE0421DFF8C5
:1047D0001C5890FBF1F201FB1200287001F0AEFEB4
:1047E0000421DFF80C6890FBF1F201FB120030703D
:1047F000002733E001224146C9B25FF0FF30FCF7E9
:104800006BF8814602224146C9B25FF0FF30FCF7E7
:1048100063F8824604224146C9B25FF0FF30FCF7DC
:104820005BF85FFA89F9CDF800905346DBB20200DD
:10483000D2B2D8F13B01C9B25FF0FF30FBF76FFE97
:1048400018F101084046C0B21E28D3DBDFF88C0AFD
:10485000FCF758F9192001F01DFF7F1C3800C0B289
:10486000102880F27F8000200CE002A93A00D2B22A
:104870000300DBB213EB8203C95C01AA0300DBB2C5
:10488000D154401C0100C9B20429EEDB30780090FD
:104890002B78227801A95FF0FF30FCF775FB380018
:1048A000C0B2092803D03800C0B20A2823D120782A
:1048B000009033782A7800215FF0FF30FBF72FFE5D
:1048C0002078009033782A780E215FF0FF30FBF7D4
:1048D00026FE2078009033782A780F215FF0FF3091
:1048E000FBF71DFE2078009033782A781D215FF0B9
:1048F000FF30FBF714FE3800C0B20A280BD0380096
:10490000C0B20B2807D03800C0B20C2803D0380042
:10491000C0B20D2823D12078009033782A78012165
:104920005FF0FF30FBF7FBFD2078009033782A78AA
:104930000D215FF0FF30FBF7F2FD20780090337817
:104940002A7810215FF0FF30FBF7E9FD2078009016
:1049500033782A781C215FF0FF30FBF7E0FD5FF031
:1049600000086FE712B0BDE8F08700001C70000877
:104970002DE9F84F01F0E2FD0421DFF86C4690FBD1
:10498000F1F201FB1200207001F0D8FD0421DFF8E4
:104990005C5690FBF1F201FB1200287001F0CEFD95
:1049A0000421DFF84C6690FBF1F201FB120030703D
:1049B000002707E0DFF82409FCF7A4F8322001F013
:1049C00069FE7F1C3800C0B2102874DA01F0B6FD11
:1049D000042190FBF1F801FB180801F0AFFD042160
:1049E00090FBF1F901FB190901F0A8FD042190FBEE
:1049F000F1FA01FB1A0A5FF0000B2DE00020009095
:104A0000002300225946C9B25FF0FF30FBF787FD53
:104A100020E03800C0B200280FD03800C0B206280D
:104A20000BD03800C0B2072807D03800C0B2082821
:104A300003D03800C0B20F28E0D15046C0B2009079
:104A40004B46DBB24246D2B25946C9B25FF0FF30A4
:104A5000FBF765FD1BF1010B5846C0B23C28A9DAF3
:104A60005846C0B200281BD05846C0B20F2817D0F5
:104A70005846C0B21E2813D05846C0B22D280FD0B9
:104A80005846C0B207280BD05846C0B2162807D0E7
:104A90005846C0B2252803D05846C0B23428B8D1F1
:104AA000307800902B7822785946C9B25FF0FF30F9
:104AB000FBF735FDCEE7BDE8F18F00002C70000854
:104AC0002DE9F84FA2B002A8DFF8E01C802201F027
:104AD000D5FC01F033FD042190FBF1F201FB120043
:104AE000DFF80415087001F029FD0421DFF8FC440B
:104AF00090FBF1F201FB1200207001F01FFD042178
:104B0000DFF8EC5490FBF1F201FB12002870002654
:104B10000BE01020FCF7EAFA192001F0BBFD7F1C26
:104B20003800C0B2F028F4DB761C3000C0B2042894
:104B300080F2B180002700E07F1C3800C0B2052859
:104B400080F290805FF000083CE001224946C9B243
:104B50005FF0FF30FBF7C0FE824602224946C9B231
:104B60005FF0FF30FBF7B8FE834604224946C9B226
:104B70005FF0FF30FBF7B0FE02004846C0B2D0F154
:104B80003C003C215FFA8AFACDF800A05B46DBB21C
:104B9000D2B290FBF1FC01FB1C000100C9B25FF036
:104BA000FF30FBF7BCFC19F101094846C0B21E28D2
:104BB000CBDBDFF82807FBF7A5FF192001F06AFD22
:104BC00018F101084046C0B21028B5DA002114E0FF
:104BD0004046C0B20A00D2B212EB80023000C0B22E
:104BE000022390FBF3F3402000FB032202A8805C29
:104BF00001AA0B00DBB2D054491C0800C0B2042843
:104C0000E6DB4046C0B2082190FBF1F201FB120046
:104C1000002819D101F092FC042190FBF1F201FB74
:104C20001200DFF8C413087001F088FC042190FB27
:104C3000F1F201FB1200207001F080FC042190FBD6
:104C4000F1F201FB12002870287800902378DFF839
:104C50009803027801A95FF0FF30FCF795F95FF047
:104C60000009A2E73000C0B2022190FBF1F201FB83
:104C7000120000280DD100273800C0B2F028BFF67E
:104C800053AF1020FCF760FB192001F003FD7F1CDF
:104C9000F2E7002744E723B0BDE8F08F2DE9F043A9
:104CA00085B001A8DFF8C41C102201F0E7FB01F079
:104CB00045FC0421CC4C90FBF1F201FB120020706A
:104CC00001F03CFC0421C94D90FBF1F201FB120004
:104CD000287001F033FC0421C54E90FBF1F201FB7A
:104CE00012003070002707E0DFF8F005FBF70AFF3D
:104CF000322001F0CFFC7F1C3800C0B210284EDA01
:104D00005FF0000831E000200090002300224046C0
:104D1000C0B28000801C0100C9B25FF0FF30FBF719
:104D2000FEFB20E000200090002300225FFA88F8BC
:104D30005FEA8801C9B25FF0FF30FBF7F0FB380093
:104D4000C0B219F800008007DDD5307800902B78CC
:104D500022784046C0B28000801C0100C9B25FF0DA
:104D6000FF30FBF7DCFB18F101084046C0B20F280A
:104D7000BADA0DF104093800C0B219F80000C00712
:104D8000D0D5307800902B7822785FFA88F85FEAE7
:104D90008801C9B25FF0FF30FBF7C1FBCFE705B078
:104DA000BDE8F0832DE9F04399B08146002006E08C
:104DB0000021DFF828250300DBB2D154401C01009C
:104DC000C9B22E29F4DB002401E0641E641C20001B
:104DD000C0B24946C9B24900891C88426DDA01F067
:104DE000ADFB0421804D90FBF1F201FB1200287015
:104DF00001F0A4FB04217D4E90FBF1F201FB1200B7
:104E0000307001F09BFB0421794F90FBF1F201FB24
:104E10001200387029783078014338780143C9B2DC
:104E20000029D2D05FF0000828E03878009033786D
:104E30002A784146C9B2A4465FFA8CFC0A2000FBDE
:104E40000C11C9B25FF0FF30FBF769FB14E0484674
:104E5000C0B20128E9D13878009033782A784146E9
:104E6000C9B2A4465FFA8CFC0F2000FB0C11C9B23A
:104E70005FF0FF30FBF753FB18F101084046C0B26A
:104E80004946C9B24900D1F1090188429EDA484633
:104E9000C0B20028DBD13878009033782A784146B8
:104EA000C9B2A4465FFA8CFC1E2000FB0C11C9B2EB
:104EB0005FF0FF30FBF733FBDEE7002404E05FF038
:104EC000FF30FCF713F9641C2000C0B24946C9B298
:104ED000D1F104018842F2DB002009E0DFF8FC1385
:104EE0000200D2B2895C01AA0300DBB2D154401C9B
:104EF0000100C9B22E29F1DB01A8FBF703FE002453
:104F000019E0DFF8D8030A00D2B2825C01A80B00D6
:104F1000DBB2C05C02430DA80B00DBB2C254491CDB
:104F20000800C0B22E28ECDB0DA8FBF7EBFD192022
:104F300001F0B0FB641C2000C0B2F02850DA5FF032
:104F4000FF30FCF7D3F8002038E001AD1E00F6B2C8
:104F500076420700FFB201FB0766354401AE1F0031
:104F6000FFB27F4284465FFA8CFC01FB0C773E4423
:104F7000B67DF6B201AF9C465FFA8CFCDCF1000C0A
:104F800086465FFA8EFE01FB0ECC67447F7D7F0173
:104F900057EAD607AF755B1C1D00EDB2162DD4DBAA
:104FA00001AB0500EDB24D435D5DEDB252EAD502B5
:104FB0000500EDB201FB05F15A54401C0100C9B2D5
:104FC00002290BDA172101AA0300DBB24B431A4472
:104FD000927D520012F0E0020023DDE700219FE7FE
:104FE00019B0BDE8F08300005004002051040020F7
:104FF000520400202DE9FC4701F0A0FA0421DFF85B
:10500000544D90FBF1F201FB1200207001F096FA72
:105010000421DFF8445D90FBF1F201FB12002870DF
:1050200001F08CFA0421DFF8346D90FBF1F201FB02
:105030001200307000270AE00020009000230022B8
:105040003900C9B25FF0FF30FBF769FA7F1C380006
:10505000C0B21E28F0DB002742E001224146C9B25F
:105060005FF0FF30FBF738FC814602224146C9B2AF
:105070005FF0FF30FBF730FC824604224146C9B2A4
:105080005FF0FF30FBF728FC4146C9B2D1F13C018B
:105090005FF03C0C5FFA89F9CDF800905346DBB223
:1050A0000200D2B291FBFCF00CFB1011C9B25FF010
:1050B000FF30FBF734FA18F101084046C0B21E2851
:1050C000CBDBDFF818824046FBF71CFD322001F0F5
:1050D000E1FA4046FBF716FD322001F0DBFA7F1CB7
:1050E0003800C0B2052871DA0020009000230022A9
:1050F000781EC0B24100C9B25FF0FF30FBF70FFA73
:1051000000200090002300223800C0B24000D0F1FF
:1051100011000100C9B25FF0FF30FBF700FA002078
:105120000090002300223800C0B240000D30010082
:10513000C9B25FF0FF30FBF7F2F9002000900023C6
:1051400000223800C0B24000D0F120000100C9B2F6
:105150005FF0FF30FBF7E3F9307800902B7822788E
:10516000FFB27900C9B25FF0FF30FBF7D8F93078B1
:1051700000902B7822783800C0B24000D0F10F00A8
:105180000100C9B25FF0FF30FBF7C9F93078009039
:105190002B7822783800C0B240000F300100C9B22D
:1051A0005FF0FF30FBF7BBF9307800902B78227866
:1051B0003800C0B24000D0F11E000100C9B25FF05B
:1051C000FF30FBF7ACF95FF0000876E7002742E01C
:1051D00001224146C9B25FF0FF30FBF77DFB8146FB
:1051E00002224146C9B25FF0FF30FBF775FB8246F1
:1051F00004224146C9B25FF0FF30FBF76DFB0200AD
:105200004046C0B2D0F13C003C215FFA89F9CDF8AC
:1052100000905346DBB2D2B290FBF1FC01FB1C00C4
:105220000100C9B25FF0FF30FBF779F918F101080E
:105230004046C0B21E28CBDBDFF8A0804046FBF71B
:1052400061FC322001F026FA4046FBF75BFC32207D
:1052500001F020FA7F1C3800C0B204283CDA307814
:1052600000902B7822783800C0B24000D0F10600C0
:105270000100C9B25FF0FF30FBF751F930780090C0
:105280002B7822783800C0B24000C01D0100C9B29E
:105290005FF0FF30FBF743F9307800902B782278ED
:1052A0003800C0B24000D0F117000100C9B25FF071
:1052B000FF30FBF734F9307800902B7822783800F3
:1052C000C0B2400016300100C9B25FF0FF30FBF7FA
:1052D00026F95FF00008ABE7BDE8F387080400207B
:1052E000186E00082DE9FC4701F028F90421DFF8C9
:1052F000644A90FBF1F201FB1200207001F01EF9EC
:105300000421DFF8545A90FBF1F201FB12002870DF
:1053100001F014F90421DFF8446A90FBF1F201FB7B
:105320001200307000270AE00020009000230022C5
:105330003900C9B25FF0FF30FBF7F1F87F1C38008D
:10534000C0B21E28F0DB00273BE001224146C9B273
:105350005FF0FF30FBF7C0FA814602224146C9B236
:105360005FF0FF30FBF7B8FA824604224146C9B22B
:105370005FF0FF30FBF7B0FA4146C9B2D1F13C0112
:105380005FF03C0C5FFA89F9CDF800905346DBB230
:105390000200D2B291FBFCF00CFB1011C9B25FF01D
:1053A000FF30FBF7BCF818F101084046C0B21E28D8
:1053B000CBDBDFF8E00BFBF7A5FB322001F06AF94D
:1053C0007F1C3800C0B2082858DA00200090002363
:1053D0000022791EC9B25FF0FF30FBF7A0F8002071
:1053E000009000230022D7F11001C9B25FF0FF3016
:1053F000FBF795F8002000900023002217F10E0122
:10540000C9B25FF0FF30FBF78AF80020009000235C
:105410000022D7F11F01C9B25FF0FF30FBF77FF820
:10542000307800902B7822783900C9B25FF0FF30D5
:10543000FBF775F8307800902B782278D7F10F01C0
:10544000C9B25FF0FF30FBF76AF8307800902B7834
:10545000227817F10F01C9B25FF0FF30FBF75FF858
:10546000307800902B782278D7F11E01C9B25FF016
:10547000FF30FBF754F85FF0000896E700273BE0A9
:1054800001224146C9B25FF0FF30FBF725FA8146A1
:1054900002224146C9B25FF0FF30FBF71DFA824697
:1054A00004224146C9B25FF0FF30FBF715FA020053
:1054B0004046C0B2D0F13C003C215FFA89F9CDF8FA
:1054C00000905346DBB2D2B290FBF1FC01FB1C0012
:1054D0000100C9B25FF0FF30FBF721F818F10108B5
:1054E0004046C0B21E28CBDBDFF8A80AFBF70AFB58
:1054F000322001F0CFF87F1C3800C0B208282EDA25
:10550000307800902B782278D7F10701C9B25FF08C
:10551000FF30FBF704F8307800902B78227817F1F1
:105520000801C9B25FF0FF30FAF7F9FF3078009058
:105530002B782278D7F11601C9B25FF0FF30FAF765
:10554000EEFF307800902B78227817F11701C9B25E
:105550005FF0FF30FAF7E3FF5FF00008C0E7BDE857
:10556000F3872DE9FC4700F0E9FF0421DFF8E44769
:1055700090FBF1F201FB1200207000F0DFFF04212C
:10558000DFF8D45790FBF1F201FB1200287000F015
:10559000D5FF0421DFF8C46790FBF1F201FB120094
:1055A000307000273BE001224146C9B25FF0FF3076
:1055B000FBF792F9814602224146C9B25FF0FF3003
:1055C000FBF78AF9824604224146C9B25FF0FF30F8
:1055D000FBF782F902004046C0B2D0F13C003C210A
:1055E0005FFA89F9CDF800905346DBB2D2B290FB56
:1055F000F1FC01FB1C000100C9B25FF0FF30FAF7BB
:105600008EFF18F101084046C0B21E28CBDBDFF840
:105610008409FBF777FA322001F03CF87F1C380050
:10562000C0B210283DDA3800C0B20F282BD15FF08D
:1056300000084046C0B2102830DA3278022395F8CC
:1056400000C05FF0020E2078022192FBF3F903FB09
:105650001922D2B200929CFBFEF20EFB12CC6346E2
:10566000DBB290FBF1F201FB12000200D2B25FFA52
:1056700088F85FEA4801C9B25FF0FF30FAF74FFFE0
:1056800018F10108D5E7307800902B782278FFB226
:105690007900C9B25FF0FF30FAF741FF5FF0000810
:1056A000B1E7BDE8F3872DE9FC4700F047FF04218F
:1056B000DFF8A04690FBF1F201FB1200207000F031
:1056C0003DFF0421DFF8905690FBF1F201FB120040
:1056D000287000F033FF0421DFF8806690FBF1F2C0
:1056E00001FB1200307000273FE001224146C9B2A1
:1056F0005FF0FF30FBF7F0F8814602224146C9B265
:105700005FF0FF30FBF7E8F8824604224146C9B259
:105710005FF0FF30FBF7E0F802004046C0B2D0F186
:105720003C003C215FFA89F9CDF800905346DBB28A
:10573000D2B290FBF1FC01FB1C000100C9B25FF08A
:10574000FF30FAF7ECFE18F101084046C0B21E28FF
:10575000CBDBDFF84008FBF7D5F9192000F09AFF02
:105760005FF0FF30FBF71AFB7F1C3800C0B20A283D
:1057700019DA3800C0B2052809DA307800902B78A1
:10578000227800215FF0FF30FAF7C9FE08E0002020
:1057900000900023002200215FF0FF30FAF7BFFEE7
:1057A0005FF00008D1E7BDE8F3870000806C0008D7
:1057B0002DE9F84300F0C2FE0421DFF8984590FB84
:1057C000F1F201FB1200207000F0B8FE0421DFF8B6
:1057D000885590FBF1F201FB1200287000F0AEFE3C
:1057E0000421DFF8786590FBF1F201FB12003070C4
:1057F0000027B3E03800C0B20F2852DA012217F1B7
:105800000F01C9B25FF0FF30FBF766F88046022255
:1058100017F10F01C9B25FF0FF30FBF75DF8814669
:10582000042217F10F01C9B25FF0FF30FBF754F803
:1058300002005FFA88F8CDF800804B46DBB2D2B2A6
:1058400017F11001C9B25FF0FF30FAF768FE0122CC
:1058500017F10F01C9B25FF0FF30FBF73DF880464A
:10586000022217F10F01C9B25FF0FF30FBF734F8E5
:105870008146042217F10F01C9B25FF0FF30FBF738
:105880002BF85FFA88F8CDF800804B46DBB20200B7
:10589000D2B2D7F13C011039C9B25FF0FF30FAF74C
:1058A0003EFE307800902B7822783900C9B25FF044
:1058B000FF30FAF734FE3800C0B2D0F13C003C2192
:1058C000327800922B78227890FBF1FC01FB1C00CF
:1058D0000100C9B25FF0FF30FAF721FE002000900E
:1058E0000023002217F10F01C9B25FF0FF30FAF771
:1058F00016FE0020009000230022D7F13D01103950
:10590000C9B25FF0FF30FAF70AFE3800C0B20028D3
:105910001CD00020009000230022791EC9B25FF045
:10592000FF30FAF7FCFD3800C0B2D0F13D003C2159
:10593000002200920023002290FBF1FC01FB1C00DE
:105940000100C9B25FF0FF30FAF7E9FDDFF8440665
:10595000FBF7D8F8192000F09DFE7F1C3800C0B27C
:105960001028FFF647AFBDE8F18300003C70000847
:105970002DE9F84300F0E2FD0421DFF8D84390FB65
:10598000F1F201FB1200207000F0D8FD0421DFF8D5
:10599000C85390FBF1F201FB1200287000F0CEFD1D
:1059A0000421DFF8B86390FBF1F201FB12003070C4
:1059B000002771E001223900C9B25FF0FF30FAF729
:1059C0008BFF804602223900C9B25FF0FF30FAF740
:1059D00083FF814604223900C9B25FF0FF30FAF735
:1059E0007BFF02005FFA88F8CDF800804B46DBB2FF
:1059F000D2B217F11001C9B25FF0FF30FAF78FFD94
:105A000001223900C9B25FF0FF30FAF765FF804626
:105A100002223900C9B25FF0FF30FAF75DFF81461C
:105A200004223900C9B25FF0FF30FAF755FF5FFA80
:105A300088F8CDF800804B46DBB20200D2B2D7F135
:105A40003C011039C9B25FF0FF30FAF768FD3078D9
:105A500000902B7822783900C9B25FF0FF30FAF756
:105A60005EFD3800C0B2D0F13C003C21327800929B
:105A70002B78227890FBF1FC01FB1C000100C9B2DD
:105A80005FF0FF30FAF74BFDDFF80805FBF73AF857
:105A9000192000F0FFFD7F1C3800C0B2102889DB00
:105AA000BDE8F1832DE9F8430400002549E02A0010
:105AB000D2B20800C0B282183C2092FBF0F300FB87
:105AC0001322DFF8D434387898F800C05FEA8C0CE1
:105AD0005CEA001C99F8000050EA0C0C03F802C0C4
