:020000040800F2
:100000002804002045010008870D00087F0D000826
:10001000830D0008730A0008851200080000000024
:10002000000000000000000000000000A10E000819
:100030001D0C000800000000890D000801100008D8
:100040005F0100085F0100085F0100085F01000810
:100050005F0100085F0100085F0100085F01000800
:100060005F0100085F0100085F0100085F010008F0
:100070005F0100085F0100085F0100085F010008E0
:100080005F0100085F0100085F0100085F010008D0
:100090005F0100085F0100085F0100085F010008C0
:1000A0005F0100085F0100085F0100085F010008B0
:1000B0005F0100085F0100085F0100085F010008A0
:1000C0005F0100085F0100085F0100085F01000890
:1000D0005F0100085F0100085F0100085F01000880
:1000E0005F0100085F0100085F0100085F01000870
:1000F0005F0100085F0100085F0100085F01000860
:100100005F0100085F0100085F0100085F0100084F
:100110005F0100085F0100085F0100085F0100083F
:100120005F0100085F0100085F0100085F0100082F
:10013000DFF80CD000F022FB00480047011C00084B
:10014000280400200648804706480047FEE7FEE7EF
:10015000FEE7FEE7FEE7FEE7FEE7FEE7FEE7FEE777
:10016000311000083101000880EA010202F000436A
:1001700030B430F0004221F0004015D0A0B1C0F3FF
:10018000C755C2F3C754C2F31601C0F31600651B6E
:1001900041F4000140F400007D35814201D36D1C23
:1001A00000E04900002D02DA30BC002070474FF417
:1001B00000020024814201D3091A144352084FEA75
:1001C0004101F7D151B1814202D14FF0004105E028
:1001D00002D24FF0010101E06FF0010104EBC550C4
:1001E00030BC184400F0F1B82DE9FE4F81EA030459
:1001F00021F0004504F0004423F000414FF0000AD4
:10020000009450EA050302D052EA010304D1002011
:10021000014603B0BDE8F08FC1F30A53C5F30A5499
:100220002344A3F2F3330193A0FB02B3C5F31305F8
:1002300045F4801CC1F3130141F480180CFB023318
:1002400000FB083E810A930A41EA8C5143EA885335
:10025000A1FB03474FEA9C2505FB03734FEA982651
:1002600001FB06373D05260545EA1435BBEB0601C3
:100270006EEB0503850E920E45EA8C1542EA881254
:10028000A5FB0206261E67EB00070C0D44EA0334AB
:10029000A61947EB1350C1F313044FF0000319469E
:1002A000E5FB02014FEA033545EA1455019B4FEA8D
:1002B0000432009CA3F10C03CDE900A445EA060535
:1002C00002932B4600F0C6F8A3E7962300221146BE
:1002D00000F084B800F0004230F000400DD0C10DB5
:1002E00001F5607142EA01510022C0F31600520785
:1002F00042EAD00240071143704700200146704790
:1003000001F0004230B421F0004150EA010306D070
:100310000B0DA3F56073C1F31301002B02DC30BC9D
:1003200000207047440F44EAC104C100A01830BC4B
:1003300000EBC35000F049B830B50B460146002031
:100340002022012409E021FA02F59D4205D303FA97
:1003500002F5491B04FA02F52844151EA2F1010218
:10036000F1DC30BD2DE9F05F0546002092469B464A
:1003700088460646814640241DE0284641464746B9
:10038000224600F01CFAB0EB0A0052465B4671EBC5
:100390000B0110D310461946224600F001FA2D1A1F
:1003A00067EB01084F4622460120002100F0F8F9D2
:1003B00017EB00094E41201EA4F10104DDDC484684
:1003C00031462A464346BDE8F09F0029A8BF704742
:1003D000401C490008BF20F00100704710B4B0FA7B
:1003E00080FC00FA0CF050EA010404BF10BC704716
:1003F00049B1CCF1200421FA04F411FA0CF118BF30
:10040000012121430843A3EB0C01CB1D4FEA0061FE
:100410004FEA102048BF0020BCBF10BC704700EB63
:10042000C35010440029A4BF10BC7047401C4900B1
:1004300008BF20F0010010BC704710B5002B08DA8F
:10044000401C41F1000192185B411A4301D120F098
:10045000010010BD2DE9FF4D934611B1B1FA81F2B3
:1004600002E0B0FA80F22032924600F099F9039A45
:100470000746884640EA0B0011435B46084304D117
:100480003846414604B0BDE8F08D114653EA0200FB
:1004900016D0CAF14002584600F091F904460D46C4
:1004A0004FF0010658465246039900F079F9084387
:1004B00000D10026344345EAE675274345EA08089B
:1004C0000E984FF00005A0EB0A014FEAD7200A3141
:1004D0004FEA47532A4640EA48504FEAD82402D50B
:1004E00000200146CEE7281844EB0151DDE90C4518
:1004F000001904B06941BDE8F04D9EE72DE9FE4FBB
:10050000074681EA0300C00F0E46019021F000412A
:1005100023F00044B81AA14105D2384631461746A7
:100520001E460B46024623F00040104304D13846D5
:10053000314603B0BDE8F08F350DC5F30A00C3F3B3
:100540000A510290401A0090402867DAC3F3130062
:1005500040F4801B0198924620B10023D2EB030A9D
:1005600063EB0B0B00985946C0F14002504600F077
:1005700017F980460C4650465946009A00F02FF96C
:10058000C0197141EF1785EA11533B433FD0019ADF
:100590004AB3009A012A11DC0022801A61EB05514E
:1005A0004FF0004303EA0555CDE90025801841F5D9
:1005B000801142462346FFF74DFFBAE72E0500257E
:1005C000401B61EB0601401941F5801200185241B1
:1005D0002818A6F5001343EB020140EAD47018EB8B
:1005E0000808644113E064084FEA38084FF000023D
:1005F00044EAC0744FEA0553801A61EB0301801886
:1006000041F5801149084FEA3000801859414246AF
:10061000234603B0BDE8F04FFFF70FBF019801225A
:1006200040000023D0EB020263EBE07301984FEA35
:10063000E074381A66EB0401EBE783F000435DE7F2
:1006400081F000415AE72DE9F04D81EA030404F0FE
:10065000004B21F0004714464FF0000A23F0004100
:1006600050EA070220D054EA01021DD0C1F30A5516
:100670000246C1F31300C7F30A56C7F3130340F44D
:10068000801143F48013A6EB0508101BD64608F230
:10069000FD3873EB010002D308F1010801E0921864
:1006A0005B41B8F1000F03DA00200146BDE8F08D90
:1006B00000204FF48015064607460EE0B2EB040C0E
:1006C00073EB010C04D3121B064363EB01032F43AE
:1006D0006D084FEA300092185B4150EA050CEDD1ED
:1006E00052EA030012D082EA040083EA010528439B
:1006F00003D100224FF0004308E0101B8B4102D2CF
:100700000122002302E06FF0010253101AEB0600F1
:1007100047EB085110EB0A0041EB0B01BDE8F04D2F
:10072000FFF78BBEC1F30A52C1F3130140F2FF334E
:1007300041F480119A4202DA00200146704740F2EB
:1007400033439A42A2F2334202DC524200F037B8FD
:1007500000F026B830B5002904DB4FF000444042D9
:1007600064EB0101002B04DB4FF00044524264EBC8
:100770000303994208BF904230BD0000064C074D6C
:1007800006E0E06840F0010394E807009847103461
:10079000AC42F6D3FFF7D0FCFC1D00081C1E00087D
:1007A000202A04DB203A00FA02F100207047914031
:1007B000C2F1200320FA03F3194390407047202A26
:1007C00004DB203A21FA02F00021704721FA02F3FB
:1007D000D040C2F120029140084319467047202AB8
:1007E00006DBCB17203A41FA02F043EAE07306E059
:1007F00041FA02F3D040C2F1200291400843194669
:10080000704721B1826842F00102826003E0826891
:1008100022F001028260704700B591B001210846C4
:1008200000F0B4FA012140F2012000F0BFFA314893
:1008300000F02EF9304801903048029000200390DB
:10084000012004900020059006904FF480700790DE
:10085000800008902020099000020A9000200B9050
:1008600001A9244800F0BCF90121224800F003F955
:1008700000200C9001208DF834008DF835004FF4E5
:1008800060200E9000200F9001208DF840000CA9F0
:1008900019484C3800F054F8052301220F2116485E
:1008A0004C3800F075F8012113484C3800F028F856
:1008B000012111484C38FFF7A4FF0F484C3800F0D5
:1008C000C3F800BF0C484C3800F02FF80028F9D1CD
:1008D00009484C3800F0C8F800BF07484C3800F011
:1008E0001AF80028F9D1012103484C3800F0B1F87A
:1008F00011B000BD080002404C240140040000205B
:1009000021B1826842F48072826003E0826822F43E
:10091000807282607047014600208A6812F0040FDE
:1009200001D0012000E000207047014600208A68C5
:1009300012F0080F01D0012000E0002070470000F5
:1009400030B502460020002350680F4C20400D793E
:100950000C6844EA05242043506090680B4C20400A
:10096000D1E902542C434D7944EA45042043906078
:10097000D06A20F470000C7C641EE4B2234340EA89
:100980000350D06230BD0000FFFEF0FFFDF7F1FF25
:10099000F0B504460D4600200021092D11DDE06868
:1009A000A5F10A0606EB4607072606FA07F1884373
:1009B000A5F10A0606EB460603FA06F10843E060D5
:1009C0000CE0206905EB4507072606FA07F1884386
:1009D00005EB450603FA06F108432061072A0FDA02
:1009E000606B561E06EB86071F2606FA07F1884342
:1009F000561E06EB860605FA06F10843606322E000
:100A00000D2A0FDA206BD61F06EB86071F2606FA83
:100A100007F18843D61F06EB860605FA06F1084360
:100A2000206310E0E06AA2F10D0606EB86071F26A0
:100A300006FA07F18843A2F10D0606EB860605FAD1
:100A400006F10843E062F0BD816841F00801816071
:100A5000704721B1826842F4A002826003E082689C
:100A600022F4A00282607047816841F00401816035
:100A7000704700BFFEE721B1026842F00102026048
:100A800004E002684FF6FE731A40026070470000EF
:100A900001684FF6FE721140016000210160416063
:100AA0008160C1604A49884208D14949083949688A
:100AB00041F00F01464A083A516088E04449143138
:100AC000884208D142490839496841F0F001404A5A
:100AD000083A51607BE03E492831884208D13C49C0
:100AE0000839496841F47061394A083A51606EE04A
:100AF00037493C31884208D135490839496841F4C1
:100B00007041334A083A516061E0314950318842BE
:100B100008D12F490839496841F470212C4A083A14
:100B2000516054E02A496431884208D12849083983
:100B3000496841F47001264A083A516047E0244967
:100B40007831884208D122490839496841F07061FA
:100B50001F4A083A51603AE01E49884208D1A0F184
:100B60000401096841F00F011B4AC2F804142EE089
:100B700018491431884207D11849096841F0F00139
:100B8000154AC2F8041422E012492831884207D1DC
:100B90001249096841F470610F4AC2F8041416E062
:100BA0000C493C31884207D10C49096841F4704135
:100BB000094AC2F804140AE006495031884206D1B5
:100BC0000649096841F47021034AC2F804147047C9
:100BD00008000240080402400000024004040240F1
:100BE00010B50022026847F6F0739A430C6A8B68CE
:100BF00023430C6923434C6923438C692343CC6909
:100C000023434C6A23438C6A23431A430260CB6814
:100C100043600B6883604B68C36010BD7047000081
:100C200008B50121302000F0C1F84FF47060ADF834
:100C3000000003208DF8020010208DF803006946A3
:100C4000064800F00FF82020ADF8000000208DF8D5
:100C500003006946024800F005F808BD0014014091
:100C6000001001402DE9F041024600250026002039
:100C700000230024002791F803C00CF00F0591F821
:100C800003C01CF0100F03D091F802C04CEA050518
:100C9000B1F800C01CF0FF0F31D0146800202BE029
:100CA0004FF0010C0CFA00F3B1F800C00CEA030697
:100CB0009E4220D183004FF00F0C0CFA03F7BC4387
:100CC00005FA03FC4CEA040491F803C0BCF1280FB8
:100CD00006D14FF0010C0CFA00FCC2F814C00AE077
:100CE00091F803C0BCF1480F05D14FF0010C0CFA8C
:100CF00000FCC2F810C0401C0828D1D31460B1F821
:100D000000C0BCF1FF0F34DD546800202EE000F17C
:100D1000080C4FF0010808FA0CF3B1F800C00CEA17
:100D200003069E4221D183004FF00F0C0CFA03F70B
:100D3000BC4305FA03FC4CEA040491F803C0BCF17F
:100D4000280F05D100F1080C08FA0CF8C2F814803D
:100D500091F803C0BCF1480F07D100F1080C4FF027
:100D6000010808FA0CF8C2F81080401C0828CED3FD
:100D70005460BDE8F081416170470161704700BF78
:100D8000FEE700BFFEE770477047000029B1064A42
:100D900052690243044B5A6104E0034A5269824398
:100DA000014B5A61704700000010024029B1064A09
:100DB00092690243044B9A6104E0034A92698243B8
:100DC000014B9A61704700000010024030B50021CD
:100DD0000022002400232D4D6D6805F00C0121B187
:100DE000042905D0082923D105E0294D056022E01A
:100DF000274D05601FE0254D6D6805F47012234DE9
:100E00006D6805F48034022505EB92421CB9214D32
:100E1000554305600BE01D4D6D6815F4003F03D090
:100E20001C4D5543056002E0194D5543056002E035
:100E3000174D056000BF00BF144D6D6805F0F0014F
:100E40000909154D6B5C0568DD4045600F4D6D6807
:100E500005F4E061090A104D6B5C4568DD40856072
:100E60000A4D6D6805F46051C90A0B4D6B5C45680D
:100E7000DD40C560054D6D6805F44041890B074DA7
:100E80006B5CC568B5FBF3F5056130BD0010024031
:100E900000127A0000093D000B0000201B0000201A
:100EA000704710B500F002F810BD000000210020CE
:100EB0002E4A126842F480322C4B1A6000BF2B4A33
:100EC000126802F40030491C10B9B1F5A06FF6D1D8
:100ED000264A126812F4003F01D0012000E00020F1
:100EE000012842D1224A126842F01002204B1A60B7
:100EF0001A46126822F003021A601A46126842F07B
:100F000002021A60194A5268184B5A601A4652680F
:100F10005A601A46526842F480625A601A46526811
:100F200022F47C125A601A46526842F4E8125A605F
:100F30001A46126842F080721A6000BF0B4A1268AB
:100F400012F0007FFAD0094A526822F00302074BE0
:100F50005A601A46526842F002025A6000BF034AC1
:100F6000526802F00C02082AF9D1704700100240C2
:100F700000200240042808D14FF0E021096941F027
:100F800004014FF0E022116107E04FF0E021096910
:100F900021F004014FF0E02211617047012808D1CF
:100FA0004FF0E021096941F001014FF0E0221161A9
:100FB0000EE0811C08D14FF0E021096921F0010108
:100FC0004FF0E022116103E000214FF0E022916137
:100FD000704710B50146002200230020CB10022BE1
:100FE00003D14FF0E024226902E04FF0E024E269EF
:100FF00001248C40144201D0012000E0002010BDEB
:10100000704740B14FF0E021096941F002014FF013
:10101000E022116107E04FF0E021096921F00201AF
:101020004FF0E022116170474FF0E02148617047B6
:1010300010B51348006840F00100114908600846E7
:101040004068104908400E494860084600680E494B
:1010500008400B4908600846006820F480200860BA
:101060000846406820F4FE0048604FF41F00886086
:10107000FFF717FF4FF000600449086010BD000043
:10108000001002400000FFF8FFFFF6FE08ED00E050
:1010900021B1828942F40052828104E082894DF6B6
:1010A000FF731A408281704700B585B0012144F278
:1010B0000400FFF77BFE4FF40070ADF8100018201D
:1010C0008DF8130003208DF8120004A91A48FFF7C9
:1010D000C9FD4FF48060ADF8100004208DF81300B6
:1010E00003208DF8120004A91348FFF7BBFD4FF44D
:1010F000E13000900020ADF80400ADF80600ADF836
:101100000800ADF80C000C20ADF80A0069460B4849
:1011100000F048F8012240F22551084800F01DF87F
:10112000012240F22771054800F017F80121034819
:10113000FFF7AEFF05B000BD0008014000380140D8
:1011400002460020B1F5007F00D100BF13880B429A
:1011500001D0012000E000207047F0B503460024D4
:10116000002600250020A1F510676A3F00D100BFCE
:101170001846C1F3421401F01F06012707FA06F5CD
:10118000012C01D10C3004E0022C01D1103000E020
:1011900014301AB107682F43076002E00768AF43B5
:1011A0000760F0BD2DE9F04786B005460E460024E5
:1011B000A24600BFA1460027B08900B100BF2F465C
:1011C0002C8A4CF6FF700440F08804432C82AC89D2
:1011D0004EF6F3100440B088318908437189084302
:1011E0000443AC81AC8A4FF6FF400440B08904430D
:1011F000AC8201A8FFF7EAFD1F48874202D1DDF863
:1012000010A001E0DDF80CA0A88910F4004F08D070
:101210000AEBCA0000EB0A1031684900B0FBF1F894
:1012200007E00AEBCA0000EB0A1031688900B0FB46
:10123000F1F86420B8FBF0F004012009642101FBFF
:101240001089A88910F4004F08D0322000EBC900A3
:10125000B0FBF1F000F00700044308E0322000EB9F
:1012600009106421B0FBF1F000F00F0004432C8161
:1012700006B0BDE8F087000000380140C1F3080265
:101280008280704700BFFEE70FB4054B10B503A97D
:10129000044A029800F0C2F810BC5DF814FB00008C
:1012A000DD1B00082000002002E008C8121F08C152
:1012B000002AFAD170477047002001E001C1121FD7
:1012C000002AFBD1704700002DE9FF5FDDE9021025
:1012D000020DDDF838B001430FD10F9801244AA365
:1012E000012807D000980F9AC0E90031C0E90242F6
:1012F000BDE8FF9F6FEA0B01F4E7A2F2FF3244F66C
:101300001050424315140F9801280FD0A5EB0B0085
:10131000401C4FF000043D4EDFF8F490B0F1000A9D
:10132000A046C0F1000717DB074615E0CBF100002F
:10133000EFE7F80707D02246334640464946FEF716
:1013400053FF804689462246334620463146FEF703
:101350004BFF04460E467F10002FEAD1DDE9020163
:10136000BAF1000F42464B4602DAFEF73DFF01E0BC
:10137000FFF769F904460E460022264BFFF7EAF90B
:1013800003D84FF0FF30014607E00022224B2046F1
:101390003146FFF7B3F8FFF7C5F9102409E0002C38
:1013A0000ADB0A220023FEF7DDFF019B30321A55CB
:1013B000641E50EA0102F2D1641C019AC4F11103C7
:1013C00014440F9A012A07D00122084301D15B453A
:1013D0000DDD00226D1C0DE0084303D1A3EB0B05CE
:1013E0006D1E09E000204FF0110B0F908BE701DA22
:1013F00000226D1E002A86D000980F99C0E90231A4
:10140000C0E9004574E700003000000000002440FF
:101410000000F03F0000F0430000E03F2DE9FF4FE7
:1014200095B006469A460F460025F2E1252879D167
:101430000024761CFB4AA046012106943378203B09
:1014400001FA03F0104202D00443761CF6E730782C
:101450002A2811D06FF02F023078A0F1300109292D
:1014600015D8069944F0020401EB810102EB410119
:101470000844761C0690EFE701CF0690002803DAB7
:10148000404244F40054069044F00204761C307844
:101490002E2817D116F8010F44F004042A280ED084
:1014A0006FF02F023078A0F1300109290AD808EB3B
:1014B000880102EB410100EB0108761CF2E757F8C6
:1014C000048B761C30786C280FD006DC4C2817D0A3
:1014D00068280DD06A2814D104E0742810D07A2826
:1014E0000FD10DE044F400140AE044F4801401E04C
:1014F00044F440147178814202D1761C04F58014C2
:10150000761C3078864666280BD013DC582872D0BB
:1015100009DC002870D04528F6D04628F4D04728AA
:101520001AD195E118E0632831D0642874D0652879
:1015300012D18DE170286ED008DC6728F1D06928BF
:101540006AD06E280DD06F2806D1A8E0732827D066
:10155000752874D0782873D05246179990476D1C1F
:1015600055E1C4F30250022806D003280AD004280B
:1015700001CF0AD005604AE101CF4FEAE571C0E929
:10158000005144E101CF058041E105703FE101CF09
:101590008DF8000000208DF80100EB46012003E0EB
:1015A00057F804BB4FF0FF3061074FF0000102D441
:1015B0000DE009F10101894641450FDA8145F8DB6B
:1015C0001BF809100029F4D108E009F1010189464E
:1015D0008142FADB1BF809100029F6D10698534620
:1015E000A0EB090080462146179A00F094FA28449F
:1015F00000EB090506E047E00FE11BF8010B52463E
:1016000017999047B9F10109F7D253462146404650
:10161000179AF9E000E039E00A21C4F302524FF0D2
:10162000000B0091022A04D001CFC117032A08D071
:1016300009E0FF1D27F00707F7E8020107E01CE0BB
:101640001DE000B2C117042A01D140B2C117002920
:1016500006DA0A460021404261EB02012D2202E037
:10166000220504D52B228DF80420012203E0E20795
:1016700001D02022F7E7914653E00A2110E0102024
:101680004FF0000B00900EE0102109E010204FF009
:10169000000B44F004044FF00808009003E0082118
:1016A0004FF0000B0091C4F30252022A04D001CF84
:1016B0000021032A06D007E0FF1D27F00707F7E8FF
:1016C000020105E080B20021042A01D1C0B200214C
:1016D0004FF00009220724D5BEF1700F2AD0009BDD
:1016E00083F0100353EA0B0309D150EA010206D03C
:1016F00030228DF804208DF805E002229146009BEF
:1017000083F0080353EA0B030BD150EA010201D125
:10171000620706D530228DF804204FF00109A8F1A8
:10172000010841A2BEF1580F00D044A203920FAAB3
:1017300002920FE040228DF804200122DEE75B4692
:10174000009AFEF70FFE039B9B5C029AA2F1010236
:101750000292137050EA0102F1D1029807A9A1EB9D
:10176000000000F1200B600702D524F4803401E072
:101770004FF00108002041465A46D84501DDA1EB53
:10178000020000EB0B01009006984944A0EB010019
:101790000690E00306D453462146179A069800F0B7
:1017A000BAF90544002008E001A8524610F80800E4
:1017B000179990476D1C08F1010080464845F3DBFE
:1017C000E0030CD553462146179A069800F0A3F97A
:1017D000054404E030205246179990476D1C00994B
:1017E000481E00900029F5DC08E002980299524654
:1017F0000078491C0291179990476D1CBBF10001BC
:10180000ABF1010BF1DC67E100F072F9054406F180
:101810000106307800287FF409AE19B02846BDE8EB
:10182000F08F00000928010030313233343536376B
:1018300038394142434445460000000030313233DC
:1018400034353637383961626364656600000000FC
:10185000600701D44FF0060807F1070727F00707D4
:10186000A0A1F7E8020C0CF000431A0007D19EA1DA
:10187000220504D49DA1E20701D1AFF244011291E7
:101880002CF0004C7146BEF1650F0ED007DC4529E7
:101890000BD0462920D0BEF1470F3DD13DE066294F
:1018A0001AD0BEF1670F37D137E00023112241462D
:1018B000B8F1110F00DA4A1CCDE900230246634655
:1018C00007A902A8FFF700FD012000904FF0000BD0
:1018D00008F10109039868E04FF000410F910123DE
:1018E000CDE900830246634607A902A8FFF7ECFC96
:1018F000DDE904904FF0000B20B9039908F10100D5
:1019000001EB0009B8EB090003D4C0F1FF3B08F17B
:101910000109A9EB0800009048E04146B8F1010F29
:1019200001DA0121884600231122B8F1110F00DCF1
:101930000A46CDE900230246634607A902A8FFF73D
:10194000C3FC4FF0000BC14620070FD4049941455A
:1019500003DA894601E0A9F10109B9F1010F05DDBA
:101960000299A9F10100085C3028F4D0039941459F
:1019700002DA11F1040F03DA01200F91009015E053
:10198000002903DC8B44A9EB010005E0481C484515
:1019900003DD039800F1010081460399A1EB0B00E0
:1019A00000F1010000904FF000400F90200705D497
:1019B0000098484502DB4FF0FF30009000210F985F
:1019C0000DF147088DF84710B0F1004F26D00220E6
:1019D00001902B2013900F9800280CDA40420F90B2
:1019E0002D20139007E00A210F98FEF7A5FC303157
:1019F0000F9008F8011D0199481E01900029F2DCA2
:101A00000F980028EFD1A8F10102139911703178D5
:101A100001F0200141F0450108F8021D10A9A1EBD9
:101A2000080000F1070001901298007800B1012031
:101A300000EB0901009801EBE07101980144069860
:101A4000A0EB0100A0F101000690E00306D453468C
:101A50002146179A069800F05EF80544129800781F
:101A600020B152461799904705F10105E00322D5B0
:101A700053462146179A069800F04DF805441AE09F
:101A8000BBF1000F07DB0499594504DD029911F8F9
:101A90000B00179901E017993020524690470098A3
:101AA0006D1C401E0BF1010B009004D12E205246FC
:101AB000179990476D1CB9F10001A9F10109DFDC0C
:101AC00005E018F8010B5246179990476D1C0199D3
:101AD000481E01900029F4DC53462146179A0698C7
:101AE00092E600002D0000002B0000002000000006
:101AF0002DE9F0410446002517461E46880405D40A
:101B000006E039462020B04705F10105641EF8D5EE
:101B10002846BDE8F0812DE9F04104460025302734
:101B200090461E46C80300D42027880405D506E049
:101B300041463846B04705F10105641EF8D52846F0
:101B4000BDE8F08100B585B06846FFF73FF96FF05A
:101B50000400FFF70FFA0020FFF753FA0749019836
:101B6000B0FBF1F0064908704FF4FA510198B0FB50
:101B7000F1F00449088005B000BD000000127A00B1
:101B8000060000200800002070B5044611480088B7
:101B900000FB04F5B5F1807F01D36FF07F45284647
:101BA000FFF742FA0020FFF7F9F90120FFF7F6F9F5
:101BB00000BF1020FFF70DFA0749087008460078AB
:101BC0000128F6D1C01EFFF7E9F90020FFF7E6F97A
:101BD00070BD0000080000200A00002070B5044617
:101BE0000D46E1B20548FFF749FB00BF402103481D
:101BF000FFF7A6FA0028F9D0204670BD0038014052
:101C0000FFF70EF8FFF750FAFEF706FEFFF79AFF10
:101C100035A0FFF739FB3548FFF736FB334848302E
:101C2000FFF732FB31489030FFF72EFB2F4848304A
:101C3000FFF72AFB2D48FFF727FB53E02C480088CD
:101C4000FEF743FB2B4908604FF08B4129480068A1
:101C5000FEF78AFA8046FEF73DFB04464FF06632F7
:101C6000254BFEF7C1FA0646FEF74AFB21490860FC
:101C700008460068FEF72EFB044602460B461FA0EE
:101C8000FFF702FB4FF480712548FFF776F84FF419
:101C900000712348FFF771F84FF480612048FFF787
:101CA0006CF84FF400611E48FFF767F84FF4FA70C4
:101CB000FFF76AFF4FF480711948FFF75CF84FF4A3
:101CC00000711748FFF757F84FF480611448FFF789
:101CD00052F84FF400611248FFF74DF84FF4FA70D4
:101CE000FFF752FFAAE700000D0A0000241D0008BC
:101CF000040000200000002066660A405468652049
:101D000063757272656E742041442076616C7565EE
:101D1000203D2025342E326656200D0A000000009A
:101D2000001401402A2A2A2A2A2A2A2A2A2A2A2A66
:101D30002A2A2A2A2A2A2A2A2A2A2A2A2A2A2A2A03
:101D40002A2A2A2A2A2A2A2A2A2A2A2A2A2A2A2AF3
:101D50002A2A2A2A2A2A2A2A2A2A2A2A2A2A2A2AE3
:101D60002A2A2A2A2A2A2A0D0A0000002A202020AC
:101D70002020202020202020202020202020202063
:101D80002020202020202020202020202020202053
:101D90002020202020202020202020202020202043
:101DA00020202020202020202020202020202A0D3C
:101DB0000A0000002A2020205468616E6B20796F91
:101DC0007520666F72207573696E672048592D46BD
:101DD00069726542756C6C2056312E3020446576F0
:101DE000656C6F706D656E7420426F61726420A3C4
:101DF000A15E5F5E20202A0D0A0000001C1E000864
:101E00000000002024000000A8120008401E000866
:101E10002400002004040000B812000800000000A4
:101E200000000000000000000000000102030401A7
:101E30000203040607080902040608000000000067
:0400000508000131BD
:00000001FF
