:020000040800F2
:1000000020040020450100087D0300080D030008BE
:10001000790300088D010008A9080008000000000D
:10002000000000000000000000000000C5040008FF
:1000300091010008000000007F0300082506000869
:100040005F0100085F0100085F0100085F01000810
:100050005F0100085F0100085F0100085F01000800
:100060005F0100085F0100085F0100085F010008F0
:100070005F0100085F0100085F0100085F010008E0
:100080005F0100085F0100085F0100085F010008D0
:100090005F0100085F0100085F0100085F010008C0
:1000A0005F0100085F0100085F0100085F010008B0
:1000B0005F0100085F0100085F0100085F010008A0
:1000C0005F0100085F0100085F0100085F01000890
:1000D0005F0100085F0100085F0100085F01000880
:1000E0005F0100085F0100085F0100085F01000870
:1000F0005F0100085F0100085F0100085F01000860
:100100005F0100085F0100085F0100085F0100084F
:100110005F0100085F0100085F0100085F0100083F
:100120005F0100085F0100085F0100085F0100082F
:10013000DFF80CD000F018F800480047B9090008B3
:10014000200400200648804706480047FEE7FEE7F7
:10015000FEE7FEE7FEE7FEE7FEE7FEE7FEE7FEE777
:100160005506000831010008064C074D06E0E0681E
:1001700040F0010394E8070098471034AC42F6D3EE
:10018000FFF7DAFF780B0008980B000800BFFEE7C6
:100190007047000008B50121242000F0F1F84FF469
:1001A0008070ADF8000003208DF8020004208DF867
:1001B00003006946084800F013F84FF47060ADF88A
:1001C000000003208DF8020010208DF8030069461E
:1001D000024800F005F808BD000801400014014085
:1001E0002DE9F041024600250026002000230024CE
:1001F000002791F803C00CF00F0591F803C01CF024
:10020000100F03D091F802C04CEA0505B1F800C008
:100210001CF0FF0F31D0146800202BE04FF0010CD0
:100220000CFA00F3B1F800C00CEA03069E4220D19C
:1002300083004FF00F0C0CFA03F7BC4305FA03FCE4
:100240004CEA040491F803C0BCF1280F06D14FF02A
:10025000010C0CFA00FCC2F814C00AE091F803C0CB
:10026000BCF1480F05D14FF0010C0CFA00FCC2F8AC
:1002700010C0401C0828D1D31460B1F800C0BCF1F4
:10028000FF0F34DD546800202EE000F1080C4FF021
:10029000010808FA0CF3B1F800C00CEA03069E420C
:1002A00021D183004FF00F0C0CFA03F7BC4305FA81
:1002B00003FC4CEA040491F803C0BCF1280F05D1FB
:1002C00000F1080C08FA0CF8C2F8148091F803C089
:1002D000BCF1480F07D100F1080C4FF0010808FAF3
:1002E0000CF8C2F81080401C0828CED35460BDE83A
:1002F000F0810246002093680B4201D0012000E00B
:1003000000207047416170470161704700BFFEE700
:1003100010B545F2555000F029F8062000F01AF803
:1003200040F20D3000F01CF800F00CF800F002F87C
:1003300010BD00004CF6CC40014908607047000039
:10034000003000404AF6AA200149086070470000CA
:100350000030004001494860704700000030004014
:100360000149886070470000003000400149086082
:10037000704700000030004000BFFEE77047704744
:1003800029B1064A92690243044B9A6104E0034A88
:1003900092698243014B9A6170470000001002404D
:1003A0000348406A40F0807001494862704700008D
:1003B0000010024030B500210022002400232D4D02
:1003C0006D6805F00C0121B1042905D0082923D15D
:1003D00005E0294D056022E0274D05601FE0254D11
:1003E0006D6805F47012234D6D6805F480340225A4
:1003F00005EB92421CB9214D554305600BE01D4DA4
:100400006D6815F4003F03D01C4D5543056002E0B4
:10041000194D5543056002E0174D056000BF00BF50
:10042000144D6D6805F0F0010909154D6B5C056808
:10043000DD4045600F4D6D6805F4E061090A104D1F
:100440006B5C4568DD4085600A4D6D6805F4605160
:10045000C90A0B4D6B5C4568DD40C560054D6D6894
:1004600005F44041890B074D6B5CC568B5FBF3F59E
:10047000056130BD0010024000127A0000093D0005
:10048000050000201500002010B5014600220023C1
:1004900000204A11012A02D1094C236806E0022AF1
:1004A00002D1074C236A01E0054C636A01F01F0288
:1004B000012494401C4201D0012000E0002010BD26
:1004C00000100240704710B500F002F810BD0000A7
:1004D000002100202E4A126842F480322C4B1A6010
:1004E00000BF2B4A126802F40030491C10B9B1F564
:1004F000A06FF6D1264A126812F4003F01D0012005
:1005000000E00020012842D1224A126842F0100285
:10051000204B1A601A46126822F003021A601A462B
:10052000126842F002021A60194A5268184B5A6067
:100530001A4652685A601A46526842F480625A60FB
:100540001A46526822F47C125A601A46526842F4E3
:10055000E8125A601A46126842F080721A6000BFB0
:100560000B4A126812F0007FFAD0094A526822F052
:100570000302074B5A601A46526842F002025A6060
:1005800000BF034A526802F00C02082AF9D17047F2
:100590000010024000200240042808D14FF0E02162
:1005A000096941F004014FF0E022116107E04FF0CA
:1005B000E021096921F004014FF0E0221161704748
:1005C000012808D14FF0E021096941F001014FF005
:1005D000E02211610EE0811C08D14FF0E021096991
:1005E00021F001014FF0E022116103E000214FF002
:1005F000E0229161704710B50146002200230020DF
:10060000CB10022B03D14FF0E024226902E04FF01F
:10061000E024E26901248C40144201D0012000E072
:10062000002010BD704740B14FF0E021096941F052
:1006300002014FF0E022116107E04FF0E02109696B
:1006400021F002014FF0E022116170474FF0E021EC
:100650004861704710B51348006840F00100114927
:10066000086008464068104908400E49486008463E
:1006700000680E4908400B4908600846006820F4ED
:10068000802008600846406820F4FE0048604FF46F
:100690001F008860FFF717FF4FF0006004490860F3
:1006A00010BD0000001002400000FFF8FFFFF6FE42
:1006B00008ED00E021B1828942F40052828104E019
:1006C00082894DF6FF731A408281704700B585B06C
:1006D000012144F20400FFF753FE4FF40070ADF81F
:1006E000100018208DF8130003208DF8120004A9C3
:1006F0001A48FFF775FD4FF48060ADF81000042034
:100700008DF8130003208DF8120004A91348FFF799
:1007100067FD4FF4E13000900020ADF80400ADF823
:100720000600ADF80800ADF80C000C20ADF80A008A
:1007300069460B4800F048F8012240F2255108486C
:1007400000F01DF8012240F22771054800F017F86B
:1007500001210348FFF7AEFF05B000BD00080140CE
:100760000038014002460020B1F5007F00D100BFF3
:1007700013880B4201D0012000E000207047F0B543
:1007800003460024002600250020A1F510676A3FDB
:1007900000D100BF1846C1F3421401F01F06012723
:1007A00007FA06F5012C01D10C3004E0022C01D12E
:1007B000103000E014301AB107682F43076002E0E0
:1007C0000768AF430760F0BD2DE9F04786B00546E6
:1007D0000E460024A24600BFA1460027B08900B102
:1007E00000BF2F462C8A4CF6FF700440F08804436B
:1007F0002C82AC894EF6F3100440B088318908434E
:10080000718908430443AC81AC8A4FF6FF40044031
:10081000B0890443AC8201A8FFF7CCFD1F48874292
:1008200002D1DDF810A001E0DDF80CA0A88910F4D9
:10083000004F08D00AEBCA0000EB0A1031684900EB
:10084000B0FBF1F807E00AEBCA0000EB0A103168D0
:100850008900B0FBF1F86420B8FBF0F00401200936
:10086000642101FB1089A88910F4004F08D03220C0
:1008700000EBC900B0FBF1F000F00700044308E012
:10088000322000EB09106421B0FBF1F000F00F0002
:1008900004432C8106B0BDE8F08700000038014019
:1008A000C1F308028280704700BFFEE7014A024997
:1008B00000F013B8950900081C00002002E008C8E9
:1008C000121F08C1002AFAD170477047002001E0CA
:1008D00001C1121F002AFBD170472DE9F0410446E7
:1008E0000F461646002503E03946B0476D1C641CD0
:1008F00020780028F8D12846BDE8F08100B585B001
:100900006846FFF757FD6FF00400FFF745FE002033
:10091000FFF789FE07490198B0FBF1F0064908701E
:100920004FF4FA510198B0FBF1F00449088005B08A
:1009300000BD000000127A0000000020020000202C
:1009400070B504461148008800FB04F5B5F1807FBE
:1009500001D36FF07F452846FFF778FE0020FFF7B0
:100960002FFE0120FFF72CFE00BF1020FFF743FEF3
:1009700007490870084600780128F6D1C01EFFF725
:100980001FFE0020FFF71CFE70BD000002000020CB
:100990000400002070B504460D46E1B20548FFF79B
:1009A0007FFF00BF40210348FFF7DCFE0028F9D09D
:1009B000204670BD00380140FFF7A0FFFFF7EAFBBB
:1009C000FFF7A6FCFFF782FE2E48FFF76FFF2D48CA
:1009D0004830FFF76BFF2B489030FFF767FF29483F
:1009E0004830FFF763FF2748FFF760FF7D20FFF7E0
:1009F0004BFD20B124A0FFF759FFFFF7D1FC40E0E9
:100A00004FF480712448FFF77FFC4FF400712248B7
:100A1000FFF77AFC4FF480611F48FFF775FC4FF435
:100A200000611D48FFF770FC4FF4FA70FFF788FF74
:100A30004FF480711848FFF765FC4FF400711648B9
:100A4000FFF760FC4FF480611348FFF75BFC4FF445
:100A500000611148FFF756FC4FF4FA70FFF770FF82
:100A60004FF480710D48FFF744FC50B91420FFF794
:100A700067FF4FF480710948FFF73BFC08B9FFF7A7
:100A800061FCBDE7A00A000849574447205245537E
:100A90004554200D0A0000000014014000080140E8
:100AA0002A2A2A2A2A2A2A2A2A2A2A2A2A2A2A2AA6
:100AB0002A2A2A2A2A2A2A2A2A2A2A2A2A2A2A2A96
:100AC0002A2A2A2A2A2A2A2A2A2A2A2A2A2A2A2A86
:100AD0002A2A2A2A2A2A2A2A2A2A2A2A2A2A2A2A76
:100AE0002A2A0D0A000000002A2020202020202091
:100AF00020202020202020202020202020202020F6
:100B000020202020202020202020202020202020E5
:100B100020202020202020202020202020202020D5
:100B20002020202020202020202A0D0A0000000064
:100B30002A20205468616E6B20796F7520666F7271
:100B4000207573696E672048592D46697265427534
:100B50006C6C2056312E3020446576656C6F706D5C
:100B6000656E7420426F6172642021205E5F5E209A
:100B7000202A0D0A00000000980B00080000002049
:100B800020000000BC080008B80B0008200000206E
:100B900000040000CC080008000000000000000075
:100BA0000001020304010203040607080902040607
:080BB000080000000000000035
:0400000508000131BD
:00000001FF
