:020000040800F2
:100000002004002045010008E3020008DB0200088C
:10001000DF0200088D010008F30B0008000000005B
:10002000000000000000000000000000FD040008C7
:100030009101000800000000A5030008D105000898
:100040005F0100085F0100085F0100085F01000810
:100050005F0100085F0100085F0100085F01000800
:100060005F0100085F0100085F0100085F010008F0
:100070005F0100085F0100085F0100085F010008E0
:100080005F0100085F0100085F0100085F010008D0
:100090005F0100085F0100085F0100085F010008C0
:1000A0005F0100085F0100085F0100085F010008B0
:1000B000350600085F0100085F0100085F010008C5
:1000C0005F0100085F0100085F0100085F01000890
:1000D0005F0100085F0100085F0100085F01000880
:1000E0005F0100085F0100085F0100085F01000870
:1000F0005F0100085F0100085F0100085F01000860
:100100005F0100085F0100085F0100085F0100084F
:100110005F0100085F0100085F0100085F0100083F
:100120005F0100085F0100085F0100085F0100082F
:10013000DFF80CD000F018F8004800476D0C0008FC
:10014000200400200648804706480047FEE7FEE7F7
:10015000FEE7FEE7FEE7FEE7FEE7FEE7FEE7FEE777
:10016000D505000831010008064C074D06E0E0689F
:1001700040F0010394E8070098471034AC42F6D3EE
:10018000FFF7DAFFC40D0008E40D000800BFFEE72A
:100190007047000008B50121202000F025F94FF438
:1001A0007060ADF8000003208DF8020010208DF87B
:1001B00003006946014800F003F808BD001401403F
:1001C0002DE9F041024600250026002000230024EE
:1001D000002791F803C00CF00F0591F803C01CF044
:1001E000100F03D091F802C04CEA0505B1F800C029
:1001F0001CF0FF0F31D0146800202BE04FF0010CF1
:100200000CFA00F3B1F800C00CEA03069E4220D1BC
:1002100083004FF00F0C0CFA03F7BC4305FA03FC04
:100220004CEA040491F803C0BCF1280F06D14FF04A
:10023000010C0CFA00FCC2F814C00AE091F803C0EB
:10024000BCF1480F05D14FF0010C0CFA00FCC2F8CC
:1002500010C0401C0828D1D31460B1F800C0BCF114
:10026000FF0F34DD546800202EE000F1080C4FF041
:10027000010808FA0CF3B1F800C00CEA03069E422C
:1002800021D183004FF00F0C0CFA03F7BC4305FAA1
:1002900003FC4CEA040491F803C0BCF1280F05D11B
:1002A00000F1080C08FA0CF8C2F8148091F803C0A9
:1002B000BCF1480F07D100F1080C4FF0010808FA13
:1002C0000CF8C2F81080401C0828CED35460BDE85A
:1002D000F081416170470161704700BFFEE700BFD8
:1002E000FEE7704708B54FF4E06000F051F81C20BD
:1002F0008DF8000000208DF801008DF8020001202B
:100300008DF80300684600F001F808BD70B50021C3
:1003100000230F22C4784CB31A4C246804F4E06420
:10032000C4F5E0644FEA1421C1F1040322FA01F29A
:10033000447804FA03F1847804EA020444EA0101EF
:100340004FEA0111104C0678A155047804F01F05FE
:100350004FF0010404FA05F405784FEA65154FF0F3
:10036000E02606EB8505C5F8004109E0047804F0B5
:100370001F050124AC40054D0678761145F826404E
:1003800070BD00000CED00E000E400E080E100E062
:1003900002490143024A1160704700000000FA055B
:1003A0000CED00E07047000029B1064AD269024313
:1003B000044BDA6104E0034AD2698243014BDA61FB
:1003C000704700000010024029B1064A126902433A
:1003D000044B1A6104E0034A12698243014B1A611B
:1003E000704700000010024029B1064A926902439A
:1003F000044B9A6104E0034A92698243014B9A617B
:10040000704700000010024029B1064AD26802433A
:10041000044BDA6004E0034AD2688243014BDA609D
:10042000704700000010024030B500210022002477
:1004300000232D4D6D6805F00C0121B1042905D074
:10044000082923D105E0294D056022E0274D0560EC
:100450001FE0254D6D6805F47012234D6D6805F49D
:100460008034022505EB92421CB9214D55430560AD
:100470000BE01D4D6D6815F4003F03D01C4D554336
:10048000056002E0194D5543056002E0174D056017
:1004900000BF00BF144D6D6805F0F0010909154D4E
:1004A0006B5C0568DD4045600F4D6D6805F4E061EB
:1004B000090A104D6B5C4568DD4085600A4D6D682A
:1004C00005F46051C90A0B4D6B5C4568DD40C560A1
:1004D000054D6D6805F44041890B074D6B5CC5689F
:1004E000B5FBF3F5056130BD0010024000127A0043
:1004F00000093D000100002011000020704710B5E8
:1005000000F002F810BD0000002100202E4A126801
:1005100042F480322C4B1A6000BF2B4A126802F45E
:100520000030491C10B9B1F5A06FF6D1264A126807
:1005300012F4003F01D0012000E00020012842D148
:10054000224A126842F01002204B1A601A461268C2
:1005500022F003021A601A46126842F002021A6080
:10056000194A5268184B5A601A4652685A601A461D
:10057000526842F480625A601A46526822F47C1231
:100580005A601A46526842F4E8125A601A461268D3
:1005900042F080721A6000BF0B4A126812F0007FAE
:1005A000FAD0094A526822F00302074B5A601A46F1
:1005B000526842F002025A6000BF034A526802F0D9
:1005C0000C02082AF9D170470010024000200240B6
:1005D0007047000010B51348006840F00100114951
:1005E000086008464068104908400E4948600846BF
:1005F00000680E4908400B4908600846006820F46E
:10060000802008600846406820F4FE0048604FF4EF
:100610001F008860FFF773FF4FF000600449086017
:1006200010BD0000001002400000FFF8FFFFF6FEC2
:1006300008ED00E010B50121880700F06BF9A0B3C8
:100640000121880700F039F818480078A0B14FF46C
:1006500080711748FFF73FFE4FF400711448FFF711
:100660003AFE4FF480611248FFF735FE4FF4006107
:100670000F48FFF730FE13E04FF480710C48FFF78E
:1006800028FE4FF400710A48FFF723FE4FF4806103
:100690000748FFF71EFE4FF400610548FFF719FEFB
:1006A00002480078C0430149087010BD00000020D6
:1006B00000140140CA4302827047CA430282704755
:1006C00021B1028842F00102028004E002884FF664
:1006D000FE731A40028070470EB501210846FFF7ED
:1006E00063FE4FF0804000F021F84FF4FA60ADF85F
:1006F000040048F69F40ADF800000020ADF8060069
:10070000ADF8020069464FF0804000F021F9012168
:100710008807FFF7CFFF01221146900700F00BF981
:1007200001218807FFF7CCFF0EBD000010B504467D
:100730006848844208D10121C014FFF765FE0021FA
:10074000E014FFF761FEC4E0B4F1804F08D101214D
:100750000846FFF739FE00210120FFF735FEB8E01B
:100760005D48844208D101210220FFF72DFE0021BF
:100770000220FFF729FEACE05848844208D101214D
:100780000420FFF721FE00210420FFF71DFEA0E05A
:100790005348844208D101210820FFF715FE0021AB
:1007A0000820FFF711FE94E04E48844208D1012151
:1007B0001020FFF709FE00211020FFF705FE88E05A
:1007C0004948844208D101212020FFF7FDFD002186
:1007D0002020FFF7F9FD7CE04448844208D1012144
:1007E0004014FFF711FE00216014FFF70DFE70E0CA
:1007F0003F48844209D10121C804FFF705FE0021CA
:100800004FF40020FFF700FE63E03A48844209D12C
:1008100001210805FFF7F8FD00214FF48010FFF7D4
:10082000F3FD56E03448844209D101214805FFF721
:10083000EBFD00214FF40010FFF7E6FD49E02F48E3
:10084000844208D101214020FFF7BEFD0021402055
:10085000FFF7BAFD3DE02A48844208D101218020FB
:10086000FFF7B2FD00218020FFF7AEFD31E0254803
:10087000844208D101218015FFF7A6FD0021A015B3
:10088000FFF7A2FD25E02048844209D10121080498
:10089000FFF7BAFD00214FF48030FFF7B5FD18E0F7
:1008A0001A48844209D101214804FFF7ADFD002117
:1008B0004FF40030FFF7A8FD0BE01548844208D143
:1008C00001218804FFF7A0FD00214FF48020FFF7ED
:1008D0009BFD10BD002C01400004004000080040BA
:1008E000000C0040001000400014004000340140A3
:1008F000004C0140005001400054014000180040ED
:10090000001C004000200040004001400044014025
:100910000048014030B50246002000230024158A1B
:1009200005EA0103958905EA010413B10CB1012020
:1009300000E0002030BD10B51AB183890B438381DC
:1009400004E08389CC43A4B22340838110BD00001E
:10095000002202881D4B98420ED01D4B98420BD0AE
:10096000B0F1804F08D01B4B984205D01A4B9842EB
:1009700002D01A4B984204D14FF68F731A404B881D
:100980001A43174B984207D0164B984204D04FF6A3
:10099000FF431A40CB881A4302808B8883850B88DB
:1009A00003850A4B98420BD0094B984208D00E4B56
:1009B000984205D00D4B984202D00D4B984201D180
:1009C0000B7A03860123838270470000002C0140CC
:1009D000003401400004004000080040000C0040CA
:1009E000001000400014004000400140004401405D
:1009F0000048014021B1828942F40052828104E022
:100A000082894DF6FF731A408281704700B585B028
:100A1000012144F20400FFF7E7FC4FF40070ADF849
:100A2000100018208DF8130003208DF8120004A97F
:100A30001A48FFF7C5FB4FF48060ADF810000420A2
:100A40008DF8130003208DF8120004A91348FFF756
:100A5000B7FB4FF4E13000900020ADF80400ADF892
:100A60000600ADF80800ADF80C000C20ADF80A0047
:100A700069460B4800F048F8012240F22551084829
:100A800000F01DF8012240F22771054800F017F828
:100A900001210348FFF7AEFF05B000BD000801408B
:100AA0000038014002460020B1F5007F00D100BFB0
:100AB00013880B4201D0012000E000207047F0B500
:100AC00003460024002600250020A1F510676A3F98
:100AD00000D100BF1846C1F3421401F01F060127E0
:100AE00007FA06F5012C01D10C3004E0022C01D1EB
:100AF000103000E014301AB107682F43076002E09D
:100B00000768AF430760F0BD2DE9F04786B00546A2
:100B10000E460024A24600BFA1460027B08900B1BE
:100B200000BF2F462C8A4CF6FF700440F088044327
:100B30002C82AC894EF6F3100440B088318908430A
:100B4000718908430443AC81AC8A4FF6FF400440EE
:100B5000B0890443AC8201A8FFF766FC1F488742B6
:100B600002D1DDF810A001E0DDF80CA0A88910F496
:100B7000004F08D00AEBCA0000EB0A1031684900A8
:100B8000B0FBF1F807E00AEBCA0000EB0A1031688D
:100B90008900B0FBF1F86420B8FBF0F004012009F3
:100BA000642101FB1089A88910F4004F08D032207D
:100BB00000EBC900B0FBF1F000F00700044308E0CF
:100BC000322000EB09106421B0FBF1F000F00F00BF
:100BD00004432C8106B0BDE8F087000000380140D6
:100BE00001468888C0F308007047C1F3080282807C
:100BF000704700BFFEE70000014A024900F013B849
:100C0000490C00081800002002E008C8121F08C1A3
:100C1000002AFAD170477047002001E001C1121F7D
:100C2000002AFBD170472DE9F04104460F461646D5
:100C3000002503E03946B0476D1C641C207800286D
:100C4000F8D12846BDE8F08170B504460D46E1B202
:100C50000548FFF7CAFF00BF40210348FFF722FF06
:100C60000028F9D0204670BD00380140FFF792FA05
:100C7000FFF738FBFFF730FDFFF7C8FE1248FFF71C
:100C8000BBFF11484830FFF7B7FF0F489030FFF720
:100C9000B3FF0D484830FFF7AFFF0B48FFF7ACFF3D
:100CA0000AA0FFF7A9FF0EE000BF20210E48FFF7C2
:100CB000F9FE0028F9D00C48FFF792FF04460146E0
:100CC0000948FFF792FFEFE7EC0C00080D0A506CA3
:100CD0006561736520696E70757420616E79207727
:100CE0006F7264203A0D0A00003801402A2A2A2A2D
:100CF0002A2A2A2A2A2A2A2A2A2A2A2A2A2A2A2A54
:100D00002A2A2A2A2A2A2A2A2A2A2A2A2A2A2A2A43
:100D10002A2A2A2A2A2A2A2A2A2A2A2A2A2A2A2A33
:100D20002A2A2A2A2A2A2A2A2A2A2A2A2A2A0D0A60
:100D3000000000002A202020202020202020202029
:100D400020202020202020202020202020202020A3
:100D50002020202020202020202020202020202093
:100D60002020202020202020202020202020202083
:100D700020202020202A0D0A000000002A202054D4
:100D800068616E6B20796F7520666F72207573696C
:100D90006E672048592D4669726542756C6C205605
:100DA000312E3020446576656C6F706D656E7420F1
:100DB000426F6172642021205E5F5E20202A0D0A4E
:100DC00000000000E40D0008000000201C000000EE
:100DD000080C0008000E00081C000020040400009D
:100DE000180C0008000000000001020304010203C7
:100DF00004060708090204060800000000000000BD
:0400000508000131BD
:00000001FF
