:020000040800F2
:100000006816002045010008A9140008250F000803
:10001000A514000829020008492E0008000000006D
:100020000000000000000000000000004123000864
:10003000FD0C000800000000FD160008CD2B000894
:100040005F0100085F0100085F0100085F01000810
:100050005F0100085F0100085F0100085F01000800
:100060005F0100085F0100085F0100085F010008F0
:100070005F0100085F0100085F0100085F010008E0
:100080005F0100085F0100085F010008CD2C000837
:10009000A52D00085F0100085F0100085F0100084E
:1000A0005F0100085F0100085F0100085F010008B0
:1000B0005F0100085F0100085F0100085F010008A0
:1000C0005F0100085F0100085F0100085F01000890
:1000D0005F0100085F0100085F0100085F01000880
:1000E0005F0100085F0100085F0100085F01000870
:1000F0005F0100085F0100085F0100085F01000860
:100100005F0100085F0100085F0100085F0100084F
:100110005F0100085F0100085F0100085F0100083F
:100120005F0100085F0100085F0100085F0100082F
:10013000DFF80CD000F018F800480047D52F000871
:10014000681600200648804706480047FEE7FEE79D
:10015000FEE7FEE7FEE7FEE7FEE7FEE7FEE7FEE777
:10016000D12B000831010008064C074D06E0E0687D
:1001700040F0010394E8070098471034AC42F6D3EE
:10018000FFF7DAFFB0300008D030000870B501EB9F
:10019000020410F8015B15F0070301D110F8013BD0
:1001A0002A1106D110F8012B03E010F8016B01F8B9
:1001B000016B5B1EF9D12B0705D40023521E0FD40F
:1001C00001F8013BFAE710F8013B02F10202A1EB52
:1001D000030303E013F8015B01F8015B521EF9D53C
:1001E000A142D6D3002070BD10B5044624B1012C25
:1001F00007D0022C15D10AE01021012002F06AF983
:1002000010E04FF48051022002F008F90AE01021BA
:10021000012002F05FF94FF48051022002F0FEF855
:1002200000E000BF00BF10BD00BFFEE70146CAB23C
:100230000B1243EA0220704710B5002404E0A748DF
:10024000005DA7490855641CA64800888442F6D37F
:10025000A3484068A4494860A14880688860A148D4
:1002600000881F280FD00220FFF7BEFF00209C4906
:100270000860487B1A22052102F0E6F900210120DE
:1002800002F0C4F910BD9648C07B282803D09448DA
:10029000C07B2A2816D19248407C01069048807C79
:1002A00041EA00418E48C07C41EA00208C49097D2A
:1002B00008438E4908608A48C17D807D41EA00205C
:1002C0008B490860864800688A4988426FD1844813
:1002D000407B89490968884207D88148807B01288A
:1002E00003DB7F48807B10280DDD0220FFF77CFFB9
:1002F0007B49487B2422052102F0A6F90021012038
:1003000002F084F9E8E07648C07B25285FD01BDC4A
:1003100015286FD00EDC08286DD006DC00285BD0D5
:10032000032830D0042867D176E00A2873D0122839
:10033000F9D12DE01A380A285ED2DFE800F0392E14
:10034000B17D33B1B1B1B1438A286FD00EDC5528ED
:1003500067D006DC282844D02A284ED02F28E2D1A6
:1003600054E05A2829D08828DDD176E0A8286DD01D
:1003700004DC8F286FD09E28D5D173E0AA287BD0CB
:10038000AF28D0D182E05649487B01F037FC95E098
:100390005349487B01F00AFB90E05149487B01F04A
:1003A00041FC8BE04E49487B01F03CFC86E086E056
:1003B0004B49487B01F04AFB80E04949487B01F00A
:1003C0003BFB7BE04649487B01F0D4FB76E04449A7
:1003D000487B01F081FB71E04149487B01F02AFC38
:1003E0006CE03F49487B42490A684049096801F08E
:1003F00037FB63E01BE024E052E03949487B3C498D
:100400000A683A49096801F051FC57E03449487BD1
:1004100001F02CFC52E02AE03149487B01F0AEFAB1
:100420004CE02F49487B01F0E5FA47E029E02C49F0
:10043000487B01F0DFFA41E02949487B01F0DAFA14
:100440003CE02749487B01F0D5FA37E02449487B56
:1004500001F0D0FA32E01EE00EE02149487B01F0C5
:10046000C9FA2BE01E49487B01F0C4FA26E01C497A
:10047000487B01F0BFFA21E01949487B01F0BAFA44
:100480001CE01749487B01F0B5FA17E01449487B96
:1004900001F0B0FA12E01249487B01F0ABFA0DE02E
:1004A0000220FFF7A1FE0E49487B2022052102F021
:1004B000CBF80021012002F0A9F800BF0CE00220D7
:1004C000FFF792FE0649487B2022052102F0BCF886
:1004D0000021012002F09AF800BFD3E6DC110020D1
:1004E0001C120020B60100203C120020B8010020A0
:1004F000BC010020555342435C00002010B500248D
:100500004AE047F6FF70294908602948008800F052
:100510000F002849087008460078274901EB800041
:10052000D0F8000C84B214F4004F19D021480078A0
:1005300001EB8000D0F8000CC0F30E0048F68F717C
:1005400008401C4909781C4A02EB8101C1F8000CE3
:1005500018490978491E194A52F8210080471BE0C2
:1005600014F0800F18D013480078134901EB800075
:10057000D0F8000C80B248F60F7108400D49097898
:100580000D4A02EB8101C1F8000C0A490978491EA5
:100590000B4A52F8210080470448006880B20449A1
:1005A000088010F4004FACD110BD0000445C004046
:1005B00058000020C4010020005000403C000020F2
:1005C0002000002010B5002423E19748008800F0A7
:1005D0000F00964908700846007800287ED194489C
:1005E0000068944908800846008800F0300092496D
:1005F00008809048008800F440508E4908808F4958
:10060000D1F8001C89B24BF6BF7201EA020080F4F7
:10061000005080F0200040F4004141F08001874A02
:10062000C2F8001C8048008810F0100F36D18048B6
:10063000006880B248F60F7100EA01001146C1F867
:10064000000C00F071FC7A49096889B24BF6BF7260
:1006500001EA02007749098811F4805F01D080F433
:1006600080507449098811F4005F01D080F4005073
:100670007149098811F0100F01D080F010006E4907
:10068000098811F0200F01D080F0200081B241F4E0
:10069000004141F08001664A116010BD6448006865
:1006A00084B214F4006F39D061480068C0F30E00C2
:1006B00048F68F7100EA01006049C1F8000C01F0B2
:1006C000DBFF5B49096889B24BF6BF7201EA0200A1
:1006D0005849098811F4805F03D000E059E080F4A4
:1006E00080505449098811F4005F01D080F4005013
:1006F0005149098811F0100F01D080F010004E49C7
:10070000098811F0200F01D080F0200081B241F45F
:10071000004141F08001464A1160BEE714F4004FE9
:1007200077D043480068C0F30E0048F68F7100EAA6
:1007300001004249C1F8000C00F0A6FF3C490968DD
:1007400089B24BF6BF7201EA02003A49098811F4F6
:10075000805F01D080F480503649098811F4005F31
:1007600001D080F400503449098811F0100F01D0F5
:1007700080F010003049098811F0200F01D080F07E
:10078000200081B241F4004141F08001284A11600B
:1007900083E726480078294901EB8000D0F8000C57
:1007A00084B214F4004F18D02048007801EB800088
:1007B000D0F8000CC0F30E0048F68F7108401B49BA
:1007C00009781E4A02EB8101C1F8000C174909782B
:1007D000491E1B4A52F82100804714F0800F18D0A0
:1007E00012480078154901EB8000D0F8000C80B267
:1007F00048F60F7108400D490978104A02EB810153
:10080000C1F8000C09490978491E0E4A52F8210026
:1008100080470D48006880B20349088010F4004FFB
:100820007FF4D3AE00BF38E758000020C401002099
:10083000005C0040D8010020DA0100200050004098
:100840003C00002020000020445C00400C4901EBEB
:100850008001D1F8001C11F4804F10D0084901EB41
:100860008001D1F8001C89B248F68F7211404CF219
:1008700080021143024A02EB8002C2F8001C70475A
:10088000005000400C4901EB8001D1F8001C11F030
:10089000400F10D0084901EB8001D1F8001C89B24B
:1008A00048F68F72114048F2C0021143024A02EB2F
:1008B0008002C2F8001C704700500040084901EB5C
:1008C0008001D1F8001C89B248F68F62114048F2CD
:1008D00080021143024A02EB8002C2F8001C7047FA
:1008E000005000402DE9F0472948006800F110054C
:1008F0002E8827480068077AEEB9042F1BD12548B7
:100900000078012812D100212348006880B200F14C
:100910000200224A42F810104FF0300020490880AF
:1009200000BF4FF000001B49087003E007271020AC
:100930001B49088027E0AC88A64201D8042000E0CB
:1009400002200746B44200D93446A0B2A9688847BD
:100950008046002000F0AAFA8146A2B20146404635
:1009600002F074FAA1B2002001F0A4FD2888001B57
:100970002880688820446880302009490880000267
:100980000849088000BF024909680F72BDE8F08776
:10099000C8010020C0010020505C00400060004001
:1009A000DA010020D80100202DE9F0412948006833
:1009B00000F110042688A068C0B1BEB1A588B54278
:1009C00000D93546A8B2A168884707462088401B51
:1009D0002080608828446080002000F043FA804630
:1009E000AAB20146384600F077FE00BF208850B119
:1009F0004FF44050184908800021084601F05AFD84
:100A00003020164908802088A188884204DB032012
:100A10001049096808721AE02088002804DD0520C2
:100A20000C490968087212E0208880B9062009493B
:100A30000968087200210A48006880B200F10200CB
:100A4000084A42F810104FF0300004490880BDE811
:100A5000F0810000C8010020D8010020DA01002048
:100A6000505C0040006000402DE9F05F9A4800684B
:100A700045780027BA46062D1AD1974800680078B5
:100A800010F07F0F13D1944909688878012803D1A9
:100A900092490968CF690AE0022803D18F490968A1
:100AA0000F6A04E0032802D18C4909684F6A94E078
:100AB000002D64D188480068408800285FD18648AE
:100AC0000068C08802285AD183480068007900284D
:100AD00055D181480068007810F07F0F05D17E481D
:100AE0000068808808B97E4F77E07B48006800780E
:100AF00000F07F00012810D17749096848797749CB
:100B000009688A6900219047002866D17248006808
:100B1000807A002861D0724F5FE06F4800680078EB
:100B200000F07F00022858D16B480068407900F03F
:100B30000F0669480068407900F07009664800684F
:100B4000407910F0800F07D0664800EB8600D0F89F
:100B5000000C00F0300806E0624800EB8600D0F898
:100B6000000C00F4405860480078B04235D9B9F123
:100B7000000F32D1B8F1000F2FD0594F2DE0082DC2
:100B800007D155480068007810F07F0F25D1574FE6
:100B900023E00A2D21D150480068007800F07F0042
:100BA00001281AD14C480068807AB0B14A480068E0
:100BB000408890B948480068007970B94648006894
:100BC000C088012809D1444909684879434909681E
:100BD0008A690021904700B9454F57B13E480068E7
:100BE000A0F812A03C48006887610020B8470024A4
:100BF0000FE0394A12685078384A126811698847FC
:100C00000446032C05D10920334909680872BDE860
:100C1000F09F31480068008AA0F57F41FF3904D178
:100C200009202D4909680872F1E7022C03D02A48EF
:100C30000068008A20B90820274909680872E6E799
:100C400025480068007810F0800F3BD022480068EB
:100C5000B0F806B020480068008A584504D91E49FB
:100C60000968A1F810B023E01B480068008A1A49FF
:100C70000968C98888421BDA17480068008A174942
:100C8000096891F82C10884203DA0020194908708D
:100C90000EE011480068008A1049096891F82C108C
:100CA00090FBF1F201FB120010B90120114908700C
:100CB0000A48006890F82C10074800688182FFF706
:100CC00011FE06E0032004490968087200030A497E
:100CD000088000BF9BE70000C8010020CC01002075
:100CE0001D2900080050004060000020A1280008D5
:100CF000F1280008C0010020D8010020704710B57D
:100D000000F030FB10BD10B500F066FB10BD000018
:100D100010B5044600BF02210A4801F07BF8002804
:100D2000F9D02146074801F081F800BF01210548AC
:100D300001F070F80028F9D0024801F074F8C0B250
:100D400010BD0000003800402DE9F04102460025AA
:100D50000026002000230024002791F803C00CF097
:100D60000F0591F803C01CF0100F03D091F802C0DA
:100D70004CEA0505B1F800C01CF0FF0F31D0146833
:100D800000202BE04FF0010C0CFA00F3B1F800C08A
:100D90000CEA03069E4220D183004FF00F0C0CFAA0
:100DA00003F7BC4305FA03FC4CEA040491F803C0C2
:100DB000BCF1280F06D14FF0010C0CFA00FCC2F870
:100DC00014C00AE091F803C0BCF1480F05D14FF000
:100DD000010C0CFA00FCC2F810C0401C0828D1D34A
:100DE0001460B1F800C0BCF1FF0F34DD546800207E
:100DF0002EE000F1080C4FF0010808FA0CF3B1F8EE
:100E000000C00CEA03069E4221D183004FF00F0C74
:100E10000CFA03F7BC4305FA03FC4CEA040491F80E
:100E200003C0BCF1280F05D100F1080C08FA0CF83A
:100E3000C2F8148091F803C0BCF1480F07D100F14B
:100E4000080C4FF0010808FA0CF8C2F81080401C9A
:100E50000828CED35460BDE8F0814161704701613C
:100E60007047000001460648006880B200EBC100F0
:100E700000F10400034A52F8100080B270470000ED
:100E8000505C00400060004001460648006880B2A7
:100E900000EBC10000F10600034A52F81000C0F355
:100EA00009007047505C0040006000400146054862
:100EB000006880B200EBC100034A52F8100080B213
:100EC00070470000505C004000600040014629B9B6
:100ED0000120034A12681082002070470148FCE795
:100EE000C80100205C00002070B50A4804680A4868
:100EF000D0F8EC5709480668344454B10822084930
:100F0000204600F049F8042205491031284600F037
:100F100043F870BDE8F7FF1F00F0FF1FF0F7FF1F59
:100F20000200002000BFFEE710B518480068047AF0
:100F3000022C01D0042C05D1FFF7D4FC1348006823
:100F4000047A1CE0062C19D1104800684078052866
:100F50000ED10E480068007810F07F0F08D10B49C1
:100F60000968C87801F0F6F909490968086A8047F4
:100F70000849096888688047082400E00824034974
:100F800009680C7200F0BCFB10BD0000C801002015
:100F9000D4010020CC01002030B50B46002100BF59
:100FA00016E00A24B4EB107F05D9302404EB10744A
:100FB00003F8114005E0412404EB10740A3C03F8E7
:100FC0001140000100254C00641C1D554C1CE1B271
:100FD0009142E6DB30BD000008B50121202000F081
:100FE000EBFB4FF47060ADF8000003208DF80200B9
:100FF00010208DF8030069460148FFF7A5FE08BDE3
:101000000014014010B54FF480710248FFF725FF2E
:1010100010BD00000014014010B54FF4807102486B
:10102000FFF71DFF10BD00000014014010B50020A7
:1010300000F01CF810BD0000014671B94FF480505B
:10104000074A1060C010074A10600548006812681F
:101050005043054A1060002070470120FCE7000063
:101060000001002008010020F800002070B50446AF
:10107000002514B1012C06D104E000F05FFE00F061
:10108000B5FE02E001E0012070BD00BF2846FBE78D
:101090002DE9F04105460E461746984615B1012D3B
:1010A0000DD10BE042463946304601F02FF8044698
:1010B000012C02D00120BDE8F08102E001E0012016
:1010C000F9E700BF0020F6E72DE9F04106460C469F
:1010D0001746984616B1012E11D10FE0210B200BB7
:1010E00000F0C4FE42463946204601F087F8054626
:1010F000012D02D00120BDE8F08102E001E00120D5
:10110000F9E700BF0020F6E770B505460024144853
:101110000068007800F07F00212810D1FE2D0ED14C
:101120000F480068408850B90D480068808830B981
:101130000B480068C088012801D10A4C01E0022058
:1011400070BD0CB90220FBE70548006884610021EE
:101150000348006841820020A0470020F0E700001B
:10116000C8010020CD0E000810B5044602492046F3
:1011700001F0ACFB10BD0000C000002010B504461B
:101180000249204601F0A2FB10BD0000B80000207B
:1011900070B5054606480068C478052C01DD0020BE
:1011A00070BD044800EBC401284601F08FFBF7E74F
:1011B000C8010020C80000200246002901DD0220ED
:1011C0007047002A01DD0220FAE70020F8E700005E
:1011D00010B5044611480068007800F07F0021280F
:1011E0001AD1FF2C18D10D4800684088A0B90B48CF
:1011F0000068808880B909480068C08860B901200B
:10120000FFF740FB0220FFF721FB05480549086076
:1012100000200549087010BD0220FCE7C80100202D
:10122000555342431C120020B401002010B5002089
:10123000324988723248C0793249096848720020C0
:1012400001F080F84FF40071002001F065F92021D1
:10125000002001F03FF91821002001F0A5F82A48EC
:1012600090F82C10002001F0B1F85821002001F076
:1012700011F90020FFF722FB002001F0F1F8002116
:10128000012001F049F99821012001F003F9202102
:10129000012001F01FF90021012001F0BFF8002119
:1012A000022001F039F9D821022001F07DF816481A
:1012B00090F82C10022001F089F84FF440510220E0
:1012C00001F0ACF80021022001F004F90E4890F87A
:1012D0002C10002001F07AF8002001F0C1F8002065
:1012E00001F038F8012009490860094809490860F7
:1012F00000200949087001F059FD10BD4C12002072
:1013000012300008C801002064000020F000002016
:10131000555342431C120020B4010020704770470F
:1013200010B5FFF7E1FD002005490968887200F05B
:101330000BFA01F045FD00200249086010BD0000D5
:10134000C8010020F000002010B5044800680449DE
:10135000884202D00220FEF747FF10BD1C12002079
:101360005553424310B518480078022810D003287E
:101370001DD0042802D0052823D100E000BF0020A2
:10138000114908704FF44051022001F047F819E06C
:101390000E48C07B282808D10C49487B0C490A68B4
:1013A0000C49096800F05CFB00BF00BF0AE00121A6
:1013B000002001F02BF94FF44051022001F02EF8EB
:1013C00000E000BF00BF10BDB40100201C120020CF
:1013D000BC010020B801002010B51D48C47B1D4988
:1013E000022001F003FD1C4908801C48007810B160
:1013F00001281CD102E0FEF71FFF26E02A2C08D1AD
:101400001349487B16490A681649096800F04EFCE2
:101410001BE00120FEF7E8FE0D49487B2422052150
:1014200001F012F90021022001F0F0F80DE0022095
:10143000FEF7DAFE0649487B2422052101F004F973
:101440000021022001F0E2F800BF00BF10BD000043
:101450001C120020DC110020B6010020B401002085
:10146000BC010020B801002010B508480068807A4F
:1014700058B10520064908600120FFF703FA022051
:10148000FFF7E4F900200349087010BDC8010020EF
:10149000F0000020B40100200420014908607047DA
:1014A000F000002000BFFEE77047704770B50021D4
:1014B00000230F22C4784CB31A4C246804F4E0646F
:1014C000C4F5E0644FEA1421C1F1040322FA01F2E9
:1014D000447804FA03F1847804EA020444EA01013E
:1014E0004FEA0111104C0678A155047804F01F054D
:1014F0004FF0010404FA05F405784FEA65154FF042
:10150000E02606EB8505C5F8004109E0047804F003
:101510001F050124AC40054D0678761145F826409C
:1015200070BD00000CED00E000E400E080E100E0B0
:1015300002490143024A1160704700000000FA05A9
:101540000CED00E070B502264A480068447849482E
:101550000068007810F07F0F4AD1092C03D101F008
:101560005DFA064665E0052C14D142480068C07853
:101570007F280BDC3F480068807838B93D48006818
:10158000808818B93B480068807A08B108256DE06A
:1015900000264EE0032C14D136480068C07801289C
:1015A0000DD134480068808848B932480068407AD4
:1015B00010F0200F03D001F055FA064639E002265C
:1015C00037E0012C35D12B480068C07801280DD1B7
:1015D00028480068808848B926480068407A10F09A
:1015E000200F03D001F0A4F8064622E0022620E0F6
:1015F00020480068007800F07F00012805D10B2CFE
:1016000017D101F0ADFA064613E01A4800680078D9
:1016100000F07F0002280BD1012C03D101F088F8E3
:10162000064606E0032C04D101F030FA064600E03D
:1016300002264EB1104800684169E0B2884706466C
:10164000032E01D1092511E00EB108250EE0062573
:1016500000210A48006880B200F10200084A42F8FE
:1016600010104FF030000749088000BF0149096899
:101670000D7270BDC8010020CC010020505C0040FC
:1016800000600040DA01002010B511480068047ABB
:10169000022C01D0042C01D1082412E0032C01D02B
:1016A000052C05D1FFF780F909480068047A08E0A5
:1016B000072C05D107490968C8688047082400E05D
:1016C0000824034909680C7200F01AF810BD0000E4
:1016D000C8010020CC010020F0B5561C7510064E44
:1016E00006EB41042B4604E080CC20F8017B401C33
:1016F0005B1E002BF8D1F0BD006000407047000079
:1017000010B50D4890F82C10002000F05FFE0B483B
:101710000068007A082805D1400209490880102095
:101720000849088005480068007A092801D101208D
:1017300000E00020C0B210BD64000020C8010020FD
:10174000D8010020DA01002010B5012001F08CFA48
:1017500001240D4804604FF000000C490880084641
:1017600000880B49C1F8400C4FF00000094908609F
:101770004FF4E05005490880084600880449C1F844
:10178000400C4FF0000010BD405C0040D201002032
:1017900000500040445C004029B1064AD26902432F
:1017A000044BDA6104E0034AD2698243014BDA61F7
:1017B000704700000010024029B1064A92690243B6
:1017C000044B9A6104E0034A92698243014B9A6197
:1017D0007047000000100240014908607047000097
:1017E000D800424270B504460D4616463748007888
:1017F00070B9374850F824006843364908603448C7
:1018000050F8240070433449086001202F490870C3
:101810002E480078012846D130480068C0B92C48CD
:1018200050F8240083B22E4A2A4801682046FFF768
:101830002FFC40222A49812001F0EFFA244850F879
:10184000240040382549086040202649086011E0FE
:101850002348244A126881184022812001F0DDFAD1
:101860001E48006840381D4908601E480068403026
:101870001C4908604021012000F01CFE302101209D
:1018800000F028FE134800684030124908601248F2
:101890000068403810490860134880684038124991
:1018A0008860FFF7B9FB0C48006870B900200B494D
:1018B00008600C4908600749086003200B4908705C
:1018C000002002490870FFF79DFB70BD1801002041
:1018D000000100201C010020200100201001002038
:1018E000DC0100202C0100203C120020B40100206B
:1018F0002DE9F04104460D4617461E46B8191C490D
:1019000051F82410884213D92A2D02D10220FEF763
:101910006BFC0020FEF768FC21220521204600F028
:1019200093FE0021012000F071FE0020BDE8F0814F
:1019300010488168104850F824007043814214D048
:101940002A2D03D10220FEF74FFC02E00020FEF713
:101950004BFC0849487B2422052100F075FE00213C
:10196000012000F053FE0020E0E70120DEE7000048
:10197000080100201C1200200001002010B50446C0
:101980002046FFF759FB68B10749487B3A220221FC
:1019900000F05AFE0121084600F038FE0020FEF754
:1019A00023FC10BD00BFFCE71C12002070B50646EA
:1019B0000C48007C10F0010F02D00B4C2A250BE0E4
:1019C0000EB90A4C00E00A4C0648C07C242802DC10
:1019D0000448C57C00E024252946204601F028F96A
:1019E00070BD00001C1200203401002039010020CD
:1019F0005C01002010B504460E48806818B900202C
:101A0000FEF7F2FB0BE00B48007B10F0800F03D0D9
:101A10000020FEF7E9FB02E00220FEF7E5FB0549A6
:101A2000487B2022052100F00FFE0021012000F05C
:101A3000EDFD10BD1C12002010B50446082102481F
:101A400001F0F6F810BD00008401002010B5044636
:101A50000421024801F0ECF810BD000080010020D4
:101A600070B506460C4615461948007820BB194942
:101A7000487B2B4622462821FFF73AFF00B970BD6C
:101A80001448007B10F0800F08D002201049087025
:101A90002A4621463046FFF7A5FE0CE00220FEF75D
:101AA000A3FB0C49487B2422052100F0CDFD012138
:101AB000084600F0ABFDE2E705480078022804D1B3
:101AC0002A4621463046FFF78DFE00BFD7E70000CB
:101AD000B40100201C12002010B504462046FFF778
:101AE000ABFA68B11F49487B3A22022100F0ACFDF5
:101AF0000121084600F08AFD0020FEF775FB10BDAD
:101B0000194850F82400401E000E18490870164865
:101B100050F82400401E000C4870134850F8240070
:101B2000401E000A8870104850F82400401EC870FB
:101B30000F4850F82400000E08710D4850F824009A
:101B4000000C48710A4850F82400000A88710848BF
:101B500050F82400C8710821044801F069F800BF5A
:101B6000CDE700001C120020080100209E0100208B
:101B70000001002010B504462046FFF75DFA68B169
:101B80001A49487B3A22022100F05EFD01210846F5
:101B900000F03CFD0020FEF727FB10BD144850F874
:101BA0002400000E13490871114850F82400000C5D
:101BB00048710F4850F82400000A88710C4850F80A
:101BC0002400C8710C4850F82400000C48720A48E0
:101BD00050F82400000A8872074850F82400C872A0
:101BE0000C21044801F024F800BFD6E71C120020A5
:101BF00008010020A60100200001002070B5054664
:101C00000648C07C122802DC0448C47C00E0122490
:101C10002146034801F00CF870BD00001C120020A2
:101C20008C01002010B504460121002000F0EEFCDC
:101C300010BD000010B504462046FFF7FDF968B15D
:101C40000949487B3A22022100F0FEFC01210846A6
:101C500000F0DCFC0020FEF7C7FA10BD01210020D7
:101C600000F0D4FC00BFF8E71C12002010B50446B9
:101C70000D48806848B90C48007C10F0040F04D16E
:101C80000121002000F0C2FC0CE00220FEF7ACFABB
:101C90000549487B2422052100F0D6FC00210120C3
:101CA00000F0B4FC10BD00001C12002070B5064608
:101CB0000C4615461948007820BB1949487B2B462D
:101CC00022462A21FFF714FE00B970BD1448007B9C
:101CD00010F0800F08D10120104908704FF44051D6
:101CE000022000F09BFB0CE00020FEF77DFA0C497F
:101CF000487B2422052100F0A7FC0021012000F0F0
:101D000085FCE2E705480078012804D12A462146EF
:101D1000304601F0B7F800BFD7E70000B40100205B
:101D20001C12002021B1028842F04002028004E02F
:101D300002884FF6BF731A400280704700B587B023
:101D400001218803FFF728FD01210820FFF734FD5A
:101D500001211020FFF730FD4FF46040ADF8040082
:101D600018208DF8070003208DF8060001A91C48F3
:101D7000FEF7EAFF8020ADF8040010208DF8070080
:101D800003208DF8060001A91648FEF7DDFF80212B
:101D90001448FFF764F80020ADF808004FF4827093
:101DA000ADF80A000020ADF80C00ADF80E00ADF85B
:101DB00010004FF40070ADF812001020ADF81400C0
:101DC0000020ADF816000720ADF8180002A906485B
:101DD00000F02EF801210448FFF7A4FF07B000BD72
:101DE000000C0140001001400038004008B5002000
:101DF00000906946022000F0BDF9009820F07F4075
:101E0000009003490098884201D000BFFEE708BD5A
:101E10004125BF000246002013890B4201D001205A
:101E200000E0002070470146888970478181704733
:101E300010B50022028802F441520B884C882343DB
:101E40008C882343CC8823430C8923434C89234328
:101E50008C892343CC8923431A430280838B4FF21E
:101E6000FF74234083830B8A038210BD2DE9F05F4A
:101E700004460E464FF0000AD34600270025A84628
:101E8000A946B4F5007F02D2B6F5007F02D3002048
:101E9000BDE8F09F80219C48FEF7DFFF0520FEF79C
:101EA00037FF0020FEF734FF824680219648FEF778
:101EB000D6FF80219448FEF7D0FF5020FEF728FF80
:101EC00080219148FEF7CBFF80218F48FEF7C5FFA8
:101ED0000120FEF71DFF0020FEF71AFF80218A482F
:101EE000FEF7BDFF80218848FEF7B7FF0620FEF70A
:101EF0000FFF80218448FEF7B2FFB44203D904F0FB
:101F0000FF0B34465E46B44235D180217E48FEF751
:101F1000A4FF0620FEF7FCFE80217B48FEF79FFF12
:101F2000250380217848FEF798FF2020FEF7F0FE79
:101F3000C5F30740FEF7ECFEC5F30720FEF7E8FE09
:101F4000E8B2FEF7E5FE80216F48FEF788FF00BF8C
:101F500080216D48FEF781FF0520FEF7D9FE0020A5
:101F6000FEF7D6FE074680216748FEF778FF032F6D
:101F7000EED001208CE7301BA0F58071FF391ED117
:101F800080216148FEF769FF6020FEF7C1FE8021D5
:101F90005D48FEF764FF00BF80215B48FEF75DFFF0
:101FA0000520FEF7B5FE0020FEF7B2FE07468021B1
:101FB0005548FEF754FF032FEED0012068E7301B91
:101FC00000F10108A14638E080214F48FEF745FFA7
:101FD0000620FEF79DFE80214B48FEF740FF4FEAAA
:101FE000093580214848FEF738FF5220FEF790FE61
:101FF000C5F30740FEF78CFEC5F30720FEF788FE09
:10200000E8B2FEF785FE80213F48FEF728FF00BFBB
:1020100080213D48FEF721FF0520FEF779FE0020D4
:10202000FEF776FE074680213748FEF718FF032F9C
:10203000EED009F10809A8F10808B8F1080FC3D2D9
:1020400038E080213048FEF708FF0620FEF760FEEA
:1020500080212D48FEF703FF4FEA093580212A48E9
:10206000FEF7FBFE2020FEF753FEC5F30740FEF708
:102070004FFEC5F30720FEF74BFEE8B2FEF748FE21
:1020800080212148FEF7EBFE00BF80211E48FEF7AD
:10209000E4FE0520FEF73CFE0020FEF739FE074671
:1020A00080211948FEF7DBFE032FEED009F101096C
:1020B000A8F10108B8F1000FC3D180211248FEF742
:1020C000CCFE0620FEF724FE80210F48FEF7C7FE57
:1020D00080210D48FEF7C1FE5020FEF719FE802139
:1020E0000948FEF7BCFE80210748FEF7B6FE012036
:1020F000FEF70EFE5046FEF70BFE80210248FEF76B
:10210000AEFE0120C4E60000001001402DE9F041C0
:1021100004460F46154600266019B0F5001F00D290
:1021200015B90020BDE8F08180211148FEF795FE29
:102130000B20FEF7EDFDC4F30740FEF7E9FDC4F305
:102140000720FEF7E5FDE0B2FEF7E2FDFF20FEF717
:10215000DFFD002604E0FF20FEF7DAFDB855761C0F
:10216000AE42F8D380210248FEF779FE0120D9E77C
:102170000010014070B505460E460024022D1BD10B
:1021800080211D48FEF769FE9F20FEF7C1FD00205B
:10219000FEF7BEFD204304020020FEF7B9FD2043F8
:1021A00004020020FEF7B4FD044380211248FEF72C
:1021B00056FE3460012070BD0DB1012D1AD1802171
:1021C0000D48FEF74AFE9020FEF7A2FD0020FEF724
:1021D0009FFD0020FEF79CFD2846FEF799FD00209C
:1021E000FEF796FD044680210348FEF738FE346072
:1021F0000120E0E70020DEE7001001402DE9F04774
:1022000005460F4616464FF00008C1460024A8199F
:10221000401EB0F5001F00D216B90020BDE8F087BF
:1022200080214648FEF719FE0520FEF771FDFF20CC
:10223000FEF76EFD804680214048FEF710FE8021AB
:102240003E48FEF70AFE5020FEF762FD80213B4823
:10225000FEF705FE80213948FEF7FFFD0120FEF75D
:1022600057FD0020FEF754FD80213448FEF7F7FDAE
:1022700000243AE080213148FEF7EFFD0620FEF70A
:1022800047FD80212D48FEF7EAFD80212B48FEF70F
:10229000E4FD0220FEF73CFD2919C1F30740FEF7DB
:1022A00037FD2919C1F30720FEF732FD2919C8B2FD
:1022B000FEF72EFD385DFEF72BFD80211F48FEF74F
:1022C000CEFD00BF80211D48FEF7C7FD0520FEF7AB
:1022D0001FFDFF20FEF71CFD814680211748FEF7F9
:1022E000BEFDB9F1030FEDD0641CB442C2D380210E
:1022F0001248FEF7B2FD0620FEF70AFD80210F48C6
:10230000FEF7ADFD80210D48FEF7A7FD5020FEF73A
:10231000FFFC80210948FEF7A2FD80210748FEF757
:102320009CFD0120FEF7F4FC4046FEF7F1FC802105
:102330000248FEF794FD012070E700000010014004
:10234000704700004FF6F8710140014A1160704774
:10235000505C004030B50146104B1A78002015E063
:1023600003060F4C04EB9353D3F8003C9BB248F6A2
:102370008F74234048F280042343C4B223430406ED
:10238000074D05EB9454C4F8003C401C9042E7D341
:1023900041F08003034C236030BD0000600000204A
:1023A000005000404C5C004010B54A105300054AF4
:1023B000126892B202EBC00202F10402024C44F82D
:1023C000123010BD505C00400060004010B5024665
:1023D0001048006880B200EBC20000F106000E4C0D
:1023E00004EB40033E290BDD481111F01F0F01D112
:1023F000441EA0B24FF4004444EA80241C6007E06D
:10240000481011F0010F01D0441CA0B284021C60DE
:1024100010BD0000505C00400060004010B50F4B44
:1024200003EB8003D3F8003C9BB24BF68F7403EAB6
:10243000040211F4805F01D082F4805211F4005F35
:1024400001D082F4005242F4004343F08003034C75
:1024500004EB8004C4F8003C10BD000000500040B4
:102460000B4A02EB8002D2F8002C92B24BF68F732B
:1024700002EA030181F4805181F4005141F40042E9
:1024800042F08002024B03EB8003C3F8002C70473C
:102490000050004010B54A105300044A126892B22E
:1024A00002EBC002024C44F8123010BD505C0040F8
:1024B00000600040054A126892B202EBC00202F1CD
:1024C0000202034B43F8121070470000505C0040BA
:1024D0000060004010B50F4B03EB8003D3F8003CC5
:1024E0009BB248F6BF7403EA040211F0100F01D04A
:1024F00082F0100211F0200F01D082F0200242F48D
:10250000004343F08003034C04EB8004C4F8003C18
:1025100010BD000000500040074A02EB8002D2F8D4
:10252000002C92B248F68F131A400A43024B03EB79
:102530008003C3F8002C70470050004010B500F035
:1025400001F810BD002100202E4A126842F48032AA
:102550002C4B1A6000BF2B4A126802F40030491C51
:1025600010B9B1F5A06FF6D1264A126812F4003FF7
:1025700001D0012000E00020012842D1224A126847
:1025800042F01002204B1A601A46126822F0030231
:102590001A601A46126842F002021A60194A52681A
:1025A000184B5A601A4652685A601A46526842F4EA
:1025B00080625A601A46526822F47C125A601A46A7
:1025C000526842F4E8125A601A46126842F0807269
:1025D0001A6000BF0B4A126812F0007FFAD0094A55
:1025E000526822F00302074B5A601A46526842F0C2
:1025F00002025A6000BF034A526802F00C02082A25
:10260000F9D17047001002400020024070B5054625
:102610000C460A480A490860084605730D228120C5
:1026200000F0FBFB0520074908702CB1042008705E
:1026300030210120FFF74EFF70BD0000555342537B
:102640003C120020B4010020014B99701A737047AE
:102650008C01002010B500F023FBFEF7BDFCFEF757
:10266000E5FC10BD10B50020FFF7B6F80121C80544
:10267000FFF792F810BD000038B501242948006822
:1026800080B200F10400284951F8100080B201EB3B
:102690004000009025480068007A092832D0009850
:1026A00000782249096808700098401C0090009842
:1026B00000781E49096848700098401C00900098F6
:1026C00000EB44000090009931F8020B0091FDF7F7
:1026D000ADFD164909684880009800EB4400009061
:1026E000009931F8020B0091FDF7A0FD0F49096830
:1026F0008880009800EB44000090009800880B4907
:102700000968C880012009490968087207480068FB
:10271000C08810B9FEF716FF01E0FEF7A5F9FEF735
:10272000EFFF38BD505C004000600040C801002051
:102730002DE9F04755480068007800F07F08B8F1AF
:10274000000F0AD151480068407A00F0DF004F497D
:10275000096848720020BDE8F087B8F1020F7ED109
:102760004A480068408818B948480068007908B1AC
:102770000220F0E7DFF8189144480068477927F015
:1027800080052C4641480068407910F0800F07D042
:10279000404800EB8400D0F8000C00F0300606E062
:1027A0003C4800EB8400D0F8000C00F4405699F847
:1027B0000000A84204D91EB134480068807A08B9E4
:1027C0000220C8E717F0800F10D0324800EB8400D9
:1027D000D0F8000C00F0300010284DD1E0B2FEF728
:1027E00051F83021E0B2FFF775FE45E0294800EBD3
:1027F0008400D0F8000C00F44050B0F5805F3BD16D
:10280000ECB9254890F82C10E0B2FFF7DFFD214924
:1028100001EB8401D1F8001C89B24BF68F7201EAFA
:10282000020080F4805080F4005040F4004141F0F8
:102830008001184A02EB8402C2F8001C1CE0E0B2DE
:10284000FEF704F8134901EB8401D1F8001C89B2AA
:102850004BF68F7201EA020080F4805000E011E034
:1028600080F4005040F4004141F08001094A02EB3D
:102870008402C2F8001C00BF084909684869804703
:10288000002068E700BF022065E70000C8010020C3
:10289000600000200050004064000020D4010020AF
:1028A00010B504462CB901200649096808820020A9
:1028B00010BD0549096808688047024800680A3069
:1028C000F6E70000C8010020D401002010B5024640
:1028D00006480068438A32B98888C01A034C2468C5
:1028E0002082002010BD08681844FBE7C8010020C2
:1028F00010B504462CB90120064909680882002059
:1029000010BD0549096888688047024800680C3096
:10291000F6E70000C8010020D401002010B50446ED
:102920002CB90220394909680882002010BD002016
:102930003749088035480068007810F07F0F23D1B0
:1029400032490968487A10F0200F06D030490978DA
:1029500041F002012E4A117005E02D49097801F07D
:10296000FD012B4A117010F0400F06D0284909785C
:1029700041F00101264A117005E02549097801F06E
:10298000FE01234A11703AE020480068007800F008
:102990007F00012801D11E48C8E71C480068007864
:1029A00000F07F00022828D1184A1268517901F0FE
:1029B0000F0011F0800F0FD0164A02EB8002D2F800
:1029C000002C02F03002102A16D1114A127842F07F
:1029D00001020F4B1A700FE00E4A02EB8002D2F890
:1029E000002C02F44052B2F5805F05D1084A1278FB
:1029F00042F00102064B1A7001E0002096E70649FA
:102A0000096808698047024890E70000C801002073
:102A1000C201002000500040D401002010B50E4833
:102A20000068C0780D494978884213DC0A4800687C
:102A3000807878B908480068808858B906480068E6
:102A4000C07805490968887205490968486880475F
:102A5000002010BD0220FCE7C8010020600000201B
:102A6000D401002010B507480068407A40F02000EB
:102A700004490968487204490968C8698047002008
:102A800010BD0000C8010020D40100202DE9F04154
:102A90002F480068467926F080073C462C4800689D
:102AA000407910F0800F07D02A4800EB8400D0F85E
:102AB000000C00F0300506E0264800EB8400D0F85A
:102AC000000C00F4405524480078A04208D9204862
:102AD0000068408820B91DB11D480068807A10B98F
:102AE0000220BDE8F08116F0800F15D0194901EBE6
:102AF0008401D1F8001C89B248F6BF7201EA0200D5
:102B000080F0100040F4004141F08001114A02EBD6
:102B10008402C2F8001C15E00E4901EB8401D1F8D3
:102B2000001C89B24BF68F7201EA020080F48050DB
:102B300040F4004141F08001064A02EB8402C2F8F1
:102B4000001C00BF05490968886980470020C8E764
:102B5000C80100200050004060000020D401002087
:102B600010B5174B1B68D978154B1B685879154B56
:102B70001B689A699047044611480068807AE8B15A
:102B80003CB90F480068007918B90D480068807892
:102B900008B1022010BD8CB90B490968C86880478C
:102BA00007480068407906490968C8720448006807
:102BB000C0780349096808730020EBE70220E9E7C1
:102BC000C8010020CC010020D40100207047000083
:102BD00010B51348006840F001001149086008462C
:102BE0004068104908400E494860084600680E4990
:102BF00008400B4908600846006820F480200860FF
:102C00000846406820F4FE0048604FF41F008860CA
:102C1000FFF794FC4FF000600449086010BD00000D
:102C2000001002400000FFF8FFFFF6FE08ED00E094
:102C300070B505460C4622462946812000F0EDF885
:102C400030210120FFF746FC0320054908700548A4
:102C50008068001B034988600020087370BD000075
:102C6000B40100203C12002010B504462CB14FF4F2
:102C700000710548FEF7F1F804E04FF400710248D6
:102C8000FEF7EDF810BD00000010014010B54FF444
:102C900000710248FEF7E3F810BD00000014014087
:102CA00008B501211020FEF787FD4FF40070ADF844
:102CB000000003208DF8020014208DF803006946FF
:102CC0000148FEF741F808BD0010014010B5FDF7BE
:102CD00015FC10BD10B508480849086002200968B5
:102CE000087207480749086007480849086005490D
:102CF00009680868804710BD4C120020C8010020F8
:102D000064000020CC01002094000020D4010020A9
:102D100008B54FF4C060FEF70BFC14208DF80000DE
:102D200001208DF801008DF802008DF8030068463F
:102D3000FEF7BCFB13208DF8000001208DF8010088
:102D400000208DF8020001208DF803006846FEF790
:102D5000ADFB08BD10B50F4800680F490880084654
:102D6000008800F400400D490988084201D0FDF7B1
:102D700029FC0948008800F4806008490988084255
:102D800006D04FF6FF300349086005494868804780
:102D900010BD0000445C004058000020D20100201B
:102DA0006400002010B5FFF7D5FF10BD10B54FF43B
:102DB00000710248FEF751F810BD000000140140F8
:102DC0000020074908604FF404400649088008467F
:102DD00000880549C1F8400C4FF000007047000022
:102DE000445C0040D2010020005000402DE9F04139
:102DF00004460E46002504F07F00FEF745F8054620
:102E000004F07F00FEF72EF807462A4601463046BA
:102E1000FEF762FC2846BDE8F0812DE9F04104464A
:102E20000E46154604F07F00FEF740F80746AAB2AA
:102E30000146304600F00AF804F07F00A9B2FFF71F
:102E400039FB0020BDE8F08100BFFEE7F0B5144675
:102E500004F1010C4FEA6C07DFF824C00CEB4103CE
:102E60003D460AE00678401C90F800C046EA0C2275
:102E700023F8022B9B1C401C6D1E002DF2D1F0BDCF
:102E8000006000402DE9F04104460D4616463E48DC
:102E9000006800F140073D48007870B93C4850F8A0
:102EA000240068433B490860394850F824007043C7
:102EB00039490860012035490870344800780128F4
:102EC0004ED100203549086010E0344801680068A0
:102ED000401C324A10603248415C32482A4A12682B
:102EE000815429480068401C27490860264800682A
:102EF000B842EAD3274800682B4909880844254985
:102F000008602548006828490988401A2249086055
:102F10001F4850F824000968B1FBF0F200FB1210C2
:102F200080B9002018490860194850F8240083B27D
:102F3000174850F82400174A1268111A194A2046F7
:102F4000FEF7C2F81948806817490988401A1749DE
:102F500088604FF440510220FFF760FAFEF75CF8FA
:102F60000D48006818B11248007804280AD10020E2
:102F7000054908600121FFF749FB0020034908705B
:102F8000FEF740F8BDE8F081140100201801002090
:102F90000001002024010020280100203001002031
:102FA000DC110020DC010020B60100203C120020D2
:102FB000B401002002E008C8121F08C1002AFAD19B
:102FC00070477047002001E001C1121F002AFBD1A9
:102FD00070470000FFF73EFBFFF744FBFDF7FCFFE7
:102FE000FFF796FEFFF776FE00BF0448006805284D
:102FF000FBD1FFF74BFE00BFFEE70000F000002012
:103000001201000200000040830420570002010268
:10301000030109022000010100C03209040000027E
:10302000080650040705810240000007050202401F
:1030300000000403090422035700570057002E0024
:1030400050006F007700650072004D00430055008E
:103050002E0043004F004D0046034D0075006C00EC
:103060007400690020004D00650064006900610083
:10307000200044006500760065006C006F00700061
:103080006D0065006E007400200042006F0061005A
:10309000720064002000560031002E003000100342
:1030A0005300540020004D006100730073000000C5
:1030B000D030000800000020DC0100008C01000876
:1030C0008C310008DC0100208C140000C42F0008A3
:1030D000141A03531254124D1233123212310211C8
:1030E0003013FF0C0C1808AB14040B14070D1881D7
:1030F00023030113211314082D121B081D081A1F86
:10310000041309111B08D1041AB9041A7D041A69A1
:10311000041A91044132402940DA69501A49386949
:103120000C2A996012303308121A120832201A320F
:103130000832041A360832221A5808624633201A16
:103140001A9E107210199301432C80020279681C98
:1031500048592D536D61727453504920466C617308
:10316000684469736B2020312E3020232D53544D39
:1031700020014D4E414E44243A2025292442036229
:0C31800006627002150A4208022D0200CF
:0400000508000131BD
:00000001FF
