:020000040800F2
:10000000680E002045010008D91500081D100008E1
:10001000D515000829020008612900080000000029
:10002000000000000000000000000000551E000855
:10003000FD0C0008000000002D180008E52600084F
:100040005F0100085F0100085F0100085F01000810
:100050005F0100085F0100085F0100085F01000800
:100060005F0100085F0100085F0100085F010008F0
:100070005F0100085F0100085F0100085F010008E0
:100080005F0100085F0100085F010008E527000824
:10009000BD2800085F0100085F0100085F0100083B
:1000A0005F0100085F0100085F0100085F010008B0
:1000B0005F0100085F0100085F0100085F010008A0
:1000C0005F0100085F0100085F0100085F01000890
:1000D0005F0100085F0100085F0100085F01000880
:1000E0005F0100085F0100085F0100085F01000870
:1000F0005F0100085F0100085F0100085F01000860
:100100005F0100085F0100085F0100085F0100084F
:100110005F0100085F0100085F0100085F0100083F
:100120005F0100085F0100085F0100085F0100082F
:10013000DFF80CD000F018F800480047ED2A00085E
:10014000680E00200648804706480047FEE7FEE7A5
:10015000FEE7FEE7FEE7FEE7FEE7FEE7FEE7FEE777
:10016000E926000831010008064C074D06E0E0686A
:1001700040F0010394E8070098471034AC42F6D3EE
:10018000FFF7DAFFC42B0008E42B000870B501EB81
:10019000020410F8015B15F0070301D110F8013BD0
:1001A0002A1106D110F8012B03E010F8016B01F8B9
:1001B000016B5B1EF9D12B0705D40023521E0FD40F
:1001C00001F8013BFAE710F8013B02F10202A1EB52
:1001D000030303E013F8015B01F8015B521EF9D53C
:1001E000A142D6D3002070BD10B5044624B1012C25
:1001F00007D0022C15D10AE01021012001F0F4FEF5
:1002000010E04FF48051022001F092FE0AE010212C
:10021000012001F0E9FE4FF48051022001F088FE38
:1002200000E000BF00BF10BD00BFFEE70146CAB23C
:100230000B1243EA0220704710B5002404E0A748DF
:10024000005DA7490855641CA64800888442F6D37F
:10025000A3484068A4494860A14880688860A148D4
:1002600000881F280FD00220FFF7BEFF00209C4906
:100270000860487B1A22052101F070FF002101204F
:1002800001F04EFF10BD9648C07B282803D094484B
:10029000C07B2A2816D19248407C01069048807C79
:1002A00041EA00418E48C07C41EA00208C49097D2A
:1002B00008438E4908608A48C17D807D41EA00205C
:1002C0008B490860864800688A4988426FD1844813
:1002D000407B89490968884207D88148807B01288A
:1002E00003DB7F48807B10280DDD0220FFF77CFFB9
:1002F0007B49487B2422052101F030FF00210120A9
:1003000001F00EFFE8E07648C07B25285FD01BDCBB
:1003100015286FD00EDC08286DD006DC00285BD0D5
:10032000032830D0042867D176E00A2873D0122839
:10033000F9D12DE01A380A285ED2DFE800F0392E14
:10034000B17D33B1B1B1B1438A286FD00EDC5528ED
:1003500067D006DC282844D02A284ED02F28E2D1A6
:1003600054E05A2829D08828DDD176E0A8286DD01D
:1003700004DC8F286FD09E28D5D173E0AA287BD0CB
:10038000AF28D0D182E05649487B01F0CFFC95E000
:100390005349487B01F0A2FB90E05149487B01F0B2
:1003A000D9FC8BE04E49487B01F0D4FC86E086E026
:1003B0004B49487B01F0E2FB80E04949487B01F072
:1003C000D3FB7BE04649487B01F06CFC76E0444976
:1003D000487B01F019FC71E04149487B01F0C2FC07
:1003E0006CE03F49487B42490A684049096801F08E
:1003F000CFFB63E01BE024E052E03949487B3C49F5
:100400000A683A49096801F0E9FC57E03449487B39
:1004100001F0C4FC52E02AE03149487B01F046FB80
:100420004CE02F49487B01F07DFB47E029E02C4957
:10043000487B01F077FB41E02949487B01F072FBE2
:100440003CE02749487B01F06DFB37E02449487BBD
:1004500001F068FB32E01EE00EE02149487B01F02C
:1004600061FB2BE01E49487B01F05CFB26E01C4948
:10047000487B01F057FB21E01949487B01F052FB12
:100480001CE01749487B01F04DFB17E01449487BFD
:1004900001F048FB12E01249487B01F043FB0DE0FC
:1004A0000220FFF7A1FE0E49487B2022052101F022
:1004B00055FE0021012001F033FE00BF0CE00220B8
:1004C000FFF792FE0649487B2022052101F046FEF7
:1004D0000021012001F024FE00BFD3E6DC0900204A
:1004E0001C0A0020B60100203C0A0020B8010020B0
:1004F000BC010020555342435C00002010B500248D
:100500004AE047F6FF70294908602948008800F052
:100510000F002849087008460078274901EB800041
:10052000D0F8000C84B214F4004F19D021480078A0
:1005300001EB8000D0F8000CC0F30E0048F68F717C
:1005400008401C4909781C4A02EB8101C1F8000CE3
:1005500018490978491E194A52F8210080471BE0C2
:1005600014F0800F18D013480078134901EB800075
:10057000D0F8000C80B248F60F7108400D49097898
:100580000D4A02EB8101C1F8000C0A490978491EA5
:100590000B4A52F8210080470448006880B20449A1
:1005A000088010F4004FACD110BD0000445C004046
:1005B00058000020C4010020005000403C000020F2
:1005C0002000002010B5002423E19748008800F0A7
:1005D0000F00964908700846007800287ED194489C
:1005E0000068944908800846008800F0300092496D
:1005F00008809048008800F440508E4908808F4958
:10060000D1F8001C89B24BF6BF7201EA020080F4F7
:10061000005080F0200040F4004141F08001874A02
:10062000C2F8001C8048008810F0100F36D18048B6
:10063000006880B248F60F7100EA01001146C1F867
:10064000000C00F0EDFC7A49096889B24BF6BF72E4
:1006500001EA02007749098811F4805F01D080F433
:1006600080507449098811F4005F01D080F4005073
:100670007149098811F0100F01D080F010006E4907
:10068000098811F0200F01D080F0200081B241F4E0
:10069000004141F08001664A116010BD6448006865
:1006A00084B214F4006F39D061480068C0F30E00C2
:1006B00048F68F7100EA01006049C1F8000C01F0B2
:1006C00067FD5B49096889B24BF6BF7201EA020017
:1006D0005849098811F4805F03D000E059E080F4A4
:1006E00080505449098811F4005F01D080F4005013
:1006F0005149098811F0100F01D080F010004E49C7
:10070000098811F0200F01D080F0200081B241F45F
:10071000004141F08001464A1160BEE714F4004FE9
:1007200077D043480068C0F30E0048F68F7100EAA6
:1007300001004249C1F8000C01F03EF83C4909684B
:1007400089B24BF6BF7201EA02003A49098811F4F6
:10075000805F01D080F480503649098811F4005F31
:1007600001D080F400503449098811F0100F01D0F5
:1007700080F010003049098811F0200F01D080F07E
:10078000200081B241F4004141F08001284A11600B
:1007900083E726480078294901EB8000D0F8000C57
:1007A00084B214F4004F18D02048007801EB800088
:1007B000D0F8000CC0F30E0048F68F7108401B49BA
:1007C00009781E4A02EB8101C1F8000C174909782B
:1007D000491E1B4A52F82100804714F0800F18D0A0
:1007E00012480078154901EB8000D0F8000C80B267
:1007F00048F60F7108400D490978104A02EB810153
:10080000C1F8000C09490978491E0E4A52F8210026
:1008100080470D48006880B20349088010F4004FFB
:100820007FF4D3AE00BF38E758000020C401002099
:10083000005C0040D8010020DA0100200050004098
:100840003C00002020000020445C00400C4901EBEB
:100850008001D1F8001C11F4804F10D0084901EB41
:100860008001D1F8001C89B248F68F7211404CF219
:1008700080021143024A02EB8002C2F8001C70475A
:10088000005000400C4901EB8001D1F8001C11F030
:10089000400F10D0084901EB8001D1F8001C89B24B
:1008A00048F68F72114048F2C0021143024A02EB2F
:1008B0008002C2F8001C704700500040084901EB5C
:1008C0008001D1F8001C89B248F68F62114048F2CD
:1008D00080021143024A02EB8002C2F8001C7047FA
:1008E000005000402DE9F0472948006800F110054C
:1008F0002E8827480068077AEEB9042F1BD12548B7
:100900000078012812D100212348006880B200F14C
:100910000200224A42F810104FF0300020490880AF
:1009200000BF4FF000001B49087003E007271020AC
:100930001B49088027E0AC88A64201D8042000E0CB
:1009400002200746B44200D93446A0B2A9688847BD
:100950008046002000F026FB8146A2B201464046B8
:1009600002F000F8A1B2002001F02EFB2888001B45
:100970002880688820446880302009490880000267
:100980000849088000BF024909680F72BDE8F08776
:10099000C8010020C0010020505C00400060004001
:1009A000DA010020D80100202DE9F0412948006833
:1009B00000F110042688A068C0B1BEB1A588B54278
:1009C00000D93546A8B2A168884707462088401B51
:1009D0002080608828446080002000F0BFFA8046B4
:1009E000AAB20146384600F00FFF00BF208850B180
:1009F0004FF44050184908800021084601F0E4FAFD
:100A00003020164908802088A188884204DB032012
:100A10001049096808721AE02088002804DD0520C2
:100A20000C490968087212E0208880B9062009493B
:100A30000968087200210A48006880B200F10200CB
:100A4000084A42F810104FF0300004490880BDE811
:100A5000F0810000C8010020D8010020DA01002048
:100A6000505C0040006000402DE9F05F9A4800684B
:100A700045780027BA46062D1AD1974800680078B5
:100A800010F07F0F13D1944909688878012803D1A9
:100A900092490968CF690AE0022803D18F490968A1
:100AA0000F6A04E0032802D18C4909684F6A94E078
:100AB000002D64D188480068408800285FD18648AE
:100AC0000068C08802285AD183480068007900284D
:100AD00055D181480068007810F07F0F05D17E481D
:100AE0000068808808B97E4F77E07B48006800780E
:100AF00000F07F00012810D17749096848797749CB
:100B000009688A6900219047002866D17248006808
:100B1000807A002861D0724F5FE06F4800680078EB
:100B200000F07F00022858D16B480068407900F03F
:100B30000F0669480068407900F07009664800684F
:100B4000407910F0800F07D0664800EB8600D0F89F
:100B5000000C00F0300806E0624800EB8600D0F898
:100B6000000C00F4405860480078B04235D9B9F123
:100B7000000F32D1B8F1000F2FD0594F2DE0082DC2
:100B800007D155480068007810F07F0F25D1574FE6
:100B900023E00A2D21D150480068007800F07F0042
:100BA00001281AD14C480068807AB0B14A480068E0
:100BB000408890B948480068007970B94648006894
:100BC000C088012809D1444909684879434909681E
:100BD0008A690021904700B9454F57B13E480068E7
:100BE000A0F812A03C48006887610020B8470024A4
:100BF0000FE0394A12685078384A126811698847FC
:100C00000446032C05D10920334909680872BDE860
:100C1000F09F31480068008AA0F57F41FF3904D178
:100C200009202D4909680872F1E7022C03D02A48EF
:100C30000068008A20B90820274909680872E6E799
:100C400025480068007810F0800F3BD022480068EB
:100C5000B0F806B020480068008A584504D91E49FB
:100C60000968A1F810B023E01B480068008A1A49FF
:100C70000968C98888421BDA17480068008A174942
:100C8000096891F82C10884203DA0020194908708D
:100C90000EE011480068008A1049096891F82C108C
:100CA00090FBF1F201FB120010B90120114908700C
:100CB0000A48006890F82C10074800688182FFF706
:100CC00011FE06E0032004490968087200030A497E
:100CD000088000BF9BE70000C8010020CC01002075
:100CE000352400080050004060000020B9230008AF
:100CF00009240008C0010020D8010020704710B569
:100D000000F0C8FB10BD10B500F0FEFB10BD0000E8
:100D10000149C860704700000020024030B5044619
:100D200004254FF4302000F079F80546042D17D142
:100D30000C48006940F002000A4908610846446115
:100D4000006940F0400008614FF4302000F066F880
:100D500005460448006941F6FD71084001490861F3
:100D6000284630BD0020024004200C49C96801F02B
:100D70000101012901D101200EE00849C96811F0E3
:100D8000040F01D0022007E00449C96811F0100FD8
:100D900001D0032000E00420704700000020024042
:100DA000F0B504460D4604260027F00200F036F8A0
:100DB0000646042E22D11248006940F00100104975
:100DC00008612580F00200F029F80646042E0ED1B5
:100DD000A71C280C3880F00200F020F806460848CE
:100DE000006941F6FE7108400549086106E00448C3
:100DF000006941F6FE710840014908613046F0BDC6
:100E00000020024002480349486003484860704798
:100E10002301674500200240AB89EFCD00B50246B3
:100E20000423FFF7A1FF034603E0FFF79DFF0346FE
:100E3000521E012B01D1002AF7D102B90523184611
:100E400000BD2DE9F04102460025002600200023C8
:100E50000024002791F803C00CF00F0591F803C09F
:100E60001CF0100F03D091F802C04CEA0505B1F850
:100E700000C01CF0FF0F31D0146800202BE04FF0B1
:100E8000010C0CFA00F3B1F800C00CEA03069E4214
:100E900020D183004FF00F0C0CFA03F7BC4305FA86
:100EA00003FC4CEA040491F803C0BCF1280F06D1FE
:100EB0004FF0010C0CFA00FCC2F814C00AE091F8E3
:100EC00003C0BCF1480F05D14FF0010C0CFA00FC37
:100ED000C2F810C0401C0828D1D31460B1F800C07B
:100EE000BCF1FF0F34DD546800202EE000F1080C47
:100EF0004FF0010808FA0CF3B1F800C00CEA030641
:100F00009E4221D183004FF00F0C0CFA03F7BC4333
:100F100005FA03FC4CEA040491F803C0BCF1280F65
:100F200005D100F1080C08FA0CF8C2F8148091F809
:100F300003C0BCF1480F07D100F1080C4FF00108C5
:100F400008FA0CF8C2F81080401C0828CED3546070
:100F5000BDE8F08141617047016170470146064874
:100F6000006880B200EBC10000F10400034A52F8AF
:100F7000100080B270470000505C004000600040EC
:100F800001460648006880B200EBC10000F106008F
:100F9000034A52F81000C0F309007047505C00404B
:100FA0000060004001460548006880B200EBC100C7
:100FB000034A52F8100080B270470000505C0040B5
:100FC00000600040014629B90120034A12681082DE
:100FD000002070470148FCE7C80100205C000020A9
:100FE00070B50A4804680A48D0F8EC570948066802
:100FF000344454B108220849204600F049F804223C
:1010000005491031284600F043F870BDE8F7FF1F8E
:1010100000F0FF1FF0F7FF1F0200002000BFFEE7F7
:1010200010B518480068047A022C01D0042C05D1B0
:10103000FFF758FC13480068047A1CE0062C19D10D
:1010400010480068407805280ED10E4800680078E6
:1010500010F07F0F08D10B490968C87800F004FF31
:1010600009490968086A804708490968886880470B
:10107000082400E00824034909680C7200F0D8FB3A
:1010800010BD0000C8010020D4010020CC010020C8
:1010900030B50B46002100BF16E00A24B4EB107FE8
:1010A00005D9302404EB107403F8114005E0412405
:1010B00004EB10740A3C03F81140000100254C00B9
:1010C000641C1D554C1CE1B29142E6DB30BD0000B2
:1010D00008B50121202000F007FC4FF47060ADF846
:1010E000000003208DF8020010208DF803006946EF
:1010F0000148FFF7A6FE08BD0014014010B54FF4EB
:1011000080710248FFF726FF10BD00000014014067
:1011100010B54FF480710248FFF71EFF10BD0000AC
:101120000014014010B5002000F018F810BD0000B8
:10113000014651B94020064A10604001054A10603E
:101140008001054A1060002070470120FCE7000084
:101150000801002000010020F800002010B504461E
:1011600014B1012C05D102E0FFF74CFE03E0012091
:1011700010BD0120FCE700BF0020F9E770B5044670
:101180000D4614B1012C10D10EE0002109E00948F0
:1011900028448E1050F826008E1042F82600081DB4
:1011A00081B29942F3DB02E001E0012070BD00BF93
:1011B0000020FBE7000002082DE9F04107460D463C
:1011C00090461E4617B1012F2CD12AE000240FE0D3
:1011D0001748FFF723FE052802D03420FFF798FDBB
:1011E000144929440819FFF799FD04F5006084B2F9
:1011F000B442EDDB002411E00D48FFF70FFE052897
:1012000002D03420FFF784FDA21058F82210094ABA
:101210002A441019FFF7C4FD201D84B2B442EBDB51
:1012200003E002E00120BDE8F08100BF0020FAE702
:10123000A08601000000020870B50546002414488D
:101240000068007800F07F00212810D1FE2D0ED11B
:101250000F480068408850B90D480068808830B950
:101260000B480068C088012801D10A4C01E0022027
:1012700070BD0CB90220FBE70548006884610021BD
:101280000348006841820020A0470020F0E70000EA
:10129000C8010020C50F000810B5044602492046C9
:1012A00001F0A0F810BD0000C000002010B50446F9
:1012B0000249204601F096F810BD0000B800002059
:1012C00070B5054606480068C478052C01DD00208D
:1012D00070BD044800EBC401284601F083F8F7E72D
:1012E000C8010020C80000200246002901DD0220BC
:1012F0007047002A01DD0220FAE70020F8E700002D
:1013000010B5044611480068007800F07F002128DD
:101310001AD1FF2C18D10D4800684088A0B90B489D
:101320000068808880B909480068C08860B90120D9
:10133000FFF7A8FA0220FFF789FA05480549086077
:1013400000200549087010BD0220FCE7C8010020FC
:10135000555342431C0A0020B401002010B5002060
:10136000324988723248C07932490968487200208F
:1013700000F072FD4FF40071002000F057FE2021B4
:10138000002000F031FE1821002000F097FD2A48CF
:1013900090F82C10002000F0A3FD5821002000F050
:1013A00003FE0020FFF78AFA002000F0E3FD002191
:1013B000012000F03BFE9821012000F0F5FD2021E6
:1013C000012000F011FE0021012000F0B1FD0021FC
:1013D000022000F02BFED821022000F06FFD1648FD
:1013E00090F82C10022000F07BFD4FF440510220B9
:1013F00000F09EFD0021022000F0F6FD0E4890F85E
:101400002C10002000F06CFD002000F0B3FD002047
:1014100000F02AFD012009490860094809490860CF
:1014200000200949087001F04DFA10BD4C0A002057
:10143000262B0008C801002064000020F0000020D6
:10144000555342431C0A0020B401002070477047E6
:1014500010B5FFF7C5FD002005490968887200F046
:101460000BFA01F039FA00200249086010BD0000B3
:10147000C8010020F000002010B5044800680449AD
:10148000884202D00220FEF7AFFE10BD1C0A0020E9
:101490005553424310B518480078022810D003284D
:1014A0001DD0042802D0052823D100E000BF002071
:1014B000114908704FF44051022000F039FD19E045
:1014C0000E48C07B282808D10C49487B0C490A6883
:1014D0000C49096800F05CFB00BF00BF0AE0012175
:1014E000002000F01DFE4FF44051022000F020FDCE
:1014F00000E000BF00BF10BDB40100201C0A0020A6
:10150000BC010020B801002010B51D48C47B1D4956
:10151000022001F0F7F91C4908801C48007810B13E
:1015200001281CD102E0FEF787FE26E02A2C08D114
:101530001349487B16490A681649096800F04EFCB1
:101540001BE00120FEF750FE0D49487B24220521B7
:1015500000F004FE0021022000F0E2FD0DE0022078
:10156000FEF742FE0649487B2422052100F0F6FDE5
:101570000021022000F0D4FD00BF00BF10BD00001C
:101580001C0A0020DC090020B6010020B401002064
:10159000BC010020B801002010B508480068807A1E
:1015A00058B10520064908600120FFF76BF90220B9
:1015B000FFF74CF900200349087010BDC801002056
:1015C000F0000020B40100200420014908607047A9
:1015D000F000002000BFFEE77047704770B50021A3
:1015E00000230F22C4784CB31A4C246804F4E0643E
:1015F000C4F5E0644FEA1421C1F1040322FA01F2B8
:10160000447804FA03F1847804EA020444EA01010C
:101610004FEA0111104C0678A155047804F01F051B
:101620004FF0010404FA05F405784FEA65154FF010
:10163000E02606EB8505C5F8004109E0047804F0D2
:101640001F050124AC40054D0678761145F826406B
:1016500070BD00000CED00E000E400E080E100E07F
:1016600002490143024A1160704700000000FA0578
:101670000CED00E070B502264A48006844784948FD
:101680000068007810F07F0F4AD1092C03D100F0D8
:1016900051FF064665E0052C14D142480068C07829
:1016A0007F280BDC3F480068807838B93D480068E7
:1016B000808818B93B480068807A08B108256DE039
:1016C00000264EE0032C14D136480068C07801286B
:1016D0000DD134480068808848B932480068407AA3
:1016E00010F0200F03D000F049FF064639E0022633
:1016F00037E0012C35D12B480068C07801280DD186
:1017000028480068808848B926480068407A10F068
:10171000200F03D000F098FD064622E0022620E0CC
:1017200020480068007800F07F00012805D10B2CCC
:1017300017D100F0A1FF064613E01A4800680078B0
:1017400000F07F0002280BD1012C03D100F07CFDBA
:10175000064606E0032C04D100F024FF064600E014
:1017600002264EB1104800684169E0B2884706463B
:10177000032E01D1092511E00EB108250EE0062542
:1017800000210A48006880B200F10200084A42F8CD
:1017900010104FF030000749088000BF0149096868
:1017A0000D7270BDC8010020CC010020505C0040CB
:1017B00000600040DA01002010B511480068047A8A
:1017C000022C01D0042C01D1082412E0032C01D0FA
:1017D000052C05D1FFF7E8F809480068047A08E00D
:1017E000072C05D107490968C8688047082400E02C
:1017F0000824034909680C7200F01AF810BD0000B3
:10180000C8010020CC010020F0B5561C7510064E12
:1018100006EB41042B4604E080CC20F8017B401C01
:101820005B1E002BF8D1F0BD006000407047000047
:1018300010B50D4890F82C10002000F051FB0B481B
:101840000068007A082805D1400209490880102064
:101850000849088005480068007A092801D101205C
:1018600000E00020C0B210BD64000020C8010020CC
:10187000D8010020DA01002010B5012000F080FF1F
:1018800001240D4804604FF000000C490880084610
:1018900000880B49C1F8400C4FF00000094908606E
:1018A0004FF4E05005490880084600880449C1F813
:1018B000400C4FF0000010BD405C0040D201002001
:1018C00000500040445C004029B1064AD2690243FE
:1018D000044BDA6104E0034AD2698243014BDA61C6
:1018E000704700000010024029B1064A9269024385
:1018F000044B9A6104E0034A92698243014B9A6166
:101900007047000000100240014908607047000065
:10191000D800424270B504460D4616463748007856
:1019200070B9374850F82400684336490860344895
:1019300050F8240070433449086001202F49087092
:101940002E480078012846D130480068C0B92C489C
:1019500050F8240083B22E4A2A4801682046FFF737
:101960000DFC40222A49812000F0E3FF244850F872
:10197000240040382549086040202649086011E0CD
:101980002348244A126881184022812000F0D1FFA8
:101990001E48006840381D4908601E4800684030F5
:1019A0001C4908604021012000F00EFB302101207D
:1019B00000F01AFB134800684030124908601248D2
:1019C0000068403810490860134880684038124960
:1019D0008860FFF79DFB0C48006870B900200B4938
:1019E00008600C4908600749086003200B4908702B
:1019F000002002490870FFF781FB70BD180100202C
:101A0000000100201C010020200100201001002006
:101A1000DC0100202C0100203C0A0020B401002041
:101A20002DE9F04104460D4617461E46B8191C49DB
:101A300051F82410884213D92A2D02D10220FEF732
:101A4000D3FB0020FEF7D0FB21220521204600F029
:101A500085FB0021012000F063FB0020BDE8F08140
:101A600010488168104850F824007043814214D017
:101A70002A2D03D10220FEF7B7FB02E00020FEF77B
:101A8000B3FB0849487B2422052100F067FB0021B5
:101A9000012000F045FB0020E0E70120DEE7000028
:101AA000080100201C0A00200001002010B5044697
:101AB0002046FFF73DFB68B10749487B3A220221E7
:101AC00000F04CFB0121084600F02AFB0020FEF745
:101AD0008BFB10BD00BFFCE71C0A002070B506465A
:101AE0000C48007C10F0010F02D00B4C2A250BE0B3
:101AF0000EB90A4C00E00A4C0648C07C242802DCDF
:101B00000448C57C00E024252946204600F01CFE40
:101B100070BD00001C0A00203401002039010020A3
:101B20005C01002010B504460E48806818B90020FA
:101B3000FEF75AFB0BE00B48007B10F0800F03D040
:101B40000020FEF751FB02E00220FEF74DFB0549A5
:101B5000487B2022052100F001FB0021012000F03C
:101B6000DFFA10BD1C0A002010B504460821024807
:101B700000F0EAFD10BD00008401002010B504460D
:101B80000421024800F0E0FD10BD000080010020AB
:101B900070B506460C4615461948007820BB194911
:101BA000487B2B4622462821FFF73AFF00B970BD3B
:101BB0001448007B10F0800F08D0022010490870F4
:101BC0002A4621463046FFF7A5FE0CE00220FEF72C
:101BD0000BFB0C49487B2422052100F0BFFA0121B0
:101BE000084600F09DFAE2E705480078022804D193
:101BF0002A4621463046FFF78DFE00BFD7E700009A
:101C0000B40100201C0A002010B504462046FFF74E
:101C10008FFA68B11F49487B3A22022100F09EFAF0
:101C20000121084600F07CFA0020FEF7DDFA10BD25
:101C3000194850F82400401E000E18490870164834
:101C400050F82400401E000C4870134850F824003F
:101C5000401E000A8870104850F82400401EC870CA
:101C60000F4850F82400000E08710D4850F8240069
:101C7000000C48710A4850F82400000A887108488E
:101C800050F82400C8710821044800F05DFD00BF31
:101C9000CDE700001C0A0020080100209E01002062
:101CA0000001002010B504462046FFF741FA68B154
:101CB0001A49487B3A22022100F050FA01210846D5
:101CC00000F02EFA0020FEF78FFA10BD144850F8ED
:101CD0002400000E13490871114850F82400000C2C
:101CE00048710F4850F82400000A88710C4850F8D9
:101CF0002400C8710C4850F82400000C48720A48AF
:101D000050F82400000A8872074850F82400C8726E
:101D10000C21044800F018FD00BFD6E71C0A002083
:101D200008010020A60100200001002070B5054632
:101D30000648C07C122802DC0448C47C00E012245F
:101D40002146034800F000FD70BD00001C0A002081
:101D50008C01002010B504460121002000F0E0F9BC
:101D600010BD000010B504462046FFF7E1F968B148
:101D70000949487B3A22022100F0F0F90121084686
:101D800000F0CEF90020FEF72FFA10BD012100204F
:101D900000F0C6F900BFF8E71C0A002010B50446A1
:101DA0000D48806848B90C48007C10F0040F04D13D
:101DB0000121002000F0B4F90CE00220FEF714FA33
:101DC0000549487B2422052100F0C8F900210120A3
:101DD00000F0A6F910BD00001C0A002070B50646F0
:101DE0000C4615461948007820BB1949487B2B46FC
:101DF00022462A21FFF714FE00B970BD1448007B6B
:101E000010F0800F08D10120104908704FF44051A4
:101E1000022000F08DF80CE00020FEF7E5F90C49F7
:101E2000487B2422052100F099F90021012000F0CF
:101E300077F9E2E705480078012804D12A462146CF
:101E4000304600F0ABFD00BFD7E70000B401002032
:101E50001C0A0020704700004FF6F8710140014A4B
:101E600011607047505C004030B50146104B1A7845
:101E7000002015E003060F4C04EB9353D3F8003C0D
:101E80009BB248F68F74234048F280042343C4B2C7
:101E900023430406074D05EB9454C4F8003C401C52
:101EA0009042E7D341F08003034C236030BD000033
:101EB00060000020005000404C5C004010B54A100B
:101EC0005300054A126892B202EBC00202F104020A
:101ED000024C44F8123010BD505C004000600040DD
:101EE00010B502461048006880B200EBC20000F155
:101EF00006000E4C04EB40033E290BDD481111F0A7
:101F00001F0F01D1441EA0B24FF4004444EA8024C4
:101F10001C6007E0481011F0010F01D0441CA0B272
:101F200084021C6010BD0000505C00400060004056
:101F300010B50F4B03EB8003D3F8003C9BB24BF67C
:101F40008F7403EA040211F4805F01D082F480529E
:101F500011F4005F01D082F4005242F4004343F0D8
:101F60008003034C04EB8004C4F8003C10BD000067
:101F7000005000400B4A02EB8002D2F8002C92B2D3
:101F80004BF68F7302EA030181F4805181F4005112
:101F900041F4004242F08002024B03EB8003C3F89D
:101FA000002C70470050004010B54A105300044AFE
:101FB000126892B202EBC002024C44F8123010BD1B
:101FC000505C004000600040054A126892B202EB8B
:101FD000C00202F10202034B43F8121070470000E6
:101FE000505C00400060004010B50F4B03EB8003D5
:101FF000D3F8003C9BB248F6BF7403EA040211F028
:10200000100F01D082F0100211F0200F01D082F0E9
:10201000200242F4004343F08003034C04EB8004AD
:10202000C4F8003C10BD000000500040074A02EB1D
:102030008002D2F8002C92B248F68F131A400A435D
:10204000024B03EB8003C3F8002C704700500040A4
:1020500010B500F001F810BD002100202E4A1268D2
:1020600042F480322C4B1A6000BF2B4A126802F4F3
:102070000030491C10B9B1F5A06FF6D1264A12689C
:1020800012F4003F01D0012000E00020012842D1DD
:10209000224A126842F01002204B1A601A46126857
:1020A00022F003021A601A46126842F002021A6015
:1020B000194A5268184B5A601A4652685A601A46B2
:1020C000526842F480625A601A46526822F47C12C6
:1020D0005A601A46526842F4E8125A601A46126868
:1020E00042F080721A6000BF0B4A126812F0007F43
:1020F000FAD0094A526822F00302074B5A601A4686
:10210000526842F002025A6000BF034A526802F06D
:102110000C02082AF9D1704700100240002002404A
:1021200070B505460C460A480A490860084605731A
:102130000D22812000F0FDFB0520074908702CB11D
:102140000420087030210120FFF74EFF70BD000011
:10215000555342533C0A0020B4010020014B9970B2
:102160001A7370478C01002010B500F0BDFA00F022
:1021700023FBFEF7ADFFFEF7D5FF10BD10B5002025
:10218000FFF7C2FB0121C805FFF79EFB10BD000051
:1021900038B501242948006880B200F104002849BC
:1021A00051F8100080B201EB400000902548006813
:1021B000007A092832D0009800782249096808700E
:1021C0000098401C0090009800781E4909684870EB
:1021D0000098401C0090009800EB4400009000998B
:1021E00031F8020B0091FEF721F816490968488082
:1021F000009800EB44000090009931F8020B009128
:10220000FEF714F80F4909688880009800EB440035
:102210000090009800880B490968C880012009498E
:102220000968087207480068C08810B9FFF722FAE9
:1022300001E0FEF719FCFFF7FBFA38BD505C0040E7
:1022400000600040C80100202DE9F04755480068B3
:10225000007800F07F08B8F1000F0AD151480068FB
:10226000407A00F0DF004F49096848720020BDE85D
:10227000F087B8F1020F7ED14A480068408818B94B
:1022800048480068007908B10220F0E7DFF81891AB
:1022900044480068477927F080052C46414800688B
:1022A000407910F0800F07D0404800EB8400D0F850
:1022B000000C00F0300606E03C4800EB8400D0F84B
:1022C000000C00F4405699F80000A84204D91EB151
:1022D00034480068807A08B90220C8E717F0800FF8
:1022E00010D0324800EB8400D0F8000C00F0300031
:1022F00010284DD1E0B2FEF7C5FA3021E0B2FFF769
:1023000073FE45E0294800EB8400D0F8000C00F48F
:102310004050B0F5805F3BD1ECB9254890F82C10C7
:10232000E0B2FFF7DDFD214901EB8401D1F8001C8B
:1023300089B24BF68F7201EA020080F4805080F47B
:10234000005040F4004141F08001184A02EB840241
:10235000C2F8001C1CE0E0B2FEF778FA134901EB6A
:102360008401D1F8001C89B24BF68F7201EA020099
:1023700080F4805000E011E080F4005040F400410F
:1023800041F08001094A02EB8402C2F8001C00BF40
:102390000849096848698047002068E700BF0220B3
:1023A00065E70000C80100206000002000500040E8
:1023B00064000020D401002010B504462CB901208F
:1023C000064909680882002010BD054909680868A7
:1023D0008047024800680A30F6E70000C801002084
:1023E000D401002010B5024606480068438A32B97D
:1023F0008888C01A034C24682082002010BD086819
:102400001844FBE7C801002010B504462CB9012090
:10241000064909680882002010BD054909688868D6
:102420008047024800680C30F6E70000C801002031
:10243000D401002010B504462CB90220394909689E
:102440000882002010BD0020374908803548006808
:10245000007810F07F0F23D132490968487A10F0D4
:10246000200F06D03049097841F002012E4A117040
:1024700005E02D49097801F0FD012B4A117010F09B
:10248000400F06D02849097841F00101264A117011
:1024900005E02549097801F0FE01234A11703AE070
:1024A00020480068007800F07F00012801D11E4814
:1024B000C8E71C480068007800F07F00022828D197
:1024C000184A1268517901F00F0011F0800F0FD0F7
:1024D000164A02EB8002D2F8002C02F03002102AD9
:1024E00016D1114A127842F001020F4B1A700FE018
:1024F0000E4A02EB8002D2F8002C02F44052B2F5F0
:10250000805F05D1084A127842F00102064B1A702A
:1025100001E0002096E706490968086980470248FB
:1025200090E70000C8010020C201002000500040D8
:10253000D401002010B50E480068C0780D494978D4
:10254000884213DC0A480068807878B90848006837
:10255000808858B906480068C078054909688872BB
:102560000549096848688047002010BD0220FCE743
:10257000C801002060000020D401002010B50748E9
:102580000068407A40F02000044909684872044914
:102590000968C8698047002010BD0000C8010020FC
:1025A000D40100202DE9F0412F480068467926F03B
:1025B00080073C462C480068407910F0800F07D017
:1025C0002A4800EB8400D0F8000C00F0300506E04B
:1025D000264800EB8400D0F8000C00F44055244855
:1025E0000078A04208D920480068408820B91DB171
:1025F0001D480068807A10B90220BDE8F08116F00D
:10260000800F15D0194901EB8401D1F8001C89B263
:1026100048F6BF7201EA020080F0100040F4004169
:1026200041F08001114A02EB8402C2F8001C15E05F
:102630000E4901EB8401D1F8001C89B24BF68F7270
:1026400001EA020080F4805040F4004141F0800132
:10265000064A02EB8402C2F8001C00BF0549096863
:10266000886980470020C8E7C8010020005000406A
:1026700060000020D401002010B5174B1B68D978EA
:10268000154B1B685879154B1B689A69904704468F
:1026900011480068807AE8B13CB90F4800680079B9
:1026A00018B90D480068807808B1022010BD8CB9B7
:1026B0000B490968C868804707480068407906499F
:1026C0000968C87204480068C0780349096808733B
:1026D0000020EBE70220E9E7C8010020CC01002040
:1026E000D40100207047000010B51348006840F086
:1026F00001001149086008464068104908400E4929
:102700004860084600680E4908400B4908600846C2
:10271000006820F4802008600846406820F4FE002D
:1027200048604FF41F008860FFF792FC4FF0006094
:102730000449086010BD0000001002400000FFF8CE
:10274000FFFFF6FE08ED00E070B505460C46224698
:102750002946812000F0EDF830210120FFF744FCEC
:1027600003200549087005488068001B03498860FC
:102770000020087370BD0000B40100203C0A002056
:1027800010B504462CB14FF400710548FEF7E2FB8A
:1027900004E04FF400710248FEF7DEFB10BD0000BC
:1027A0000010014010B54FF400710248FEF7D4FB51
:1027B00010BD00000014014008B501211020FFF7F2
:1027C00093F84FF40070ADF8000003208DF802007C
:1027D00014208DF8030069460148FEF732FB08BD5E
:1027E0000010014010B5FDF789FE10BD10B5084876
:1027F000084908600220096808720748074908600C
:10280000074808490860054909680868804710BDFD
:102810004C0A0020C801002064000020CC010020E8
:1028200094000020D401002008B54FF4C060FEF7EA
:1028300017FF14208DF8000001208DF801008DF89D
:1028400002008DF803006846FEF7C8FE13208DF8DD
:10285000000001208DF8010000208DF80200012009
:102860008DF803006846FEF7B9FE08BD10B50F48A5
:1028700000680F4908800846008800F400400D49B0
:102880000988084201D0FDF79DFE0948008800F440
:10289000806008490988084206D04FF6FF30034996
:1028A000086005494868804710BD0000445C00404E
:1028B00058000020D20100206400002010B5FFF76E
:1028C000D5FF10BD10B54FF400710248FEF742FB72
:1028D00010BD0000001401400020074908604FF4BB
:1028E000044006490880084600880549C1F8400CA4
:1028F0004FF0000070470000445C0040D20100200F
:10290000005000402DE9F04104460E46002504F039
:102910007F00FEF735FB054604F07F00FEF71EFB47
:1029200007462A4601463046FEF76EFF2846BDE8B8
:10293000F0812DE9F04104460E46154604F07F0073
:10294000FEF730FB0746AAB20146304600F00AF80F
:1029500004F07F00A9B2FFF737FB0020BDE8F0814B
:1029600000BFFEE7F0B5144604F1010C4FEA6C0716
:10297000DFF824C00CEB41033D460AE00678401C1A
:1029800090F800C046EA0C2223F8022B9B1C401C46
:102990006D1E002DF2D1F0BD006000402DE9F04128
:1029A00004460D4616463E48006800F140073D4883
:1029B000007870B93C4850F8240068433B490860EF
:1029C000394850F8240070433949086001203549DE
:1029D00008703448007801284ED10020354908603D
:1029E00010E0344801680068401C324A10603248E8
:1029F000415C32482A4A1268815429480068401CC8
:102A00002749086026480068B842EAD3274800688A
:102A10002B49098808442549086025480068284949
:102A20000988401A224908601F4850F824000968A4
:102A3000B1FBF0F200FB121080B9002018490860C9
:102A4000194850F8240083B2174850F82400174A58
:102A50001268111A194A2046FEF7AEFB1948806821
:102A600017490988401A174988604FF440510220DD
:102A7000FFF75EFAFEF74CFB0D48006818B11248EC
:102A8000007804280AD10020054908600121FFF7D9
:102A900047FB002003490870FEF730FBBDE8F081DA
:102AA0001401002018010020000100202401002052
:102AB0002801002030010020DC090020DC0100207A
:102AC000B60100203C0A0020B401002002E008C842
:102AD000121F08C1002AFAD170477047002001E098
:102AE00001C1121F002AFBD170470000FFF73CFB19
:102AF000FFF744FBFFF798FEFFF778FE00BF04489E
:102B000000680528FBD1FFF74DFE00BFFEE700007F
:102B1000F000002012010002000000408304205752
:102B200000020102030109022000010100C0320974
:102B30000400000208065004070581024000000757
:102B40000502024000000403090422035700570055
:102B500057002E0050006F007700650072004D0096
:102B6000430055002E0043004F004D0046034D002A
:102B700075006C007400690020004D006500640061
:102B800069006100200044006500760065006C006B
:102B90006F0070006D0065006E0074002000420040
:102BA0006F006100720064002000560031002E00AA
:102BB000300010035300540020004D0061007300EA
:102BC00073000000E42B000800000020DC0100007E
:102BD0008C010008A02C0008DC0100208C0C0000F7
:102BE000DC2A0008141A03531254124D1233123205
:102BF000123102113013FF0C0C1808DB15040B14F2
:102C0000070D188123030113511414085D131B08C9
:102C10004D081A4F041339121B0801101AE9081A3B
:102C2000AD041A99041AC1044132402940DA99507E
:102C30001A7938690C1AC90413142B3308121A268E
:102C40000832201A460832041A4A0832221A6C083E
:102C5000624633201A1AB2107210199301432C8065
:102C6000020279681C48592D536D617274535049A2
:102C700020466C6173684469736B2020312E3020CC
:102C8000232D53544D20014D4E414E44243A2025CE
:102C9000292442036206627002150A4208022D02CC
:0400000508000131BD
:00000001FF
