:020000040800F2
:100000001804002045010008C9050008C1050008C2
:10001000C50500088D010008250B00080000000040
:10002000000000000000000000000000F9070008C8
:10003000910100080000000001070008CD08000839
:100040005F0100085F0100085F0100085F01000810
:100050005F0100085F0100089D010008CD01000854
:100060000102000835020008690200085F0100086B
:100070005F0100085F0100085F0100085F010008E0
:100080005F0100085F0100085F0100085F010008D0
:100090005F0100085F0100085F0100085F010008C0
:1000A0005F0100085F0100085F0100085F010008B0
:1000B0005F0100085F0100085F0100085F010008A0
:1000C0005F0100085F0100085F0100085F01000890
:1000D0005F0100085F0100085F0100085F01000880
:1000E0005F0100085F0100085F0100085F01000870
:1000F0005F0100085F0100085F0100085F01000860
:100100005F0100085F0100085F0100085F0100084F
:100110005F0100085F0100085F0100085F0100083F
:100120005F0100085F0100085F0100085F0100082F
:10013000DFF80CD000F018F8004800479D0B0008CD
:10014000180400200648804706480047FEE7FEE7FF
:10015000FEE7FEE7FEE7FEE7FEE7FEE7FEE7FEE777
:10016000D108000831010008064C074D06E0E068A0
:1001700040F0010394E8070098471034AC42F6D3EE
:10018000FFF7DAFF640D0008840D000800BFFEE7EA
:10019000704700E0401E0028FCD1704710B50120D8
:1001A00000F0B8F828B1012000F076F801A000F0C6
:1001B000BBFC10BD4A6F79737469636B2053656C27
:1001C0002069732050726573730D0A0010B5022008
:1001D00000F0A0F828B1022000F05EF801A000F0C5
:1001E000A3FC10BD4A6F79737469636B20446F7709
:1001F0006E2069732050726573730D0A0000000051
:1002000010B5042000F086F828B1042000F044F86E
:1002100001A000F089FC10BD4A6F79737469636BAB
:10022000204C6566742069732050726573730D0AE3
:100230000000000010B5082000F06CF828B108207C
:1002400000F02AF801A000F06FFC10BD4A6F79732E
:100250007469636B205269676874206973205072F7
:100260006573730D0A00000010B5102000F052F8FD
:1002700028B1102000F010F801A000F055FC10BDCE
:100280004A6F79737469636B2055702069732050CD
:10029000726573730D0A0000014908607047000021
:1002A000140401401CB50121084600F02BFA00217E
:1002B000032000F0CFF80121032000F0CBF8022149
:1002C000032000F0C7F80321084600F0C3F804211A
:1002D000032000F0BFF80120FFF7DEFF0220FFF748
:1002E000DBFF0420FFF7D8FF0820FFF7D5FF102021
:1002F000FFF7D2FF00208DF804000C208DF80500D8
:100300001F20009001208DF80600684600F018F8C4
:100310001CBD0000014600200022074B1B6803EAB9
:100320000102064BD3F814340B4202D00AB101206B
:1003300000E0002070470000000401400000014080
:10034000002127498279002A43D0264AD2F8002486
:1003500003689A43234BC3F800241A46D2F80424B6
:1003600003689A4301F104031A60027911440A6890
:10037000036842EA03020A601A4AD2F808240368B2
:1003800022EA0302174BC3F808241A46D2F80C24B9
:10039000036822EA0302144B1A604279102A10D132
:1003A000104AD2F8082403681A430E4BC3F80824F5
:1003B0001A46D2F80C2403681A430A4BC3F80C24DB
:1003C0000DE00749427911440A6803681A430A603C
:1003D00005E0027911440A6803689A430A6070478D
:1003E00000040140000001400C04014008B5012157
:1003F000242000F087F94FF48070ADF8000003204E
:100400008DF8020004208DF8030069460F4800F0C3
:1004100041F81F20ADF8000003208DF802000420F1
:100420008DF8030069460A4800F034F84FF4706014
:10043000ADF8000003208DF8020010208DF80300B5
:100440006946034800F026F808BD00000008014096
:100450000014014030B500228B071C0F0F2303FA54
:1004600004F20B4B8C1053F824309343084C8D103E
:1004700044F8253023468C1053F824308C07240F81
:1004800000FA04F42343024C8D1044F8253030BDAB
:10049000080001402DE9F041024600250026002019
:1004A00000230024002791F803C00CF00F0591F8F9
:1004B00003C01CF0100F03D091F802C04CEA0505F0
:1004C000B1F800C01CF0FF0F31D0146800202BE001
:1004D0004FF0010C0CFA00F3B1F800C00CEA03066F
:1004E0009E4220D183004FF00F0C0CFA03F7BC435F
:1004F00005FA03FC4CEA040491F803C0BCF1280F90
:1005000006D14FF0010C0CFA00FCC2F814C00AE04E
:1005100091F803C0BCF1480F05D14FF0010C0CFA63
:1005200000FCC2F810C0401C0828D1D31460B1F8F8
:1005300000C0BCF1FF0F34DD546800202EE000F154
:10054000080C4FF0010808FA0CF3B1F800C00CEAEF
:1005500003069E4221D183004FF00F0C0CFA03F7E3
:10056000BC4305FA03FC4CEA040491F803C0BCF157
:10057000280F05D100F1080C08FA0CF8C2F8148015
:1005800091F803C0BCF1480F07D100F1080C4FF0FF
:10059000010808FA0CF8C2F81080401C0828CED3D5
:1005A0005460BDE8F0810246002093680B4201D000
:1005B000012000E0002070474161704701617047F1
:1005C00000BFFEE700BFFEE7704708B54FF4E060EC
:1005D00000F08CF806208DF8000000208DF8010056
:1005E0008DF8020001208DF80300684600F03CF809
:1005F00007208DF8000001208DF801008DF8020021
:100600008DF80300684600F02FF84FF4C06000F04A
:100610006DF808208DF8000000208DF801008DF89D
:10062000020001208DF80300684600F01DF8092043
:100630008DF8000001208DF8010000208DF80200E7
:1006400001208DF80300684600F00EF80A208DF8AE
:10065000000001208DF801008DF802008DF80300E4
:10066000684600F001F808BD70B5002100230F2294
:10067000C4784CB31A4C246804F4E064C4F5E06414
:100680004FEA1421C1F1040322FA01F2447804FA7A
:1006900003F1847804EA020444EA01014FEA0111FB
:1006A000104C0678A155047804F01F054FF00104A2
:1006B00004FA05F405784FEA65154FF0E02606EBDD
:1006C0008505C5F8004109E0047804F01F05012400
:1006D000AC40054D0678761145F8264070BD000007
:1006E0000CED00E000E400E080E100E0024901439D
:1006F000024A1160704700000000FA050CED00E0AE
:100700007047000029B1064A92690243044B9A617E
:1007100004E0034A92698243014B9A6170470000EA
:100720000010024030B500210022002400232D4D8E
:100730006D6805F00C0121B1042905D0082923D1E9
:1007400005E0294D056022E0274D05601FE0254D9D
:100750006D6805F47012234D6D6805F48034022530
:1007600005EB92421CB9214D554305600BE01D4D30
:100770006D6815F4003F03D01C4D5543056002E041
:10078000194D5543056002E0174D056000BF00BFDD
:10079000144D6D6805F0F0010909154D6B5C056895
:1007A000DD4045600F4D6D6805F4E061090A104DAC
:1007B0006B5C4568DD4085600A4D6D6805F46051ED
:1007C000C90A0B4D6B5C4568DD40C560054D6D6821
:1007D00005F44041890B074D6B5CC568B5FBF3F52B
:1007E000056130BD0010024000127A0000093D0092
:1007F0000000002010000020704710B500F002F843
:1008000010BD0000002100202E4A126842F4803200
:100810002C4B1A6000BF2B4A126802F40030491CAE
:1008200010B9B1F5A06FF6D1264A126812F4003F54
:1008300001D0012000E00020012842D1224A1268A4
:1008400042F01002204B1A601A46126822F003028E
:100850001A601A46126842F002021A60194A526877
:10086000184B5A601A4652685A601A46526842F447
:1008700080625A601A46526822F47C125A601A4604
:10088000526842F4E8125A601A46126842F08072C6
:100890001A6000BF0B4A126812F0007FFAD0094AB2
:1008A000526822F00302074B5A601A46526842F01F
:1008B00002025A6000BF034A526802F00C02082A82
:1008C000F9D170470010024000200240704700003C
:1008D00010B51348006840F001001149086008464F
:1008E0004068104908400E494860084600680E49B3
:1008F00008400B4908600846006820F48020086022
:100900000846406820F4FE0048604FF41F008860ED
:10091000FFF773FF4FF000600449086010BD00004E
:10092000001002400000FFF8FFFFF6FE08ED00E0B7
:1009300021B1828942F40052828104E082894DF61D
:10094000FF731A408281704700B585B0012144F2DF
:100950000400FFF7D7FE4FF40070ADF81000182028
:100960008DF8130003208DF8120004A91A48FFF730
:1009700091FD4FF48060ADF8100004208DF8130055
:1009800003208DF8120004A91348FFF783FD4FF4EC
:10099000E13000900020ADF80400ADF80600ADF89D
:1009A0000800ADF80C000C20ADF80A0069460B48B1
:1009B00000F048F8012240F22551084800F01DF8E7
:1009C000012240F22771054800F017F80121034881
:1009D000FFF7AEFF05B000BD000801400038014040
:1009E00002460020B1F5007F00D100BF13880B4202
:1009F00001D0012000E000207047F0B5034600243C
:100A0000002600250020A1F510676A3F00D100BF35
:100A10001846C1F3421401F01F06012707FA06F534
:100A2000012C01D10C3004E0022C01D1103000E087
:100A300014301AB107682F43076002E00768AF431C
:100A40000760F0BD2DE9F04786B005460E4600244C
:100A5000A24600BFA1460027B08900B100BF2F46C3
:100A60002C8A4CF6FF700440F08804432C82AC8939
:100A70004EF6F3100440B088318908437189084369
:100A80000443AC81AC8A4FF6FF400440B089044374
:100A9000AC8201A8FFF746FE1F48874202D1DDF86D
:100AA00010A001E0DDF80CA0A88910F4004F08D0D8
:100AB0000AEBCA0000EB0A1031684900B0FBF1F8FC
:100AC00007E00AEBCA0000EB0A1031688900B0FBAE
:100AD000F1F86420B8FBF0F004012009642101FB67
:100AE0001089A88910F4004F08D0322000EBC9000B
:100AF000B0FBF1F000F00700044308E0322000EB07
:100B000009106421B0FBF1F000F00F0004432C81C8
:100B100006B0BDE8F087000000380140C1F30802CC
:100B20008280704700BFFEE7014A024900F013B817
:100B3000790B00081400002002E008C8121F08C149
:100B4000002AFAD170477047002001E001C1121F4E
:100B5000002AFBD170472DE9F04104460F461646A6
:100B6000002503E03946B0476D1C641C207800283E
:100B7000F8D12846BDE8F08170B504460D46E1B2D3
:100B80000548FFF7CBFF00BF40210348FFF728FFD0
:100B90000028F9D0204670BD00380140FFF726FC40
:100BA000FFF7D2FEFFF711FDFFF77CFB2D48FFF7A3
:100BB000BBFF2C484830FFF7B7FF2A489030FFF7BB
:100BC000B3FF28484830FFF7AFFF2648FFF7ACFFD8
:100BD00046E04FF480712448FFF7E5FC60B94FF61A
:100BE000FF70FFF7D6FA4FF480711F48FFF7DBFC68
:100BF00010B91EA0FFF798FF4FF480712148FFF74E
:100C0000DDFC4FF400711F48FFF7D8FC4FF4806102
:100C10001C48FFF7D3FC4FF400611A48FFF7CEFCE5
:100C20001948FFF7B6FA1848FFF7B3FA4FF4807186
:100C30001448FFF7C1FC4FF400711248FFF7BCFCE9
:100C40004FF480610F48FFF7B7FC4FF400610D4887
:100C5000FFF7B2FC0C48FFF79CFA0B48FFF799FA34
:100C6000B7E700008C0C000800080140557365725E
:100C700020427574746F6E206973205072657373AF
:100C80000D0A000000140140FFFF0F002A2A2A2A43
:100C90002A2A2A2A2A2A2A2A2A2A2A2A2A2A2A2AB4
:100CA0002A2A2A2A2A2A2A2A2A2A2A2A2A2A2A2AA4
:100CB0002A2A2A2A2A2A2A2A2A2A2A2A2A2A2A2A94
:100CC0002A2A2A2A2A2A2A2A2A2A2A2A2A2A0D0AC1
:100CD000000000002A20202020202020202020208A
:100CE0002020202020202020202020202020202004
:100CF00020202020202020202020202020202020F4
:100D000020202020202020202020202020202020E3
:100D100020202020202A0D0A000000002A20205434
:100D200068616E6B20796F7520666F7220757369CC
:100D30006E672048592D4669726542756C6C205665
:100D4000312E3020446576656C6F706D656E742051
:100D5000426F6172642021205E5F5E20202A0D0AAE
:100D600000000000840D00080000002018000000B2
:100D7000380B00089C0D000818000020000400003B
:100D8000480B0008000000000102030401020304F4
:0C0D900006070809020406080000000025
:0400000508000131BD
:00000001FF
