:020000040800F2
:10000000380B0020C1010008373C000861050008DA
:10001000353C0008150300088D4B00080000000067
:10002000000000000000000000000000F94200088D
:1000300065030008000000009D3C00089949000885
:10004000DB010008DB010008DB010008DB01000820
:10005000DB010008DB010008DB010008DB01000810
:10006000DB010008DB010008DB010008DB01000800
:10007000DB010008DB010008DB010008DB010008F0
:10008000DB010008DB010008DB010008DB010008E0
:10009000DB010008DB010008DB010008DB010008D0
:1000A000DB010008DB010008DB010008DB010008C0
:1000B0004F4A0008DB010008DB010008DB010008F3
:1000C000DB010008DB010008DB010008DB010008A0
:1000D000DB010008DB010008DB010008DB01000890
:1000E000DB010008DB010008DB01000800F002F87A
:1000F00000F03CF80AA090E8000C82448344AAF186
:100100000107DA4501D100F031F8AFF2090EBAE883
:100110000F0013F0010F18BFFB1A43F0010318473B
:10012000984D0000B84D0000103A24BF78C878C13F
:10013000FAD8520724BF30C830C144BF04680C60ED
:10014000704700000023002400250026103A28BF35
:1001500078C1FBD8520728BF30C148BF0B60704739
:100160001FB500F062F81FBD10B510BD00F09BF880
:100170001146FFF7F5FF04F021FD00F0B9F803B4D4
:10018000FFF7F2FF03BC00F0BFF800000B49D1F805
:1001900000C04A685CF8043B1068184442F8040B3D
:1001A0008C4528BFA1F1DC0C8A4228BFA1F1DC02FA
:1001B000C1F800C04A6020F000407047CC04002025
:1001C0000948804709480047FEE7FEE7FEE7FEE7EB
:1001D000FEE7FEE7FEE7FEE7FEE7FEE70448054927
:1001E000054A064B704700009D490008ED000008D5
:1001F00038050020380B0020380700203807002081
:100200000B4910B5A1F17C020A4CC2E93712372123
:1002100006E000EB104342F82130074B00FB03409F
:100220000B1EA1F10101F4DC10BD0120E8E7000084
:100230006C040020E119D666CD0D010010B5203AFE
:10024000C0F00B80B1E81850203AA0E81850B1E88F
:100250001850A0E81850BFF4F5AF5FEA027C24BF45
:10026000B1E81850A0E8185044BF18C918C0BDE83C
:1002700010405FEA827C24BF51F8043B40F8043B05
:1002800008BF7047D20728BF31F8023B48BF11F8BA
:10029000012B28BF20F8023B48BF00F8012B704714
:1002A000704770477047754600F028F8AE46050065
:1002B0006946534620F00700854618B020B5FFF781
:1002C0008DFFBDE820404FF000064FF000074FF0D3
:1002D00000084FF0000B21F00701AC46ACE8C00964
:1002E000ACE8C009ACE8C009ACE8C0098D4670476D
:1002F0000446AFF300802046FFF741FF00487047F7
:10030000D40400207047000001491820ABBEFEE76E
:1003100026000200FEE70000F0B50646104C012062
:1003200000213C2204F13C0E7318B3FBF2F502FBF2
:1003300015355B1CB3FBF2FC02FB1C33675714F949
:1003400003C0674505D11EF805501EF803309D42D5
:1003500001D00020F0BD491CC9B20529E4D3F0BD8D
:10036000760300207047002808D042F21072114630
:10037000491E0904090CFBD1401EF8D1704700004A
:1003800004490A6822F010020A600A6802430A60FF
:100390007047000000200240034A116801F0380154
:1003A000014311607047000000200240254910B54C
:1003B000884206D10121042003F08AFC0021042098
:1003C0003BE02149884206D10121082003F080FC4E
:1003D0000021082031E01D49884206D1012110206A
:1003E00003F076FC0021102027E01949884206D14D
:1003F0000121202003F06CFC002120201DE0154984
:10040000884206D10121402003F062FC00214020F7
:1004100013E01149884206D10121802003F058FCE5
:100420000021802009E00D4988420AD1841501216C
:10043000204603F04DFC00212046BDE8104003F0AB
:1004400047BC10BD00080140000C014000100140F5
:100450000014014000180140001C01400020014030
:10046000F0B5CA78002502F00F03D20601D58A78CC
:1004700013430C784FF00F0E0122ECB1D0F800407E
:100480000F8802FA05F63740B74211D14FEA850CC2
:100490000EFA0CF724EA070703FA0CF43C43CF7872
:1004A000282F02D0482F02D002E0466100E006610A
:1004B0006D1C082DE4D304600C88FF2C1ED9446801
:1004C0005FF0000606F1080702FA07F50F882F40D3
:1004D000AF420FD14FEA860C0EFA0CF7BC4303FA79
:1004E0000CF73C43CF78282F00D14561CF78482FB7
:1004F00000D10561761C082EE4D34460F0BD0000F5
:10050000F0B5144C002801DAE36900E06368420D9D
:10051000120185B2C0F301579540C0F30346032F83
:1005200005D0C2020AD50322B240934307E023F06C
:100530007062636823F07063636002E0AB4343F072
:10054000706201B12A43002801DAE261F0BD626005
:10055000F0BD00000000014041617047016170473B
:10056000FEE70000F8B500251E4C6E1EFFF70EFEDC
:10057000C11700EB917121F00301401A04F8290F13
:10058000FFF704FEC11700EB917121F00301401A3F
:100590006070FFF7FBFDC11700EB917121F00301C3
:1005A000401AA070293CFFF7F1FD000713D000208E
:1005B0000346024600902946304604F001F86D1CBF
:1005C000EDB23C2DD2D3084804F0B8F9BDE8F840AC
:1005D0003220FFF7C8BE2934A0780090637814F861
:1005E0002929E8E704000020680000202DE9F04FE9
:1005F000064600205E4A99B001461154401CC0B224
:1006000090462E28F9D300240220DFF868A14FF08D
:10061000FF3B00EB460944E0FFF7B8FDC11700EBD4
:10062000917121F003010AF12905401A2870FFF7A2
:10063000ADFDC11700EB917121F00301401A687004
:10064000FFF7A4FDC11700EB917121F00301401ADF
:10065000C1B2A97028786A781043084305D00025F4
:100660007142092000EB410717E0641EE4B216E076
:10067000F6B10AF12A00012E417800911FD004EB57
:10068000840100BF05EB41010378C9B29AF8292023
:10069000584603F095FF6D1CEDB2AF42E8DC641CD8
:1006A000E4B2A145B8D8C6F1040500245E460FE0C7
:1006B0000AF12A0041780091C4EB0411E2E7C4EB8F
:1006C00004112944E0E7304603F08AFD641CE4B2DB
:1006D000A542F8DC002101AC4046425C6254491C52
:1006E000C9B22E29F9D3204604F028F90025B146D5
:1006F000484603F075FD0021C1EBC10000EB01127B
:100700001019807D00F0700046000020C0F1160333
:100710001344C0F1150CE75C9444FF0814F80CC0B6
:10072000401C47EA4C17C0B2E7541628EED3A05C31
:10073000491C46EAD000C9B2A0540229DCD30020EB
:100740000DAB4146265C0A5C32431A54401CC0B2D1
:100750002E28F7D3184604F0F1F81920FFF703FE0E
:100760006D1CEDB2F02DC3D319B0BDE8F08F0000C1
:1007700068000020040000202DE9F04734A386B073
:100780000FCB01AC0FC4FFF701FDC117DFF8D0801C
:1007900000EB917121F0030108F12904401A207047
:1007A000FFF7F4FCC11700EB917121F00301401A2F
:1007B0006070FFF7EBFCC11700EB917121F00301B2
:1007C000401A0025A07001AEA9464FF0FF3A02275B
:1007D0000024705DC00709D008F12A00417800911B
:1007E000A106090E037898F8292005E0A006010E5D
:1007F00000231A46CDF80090504603F0E1FE705DEC
:1008000080070AD508F12A004178009107EB84019E
:10081000C9B2037898F8292006E007EB840000238A
:10082000C1B21A46CDF80090504603F0C9FE641CD0
:10083000E4B20F2CCDD30B4804F080F83220FFF740
:1008400092FD6D1CEDB2102DC2D306B0BDE8F0874D
:100850000103030201030302000000000000000086
:1008600004000020680000202DE9F04FA3B0802292
:10087000564901A8FFF7E2FCFFF788FCC11700EB1F
:100880009171534C21F00301401A2070FFF77EFC58
:10089000C11700EB917121F00301401A6070FFF75E
:1008A00075FCC11700EB917121F00301401AA07093
:1008B00000264FF0FF3800274FEA56090025002098
:1008C00001A921AA00EB850404EB8913CB5C135426
:1008D000401CC0B20428F5D368071BD1FFF756FCB3
:1008E000C11700EB91713A4C21F00301401A2070BE
:1008F000FFF74CFCC11700EB917121F00301401A86
:100900006070FFF743FCC11700EB917121F0030108
:10091000401AA0702E48817800914378027821A96E
:10092000404603F01FFE00244FF03C0A01222146FE
:10093000404603F0CBFA009002222146404603F0E5
:10094000C5FA834604222146404603F0BFFAC4F1AB
:100950003C0191FBFAF302460AFB1310C1B25B465D
:10096000404603F02DFE641CE4B21E2CDED3194871
:1009700003F0E4FF1920FFF7F6FC6D1CEDB2102D1B
:100980009DD37F1CFFB2052F98D3F0074FF00004D2
:100990000AD1102003F094FB1920FFF7E4FC641C3B
:1009A000E4B2F02CF5D309E0102003F019FC192073
:1009B000FFF7D9FC641CE4B2F02CF5D3761CF6B238
:1009C000042EFFF478AF23B0BDE8F08F384E000856
:1009D0002D000020680000202DE9F84FFFF7D6FB1E
:1009E000C11700EB91713E4C21F00301401A2070B9
:1009F000FFF7CCFBC11700EB917121F00301401A06
:100A00006070FFF7C3FBC11700EB917121F0030188
:100A1000401A0025A070A4F129086E1EFFF7B6FB4E
:100A2000C11700EB917121F00301401A00F0FF0B98
:100A3000FFF7ACFBC11700EB917121F00301401AE5
:100A400000F0FF0AFFF7A2FBC11700EB917121F044
:100A50000301401AC7B2002430E074B30F2C2DD02C
:100A60001E2C2BD02D2C29D0072C27D0162C25D08E
:100A7000252C23D0342C21D075B3062D2CD0072D56
:100A80002AD0082D28D00F2D26D000231A46CDF8C5
:100A900000902146304603F093FD641CE4B23C2CE8
:100AA000DBD3104803F04AFF3220FFF75CFC6D1CDB
:100AB000EDB2102DB2D3BDE8F88FFFE708F12A00A0
:100AC00041780091037898F829202146304603F0B8
:100AD00077FD4FF00009E0E753465A460097D8E704
:100AE0002D000020680000202DE9F04F93B0402237
:100AF0005DA101A8FFF7A2FBFFF748FBC117DFF8D4
:100B0000A89100EB917121F0030109F12904401A29
:100B10002070FFF73BFBC11700EB917121F003013F
:100B2000401A6070FFF732FBC11700EB917121F0A2
:100B30000301401A0025A0700DF1040A0DF1440BC9
:100B40006E1E002051465A4600EB8503CB5C1354C1
:100B5000401CC0B20428F7D309F1290411A9A078D8
:100B60000090637814F82929304603F0FBFC092D26
:100B700001D00A2D23D114F8290F0090A3786278B0
:100B80000021304603F01CFD20780090A3786278A5
:100B90000E21304603F014FD20780090A37862788F
:100BA0000F21304603F00CFD20780090A378627886
:100BB000293C1D21304603F003FD0A2D05D00B2DE5
:100BC00003D00C2D01D00D2D20D114F8290F009049
:100BD000A37862780121304603F0F2FC207800907F
:100BE000A37862780D21304603F0EAFC207800906B
:100BF000A37862781021304603F0E2FC2078009060
:100C0000A37862781C21304603F0DAFC002401222C
:100C10002146304603F05AF9074602222146304663
:100C200003F054F9804604222146304603F04EF981
:100C30000246C4F13B00C1B243463046009703F080
:100C4000BFFC641CE4B21E2CE1D3184803F076FE0E
:100C50001920FFF788FB6D1CEDB2102DFFF471AF6A
:100C600013B0BDE8F08F000080030006C007800EBF
:100C7000E00FC01EF01FE03EF83FF07EFC7FF8FE64
:100C8000FEFFFDFE7EFCFDF83EF87DF01EF03DE02F
:100C90000EE01DC00EE01DC00EE01DC00EE01DC028
:100CA0000EE01DC0FEFFFDFE0400002068000020D5
:100CB0002DE9F8430025304C4FF0FF38FFF766FA76
:100CC000C11700EB917121F00301401A04F8290FBC
:100CD000FFF75CFAC11700EB917121F00301401A94
:100CE0006070FFF753FAC11700EB917121F0030117
:100CF000401AC1B2A17020786278293C10430843A1
:100D000011D00026C5EB05172934A0780090B8193A
:100D1000C1B2637814F82929404603F051FC761CCF
:100D2000F6B20C2EF0D36D1CEDB2042DC6D3002507
:100D30004446124803F002FE204603F0C1F9204663
:100D400003F0BEF91920FFF70EFB6D1CEDB2F02D7C
:100D5000EFD30025094803F0F1FD204603F040FAE7
:100D6000204603F03DFA1920FFF7FDFA6D1CEDB2A5
:100D7000F02DEFD3BDE8F8830400002068000020C8
:100D80002DE9F8430026424CB6F10107FFF7FEF9C2
:100D9000C11700EB917121F00301401A04F8290FEB
:100DA000FFF7F4F9C11700EB917121F00301401A2C
:100DB0006070FFF7EBF9C11700EB917121F00301AF
:100DC000401AA070293C00252934A078009005EB3A
:100DD0008600C1B2637814F82929384603F0F0FB85
:100DE0006D1CEDB2032DEFD3761CF6B2042ECDD3DD
:100DF0005FF00005FFF7CAF900EBD07121F00101A7
:100E0000401A04F8290FFFF7C1F900EBD07121F067
:100E10000101401A6070FFF7B9F900EBD07121F0C1
:100E20000101401AC0B2A070293C69071DD194F895
:100E3000291094F82A201143014316D00C264FF0B4
:100E40003C0800BF06EB4501B1FBF8F2293408FB72
:100E50001211A0780090637814F82929384603F01D
:100E6000AFFB761CF6B23C2EECD30A4803F066FDCD
:100E7000384603F025F9384603F022F91920FFF728
:100E800072FA6D1CEDB2F02DB4D3BDE8F88300000A
:100E900004000020680000202DE9F84F00250026FE
:100EA0004FF0FF384FF03C0A002446EA050940465F
:100EB00003F0A2F8B9F1000F1DD0012E03D0022ECD
:100EC0000DD026B371E0012D15D05DB3022D3CD0BD
:100ED000042D4AD0032D53D0052D5CD065E0022DA2
:100EE00009D0012D1ED07DB3052D3ED0042D47D055
:100EF000032D50D059E0032C02D20023009429E0A6
:100F0000E01E03281DD20321C2B2009131E0022D60
:100F100008D0012D19D0032D27D0052D30D0042D58
:100F200039D042E0032C04D2002003462246009030
:100F300037E0E01E032804D2C0B200230090032251
:100F40002FE0052C17D830E0FFE7032C04D2002057
:100F500023460090002224E0E01E032802D2002154
:100F6000009115E0052C7DD81FE0062C03D2620805
:100F70000092002315E003200090A01FC3B2DEE71B
:100F8000062C02D263080093E4E703200090A01F20
:100F9000C2B2032305E0062C76D200206208134675
:100FA00000900021404603F00BFB00270122394648
:100FB000404602F08BFF009002223946404602F084
:100FC00085FF834604223946404602F07FFFC7F181
:100FD0003C0191FBFAF302460AFB1310C1B25B46D7
:100FE000404603F0EDFA7F1CFFB21E2FDED32948E6
:100FF00003F0A4FC1920FFF7B6F9641CE4B2092C35
:10100000FFF455AF761CF6B2032EFFF44DAF474602
:101010000026D046384602F0EFFF00240122214688
:10102000384602F053FF824602222146384602F03B
:101030004DFF814604222146384602F047FFC4F1A5
:101040003C0191FBF8F3024608FB1310C1B24B467A
:101050003846CDF800A003F0B3FA641CE4B21E2CAD
:10106000DCD300E010E00B4803F068FC1920FFF728
:101070007AF9761CF6B2102ECCD36D1CEDB2062D8B
:10108000FFF40DAFBDE8F88FA01FC0B2032300909E
:1010900055E70000680000202DE9F0414CA388B01E
:1010A000D3E90002D3E90213CDE90302CDE9051328
:1010B000FFF76CF8C11700EB9171494C21F0030167
:1010C000401A2070FFF762F8C11700EB917121F010
:1010D0000301401A6070FFF759F8C11700EB9171D6
:1010E00021F00301401AC1B2A170293C002003AED7
:1010F00001AD325C2A54401CC0B20828F9D30091DB
:101100004FF0FF3894F82A3094F8292029464046B9
:1011100003F0DEF90027334803F010FC1920FFF735
:1011200022F97F1CFFB2052FF5D300203118097A70
:101130002954401CC0B20828F8D3293401A9A0784A
:101140000090637814F829294646404603F0C0F918
:101150000027244803F0F2FB1920FFF704F97F1C55
:10116000FFB2082FF5D30021FF206854491CC9B2F3
:101170000829FAD3293401A9A0780090637814F8DB
:101180002929304603F0A4F9164803F0D7FB1920AB
:10119000FFF7E9F8002108466854491CC9B208293C
:1011A000FAD3293401A9A0780090637822783046D8
:1011B00003F08EF900240B4803F0C0FB1920FFF761
:1011C000D2F8641CE4B2102CF5D308B0BDE8F0816D
:1011D000E3FFC7FF8FFF1FF0E007C00F801F003045
:1011E0002D000020680000202DE9FC41002401AE04
:1011F000651E04222146284602F068FE58B90222E4
:101200002146284602F062FE28B9012221462846DE
:1012100002F05CFE48B304222146284602F056FE46
:10122000401E8DF8040002222146284602F04EFEA0
:10123000401E8DF8050001222146284602F046FE98
:10124000401E8DF8060000221046B156002900DA33
:10125000B054521CD2B2032AF7D39DF80600009076
:101260009DF805309DF8042019E0FEF78FFFC117A7
:1012700000EB517121F00701401AC7B2FEF786FF5B
:10128000C00610D1C7F3800000EB40000090C7F308
:10129000400000EB400307F0010000EB4002214654
:1012A000284603F08DF9641CE4B23C2CA1D3044819
:1012B00003F044FBBDE8FC413220FFF754B80000C6
:1012C000680000202DE9F0414DA388B0D3E9000269
:1012D000D3E90213CDE90302CDE90513FEF756FF6A
:1012E000C11700EB91714A4C21F00301401A2070A4
:1012F000FEF74CFFC11700EB917121F00301401A7A
:101300006070FEF743FFC11700EB917121F00301FC
:10131000401AC1B2A170293C0020FF2201AD2A541D
:10132000401CC0B20828FAD300914FF0FF3794F860
:101330002A3094F829202946384603F0C9F8354860
:1013400003F0D0FA1920FFF70EF8002003AE311891
:10135000097A2954401CC0B20828F8D3293401A9BD
:10136000A0780090637814F82929B846384603F02D
:10137000AFF80027274803F0B5FA1920FEF7F3FF6E
:101380007F1CFFB2082FF5D30020315C2954401C8C
:10139000C0B20828F9D3293401A9A0780090637855
:1013A00014F829294646404603F092F800271948C8
:1013B00003F098FA1920FEF7D6FF7F1CFFB2052F25
:1013C000F5D3002108466854491CC9B20829FAD34C
:1013D000293401A9A078009063782278304603F080
:1013E00077F800240B4803F07DFA1920FEF7BBFFC5
:1013F000641CE4B2102CF5D308B0BDE8F081000005
:10140000E3FFC7FF8FFF1FF0E007C00F801F003012
:101410002D00002068000020F8B500261D4C771E26
:10142000304603F011FA002529342946A0780090AF
:10143000637814F82929384603F0C2F86D1CEDB220
:101440003C2DF1D3144803F079FA3220FEF78BFFDC
:10145000761CF6B2242EE3D30025284603F0F4F9D7
:10146000002629343146A0780090637814F82929A1
:10147000384603F0A5F8761CF6B23C2EF1D30648A8
:1014800003F030FA3220FEF76EFF6D1CEDB2242D12
:10149000E3D3F8BD04000020680000202DE9F04FE0
:1014A000A3B006468022814901A8FEF7C7FE0025A9
:1014B0004FF0FF3801AF0DF1840A4FF03C090020D6
:1014C0004FEA0A0100EB850202EB8612BA5C0A546D
:1014D000401CC0B20428F5D3284603F0B5F974487F
:1014E000817800914378027821A9404603F03AF8C8
:1014F000002401222146404602F0E8FC009002222E
:101500002146404602F0E2FC834604222146404642
:1015100002F0DCFCC4F13C0191FBF9F3024609FB4B
:101520001310C1B25B46404603F04AF8641CE4B2B3
:101530001E2CDED35F4803F001FA3220FEF713FFC2
:101540006D1CEDB2102DBAD34FF00008BB4600253C
:1015500000205A464FEA0A0100EB850303EB86138D
:1015600013441B790B54401CC0B20428F4D305EB80
:1015700008012420B1FBF0F200FB121003F064F923
:101580004B4881780091C5F10E014CB24378027846
:1015900021A9204602F0E6FF002720460122394615
:1015A00002F094FC009020460222394602F08EFCA4
:1015B000229020460422394602F088FCC7F13C0301
:1015C00093FBF9F1024609FB1130C1B22046229B80
:1015D00002F0F6FF7F1CFFB21E2FDED36D1CEDB2B2
:1015E0000F2DB5D33220FEF7BEFE08F1010000F04A
:1015F000FF08B8F1B40FAAD34FF000080024002070
:1016000001AA21ABC4F10F0100EB810505EB8615A2
:10161000555D1D54401CC0B20428F5D304EB0801ED
:101620002420B1FBF0F200FB121003F00DF920486A
:10163000817800914378027860B221A9074602F0D0
:1016400091FF002501222946384602F03FFC8346DF
:1016500002222946384602F039FC824604222946F5
:10166000384602F033FCC5F13C0191FBF9F3024628
:1016700009FB1310C1B253463846CDF800B002F052
:101680009FFF6D1CEDB21E2DDCD3641CE4B20F2C49
:10169000B5D33220FEF767FE08F1010000F0FF0825
:1016A000B8F1B40FAAD323B0BDE8F08FB84D00084D
:1016B0002D000020680000202DE9F04355A387B0DD
:1016C0000FCB01AC00260FC4304601AC05AD554F21
:1016D0004FF0FF3902E00020052E01D2215C01E02D
:1016E0002118097A2954401CC0B20828F4D3304686
:1016F00003F0AAF807F12A00B84641780091037870
:1017000097F8292005A9484602F0E2FE464803F072
:1017100015F93220FEF727FE761CF6B2102EDAD32A
:1017200000273E4638464FF0240904E0002002E03E
:101730000020052E01D2215C01E02118097A2954EC
:10174000401CC0B20828F4D3F119B1FBF9F209FB2F
:10175000121003F079F808F12A0148780090C6F1D8
:101760000F000B7840B298F8292005A902F0B0FECE
:10177000761CF6B2102EDBD33220FEF7F4FD7F1C70
:10178000FFB2B42F4FF00006D0D3102002F098FC27
:101790003220FEF7E8FD761CF6B2F02EF5D30027D6
:1017A0000026304602E000200B2E02D22118097AD2
:1017B00000E0215C2954401CC0B20828F4D3F11980
:1017C000B1FBF9F209FB121003F03EF808F12A0010
:1017D00041780091037898F8292005A970B202F0A9
:1017E00077FE761CF6B2102EDDD33220FEF7BBFD5D
:1017F0007F1CFFB2B42FD3D30024102002F0F0FCE2
:101800003220FEF7B0FD641CE4B2F02CF5D307B033
:10181000BDE8F083E3FFC7FF8FFF1FF0E007C00FB5
:10182000801F003004000020680000202DE9F04FE8
:1018300093B0402281A101A8FEF700FDFEF7A6FCAF
:10184000C11700EB91718D4C21F00301401A2070FB
:10185000FEF79CFCC11700EB917121F00301401AC7
:101860006070FEF793FCC11700EB917121F003014A
:10187000401AA0700027DFF808A2B94601AC11ADEC
:101880004FF0FF3B4FF03C0800204A46514691463E
:101890000A54401CC0B22E28F9D3002000EB870167
:1018A000615C2954401CC0B20428F7D3734E11A9BF
:1018B000B0780090737816F82229584603F042F960
:1018C0005FF0000000EB8701214491F820102954BB
:1018D000401CC0B20428F5D3253611A9B078009079
:1018E00073783278584603F02DF9002601223146EC
:1018F000584602F0EBFA009002223146584602F0B8
:10190000E5FA129004223146584602F0DFFAC6F199
:101910003C0191FBF8F3024608FB1310C1B2584694
:10192000129B02F04DFE761CF6B21E2EDED35448FA
:1019300003F004F83220FEF716FD7F1CFFB2082FDB
:10194000A2D3FEF723FCC1174C4E00EB917121F09E
:101950000301F61C401A3070FEF718FCC11700EBAB
:10196000917121F00301401A7070FEF70FFCC1174E
:1019700000EB917121F00301401AB07000260020A5
:101980003F4A01461154401CC0B22E28FAD3002011
:1019900000EB8601214491F820102954401CC0B26C
:1019A0000428F5D3354F11A9D946B87800907B7833
:1019B00017F82229584603F0C5F8002000EB8601ED
:1019C000615C2954401CC0B20428F7D3253711A903
:1019D000B87800907B783A78484603F0B3F800274F
:1019E00001223946484602F071FA00900222394637
:1019F000484602F06BFA824604223946484602F015
:101A000065FAC7F13C0191FBF8F3024608FB13109D
:101A1000C1B25346484602F0D3FD7F1CFFB21E2FD1
:101A2000DED3174802F08AFF3220FEF79CFC761CBA
:101A3000F6B2082EA3D313B0BDE8F08F80000000EB
:101A4000C1000000E182000071C3040039E3860098
:101A50001D73C7000F3AE780071E77C0030E3DE0F5
:101A600001061CF000020C780000043C0000001E7F
:101A70000000000E0000000600000002260000200A
:101A8000680000202DE9F04F93B03C22DAA101A8B4
:101A9000FEF7D4FBFEF77AFBC11700EB9171E54C22
:101AA00021F00301401A6076FEF770FBC11700EBCE
:101AB000917121F00301401AA076FEF767FBC11770
:101AC00000EB917121F00301401AE0760026DFF867
:101AD00068A3B14601AC10AD4FF0FF3B0020494672
:101AE000524689461154401CC0B22E28F9D300201A
:101AF00000EB8601615C2954401CC0B20428F7D376
:101B0000CC4F10A9D846F87E0090BB7E7A7E58460E
:101B100003F018F85FF0000000EB8601214491F813
:101B200028102954401CC0B20428F5D3B87F009077
:101B30007B7F3A7F10A9404603F004F85FF0000075
:101B400000EB86012144097D2954401CC0B20428C1
:101B5000F6D31F3710A9B87800907B783A78C3463F
:101B6000404602F0EFFF00274FF03C0801223946C3
:101B7000584602F0ABF9009002223946584602F06E
:101B8000A5F9119004223946584602F09FF9C7F191
:101B90003C0191FBF8F3024608FB1310C1B2584612
:101BA000119B02F00DFD7F1CFFB21E2FDED3A24859
:101BB00002F0C4FE3220FEF7D6FB761CF6B2052EEC
:101BC0008CD3FEF7E3FAC11700EB9171994E21F027
:101BD0000301401A3077FEF7D9FAC11700EB917173
:101BE00021F00301401A7077FEF7D0FAC11700EB1D
:101BF000917121F00301401AB077002600204A4677
:101C0000514691460A54401CC0B22E28F9D30020F8
:101C100000EB86012144097D2954401CC0B20428F0
:101C2000F6D3844F10A9F87E0090BB7E7A7E58468A
:101C300002F088FF5FF0000000EB8601615C295430
:101C4000401CC0B20428F7D3B87F00907B7F3A7F56
:101C500010A9584602F076FF5FF0000000EB860105
:101C6000214491F828102954401CC0B20428F5D30F
:101C70001F3710A9B87800907B783A78584602F060
:101C800061FF002701223946584602F01FF90090F3
:101C900002223946584602F019F9119004223946B9
:101CA000584602F013F90246C7F13C0090FBF8F3E6
:101CB00008FB1300C1B25846119B02F081FC7F1C47
:101CC000FFB21E2FDED35C4802F038FE3220FEF752
:101CD0004AFB761CF6B2052E90D3FEF757FAC117D1
:101CE000544E00EB917121F003011F36401A307001
:101CF000FEF74CFAC11700EB917121F00301401A75
:101D00007070FEF743FAC11700EB917121F00301E7
:101D1000401AB07000260020474A01461154401C6A
:101D2000C0B22E28FAD3002000EB8601214491F89E
:101D300028102954401CC0B20428F5D33D4F10A9E7
:101D4000D946F87E0090BB7E7A7E584602F0FAFEB5
:101D50005FF0000000EB86012144097D2954401CFE
:101D6000C0B20428F6D3B87F00907B7F3A7F10A9D9
:101D7000484602F0E7FE002000EB8601615C295432
:101D8000401CC0B20428F7D31F3710A9B8780090C0
:101D90007B783A78484602F0D5FE00270122394682
:101DA000484602F093F8009002223946484602F075
:101DB0008DF8824604223946484602F087F8C7F17A
:101DC0003C0191FBF8F3024608FB1310C1B25346E5
:101DD000484602F0F5FB7F1CFFB21E2FDED31648EB
:101DE00002F0ACFD3220FEF7BEFA761CF6B2052EEC
:101DF00091D313B0BDE8F08F80000000A000000078
:101E0000A80000002A0000000A88000002AA0000C2
:101E100000AA8000002AA2000008AA0000002A8070
:101E200000000AA0000002A80000002A0000000A2A
:101E30000000000204000020680000202DE9F04F9F
:101E400093B040227DA101A8FEF7F8F900248B4D44
:101E5000A34604E01CB1102C01D0202C1AD1FEF7AF
:101E600095F9C11700EB917121F00301401A287414
:101E7000FEF78CF9C11700EB917121F00301401AB4
:101E80006874FEF783F9C11700EB917121F003012B
:101E9000401AA874062C03D0162C01D0262C1AD177
:101EA000FEF774F9C11700EB917121F00301401A9C
:101EB000E874FEF76BF9C11700EB917121F0030193
:101EC000401A2875FEF762F9C11700EB917121F0F5
:101ED0000301401A68750C2C03D01C2C01D02C2C4B
:101EE0001AD1FEF753F9C11700EB917121F00301EC
:101EF000401AA875FEF74AF9C11700EB917121F05D
:101F00000301401AE875FEF741F9C11700EB917122
:101F100021F00301401A2876594A002059461154ED
:101F2000401CC0B22E28FAD3002004F00F0101AEED
:101F30000DF1440700EB8102B25C3A54401CC0B280
:101F40000428F7D3A87C00904FF0FF386B7C2A7CE4
:101F50003946404602F0F6FD002004F10A01052C46
:101F600001D9A21F00E00A46D31702EB137323F036
:101F70000F03D21A00EB8202925D3A54401CC0B2A9
:101F80000428ECD3687D00902B7DEA7C11A94046A3
:101F900002F0D8FD0020A4F10C020B2C01D911464F
:101FA00000E0211DCB1701EB137323F00F03C91AB7
:101FB00000EB8101895D3954401CC0B20428ECD388
:101FC000287E0090EB7DAA7D11A94746404602F08D
:101FD000B9FD00264FF03C0801223146384601F099
:101FE00075FF824602223146384601F06FFF814676
:101FF00004223146384601F069FFC6F13C0191FBED
:10200000F8F3024608FB1310C1B24B463846CDF830
:1020100000A002F0D5FA761CF6B21E2EDCD31848CA
:1020200002F08CFC3220FEF79EF9641CE4B2102C06
:10203000FFF410AF13B0BDE8F08F00008000000087
:10204000C10000006180000031C100001961800002
:102050000D31C00007196000030D31000007198021
:1020600000030DC0000007600000033000000018EE
:102070000000000C00000006000000020400002028
:10208000680000202DE9F04F95B048227E4901A854
:10209000FEF7D4F80024DFF8F4A105E024B1062C03
:1020A00020D00C2C55D139E0FEF770F8C11700EBA9
:1020B000917121F00301401A55468AF80700FEF796
:1020C00065F8C11700EB917121F00301401A2872E5
:1020D000FEF75CF8C11700EB917121F00301401A83
:1020E000687236E0FEF752F8C11700EB917121F0EB
:1020F0000301401AA872FEF749F8C11700EB91716D
:1021000021F00301401AE872FEF740F8C11700EB16
:10211000917121F00301401A28731AE0FEF736F896
:10212000C11700EB917121F00301401A6873FEF7AB
:102130002DF8C11700EB917121F00301401AA8732B
:10214000FEF724F8C11700EB917121F00301401A4A
:10215000E87300204E4A01461154401CC0B22E289C
:10216000FAD300201225B4FBF5F105FB114101AEB5
:102170000DF14C0700EB8102B25C3A54401CC0B236
:102180000428F7D39AF8091000914FF0FF39D04690
:102190009AF808309AF807203946484602F0D2FCEF
:1021A000002004F10C01052C01D9A21F00E00A4611
:1021B00092FBF5F305FB132200EB8202B25C3A546A
:1021C000401CC0B20428EED398F80C10009198F887
:1021D0000B3098F80A2013A9484602F0B3FC0020FF
:1021E000A4F10C020B2C01D9114600E0A11D91FBBA
:1021F000F5F305FB131100EB8101715C3954401CB0
:10220000C0B20428EED398F80F000090454698F825
:102210000E3098F80D2013A94F46484602F092FC64
:1022200000264FF03C0801223146384601F04EFEB0
:10223000834602223146384601F048FE8146042298
:102240003146384601F042FEC6F13C0191FBF8F3FD
:10225000024608FB1310C1B24B463846CDF800B019
:1022600002F0AEF9761CF6B21E2EDCD3084802F05E
:1022700065FB3220FEF777F8641CE4B2122CFFF401
:102280000DAF15B0BDE8F08F704D000804000020C0
:10229000680000202DE9F04F89B018223BA101A869
:1022A000FDF7CCFFFDF772FFC117DFF8F8A000EBD8
:1022B000917121F003010AF12904401A2070FDF701
:1022C00065FFC11700EB917121F00301401A6070A6
:1022D000FDF75CFFC11700EB917121F00301401A7B
:1022E0000025A070AB466E1E2F4A0020594611549F
:1022F000401CC0B22E28FAD3002001A90DF11C0207
:1023000000EB8503CB5C1354401CC0B20428F7D308
:102310000AF12A004178009103789AF8292007A948
:10232000304602F00FFC00243C27012221463046B3
:1023300001F0CCFD804602222146304601F0C6FD68
:10234000814604222146304601F0C0FD0246C4F118
:102350003C0090FBF7F107FB1100C1B24B46304641
:10236000CDF8008002F02CF9641CE4B21E2CDCD302
:102370000D4802F0E3FA3220FDF7F5FF6D1CEDB2D7
:10238000062DB1D309B0BDE8F08F000080100080A9
:10239000A05402A0A9550AA82F456A2A0F01680A6D
:1023A0000600600204000020680000202DE9F14FC3
:1023B000DFF868A1002482B0A146AAF13C074FF0E3
:1023C0003C0B385DF0B3601D5E46B0FBF6F10BFBD5
:1023D0001100385C00287DD02046FDF79DFF90B3AA
:1023E000DFF83C810025B34661195846B1FBF0F295
:1023F0000BFB1216BA574021E94012F808200A4296
:1024000005EB0401B1FBFBF20BFB121107D01AF82C
:10241000040000F0030283080092020903E0002395
:102420001A46CDF800904FF0FF3002F0C9F8B85DC1
:10243000401C40B2B855092803D107F806900AF8A5
:10244000069001E007E004E06D1CEDB2062DCBD351
:1024500055E0385DF0BB601D5D46B0FBF5F10BFB50
:102460001100385CB0BB2046FDF756FF90B3FDF776
:102470008DFEC1172A4E00EB917121F00301083E39
:10248000401A3070FDF782FEC11700EB917121F008
:102490000301401A7070FDF779FEC11700EB9171CE
:1024A00021F00301401AB070293EA00705D1FDF7C5
:1024B0006DFE000701D1029810B10298012820D1C9
:1024C00016F8292F00207178B3781201564642EA97
:1024D000810100E015E01943CAB22118B1FBF5F300
:1024E00005FB131172547B5C5B1C5BB27B54092BA4
:1024F00001D107F80190401CC0B20628EDD3A41DFD
:10250000E4B2641CE4B23C2CFFF45BAF054802F07B
:1025100015FABDE8FE4F3220FDF725BFB2030020BB
:1025200035000020680000202DE9F04F91B02022F6
:102530008CA106A8FDF782FE0020DFF848B2824693
:1025400006AD0DF114080E90002403E014B1042C24
:1025500039D11CE0FDF71AFEC11700EB91718A4ECC
:1025600021F00301401A7070FDF710FEC11700EB57
:10257000917121F00301401AB070FDF707FEC117F9
:1025800000EB917121F00301401AF0701BE0FDF7A0
:10259000FDFDC11700EB91717B4E21F00301401A44
:1025A0003071FDF7F3FDC11700EB917121F00301CC
:1025B000401A7071FDF7EAFDC11700EB917121F02F
:1025C0000301401AB07100200BF800A0401CC0B2FB
:1025D0002E28F9D30020474600EB8401695C39546A
:1025E000401CC0B20428F7D3674E4FF0FF3905A94D
:1025F000F0780090B3787278484602F0A3FA002091
:10260000B846032C01D9211F00E0211D00EB8101F8
:102610006A5C08F80020401CC0B20428F1D35A4874
:102620004F46817900914379027905A9484602F025
:1026300089FA00264FF03C0901223146384601F064
:1026400045FC009002223146384601F03FFC0290E2
:1026500004223146384601F039FCC6F13C0191FBB9
:10266000F9F3024609FB1310C1B23846029B01F090
:10267000A7FF761CF6B21E2EDED3424802F05EF9AA
:102680003220FDF770FE641CE4B2082CFFF45EAF4C
:102690000E98401CC0B20E900228FFF455AF0026E1
:1026A0000020384A01461154401CC0B22E28FAD3EB
:1026B0000020414600EB86022A44127C0A54401C4A
:1026C000C0B20428F6D330484FF0FF37817900912B
:1026D0004379027905A9384602F034FA0024012230
:1026E0002146384601F0F2FB834602222146384655
:1026F00001F0ECFB824604222146384601F0E6FB5D
:10270000C4F13C0191FBF9F3024609FB1310C1B27D
:1027100053463846CDF800B001F052FF641CE4B2D5
:102720001E2CDCD3174802F009F93220FDF71BFEFE
:10273000761CF6B2042EB3D30024124802F0FEF841
:102740003220FDF710FE641CE4B2082CF5D30E48CD
:102750000021817141710171C1708170417011B0AE
:10276000BDE8F08F80100080A05402A0A9550AA8EF
:102770002F456A2A0F01680A060060020000000067
:102780000000000068000020040000202DE9F04F48
:102790008FB030223BA101A8FDF750FDDFF814A156
:1027A00000264FF0FF3800BFFDF7F0FCC11700EB2B
:1027B000917121F003010AF12904401A2070FDF7FC
:1027C000E5FCC11700EB917121F00301401A607024
:1027D000FDF7DCFCC11700EB917121F00301401AF9
:1027E000A070002506EB4607002001A90DF1340278
:1027F00000EB850303EBC703CB5C1354401CC0B252
:102800000428F5D30AF12A004178009103789AF858
:1028100029200DA9404601F0A5FE00244FF03C09F7
:1028200001222146404601F051FB00900222214640
:10283000404601F04BFB834604222146404601F00E
:1028400045FBC4F13C0191FBF9F3024609FB13106F
:10285000C1B25B46404601F0B3FE641CE4B21E2CDC
:10286000DED3154802F06AF83220FDF77CFD6D1CBE
:10287000EDB2062DB8D3761CF6B2022E94D30FB06B
:10288000BDE8F08F80080080C01C01C0E03E03E07E
:10289000F07F07F0F8FF8FF8FDFFDFFC0200200259
:1028A000070070060F80F80E1FC1FC1E3FE3FE3EBE
:1028B0007FF7FF7E04000020680000202DE9F04F24
:1028C0008DB0282237A101A8FDF7B8FCFDF75EFC0A
:1028D000C117DFF8F8A000EB917121F003010AF1B4
:1028E0002904401A2070FDF751FCC11700EB9171CB
:1028F00021F00301401A6070FDF748FCC11700EB9E
:10290000917121F00301401A0025A0700DF1040B14
:102910006E1E00205A460BA900EB8503D35C0B54B6
:10292000401CC0B20428F7D30AF12A004178009174
:1029300003789AF829200BA9304601F013FE0024F1
:102940003C2701222146304601F0C0FA814602228E
:102950002146304601F0BAFA80460422214630462C
:1029600001F0B4FA0246C4F13C0090FBF7F107FB1A
:102970001100C1B243463046CDF8009001F020FE70
:10298000641CE4B21E2CDCD3114801F0D7FF3220C6
:10299000FDF7E9FC6D1CEDB20A2DBAD30DB0BDE810
:1029A000F08F000080080080C01C01C0E03E03E002
:1029B000F07F07F0F8FF8FF8FDFFDFFCFFFFFFFE61
:1029C000F8FF8FF8E03E03E080080080040000205C
:1029D000680000202DE9F04F9BB05022514901A81A
:1029E000FDF72CFCFDF7D2FBC11700EB917121F034
:1029F0000301401AC0B21890FDF7C8FBC11700EBE5
:102A0000917121F00301401AC0B21790FDF7BEFB8F
:102A1000C11700EB917121F00301401A00F0FF0B88
:102A2000FDF7B4FBC11700EB917121F00301401ACF
:102A3000C0B21690FDF7AAFBC11700EB917121F00F
:102A40000301401AC0B21590FDF7A0FBC11700EBBF
:102A5000917121F00301401A002400F0FF0A671E63
:102A60000020314A01461154401CC0B22E28FAD32E
:102A7000002001AD0DF1640600EB8401695C315466
:102A8000401CC0B20428F7D3CDF800B0DDE91732FE
:102A90003146384602F056F85FF0000000EB840142
:102AA000294491F828103154401CC0B20428F5D3B1
:102AB000CDF800A0DDE9153219A9384602F042F838
:102AC00000253C2601222946384601F0FFF98146BF
:102AD00002222946384601F0F9F9804604222946A7
:102AE000384601F0F3F90246C5F13C0090FBF6F1DF
:102AF00006FB1100C1B243463846CDF8009001F004
:102B00005FFD6D1CEDB21E2DDCD3074801F016FFF2
:102B10003220FDF728FC641CE4B20A2CA0D31BB0C1
:102B2000BDE8F08F204D0008680000202DE9F14F2E
:102B300098B028224BA108A8FDF780FB002401AE25
:102B4000FDF724FBC11700EB917121F00301401A3E
:102B50003055641CE4B20F2CF2D3002505EB450779
:102B6000B346F05DA0B95E46B819417881B9807866
:102B700070B90024FDF70AFBC11700EB917121F039
:102B80000301401A3919641CE4B27054032CF1D3C8
:102B90006D1CEDB2052DE1D30027002600203B4A35
:102BA00001461154401CC0B22E28FAD318980025B3
:102BB0000DF1200A00EBC0084FF080090024E00866
:102BC00000EB460101EB480104F007021AF801008E
:102BD00029FA02F1084217D07FB305EB450004EB58
:102BE0008001491C3C22B1FBF2F302FB131100EB04
:102BF0000B0393F802C0CDF800C05B781BF80020EF
:102C00004FF0FF3001F0DCFC641CE4B20C2CD6D396
:102C10006D1CEDB2052DD1D31C4801F08FFE322082
:102C2000FDF7A1FB761CF6B20A2EB7D37F1CFFB2CC
:102C3000022FB2D319B0BDE8F08FFFE705EB4502D4
:102C400004EB820137313C20B1FBF0F300FB1311A0
:102C500002EB0B0393F802C0CDF800C05B781BF8C1
:102C60000220CDE704000A001100208040408020AF
:102C7000802060C01B00040004000E001F003F8085
:102C80007FC0FFE0FFE07FC01F000400680000205D
:102C90002DE9F84F0024254601E0002539E0FDF735
:102CA00075FA00F0FF0BFDF771FA00F0FF0A6FF004
:102CB000180104FB01F005EB850100EB410000F178
:102CC0003A096942A4EBC40000EB800001EB8101EA
:102CD000002600EB410000F13A08E70009F0FF018F
:102CE000F8B233460022CDF800B001F007FB08F03F
:102CF000FF01F8B233460022CDF800A001F0FEFA41
:102D00003220FDF730FB761CF6B2032EE6D36D1CA5
:102D1000EDB2C4F10400A842C1DC641CE4B2022C90
:102D2000BBD30024102001F0CBF91E20FDF71BFBC4
:102D3000641CE4B23C2CF5D30024102001F050FABE
:102D40001E20FDF710FB641CE4B23C2CF5D30024DC
:102D5000A246002604EB84094FEAC4080025C6F108
:102D6000020700BF05EB850109EB41003A30C1B213
:102D7000FBB208F0FF000022CDF800A001F0BEFA7F
:102D80006D1CEDB2062DEDD33220FDF7ECFA761C6A
:102D9000F6B2032EE2D3641CE4B2022CD9D3002491
:102DA000254601E000253BE0FDF7F0F900F0FF09C2
:102DB000FDF7ECF900F0FF080026C4F104072BE052
:102DC00005EB85004000A4EB840100EBC100393025
:102DD000C1B2CDF80090ECB35FF0000204EBC40B7D
:102DE0000BF0FF00334601F089FAF6206142684398
:102DF00001EB011100EB41003930C1B2CDF8008088
:102E00004CB300220BF0FF00334601F077FA642048
:102E1000FDF7A9FA761CF6B2B742D1DC6D1CEDB213
:102E2000C4F10400A842BFDC641CE4B2022CB9D394
:102E30005FF0000401F0B0F83220FDF794FA641C52
:102E4000E4B2A02CF6D3002401F07AF83220FDF78A
:102E50008AFA01E008E009E0641CE4B2A02CF3D394
:102E600000242646D34605E00122B7E70122C9E740
:102E7000002625E0C6F10300002504EB4407A0EB83
:102E8000040AC4F1010904EBC40800BF05EB850086
:102E9000400000EB47003930C1B20AF0FF0309F0EF
:102EA000FF0208F0FF00CDF800B001F027FA6D1C1A
:102EB000EDB2062DEAD36420FDF755FA761CF6B282
:102EC000C4F10400B042D5DC641CE4B2022CCFD3C0
:102ED000BDE8F88F2DE9FF5F71A201AB07CAA3E837
:102EE000070000244FF03C0BFDF750F9C7B2002655
:102EF0000DF1040922E0C14600254FF03D0AA0442F
:102F000011E0009719F804003346421CAAEB520264
:102F100005FB0121C0F11000C9B2C0B2224601F088
:102F2000EDF96D1CEDB298F80610BBFBF1F2AA4268
:102F3000E7D86420FDF717FA761CF6B219F80400FA
:102F4000C846401CB6EB500FD5D30CB1012C2DD187
:102F5000002024E000254FEA970A08EB040613E05E
:102F6000CDF800A018F804004223421CA3EB520243
:102F700005FB0121C0F10800C9B2C0B24B46224690
:102F800001F0BCF96D1CEDB2B179BBFBF1F2AA42C4
:102F9000E6D86420FDF7E7F909F10100C0B218F89E
:102FA00004108146491CB0EB510FD3D300251020EB
:102FB00001F086F83220FDF7D6F96D1CEDB23C2DFC
:102FC000F5D30025102001F00BF93220FDF7CBF9E5
:102FD0006D1CEDB23C2DF5D3002624E000254FF00A
:102FE0003D09AA4608EB040713E000BFCDF800A096
:102FF00018F804003346421CA9EB520205FB0121DC
:10300000C0F11000C9B2C0B2224601F077F96D1CC0
:10301000EDB2B979BBFBF1F2AA42E7D86420FDF723
:10302000A2F9761CF6B218F80410491CB6EB510F41
:10303000D4D30CB1012C2CD1002624E00025A946C4
:103040004FF0420A08EB040713E000BFCDF80090F0
:1030500018F80400431CAAEB530205FB0121C0F140
:103060000800C9B2C0B23346224601F047F96D1CD0
:10307000EDB2B979BBFBF1F2AA42E7D86420FDF7C3
:1030800072F9761CF6B218F80410491CB6EB510F11
:10309000D4D3641CE4B2062CFFF426AFBDE8FF9F36
:1030A0000507080A0C0D0A0A0C0C0F0F2DE9F8434E
:1030B000FDF76CF8C11700EB91713A4D21F0030157
:1030C000401A2870FDF762F8C11700EB917121F0EA
:1030D0000301401A6870FDF759F8C11700EB9171B0
:1030E00021F00301401A0024A870A5F12908671EE9
:1030F0004FF03C0901222146384600F0E7FE064623
:1031000002222146384600F0E1FE0546042221460F
:10311000384600F0DBFE024604F11000C1B22B4637
:103120003846009601F04CFA01222146384600F05C
:10313000CDFE064602222146384600F0C7FE05466F
:1031400004222146384600F0C1FE0246C4F12C009C
:10315000C1B22B463846009601F032FA08F1290533
:103160002146A87800906B782A78384601F028FA32
:10317000C4F13C0191FBF9F209FB1210C1B2A8782D
:1031800000906B782A78384601F01AFA064801F068
:10319000D5FB1920FDF7E7F8641CE4B2102CA9D385
:1031A000BDE8F8832D000020680000202DE9F84FCD
:1031B000FCF7ECFFC11700EB9171534E21F00301B6
:1031C000401A3070FCF7E2FFC11700EB917121F05B
:1031D0000301401A7070FCF7D9FFC11700EB917121
:1031E00021F00301401A0024B070A6F1290A651EDF
:1031F0004FF03C0BA14601E00F2C36D204F10F0634
:10320000F1B20122284600F061FE0746F1B2022227
:10321000284600F05BFE8046F1B20422284600F00A
:1032200055FE0246701CC1B243462846009701F085
:10323000C7F9F1B20122284600F048FE0746F1B274
:103240000222284600F042FE8046F1B204222846BF
:1032500000F03CFE0246C4F12C00C1B243462846B1
:10326000009701F0ADF9D0465F4608F129062146E6
:10327000B078009073783278284601F0A1F9C4F153
:103280003C0090FBF7F107FB1100C1B2B078009051
:1032900073783278284601F093F904F10F00C1B237
:1032A00000234E461A462846CDF8009001F088F9D2
:1032B000C4F12D00C1B200231A462846009601F041
:1032C0007FF9A4B1601EC1B200231A4628460096B9
:1032D00001F076F9C4F13D0090FBF7F107FB110016
:1032E000C1B200231A462846009601F069F9074842
:1032F00001F024FB1920FDF736F8641CE4B2102C11
:10330000FFF47AAFBDE8F88F2D00002068000020A0
:103310002DE9F84FFCF73AFFC11700EB9171314CE2
:1033200021F00301401A2070FCF730FFC11700EBB9
:10333000917121F00301401A6070FCF727FFC1175B
:1033400000EB917121F00301401A0026751EA07058
:10335000A4F1290A3C2701E0052E07D20AF12A0030
:103360004178009103789AF8292003E00020034671
:10337000024600900021284601F022F90024012293
:103380002146284600F0A2FD814602222146284619
:1033900000F09CFD804604222146284600F096FD60
:1033A0000246C4F13C0090FBF7F107FB1100C1B2EB
:1033B00043462846CDF8009001F002F9641CE4B2BF
:1033C0001E2CDCD3084801F0B9FA1920FCF7CBFF1A
:1033D000284600F011FE761CF6B20A2EBCD3BDE8DA
:1033E000F88F00002D000020680000202DE9F84F24
:1033F000FCF7CCFEC11700EB91713A4C21F00301B0
:10340000401A2070FCF7C2FEC11700EB917121F049
:103410000301401A6070FCF7B9FEC11700EB91710F
:1034200021F00301401A00256E1EA070A4F1290AA4
:103430003C2701E00F2D3BD00AF12A004178009192
:1034400069060378090E9AF82920304601F0B8F889
:10345000002401222146304600F038FD8046022239
:103460002146304600F032FD814604222146304696
:1034700000F02CFD0246C4F13C0090FBF7F107FB85
:103480001100C1B24B463046CDF8008001F098F8EB
:10349000641CE4B21E2CDCD3134801F04FFA322036
:1034A000FCF761FF6D1CEDB2102DC3D3BDE8F88FA2
:1034B0005FF000040AF12A00417801F00101009157
:1034C00001789AF8290001F0010300F0010260067A
:1034D000010E304601F074F8641CE4B2102CE9D3FC
:1034E000B6E700002D000020680000202DE9F84F0D
:1034F000FCF74CFEC11700EB9171814D21F00301E7
:10350000401A2870FCF742FEC11700EB917121F0C0
:103510000301401A6870FCF739FEC11700EB917186
:1035200021F00301401AA8700024293D2646671E99
:1035300000231A4621463846009601F041F8641CE3
:10354000E4B21E2CF4D3A84600243D46B3463C27E3
:10355000601EC1B200235E461A462846CDF800B070
:1035600001F02EF8C4F11000C1B200231A4628461B
:10357000009601F025F804F10E00C1B200231A46AE
:103580002846009601F01CF8C4F11F00C1B20023C8
:103590001A462846009601F013F808F1290621463C
:1035A000B078009073783278284601F009F8B07846
:1035B0000090C4F10F00C1B273783278284600F051
:1035C000FFFFB078009004F10F00C1B27378327839
:1035D000284600F0F5FFB0780090C4F11E00C1B29B
:1035E00073783278284600F0EBFF0026012231463E
:1035F000284600F06BFC824602223146284600F045
:1036000065FC814604223146284600F05FFC0246F4
:10361000C6F13C0090FBF7F107FB1100C1B24B462D
:103620002846CDF800A000F0CBFF761CF6B21E2E87
:10363000DCD3344801F082F93220FCF794FE641C9C
:10364000E4B2082C84D300264FEA080A0AF12904C0
:10365000A0780090C6F10700C1B2637822782846AE
:1036600000F0AEFFA078009006F10800C1B26378C8
:103670002278284600F0A4FFA0780090C6F116003A
:10368000C1B263782278284600F09AFFA0780090B3
:1036900006F11700C1B263782278284600F090FF47
:1036A000002401222146284600F010FC8146022217
:1036B0002146284600F00AFC80460422214628467E
:1036C00000F004FC0246C4F13C0090FBF7F107FB5C
:1036D0001100C1B243462846CDF8009000F070FFBB
:1036E000641CE4B21E2CDCD3064801F027F932201A
:1036F000FCF739FE761CF6B2082EA7D3BDE8F88F8A
:103700002D000020680000202DE9F84FFCF73EFD59
:10371000C11700EB91718E4D21F00301401A287002
:10372000FCF734FDC11700EB917121F00301401A41
:103730006870FCF72BFDC11700EB917121F00301BC
:10374000401AA8700024293D2646671E00231A4609
:1037500021463846009600F033FF641CE4B21E2C6C
:10376000F4D30024A946BB4600256700B81EC1B2A9
:10377000D8462B462A465846009500F021FF66425F
:10378000112000EB4600C1B200231A4640460095C6
:1037900000F016FF0D2000EB4400C1B200231A46D2
:1037A0004046009500F00CFF202000EB4600C1B21F
:1037B00000231A464046009500F002FF09F1290552
:1037C000F9B2A87800906B782A78404600F0F8FEAD
:1037D000A87800900F2707EB4600C1B26B782A78D3
:1037E000404600F0EDFEA878009007EB4400C1B21F
:1037F0006B782A78404600F0E3FEA87800901E20FF
:1038000000EB4600C1B26B782A78404600F0D8FE43
:10381000002645463C2701223146284600F056FB4B
:10382000824602223146284600F050FB80460422A0
:103830003146284600F04AFB0246C6F13C0090FBA8
:10384000F7F107FB1100C1B243462846CDF800A0AE
:1038500000F0B6FE761CF6B21E2EDCD33D4801F019
:103860006DF83220FCF77FFD3A4801F067F832200E
:10387000FCF779FD641CE4B2052CFFF475AF00265B
:10388000CA46BB460AF129047742A0780090062078
:1038900000EB4700C1B263782278284600F090FE22
:1038A000A0780090072000EB4600C1B26378227830
:1038B000284600F085FEA0780090172000EB470016
:1038C000C1B263782278284600F07AFEA078009092
:1038D000162000EB4600C1B263782278284600F03B
:1038E0006FFE00245F4601222146284600F0EEFAD2
:1038F000814602222146284600F0E8FA804604224A
:103900002146284600F0E2FA0246C4F13C0090FB52
:10391000F7F107FB1100C1B243462846CDF80090ED
:1039200000F04EFE641CE4B21E2CDCD3094801F00A
:1039300005F83220FCF717FD064800F0FFFF3220A3
:10394000FCF711FD761CF6B2042E9BD3BDE8F88F70
:103950002D000020680000202DE9F84FDFF8BC9111
:103960004846FCF723FDDFF8B8A15046FCF71EFDE2
:103970000121082000F0A0F94FF48050ADF80000BC
:1039800010248DF8034003258DF8025069465046F7
:10399000FCF766FD0121082000F08EF96002ADF809
:1039A00000008DF803408DF8025069465046FCF740
:1039B00057FD0121042000F07FF96601ADF8006099
:1039C0008DF803408DF8025069464846FCF748FDE3
:1039D0000121042000F070F92701ADF800708DF886
:1039E00003408DF8025069464846FCF739FD012135
:1039F000082000F061F9A002ADF800008DF8034046
:103A00008DF8025069465046FCF72AFD0121082036
:103A100000F052F94FF40048ADF800808DF80340F3
:103A20008DF8025069465046FCF71AFD0121082026
:103A300000F042F90820ADF800008DF803408DF841
:103A4000025069465046FCF70BFD0121084600F084
:103A500033F901213348FCF753FD0121082000F020
:103A60002BF9ADF800708DF803408DF802506946CF
:103A70005046FCF7F5FC0121082000F01DF9ADF8D7
:103A800000608DF803408DF8025069465046FCF7FF
:103A9000E7FC0121042000F00FF9ADF800808DF85B
:103AA00003408DF8025069464846FCF7D9FC0821CE
:103AB0005046FCF753FD39465046FCF74FFD314662
:103AC0005046FCF74BFD41464846FCF747FD0021B8
:103AD000154C4FF4B8750A46C1EBC10303EB011353
:103AE000002004EB03131A54401C80B2A842FAD3FE
:103AF000491CC9B20329EFD30C4900200A54401CC9
:103B0000C0B23C28FAD3084900202E390A54401C80
:103B1000C0B22E28FAD3BDE8F88F0000000801409B
:103B2000000C0140000230009600002076030020C7
:103B30002DE9F05F3B48A0F12C04217830F81110FA
:103B40004FF08040018501218182374E08213046A7
:103B5000FCF704FD4FF4807A51463046FCF7FEFC3A
:103B600071153046FCF7FAFCDFF8C0B04FF400499D
:103B700049465846FCF7F2FC2D4F16252078C0EB3D
:103B8000C00101EB001007EB001894F82800C0EB0F
:103B9000C00101EB001000EB050C08EB0C0090F8E5
:103BA000143190F8B82090F85C1018F80C0000F070
:103BB00001FE6D1E6DB2002DE0DA4FF480552946EE
:103BC0003046FCF7C9FC29463046FCF7C7FC94F8A0
:103BD000280030B1012806D002281DD0032807D1C3
:103BE0001DE0082100E051464FEA0600FCF7B4FC56
:103BF0002078401CC0B2207002280BD10021217017
:103C000094F82800401CC0B284F82800042801D190
:103C100084F82810BDE8F09F4FF40071E4E74946AE
:103C20005846E3E730000020000C01400008014046
:103C300096000020FEE77047F0B50F21C4780278A7
:103C400001234FF0E026DCB1124C2468457804F4DF
:103C5000E064C4F5E064240AC4F10407E140847818
:103C6000BD400C402C4321010B4C1155007800F055
:103C70001F018B40400906EB8000C0F80031F0BD09
:103C800002F01F008340500906EB8000C0F880312D
:103C9000F0BD00000CED00E000E400E07047000023
:103CA000044A0029D16901D0014300E08143D16178
:103CB0007047000000100240044A0029916901D0B9
:103CC000014300E081439161704700000010024011
:103CD000044A0029D16801D0014300E08143D1604A
:103CE00070470000001002400C48016841F00101DB
:103CF000016041680A4A114041600168094A114067
:103D00000160016821F480210160416821F4FE0115
:103D100041604FF41F0181607047000000100240B5
:103D20000000FFF8FFFFF6FE30B520494A6812F0A8
:103D30000C031F4A03D0042B01D0082B22D00260B1
:103D40004A680F231B4C03EA1212A35C0268DA4094
:103D500042604B68072505EA1323E35C22FA03F36C
:103D600083604B6805EAD323E35C22FA03F2C26066
:103D70004968032303EA9131231F595CB2FBF1F137
:103D8000016130BD4A684B6802F470124FF00204C2
:103D900013F4803F04EB924202D04B689B0301D5A1
:103DA000054B00E0024B5A43C9E7000000100240F7
:103DB00000127A004100002000093D000246002068
:103DC00053090949012B0BD0022B0BD0D1F8241039
:103DD00002F01F02012393400B4200D001207047E4
:103DE0000968F5E7096AF3E70010024002484068F5
:103DF00000F00C007047000000100240034A5168B8
:103E000021F0F001014351607047000000100240B2
:103E10000B490A6822F480320A600A6822F4802280
:103E20000A60B0F5803F07D0B0F5802F03D1086855
:103E300040F4A02008607047086840F48030F9E73B
:103E400000100240034A516821F4E06101435160CF
:103E5000704700000010024003494A6822F4605293
:103E600042EAC000486070470010024001490866FD
:103E70007047000000004242034A5368084323F49D
:103E80007C1318435060704700100240034A516889
:103E900021F003010143516070470000001002400F
:103EA00018B500204FF4A06400903120FFF786FF82
:103EB0000099491C0091A14201D00028F5D0312081
:103EC000FFF77CFF002800D0012018BD01EB410165
:103ED00030B5A1EB520101F102014FEAE17201EBB1
:103EE000527222F00705A1EB0505441C4FF0800338
:103EF000C5F1070123FA05F312D0C0EBC00404EBAF
:103F0000001000EBE2020D481044027890F87001B6
:103F10001A40CA401840C84042EA4000C0B230BD12
:103F200006482E3800EBE2021078D27D1840C840D7
:103F30001A40CA4040EA4200F0E700009600002024
:103F4000F0B5144900200C180F5C94F87061002241
:103F5000531CC3EBC30505EB03150544C2EBC20EAE
:103F60000EEB021211F805C002440D4401F802C024
:103F70000A4495F8705182F87051DAB20F2AE7D3EB
:103F8000401C84F85971C0B284F8C9621728DAD38A
:103F9000F0BD000096000020F0B5164A002013186E
:103FA0005FF0000193F8596193F8C952C1F10E0412
:103FB000C4EBC40707EB0414C1F10F070444C7EBBB
:103FC000C70E0EEB071712F804C00744144402F89A
:103FD00007C01744491C94F87041C9B287F8704172
:103FE0000F29E3D31654401CC0B283F87051172830
:103FF000D5D3F0BD96000020F0B5102833D22F4F56
:10400000C0EBC002002102EB001300BFC1EBC100F6
:1040100000EB011007EB0012D418E07A00F007055E
:104020005FF00000C0F10B06C0F10A0E1E449E4472
:1040300012F806C012F80EE04FEADC0C401C4CEA05
:104040004E1CC0B202F806C00B28EBD3E07A491C24
:1040500000F0F8002843E072D05CC9B2C008D05428
:104060000229D3D3F0BD154900222E39C2EBC2007C
:1040700000EB02135C18E07A00F007065FF0000026
:10408000C0F10B051D44C0F10A0C4F5D9C44FF08B4
:1040900011F80CC0401C47EA4C17C0B24F550B2812
:1040A000EED3E07A521C00F0F8003043E072C85CB6
:1040B000D2B2C008C854022AD8D3F0BD960000205E
:1040C000F0B5464C10282DD0411C2DD0C0EBC002BD
:1040D000002102EB001300BFC1EBC10000EB011097
:1040E00004EB0012D018807D00F070004500002025
:1040F000C0F116061E44975D4FEAD70CC0F11507B4
:104100001F44401CD75DC0B24CEA4717975516288C
:10411000EED3D05C491C45EAD000C9B2D054022984
:10412000DAD3F0BD002526E02C490022B1F12E01A2
:10413000C2EBC20000EB02135818807D00F0700043
:1041400044000020C0F116051D44C0F115074E5D66
:104150001F44F608CF5D401C46EA4716C0B24E55D4
:104160001628EFD3C85C521C44EAD000D2B2C8541F
:10417000022ADDD3F0BDC5EBC50000EB051000221F
:1041800004EB0011C2EBC20000EB0213C818807DE3
:1041900000F0700046000020C0F11607C0F1150EB7
:1041A0001F449E4411F807C011F80EE04FEADC0CE2
:1041B000401C4CEA4E1CC0B201F807C01628EBD3D5
:1041C000C85C521C46EAD000D2B2C854102AD9D3D7
:1041D0006D1CEDB2022DCED3F0BD00009600002084
:1041E0002DE9F0437023434E10282DD0411C2ED0D2
:1041F000C0EBC002002102EB001400BFC1EBC10004
:1042000000EB011006EB0012105D03EA50070020DE
:10421000251802EB050812F805C098F801804FEA4E
:10422000CC0C401C4CEA581CC0B202F805C0162841
:10423000EED31019491C827DC9B247EAC2028275C9
:104240000229DBD3BDE8F0830024B14622E02948EF
:1042500000222E38C2EBC20101EB0215415D03EAD8
:10426000510600216C1804EB000C075D9CF801C09E
:10427000FF00491C47EA5C17C9B207551629F1D35C
:104280002918521C8C7DD2B246EAC4048C75022ACD
:10429000E0D3D7E7C4EBC40101EB0411002209EB22
:1042A000011000BFC2EBC20101EB0215415D03EA40
:1042B000510700216E1800EB060810F806C098F8A8
:1042C00001804FEACC0C491C4CEA581CC9B200F8DA
:1042D00006C01629EED34119521C8D7DD2B247EA91
:1042E000C5058D75102ADDD3641CE4B2022CD1D330
:1042F000A8E7000096000020704700002DE9FF4F5E
:10430000ABB016468B461D46A022704901A8DDF8C9
:10431000E0A0FBF793FF0827002101AA0DE0505C05
:104320000346401EC41700EB5474012000EBE40068
:1043300000FB0370491CC7B2C9B2B142EFD3905D14
:104340000AF00308401E00EBD070C5EB6000CAF312
:104350008109C4B2CAF3011AADE00B46411E4FEA0F
:10436000E17C401E01EB5C7C012100EBD07001EB95
:10437000EC01C5EB600001FB003107EBD4002A9093
:10438000095C04F007038020D840299001420FD037
:1043900004EB0B013C20B1FBF0F300FB13112B9855
:1043A000CDF80080104440B24B46524600F008F968
:1043B00001AA905D411ECB1701EB5373012101EB64
:1043C000E30105EB500301FB03222A99515C299A72
:1043D000114214D004EB0B023C21B2FBF1F301FBC0
:1043E0001321401E00EBD070C5EB60022B98CDF876
:1043F0000080104440B24B46524600F0E1F80DF107
:10440000040C1CF80620501E00EBD070C5EB6001B8
:10441000501EC31700EB53730120121B00EBE30087
:10442000521E00FB02C0CA1701EB527207EBE203F7
:1044300022F00702C05C8B1A8022DA4010420FD0B3
:1044400059443C2091FBF0F200FB1210C1B22B98B2
:10445000CDF80080204440B24B46524600F0B0F800
:1044600001A9885D421ED31702EB5373012202EBB0
:10447000E30202FB041205EB500107EBD10301F04C
:10448000070CD35C802222FA0CF2134211D001EB0C
:104490000B023C21B2FBF1F301FB1321021B2B9811
:1044A000CDF800801044401E40B24B46524600F00A
:1044B00087F8641CE4B201A9885D05EB5002A242B2
:1044C000BFF44BAF2FB0BDE8F08F0000804C000868
:1044D0002DE9FF4F81B00027DDF838909A469346CA
:1044E0000E468025B8460024F05D25FA04F1084206
:1044F00007D004EBC700C1B253465A46CDF800902E
:1045000006E004EBC7000023C1B21A46CDF80080D4
:10451000019800F055F8641CE4B2082CE4D37F1C29
:10452000FFB2072FDFD300244746F07925FA04F1C4
:10453000084207D004F13800C1B253465A46CDF8BC
:10454000009005E004F138000023C1B21A4600973C
:10455000019800F035F8641CE4B2042CE5D305B0F2
:10456000BDE8F08F2DE9FF4F81B00025DDF83890D0
:104570009A4693460F4680260024A046785D26FA88
:1045800004F1084207D004EBC500C1B253465A46B5
:10459000CDF8009006E004EBC5000023C1B21A4636
:1045A000CDF80080019800F00BF8641CE4B2082CF0
:1045B000E4D36D1CEDB2042DDED305B0BDE8F08F61
:1045C0002DE9F8476D468DF80020099C8DF80130E3
:1045D0008DF802406FF0800201EB410410282BD2CD
:1045E0009146284BC0EBC0020021AA4602EB001CFA
:1045F00060180CEBD00500F0070649FA06F01AF82F
:1046000001705A5D07F00108C6F10706024008FA7A
:1046100006F842EA08025A551D4495F870210240F6
:10462000C7F34000B0400243491CC9B285F870216D
:104630000329DDD3BDE8F887DFF848900020A9F111
:104640002E09211809EBD10301F0070C42FA0CF1F5
:1046500015F800801E7808F00107CCF1070C0E4019
:1046600007FA0CF737431F70DE7D0E40C8F3400198
:1046700001FA0CF13143401CC0B2D9750328E0D3D4
:10468000D8E700009600002010B5FFF72DFB00F0E2
:1046900005F8BDE81040482000F07ABA10B5FFF7E1
:1046A00023FB4FF480342046FFF7B2FBFFF7F8FB03
:1046B00015490128487000D0FEE71020FBF760FE86
:1046C0000220FBF769FE0020FFF798FB0020FFF7B0
:1046D000C3FB4FF48060FFF7B5FB4FF4E0112046B9
:1046E000FFF7CAFB0120FFF7C1FB3920FFF766FB8C
:1046F0000028FAD00220FFF7C9FB00BFFFF776FBC6
:104700000828FBD110BD0000000000200CB50021DE
:10471000264801910091026842F4803202604FF411
:10472000A063026802F400320092019A521C0192C6
:10473000009A12B9019A9A42F3D10268920333D5D2
:10474000012100911A490A6842F010020A600A68C1
:1047500022F007020A600A6842F002020A60416819
:10476000416041684160416841F480614160416855
:1047700021F47C114160416841F4E8114160016815
:1047800041F08071016001688901FCD5416821F028
:1047900003014160416841F0020141604168C1F399
:1047A00081010229FAD10CBD00910CBD001002401C
:1047B000002002402DE9F05F01240025204F98469B
:1047C00091468A46834666031E48016821F440717B
:1047D000016024EA0B01C5F109029140026811430E
:1047E000016024EA0A01C5F1080291400268114300
:1047F000016013480C30016821F44041016024EA53
:104800000901C5F10E02914002681143016024EADA
:104810000801C5F10F029140026811430160600672
:10482000040E31463846FBF797FE31463846FBF713
:1048300095FE6D1CEDB2082DC6D3BDE8F09F0000BB
:10484000000C01400C0801400022032324490428E5
:1048500005D22931C0F103004B708A7014E008289A
:1048600003D22931001F4B7027E00C2806D22931D2
:10487000C0F10B0048708B700A707047102805D289
:1048800029310C384A708B7008707047142805D293
:104890002931C0F113004A70887005E0182805D24C
:1048A0001438293148708A700B7070471C2806D262
:1048B000C0F11B02293118384A708870DCE72028C3
:1048C00006D229314A70C0F11F028A701C38DBE71A
:1048D000A0F120032931C0F123004B708A70D3E787
:1048E0000400002070B5144A002000214B1C1C4617
:1048F000C3EBC30505EB03130344C1EBC10606EB91
:104900000111D55C014413445554114493F870319E
:1049100081F87031E1B20F29E8D3074913182E3915
:104920000C5C014483F85941401CC97DC0B283F836
:10493000C9121728D9D370BD9600002070B5154A4A
:1049400000200021C1F10E03C3EBC30404EB0313E9
:104950001C18C1F10F03C3EBC30606EB0313155D6F
:1049600003441444D5541344491C94F87041C9B20B
:1049700083F870410F29E5D306492E390B5C135497
:1049800001441318401CC97DC0B283F87011172868
:10499000D7D370BD96000020704700000F4810B5B7
:1049A000016841F00101016041680D4A1140416018
:1049B00001680C4A11400160016821F48021016006
:1049C000416821F4FE0141604FF41F018160FFF74F
:1049D0009DFE05494FF00060086010BD00100240C8
:1049E0000000FFF8FFFFF6FE08ED00E07FB50121B3
:1049F0000846FFF755F94FF48070ADF8000040F21B
:104A0000DC50ADF8040000244FF08045ADF80240C2
:104A10006946284600F048F80121284600F028F8A9
:104A200001221146284600F037F80121284600F0FF
:104A300022F81C208DF80C008DF80D408DF80E40EA
:104A400001208DF80F0003A8FFF7F6F87FBD10B521
:104A500001218C07204600F018F8002807D0FFF746
:104A600067F82046BDE81040012100F001B810BDF4
:104A7000C943018270470029018802D041F0010139
:104A800001E021F001010180704702460020128AF6
:104A90000A4200D001207047002A828901D00A43CF
:104AA00000E08A438281704730B502881B4B1C4C62
:104AB00098420DD0A0420BD0B0F1804F08D0194DD4
:104AC000A84205D0184DA84202D0184DA84203D1E3
:104AD00022F070054A882A43154DA84206D0154D8C
:104AE000A84203D022F44075CA882A4302808A88EB
:104AF00082850A88028598420AD0A04208D00E4AD0
:104B0000904205D00D4A904202D00D4A904201D108
:104B1000097A01860121818230BD0000002C01400C
:104B2000003401400004004000080040000C004038
:104B300000100040001400400040014000440140CB
:104B4000004801402DE9F84F0025DDF828809946FE
:104B500092460F46834680260024785D26FA04F1AB
:104B6000084209D004EBC500C1B24B465246584634
:104B7000CDF80080FFF724FD641CE4B2082CECD3D0
:104B80006D1CEDB2042DE7D3BDE8F88FFEE7000001
:104B90004FF0E0210A6922F004020A610649C008C8
:104BA00000EB40020870C2EBC0104FF6FF7202EA41
:104BB000C00048807047000000000020FFF764FD3F
:104BC0002E48FFF7B1F8FFF711FFFEF7C5FEFEF71D
:104BD00081F900BFFEF77EF9FEF77CF9FEF758F881
:104BE0000020FDF7A3FFFDF7F5FEFDF767FEFDF7DB
:104BF000CDFDFDF799FCFDF74DFBFDF743FAFDF701
:104C00001DF9FCF73FFFFCF711FEFCF755FD0020F6
:104C1000FCF744FCFCF700FCFCF754FBFCF73CFA07
:104C2000FCF73AF9FCF7ACF8FCF742F8FBF75CFF4D
:104C3000FBF7D2FEFBF718FEFBF79EFD0020FBF70B
:104C4000D5FC0120FBF7D2FC0220FBF7CFFCFEF7DE
:104C50005BFDFEF74BFCFEF7C9FBFEF759FBFEF7C9
:104C6000A5FAFEF723FA0120FDF7A0FB0020FDF7CF
:104C70009DFBFCF7B9FAFBF775FCABE7540000208D
:104C80000507080A0C0D0F10E828F8A0B8F2121258
:104C9000FE90909EFBFB1BFFFFD8DFDFFCC0FCC03B
:104CA0000CC00CC0FFC0FFC0CC00CC00CFC0CFC038
:104CB000FE30FE30063006300630FFF0FFF0C60052
:104CC000C600C600C7F0C7F0FF38FF38FF38073806
:104CD0000738FFF8FFF8FFF8E700E700E7F8E7F824
:104CE000E7F8FF8EFF8EFF8E038E038E038EFFFE8E
:104CF000FFFEFFFEE380E380E380E3FEE3FEE3FEEE
:104D0000FFCFFFCFFFCFFFCF03CF03CFFFFFFFFFCB
:104D1000FFFFFFFFF3C0F3C0F3FFF3FFF3FFF3FF69
:104D200080080080C01C01C0E03E03E0F07F07F077
:104D3000F8FF8FF8FDFFDFFCFFFFFFFEF8FF8FF8A5
:104D4000E03E03E08008008000000000000000005A
:104D500080080080C01C01C0E03E03E0F07F07F047
:104D6000E03E03E08008008000000000000000003A
:104D700080000000C0000000E10000007180000021
:104D800039C200001DE300000F738400073BC6001A
:104D9000031EE700000E778000063DC000001CE007
:104DA00000000C70000000380000001C0000000E25
:104DB000000000060000000280204100000000000A
:104DC00080204100C0204100E0306180F0306180EF
:104DD000F83871C0FC3871C0FE3C79E0FF3C79E0E6
:104DE000FFBE7DF0FFFE7DF0FFFF7FFAFFFF7FFA41
:104DF000FFFFFFFEFFFFFFFE8102080280000000B0
:104E00008002AAAA81000000C1015554C18200009D
:104E1000E18208AAE1C30C00F1C30E54F1E38F0054
:104E2000F9E38F80F9F3CFC2FDF3CFE2FDFBEFF2A0
:104E3000FFFBEFFAFFFFFFFEFFFFFFFE7BDEF7BC8D
:104E40007BDEF7BC7BDEF7BC7BDEF7BC318C631806
:104E5000000000000000000084210842CE739CE6A0
:104E6000CE739CE6CE739CE6CE739CE6CE739CE636
:104E7000CE739CE6CE739CE67E7EFCFC7E7EFCFCC4
:104E80007E7EFCFC7E7EFCFC7E7EFCFC3C3C7878DE
:104E9000181830300000000081810302C3C38786E8
:104EA000E7E7CFCEE7E7CFCEE7E7CFCEE7E7CFCE56
:104EB000E7E7CFCEE7E7CFCED84E000800000020CE
:104EC00054000000280100082C4F00085400002066
:104ED000E40A000044010008000000000000000097
:104EE00000000000000000000000000000000000C2
:104EF00000000000000000000000000000000000B2
:104F0000000000000000000040008000000000746D
:104F1000147C505C0002040608000000000102033B
:0C4F200004010203040607080900000059
:04000005080000ED02
:00000001FF
