:020000040800F2
:10000000300400204501000881040008790400083C
:100010007D040008A9010008990E000800000000F6
:100020000000000000000000000000009D06000825
:10003000AD0100080000000045050008BD070008EC
:100040005F0100085F0100085F0100085F01000810
:100050005F0100085F0100085F0100085F01000800
:100060005F0100085F0100085F0100085F010008F0
:100070005F0100085F0100085F0100085F010008E0
:100080005F0100085F0100085F0100085F010008D0
:100090005F0100085F0100085F0100085F010008C0
:1000A0005F0100085F0100085F0100085F010008B0
:1000B000210800085F0100085F0100085F010008D7
:1000C0005F0100085F0100085F0100085F01000890
:1000D0005F0100085F0100085F0100085F01000880
:1000E0005F0100085F0100085F0100085F01000870
:1000F0005F0100085F0100085F0100085F01000860
:100100005F0100085F0100085F0100085F0100084F
:100110005F0100085F0100085F0100085F0100083F
:100120005F0100085F0100085F0100085F0100082F
:10013000DFF80CD000F026F800480047110F000847
:10014000300400200648804706480047FEE7FEE7E7
:10015000FEE7FEE7FEE7FEE7FEE7FEE7FEE7FEE777
:10016000C10700083101000830B5044600200346ED
:1001700000E05B1C934203D2E05CCD5C401BF8D0F6
:1001800030BD0000064C074D06E0E06840F001037A
:1001900094E8070098471034AC42F6D3FFF7CCFF41
:1001A000F41000081411000800BFFEE770470000BB
:1001B00030B5044604254FF4302000F083F805469E
:1001C000042D17D10C48006940F002000A4908616B
:1001D00008464461006940F0400008614FF4302057
:1001E00000F070F805460448006941F6FD710840CA
:1001F00001490861284630BD0020024004200C4916
:10020000C96801F00101012901D101200EE008496E
:10021000C96811F0040F01D0022007E00449C96841
:1002200011F0100F01D0032000E0042070470000FF
:10023000002002400348006940F080000149086145
:100240007047000000200240F0B504460D46042629
:100250000027F00200F036F80646042E22D112489C
:10026000006940F00100104908612580F00200F0AB
:1002700029F80646042E0ED1A71C280C3880F0025F
:1002800000F020F806460848006941F6FE71084073
:100290000549086106E00448006941F6FE7108401E
:1002A000014908613046F0BD002002400248034980
:1002B00048600348486070472301674500200240BA
:1002C000AB89EFCD00B502460423FFF797FF034645
:1002D00003E0FFF793FF0346521E012B01D1002AD2
:1002E000F7D102B90523184600BD000008B5012169
:1002F000202000F049F94FF47060ADF800000320B1
:100300008DF8020010208DF803006946014800F0C6
:1003100003F808BD001401402DE9F0410246002514
:100320000026002000230024002791F803C00CF0D1
:100330000F0591F803C01CF0100F03D091F802C014
:100340004CEA0505B1F800C01CF0FF0F31D014686D
:1003500000202BE04FF0010C0CFA00F3B1F800C0C4
:100360000CEA03069E4220D183004FF00F0C0CFADA
:1003700003F7BC4305FA03FC4CEA040491F803C0FC
:10038000BCF1280F06D14FF0010C0CFA00FCC2F8AA
:1003900014C00AE091F803C0BCF1480F05D14FF03A
:1003A000010C0CFA00FCC2F810C0401C0828D1D384
:1003B0001460B1F800C0BCF1FF0F34DD54680020B8
:1003C0002EE000F1080C4FF0010808FA0CF3B1F828
:1003D00000C00CEA03069E4221D183004FF00F0CAF
:1003E0000CFA03F7BC4305FA03FC4CEA040491F849
:1003F00003C0BCF1280F05D100F1080C08FA0CF875
:10040000C2F8148091F803C0BCF1480F07D100F185
:10041000080C4FF0010808FA0CF8C2F81080401CD4
:100420000828CED35460BDE8F08141617047016176
:10043000704700000B4800680B4908600B480068D3
:1004400048600B4800688860084600684FEA500022
:10045000496800EB91000449896800EBD100054927
:1004600008607047E8F7FF1F20000020ECF7FF1F2F
:10047000F0F7FF1F0000002000BFFEE700BFFEE70F
:10048000704708B54FF4E06000F052F81C208DF87A
:10049000000000208DF801008DF8020001208DF889
:1004A0000300684600F002F808BD000070B50021A6
:1004B00000230F22C4784CB31A4C246804F4E0647F
:1004C000C4F5E0644FEA1421C1F1040322FA01F2F9
:1004D000447804FA03F1847804EA020444EA01014E
:1004E0004FEA0111104C0678A155047804F01F055D
:1004F0004FF0010404FA05F405784FEA65154FF052
:10050000E02606EB8505C5F8004109E0047804F013
:100510001F050124AC40054D0678761145F82640AC
:1005200070BD00000CED00E000E400E080E100E0C0
:1005300002490143024A1160704700000000FA05B9
:100540000CED00E07047000029B1064AD269024371
:10055000044BDA6104E0034AD2698243014BDA6159
:10056000704700000010024029B1064A1269024398
:10057000044B1A6104E0034A12698243014B1A6179
:10058000704700000010024029B1064A92690243F8
:10059000044B9A6104E0034A92698243014B9A61D9
:1005A000704700000010024029B1064AD268024399
:1005B000044BDA6004E0034AD2688243014BDA60FC
:1005C000704700000010024030B5002100220024D6
:1005D00000232D4D6D6805F00C0121B1042905D0D3
:1005E000082923D105E0294D056022E0274D05604B
:1005F0001FE0254D6D6805F47012234D6D6805F4FC
:100600008034022505EB92421CB9214D554305600B
:100610000BE01D4D6D6815F4003F03D01C4D554394
:10062000056002E0194D5543056002E0174D056075
:1006300000BF00BF144D6D6805F0F0010909154DAC
:100640006B5C0568DD4045600F4D6D6805F4E06149
:10065000090A104D6B5C4568DD4085600A4D6D6888
:1006600005F46051C90A0B4D6B5C4568DD40C560FF
:10067000054D6D6805F44041890B074D6B5CC568FD
:10068000B5FBF3F5056130BD0010024000127A00A1
:1006900000093D0005000020150000207047000003
:1006A00010B51048046810480068844217D0FFF75E
:1006B000FDFD601C02D00B48FFF77AFD0A48016877
:1006C0000848FFF7C1FDFFF7B5FD06480468064876
:1006D0000068844201D1012010BD0020FCE7012008
:1006E000FAE7000000F001080000002010B500F05B
:1006F00001F810BD002100202E4A126842F4803219
:100700002C4B1A6000BF2B4A126802F40030491CBF
:1007100010B9B1F5A06FF6D1264A126812F4003F65
:1007200001D0012000E00020012842D1224A1268B5
:1007300042F01002204B1A601A46126822F003029F
:100740001A601A46126842F002021A60194A526888
:10075000184B5A601A4652685A601A46526842F458
:1007600080625A601A46526822F47C125A601A4615
:10077000526842F4E8125A601A46126842F08072D7
:100780001A6000BF0B4A126812F0007FFAD0094AC3
:10079000526822F00302074B5A601A46526842F030
:1007A00002025A6000BF034A526802F00C02082A93
:1007B000F9D170470010024000200240704700004D
:1007C00010B51348006840F0010011490860084660
:1007D0004068104908400E494860084600680E49C4
:1007E00008400B4908600846006820F48020086033
:1007F0000846406820F4FE0048604FF41F008860FF
:10080000FFF774FF4FF000600449086010BD00005E
:10081000001002400000FFF8FFFFF6FE08ED00E0C8
:1008200010B50121880700F06BF9A0B301218807FA
:1008300000F039F818480078A0B14FF480711748DB
:10084000FFF7F5FD4FF400711448FFF7F0FD4FF48A
:1008500080611248FFF7EBFD4FF400610F48FFF78E
:10086000E6FD13E04FF480710C48FFF7DEFD4FF416
:1008700000710A48FFF7D9FD4FF480610748FFF780
:10088000D4FD4FF400610548FFF7CFFD0248007822
:10089000C0430149087010BD04000020001401404D
:1008A000CA4302827047CA430282704721B102885C
:1008B00042F00102028004E002884FF6FE731A4003
:1008C000028070470EB501210846FFF73DFE4FF04C
:1008D000804000F021F84FF4FA60ADF8040048F6CB
:1008E0009F40ADF800000020ADF80600ADF8020012
:1008F00069464FF0804000F021F901218807FFF799
:10090000CFFF01221146900700F00BF90121880763
:10091000FFF7CCFF0EBD000010B5044668488442C6
:1009200008D10121C014FFF73FFE0021E014FFF7BA
:100930003BFEC4E0B4F1804F08D101210846FFF727
:1009400013FE00210120FFF70FFEB8E05D4884424E
:1009500008D101210220FFF707FE00210220FFF746
:1009600003FEACE05848844208D101210420FFF77F
:10097000FBFD00210420FFF7F7FDA0E0534884426F
:1009800008D101210820FFF7EFFD00210820FFF723
:10099000EBFD94E04E48844208D101211020FFF77E
:1009A000E3FD00211020FFF7DFFD88E04948844285
:1009B00008D101212020FFF7D7FD00212020FFF7DB
:1009C000D3FD7CE04448844208D101214014FFF764
:1009D000EBFD00216014FFF7E7FD70E03F48844223
:1009E00009D10121C804FFF7DFFD00214FF40020E9
:1009F000FFF7DAFD63E03A48844209D10121080596
:100A0000FFF7D2FD00214FF48010FFF7CDFD56E037
:100A10003448844209D101214805FFF7C5FD002172
:100A20004FF40010FFF7C0FD49E02F48844208D181
:100A300001214020FFF798FD00214020FFF794FDA1
:100A40003DE02A48844208D101218020FFF78CFD37
:100A500000218020FFF788FD31E02548844208D13D
:100A600001218015FFF780FD0021A015FFF77CFD17
:100A700025E02048844209D101210804FFF794FDB4
:100A800000214FF48030FFF78FFD18E01A488442B0
:100A900009D101214804FFF787FD00214FF4003000
:100AA000FFF782FD0BE01548844208D1012188043C
:100AB000FFF77AFD00214FF48020FFF775FD10BD90
:100AC000002C01400004004000080040000C0040E1
:100AD000001000400014004000340140004C014070
:100AE000005001400054014000180040001C00402C
:100AF0000020004000400140004401400048014007
:100B000030B50246002000230024158A05EA0103BF
:100B1000958905EA010413B10CB1012000E0002021
:100B200030BD10B51AB183890B43838104E08389FA
:100B3000CC43A4B22340838110BD00000022028870
:100B40001D4B98420ED01D4B98420BD0B0F1804FF8
:100B500008D01B4B984205D01A4B984202D01A4B32
:100B6000984204D14FF68F731A404B881A43174BA3
:100B7000984207D0164B984204D04FF6FF431A40D4
:100B8000CB881A4302808B8883850B8803850A4BA8
:100B900098420BD0094B984208D00E4B984205D092
:100BA0000D4B984202D00D4B984201D10B7A03862F
:100BB0000123838270470000002C01400034014073
:100BC0000004004000080040000C004000100040FD
:100BD0000014004000400140004401400048014032
:100BE0000448016804480068814201D00020704731
:100BF0000120FCE700F001080000002021B18289FB
:100C000042F40052828104E082894DF6FF731A405B
:100C10008281704700B585B0012144F20400FFF7DE
:100C2000B3FC4FF40070ADF8100018208DF81300DD
:100C300003208DF8120004A91A48FFF76DFB4FF44A
:100C40008060ADF8100004208DF8130003208DF8AB
:100C5000120004A91348FFF75FFB4FF4E130009046
:100C60000020ADF80400ADF80600ADF80800ADF8BE
:100C70000C000C20ADF80A0069460B4800F048F85B
:100C8000012240F22551084800F01DF8012240F2EF
:100C90002771054800F017F801210348FFF7AEFF60
:100CA00005B000BD000801400038014002460020A8
:100CB000B1F5007F00D100BF13880B4201D00120A5
:100CC00000E000207047F0B5034600240026002510
:100CD0000020A1F510676A3F00D100BF1846C1F39C
:100CE000421401F01F06012707FA06F5012C01D175
:100CF0000C3004E0022C01D1103000E014301AB1A5
:100D000007682F43076002E00768AF430760F0BD44
:100D10002DE9F04786B005460E460024A24600BFE6
:100D2000A1460027B08900B100BF2F462C8A4CF69F
:100D3000FF700440F08804432C82AC894EF6F31017
:100D40000440B08831890843718908430443AC8169
:100D5000AC8A4FF6FF400440B0890443AC8201A83E
:100D6000FFF732FC1F48874202D1DDF810A001E0F6
:100D7000DDF80CA0A88910F4004F08D00AEBCA00D7
:100D800000EB0A1031684900B0FBF1F807E00AEB0C
:100D9000CA0000EB0A1031688900B0FBF1F864204A
:100DA000B8FBF0F004012009642101FB1089A88937
:100DB00010F4004F08D0322000EBC900B0FBF1F076
:100DC00000F00700044308E0322000EB0910642122
:100DD000B0FBF1F000F00F0004432C8106B0BDE839
:100DE000F08700000038014001468888C0F3080001
:100DF0007047000038B500240020009018E000BFC4
:100E000020211648FFF752FF0028F9D01348FFF7BA
:100E1000EBFFC2B22046611C8CB20DF80020601EB0
:100E20001DF800000D2802D1601E84B200E000BF52
:100E3000042CE4DB04220AA16846FFF795F950B1BF
:100E4000042209A16846FFF78FF920B108A000F03D
:100E500025F8002038BD0120FCE7000000380140E3
:100E6000636F646500000000434F444500000000CC
:100E7000C7EBCAE4C8EBBCD3C3DCC3FCC1EE206340
:100E80006F6465BBF2434F4445200D0A000000002B
:100E9000C1F308028280704700BFFEE7014A0249A1
:100EA00000F013B8ED0E00081C00002002E008C896
:100EB000121F08C1002AFAD170477047002001E0D4
:100EC00001C1121F002AFBD170472DE9F0410446F1
:100ED0000F461646002503E03946B0476D1C641CDA
:100EE00020780028F8D12846BDE8F08170B5044686
:100EF0000D46E1B20548FFF7CBFF00BF4021034894
:100F0000FFF7D4FE0028F9D0204670BD003801401C
:100F1000FFF7ECF9FFF7B5FAFFF7D4FCFFF77AFE1D
:100F20001A48FFF7BBFF19484830FFF7B7FF1748CB
:100F30009030FFF7B3FF15484830FFF7AFFF134875
:100F4000FFF7ACFFFFF776FAFFF74AFE012804D15E
:100F50000FA0FFF7A3FF00BFFEE713A0FFF79EFF60
:100F600017A0FFF79BFF10E000BFFFF743FF00282B
:100F7000FBD0FFF795FB012804D119A0FFF78EFFE6
:100F800000BFFEE720A0FFF789FFEDE71C10000877
:100F9000B4CBCFB5CDB3BCD3C3DCD7D6B7FBBACFB8
:100FA00021200D0A00000000B4CBCFB5CDB3C3BBE8
:100FB000D3D0BCD3C3DCD7D621200D0A000000005B
:100FC000C7EBCAE4C8EBBCD3C3DCC3FCC1EE2063EF
:100FD0006F6465BBF2434F4445200D0A00000000DA
:100FE000D2D1BEADCEAAB4CBCFB5CDB3C9E8D6C3AE
:100FF000BCD3C3DCD7D621C7EBB8B4CEBBCFB5CDFD
:10100000B3200D0A00000000C9E8D6C3BCD3C3DC7E
:10101000D7D6CAA7B0DC21200D0A00002A2A2A2A26
:101020002A2A2A2A2A2A2A2A2A2A2A2A2A2A2A2A20
:101030002A2A2A2A2A2A2A2A2A2A2A2A2A2A2A2A10
:101040002A2A2A2A2A2A2A2A2A2A2A2A2A2A2A2A00
:101050002A2A2A2A2A2A2A2A2A2A2A2A2A2A0D0A2D
:10106000000000002A2020202020202020202020F6
:101070002020202020202020202020202020202070
:101080002020202020202020202020202020202060
:101090002020202020202020202020202020202050
:1010A00020202020202A0D0A000000002A202054A1
:1010B00068616E6B20796F7520666F722075736939
:1010C0006E672048592D4669726542756C6C2056D2
:1010D000312E3020446576656C6F706D656E7420BE
:1010E000426F6172642021205E5F5E20202A0D0A1B
:1010F0000000000014110008000000202000000083
:10110000AC0E00083411000820000020100400007C
:10111000BC0E0008000000000000000000010203F7
:10112000040102030406070809020406080000007F
:0411300000000000BB
:0400000508000131BD
:00000001FF
