:020000040800F2
:100000007804002045010008152500080D0A0008A5
:1000100011250008FD060008212D00080000000041
:10002000000000000000000000000000C1290008DE
:10003000010700080000000017250008212B000818
:100040005F0100085F0100085F0100085F01000810
:100050005F0100085F0100085F0100085F01000800
:100060005F0100085F0100085F0100085F010008F0
:100070005F0100085F0100085F0100085F010008E0
:100080005F0100085F0100085F0100085F010008D0
:100090005F0100085F0100085F0100085F010008C0
:1000A0005F0100085F0100085F0100085F010008B0
:1000B0005F0100085F0100085F0100085F010008A0
:1000C0005F0100085F0100085F0100085F01000890
:1000D0005F0100085F0100085F0100085F01000880
:1000E0005F0100085F0100085F0100085F01000870
:1000F0005F0100085F0100085F0100085F01000860
:100100005F0100085F0100085F0100085F0100084F
:100110005F0100085F0100085F0100085F0100083F
:100120005F0100085F0100085F0100085F0100082F
:10013000DFF80CD000F09EFA00480047192F0008A5
:10014000780400200648804706480047FEE7FEE79F
:10015000FEE7FEE7FEE7FEE7FEE7FEE7FEE7FEE777
:10016000512B00083101000840EA01039B0703D02E
:1001700009E008C9121F08C0042AFAD203E011F8E6
:10018000013B00F8013B521EF9D27047D2B201E0A8
:1001900000F8012B491EFBD270470022F6E710B58C
:1001A00004460846114602462046FFF7EFFF204668
:1001B00010BD2DE9FE4F074681EA0300C00F0E4631
:1001C000019021F0004123F00044B81AA14105D26A
:1001D0003846314617461E460B46024623F000407D
:1001E000104304D13846314603B0BDE8F08F350DD9
:1001F000C5F30A00C3F30A510290401A0090402848
:1002000067DAC3F3130040F4801B0198924620B1D3
:100210000023D2EB030A63EB0B0B00985946C0F1A5
:100220004002504600F094F980460C46504659462C
:10023000009A00F0ACF9C0197141EF1785EA11532B
:100240003B433FD0019A4AB3009A012A11DC0022B5
:10025000801A61EB05514FF0004303EA0555CDE9E3
:100260000025801841F580114246234600F0AEF982
:10027000BAE72E050025401B61EB0601401941F548
:100280008012001852412818A6F5001343EB020112
:1002900040EAD47018EB0808644113E064084FEAA0
:1002A00038084FF0000244EAC0744FEA0553801A40
:1002B00061EB0301801841F5801149084FEA3000D5
:1002C000801859414246234603B0BDE8F04F00F084
:1002D00070B90198012240000023D0EB020263EBC9
:1002E000E07301984FEAE074381A66EB0401EBE71B
:1002F00083F000435DE781F000415AE72DE9FE4FAE
:1003000081EA030421F0004504F0004423F0004199
:100310004FF0000A009450EA050302D052EA0103AC
:1003200004D10020014603B0BDE8F08FC1F30A53A9
:10033000C5F30A542344A3F2F3330193A0FB02B3A1
:10034000C5F3130545F4801CC1F3130141F4801873
:100350000CFB023300FB083E810A930A41EA8C51F0
:1003600043EA8853A1FB03474FEA9C2505FB03732F
:100370004FEA982601FB06373D05260545EA143568
:10038000BBEB06016EEB0503850E920E45EA8C155C
:1003900042EA8812A5FB0206261E67EB00070C0D39
:1003A00044EA0334A61947EB1350C1F313044FF08A
:1003B00000031946E5FB02014FEA033545EA1455EF
:1003C000019B4FEA0432009CA3F10C03CDE900A489
:1003D00045EA060502932B4600F0F8F8A3E72DE95D
:1003E000F04D81EA030404F0004B21F0004714466D
:1003F0004FF0000A23F0004150EA070220D054EAEF
:1004000001021DD0C1F30A550246C1F31300C7F320
:100410000A56C7F3130340F4801143F48013A6EB8C
:100420000508101BD64608F2FD3873EB010002D315
:1004300008F1010801E092185B41B8F1000F03DAFE
:1004400000200146BDE8F08D00204FF480150646DF
:1004500007460EE0B2EB040C73EB010C04D3121B45
:10046000064363EB01032F436D084FEA30009218F7
:100470005B4150EA050CEDD152EA030012D082EA4A
:10048000040083EA0105284303D100224FF0004312
:1004900008E0101B8B4102D20122002302E06FF022
:1004A000010253101AEB060047EB085110EB0A004B
:1004B00041EB0B01BDE8F04D00F07BB80EB5C10F6C
:1004C00080EAE0700844CA07002140F233438DE817
:1004D0000E000A460B4600F079F803B000BD0EB5D9
:1004E000002240F23343CDE9002202931346114625
:1004F00000F06CF803B000BDC1F30A52C1F3130160
:1005000040F2FF3341F480119A4201DA0020704733
:1005100040F233439A42A2F2334202DC524200F0EC
:1005200026B890407047000030B5002904DB4FF03A
:100530000044404264EB0101002B04DB4FF0004417
:10054000524264EB03038B4208BF824230BD00007D
:10055000202A04DB203A00FA02F100207047914083
:10056000C2F1200320FA03F3194390407047202A78
:1005700004DB203A21FA02F00021704721FA02F34D
:10058000D040C2F120029140084319467047202A0A
:1005900006DBCB17203A41FA02F043EAE07306E0AB
:1005A00041FA02F3D040C2F12002914008431946BB
:1005B000704710B5002B08DA401C41F10001921879
:1005C0005B411A4301D120F0010010BD2DE9FF4D20
:1005D000934611B1B1FA81F202E0B0FA80F2203212
:1005E0009246FFF7B5FF039A0746884640EA0B009C
:1005F00011435B46084304D13846414604B0BDE888
:10060000F08D114653EA020016D0CAF14002584656
:10061000FFF7ADFF04460D464FF00106584652461F
:100620000399FFF795FF084300D10026344345EABC
:10063000E675274345EA08080E984FF00005A0EB41
:100640000A014FEAD7200A314FEA47532A4640EAC7
:1006500048504FEAD82402D500200146CEE728189A
:1006600044EB0151DDE90C45001904B06941BDE8D6
:10067000F04D9EE7064C074D06E0E06840F00103B0
:1006800094E8070098471034AC42F6D3FFF754FDC6
:10069000A4360008C436000800B585B0012108035F
:1006A00001F06CFF0021144802F052F90020ADF86F
:1006B00000004FF48270ADF802000020ADF8040095
:1006C000ADF80600ADF808004FF40070ADF80A0070
:1006D0002820ADF80C000020ADF80E000720ADF882
:1006E00010006946044802F04DF90121024802F069
:1006F0002FF905B000BD00000030014000BFFEE74B
:10070000704710B5002108E00C2200BF1300A2F1D1
:100710000104E2B2FAD14A1C91B28142F4D310BD75
:10072000F8B504460D464FF6FF73A11E8AB20D3987
:1007300088B200932B46294600F0F0F94FF6FF737C
:1007400000932B4604F10F0082B22946A01C80B210
:1007500000F0E4F94FF6FF73A81E009383B20D3842
:1007600081B22246204600F0D9F94FF6FF7305F119
:100770000F00009383B22246A81C81B2204600F0ED
:10078000CDF94BF6F043E11F8AB2083988B205F182
:100790000F0100938BB289B200F0C0F94BF6F04321
:1007A000A4F10F018AB288B205F10F0100938BB258
:1007B000E91D89B200F0B2F94BF6F043A5F10F063E
:1007C0000093B3B2E61FB2B2A5F10F06B1B2A4F125
:1007D0000F06B0B200F0A2F94BF6F043A5F10F06F8
:1007E0000093B3B2A4F10F06B2B2EE1FB1B2A4F1FE
:1007F0000F06B0B200F092F94BF6F04305F10F008E
:10080000009383B204F10F0082B205F10F0081B2B0
:10081000E01D80B200F082F94BF6F04305F10F00C5
:10082000009383B204F10F0082B2E81D81B204F19B
:100830000F0080B200F072F94BF6F043A5F10F0003
:10084000009383B281B204F10F0082B2E01D80B246
:1008500000F064F94BF6F043E81F009383B20838C8
:1008600081B204F10F0082B280B200F057F9F8BDF6
:100870002DE9F04102460025002600200023002437
:10088000002791F803C00CF00F0591F803C01CF08D
:10089000100F03D091F802C04CEA0505B1F800C072
:1008A0001CF0FF0F31D0146800202BE04FF0010C3A
:1008B0000CFA00F3B1F800C00CEA03069E4220D106
:1008C00083004FF00F0C0CFA03F7BC4305FA03FC4E
:1008D0004CEA040491F803C0BCF1280F06D14FF094
:1008E000010C0CFA00FCC2F814C00AE091F803C035
:1008F000BCF1480F05D14FF0010C0CFA00FCC2F816
:1009000010C0401C0828D1D31460B1F800C0BCF15D
:10091000FF0F34DD546800202EE000F1080C4FF08A
:10092000010808FA0CF3B1F800C00CEA03069E4275
:1009300021D183004FF00F0C0CFA03F7BC4305FAEA
:1009400003FC4CEA040491F803C0BCF1280F05D164
:1009500000F1080C08FA0CF8C2F8148091F803C0F2
:10096000BCF1480F07D100F1080C4FF0010808FA5C
:100970000CF8C2F81080401C0828CED35460BDE8A3
:10098000F0810246002093680B4201D0012000E074
:100990000020704741617047016170472DE9F843BD
:1009A00005460E4614469846DDF8209000BF14F820
:1009B000017B43463A4631462846CDF8009001F087
:1009C000ABFDE82D03DA05F1080085B209E0B6F5C4
:1009D000987F04DA002506F1100086B201E00025B8
:1009E000002620780028E2D1BDE8F88370B50546DE
:1009F0000C46A4F12000044A02EB00111022284604
:100A0000FFF7B2FB70BD0000B430000800BFFEE786
:100A100070B505460024244800780A2803D02248EF
:100A200000780B2820D10021022001F053FD002185
:100A3000032001F04FFD0021042001F04BFDEF21C8
:100A4000052001F047FD0021062001F043FD0021B3
:100A5000072001F03FFD0121082001F03BFD3F216F
:100A6000092001F037FD03E00021084601F0A4FC55
:100A70000E48006820F480500D49C1F80C044FF076
:100A8000220001F003FD002403E0284601F0E2FC0F
:100A9000641CB4F5963FF8D30448006840F48050D5
:100AA0000349C1F80C0470BD000000200C14014083
:100AB0000010014008B50121602001F05FFD4FF6F4
:100AC000FF70ADF8000003208DF8020010208DF8B3
:100AD000030069460F48FFF7CBFE4FF46040ADF8C6
:100AE000000003208DF8020010208DF803006946F5
:100AF0000948FFF7BDFE4FF48050ADF80000032019
:100B00008DF8020010208DF8030069460248FFF7B7
:100B1000AFFE08BD00180140001401402DE9F05F50
:100B200004460D4691469A46DDF828B04C4503DD53
:100B30000FFA89F7A146BCB2554503DD0FFA8AF7D3
:100B4000AA46BDB2A9EB04000FFA80F8AAEB050093
:100B500006B2B8F1000F0BD100BF5A462946204615
:100B600001F064FC681C85B2AA45F6DABDE8F09F86
:100B700056B900BF5A462946204601F057FC601C72
:100B800084B2A145F6DAF1E7B04521DDC8EB4600B5
:100B900007B215E05A462946204601F047FC601C82
:100BA00084B2002F08DD681C85B27000022101FBB1
:100BB0001800384407B203E0022000FB067007B2B9
:100BC0004C45E7D15A462946204601F02FFC20E04B
:100BD000C6EB480007B215E05A462946204601F008
:100BE00025FC681C85B2002F08DD601C84B27000F3
:100BF000022101FB1800384407B203E0022000FB89
:100C0000067007B25545E7D15A462946204601F0FD
:100C10000DFC00BFAAE7000010B5FFF74BFF002056
:100C200001F0ACFB0446A4F51340253801D0C01EEA
:100C30007DD10120FF4908701021E72001F04AFC16
:100C40000121002001F046FC4FF48071012001F0E9
:100C500041FC4FF4E061022001F03CFC41F2300124
:100C6000032001F037FC0021042001F033FC40F2A6
:100C70000721082001F02EFC0021092001F02AFCA8
:100C800000210A2001F026FC01210C2001F022FCA9
:100C900000210D2001F01EFC00210F2001F01AFCA4
:100CA0000021102001F016FC0721112001F012FC98
:100CB0000021122001F00EFC0021132001F00AFC9B
:100CC000322002F07BF841F29051102001F002FC3A
:100CD00040F22721112001F0FDFB322002F06EF8D6
:100CE0009C21122001F0F6FB322002F067F84FF44D
:100CF000C851132001F0EEFB2321292001F0EAFB6B
:100D00000E212B2001F0E6FB322002F057F80021E3
:100D1000202001F0DFFB0021212001F0DBFB32204D
:100D200002F04CF80721302001F0D4FB00E089E00C
:100D300040F20771312001F0CDFB0621322001F095
:100D4000C9FB40F20471352001F0C4FB41F6047187
:100D5000362001F0BFFB0421372001F0BBFB00214E
:100D6000382001F0B7FB40F20671392001F0B2FBE8
:100D700040F201713C2001F0ADFB0F213D2001F05C
:100D8000A9FB322002F01AF80021502001F0A2FB4A
:100D9000EF21512001F09EFB0021522001F09AFB2F
:100DA00040F23F11532001F095FB4FF427416020A2
:100DB00001F090FB0121612001F08CFB00216A20F1
:100DC00001F088FB0021802001F084FB00218120BC
:100DD00001F080FB0021822001F07CFB00218320B8
:100DE00001F078FB0021842001F074FB00218520B4
:100DF00001F070FB1021902001F06CFB002192208B
:100E000001F068FB0321932001F064FB4FF488712B
:100E1000952001F05FFB0021972001F05BFB002192
:100E2000982001F057FB40F23311072001F052FBEC
:100E30000021202001F04EFB0021212001F04AFB7F
:100E400001F05BBAA4F51340203802D0B4F5134F7B
:100E50007ED10020774908700021084601F03AFB56
:100E60004FF48071012001F035FB4FF4E061022066
:100E700001F030FB41F21801032001F02BFB0021AF
:100E8000042001F027FB40F20221082001F022FBA0
:100E90000021092001F01EFB00210A2001F01AFBAD
:100EA00001210C2001F016FB00210D2001F012FBA6
:100EB00000210F2001F00EFB642001F07FFF40F2C3
:100EC0000111072001F006FB642001F077FF4FF4C9
:100ED0008651102001F0FEFA0721112001F0FAFAE4
:100EE0004FF48871122001F0F5FA4FF430611320AD
:100EF00001F0F0FA0021292001F0ECFA44F210018F
:100F00002B2001F0E7FA0021502001F0E3FAEF2155
:100F1000512001F0DFFA0021522001F0DBFA40F20B
:100F20003F11532001F0D6FA4FF41C51602001F01C
:100F3000D1FA0121612001F0CDFA00216A2001F0EF
:100F4000C9FA0021802001F0C5FA0021812000E0CB
:100F500030E001F0BFFA0021822001F0BBFA00214D
:100F6000832001F0B7FA0021842001F0B3FA0021B8
:100F7000852001F0AFFA1021902001F0ABFA00219A
:100F8000922001F0A7FA0121932001F0A3FA4FF477
:100F90008871952001F09EFA0021972001F09AFABD
:100FA0000021982001F096FA40F27311072001F019
:100FB00091FA45E7A4F5134031387ED103201D494D
:100FC000087041F21401E72001F084FA4FF48071B7
:100FD000012001F07FFA4FF40071022001F07AFA4B
:100FE00041F23001032001F075FA40F2022108209D
:100FF00001F070FA0021092001F06CFA00210A20AA
:1010000001F068FA00210C2001F064FA00210D20A3
:1010100001F060FA00210F2001F05CFA002110209D
:1010200001F058FA0721112001F054FA0021122092
:1010300002E000000000002001F04CFA0021132023
:1010400001F048FAC82001F0B9FE41F29061102089
:1010500001F040FA40F22721112001F03BFA322042
:1010600001F0ACFE0C21122001F034FA322001F024
:10107000A5FE4FF40061132001F02CFA1121292064
:1010800001F028FA0B212B2001F024FA322001F084
:1010900095FE0021202001F01DFA0021212001F001
:1010A00019FA0021302001F015FA4FF48371312034
:1010B00001F010FA0021322000E077E001F00AFA96
:1010C0004FF40171352001F005FA41F20A61362032
:1010D00001F000FA40F20771372001F0FBF94FF4FC
:1010E0008371382001F0F6F940F20771392001F0E0
:1010F000F1F940F202413C2001F0ECF940F60F41D9
:101100003D2001F0E7F90021502001F0E3F9EF2143
:10111000512001F0DFF90021522001F0DBF940F20B
:101120003F11532001F0D6F94FF41C51602001F01B
:10113000D1F90121612001F0CDF900216A2001F0EF
:10114000C9F90021802001F0C5F90021812001F0BA
:10115000C1F90021822001F0BDF90021832001F0B6
:10116000B9F90021842001F0B5F90021852001F0B2
:10117000B1F91021902001F0ADF94FF4C061922037
:1011800001F0A8F92121072001F0A4F9322001F093
:1011900015FE6121072001F09DF9322001F00EFEBD
:1011A00040F23311072001F095F949E6A4F5194002
:1011B00019387DD10D20FF4908700621282001F043
:1011C00089F90121002001F085F90021102001F0AA
:1011D00081F947F2EF21012001F07CF94FF4C06161
:1011E000022001F077F946F63821032001F072F968
:1011F00046F67401112001F06DF900210F2001F075
:1012000069F945F208310B2001F064F903210C2043
:1012100001F060F90A210D2001F05CF94FF438511A
:101220000E2001F057F9BE211E2001F053F94FF4B2
:101230000041252001F04EF94FF4F041262001F045
:1012400049F97821272001F045F900214E2001F0CD
:1012500041F900214F2001F03DF940F6D90112205B
:1012600001F038F90021302001F034F94FF4827197
:10127000312001F02FF94FF48071322001F02AF96A
:1012800040F20531332001F025F940F205513420B8
:1012900001F020F940F20531352001F01BF940F250
:1012A0000771362001F016F94FF44071372000E045
:1012B00010E001F00FF94FF490513A2001F00AF9D3
:1012C0004FF400613B2001F005F93321072001F0C4
:1012D00001F9B5E5A4F5A850053802D010F5805005
:1012E0007ED10920B34908700021072001F0F2F8EF
:1012F000322001F063FD4FF48E71122001F0EAF804
:101300000121A42001F0E6F80F21082001F0E2F805
:1013100008210A2001F0DEF808210D2001F0DAF89A
:1013200040F20771302001F0D5F80721312001F09B
:10133000D1F840F20361322001F0CCF84FF4E061C3
:10134000332001F0C7F840F20221342001F0C2F846
:101350000221352001F0BEF841F60F71362001F070
:10136000B9F840F20771372001F0B4F800213820B5
:1013700001F0B0F80021392001F0ACF840F207711B
:101380003A2001F0A7F800213B2001F0A3F8072143
:101390003C2001F09FF800213D2001F09BF8322015
:1013A00001F00CFD0121072001F094F80121172024
:1013B00001F090F8322001F001FD4FF4BD511020F2
:1013C00001F088F840F21721112001F083F84FF462
:1013D0008F71122001F07EF84FF47061132000E04D
:1013E00094E001F077F800212A2001F073F80A2137
:1013F000292001F06FF84FF49F71122001F06AF874
:101400000021502001F066F8EF21512001F062F830
:101410000021522001F05EF840F23F11532001F00C
:1014200059F84FF41C51602001F054F8012161205B
:1014300001F050F800216A2001F04CF800218020D2
:1014400001F048F80021812001F044F800218220B9
:1014500001F040F80021832001F03CF800218420B5
:1014600001F038F80021852001F034F81321902094
:1014700001F030F84FF44071922001F02BF8052173
:10148000932001F027F80021952001F023F8002196
:10149000972001F01FF80021982001F01BF84FF46D
:1014A0008071012001F016F84FF4E061022001F094
:1014B00011F841F23001032001F00CF80021042062
:1014C00001F008F800210C2001F004F800210F20A1
:1014D00001F000F80021202000F0FCFF0021212075
:1014E00000F0F8FF2121072000F0F4FFC82001F0F0
:1014F00065FC6121072000F0EDFFC82001F05EFCD3
:1015000040F27311072000F0E5FF99E4A4F50940CB
:1015100089387ED10520274908700121002000F07C
:10152000D9FF322001F04AFC4AF6A401032000F062
:10153000D1FF322001F042FC00210C2000F0CAFF54
:10154000322001F03BFC40F60C010D2000F0C2FF00
:10155000322001F033FC4FF42C510E2000F0BAFF82
:10156000322001F02BFCB0211E2000F0B3FF32200E
:1015700001F024FC42F63F31012000F0ABFF3220A5
:1015800001F01CFC4FF4C061022000F0A3FF3220E8
:1015900001F014FC0021102000F09CFF322001F02B
:1015A0000DFC46F27001112000F094FF322001F092
:1015B00005FC01E0000000200021052000F08AFF6A
:1015C000322001F0FBFB0021062000F083FF3220D7
:1015D00001F0F4FB4EF61C71162000F07BFF322068
:1015E00001F0ECFB0321172000F074FF322001F022
:1015F000E5FB40F23311072000F06CFF322001F0D0
:10160000DDFB00210B2000F065FF322001F0D6FB4E
:1016100000E0B7E000210F2000F05CFF322001F075
:10162000CDFB0021412000F055FF322001F0C6FB28
:101630000021422000F04EFF322001F0BFFB0021CC
:10164000482000F047FF322001F0B8FB40F23F1184
:10165000492000F03FFF322001F0B0FB00214A207A
:1016600000F038FF322001F0A9FB00214B2000F0F0
:1016700031FF322001F0A2FB4FF46F41442000F013
:1016800029FF322001F09AFB0021452000F022FFC3
:10169000322001F093FB40F23F11462000F01AFF88
:1016A000322001F08BFB40F20771302000F012FF76
:1016B000322001F083FB4FF40171312000F00AFF6A
:1016C000322001F07BFB4FF40171322000F002FF69
:1016D000322001F073FB40F20251332000F0FAFE99
:1016E000322001F06BFB40F20751342000F0F2FE93
:1016F000322001F063FB4FF40171352000F0EAFE67
:10170000322001F05BFB4FF40171362000F0E2FE65
:10171000322001F053FB40F20251372000F0DAFE94
:10172000322001F04BFB40F202313A2000F0D2FEB1
:10173000322001F043FB40F202313B2000F0CAFEB0
:10174000322001F03BFB0021232000F0C3FE3220B9
:1017500001F034FB0021242000F0BCFE322001F017
:101760002DFB4FF40041252000F0B4FE322001F0A3
:1017700025FB00214F2000F0ADFE00214E2000F09F
:10178000A9FE16E4A4F5094099387ED10420FF494A
:1017900008700621282000F09DFE0121002000F0A5
:1017A00099FE4AF6A461032000F094FE04210C2067
:1017B00000F090FE0C210D2000F08CFE4FF4205123
:1017C0000E2000F087FEB5211E2000F083FE43F6B8
:1017D0003F31012000F07EFE4FF4C061022000F096
:1017E00079FE0021102000F075FE46F63001112030
:1017F00000F070FE0021052000F06CFE00210620A4
:1018000000F068FE4EF61C71162000F063FE3321D6
:10181000072000F05FFE00210B2000F05BFE00219E
:101820000F2000F057FE0021412000F053FE002160
:10183000422000F04FFE0021482000F04BFE40F215
:101840003F11492000F046FE00214A2000F042FEF0
:1018500000214B2000F03EFE4FF46F41442000F089
:1018600039FE0021452000F035FE40F23F114620B0
:1018700000F030FE00214E2000F02CFE00214F2011
:1018800000F028FE40F2077100E04BE0302000F04D
:1018900021FE40F20221312000F01CFE4FF40171C4
:1018A000322000F017FE40F20251332000F012FE09
:1018B00040F20751342000F00DFE4FF40171352045
:1018C00000F008FE4FF40171362000F003FE40F2F4
:1018D0000251372000F0FEFD40F202313A2000F0C4
:1018E000F9FD40F202313B2000F0F4FD00212320FD
:1018F00000F0F0FD0021242000F0ECFD4FF4004149
:10190000252000F0E7FD4FF4E041262000F0E2FD45
:101910004BF2EB01202000F0DDFD7C21272000F0C0
:10192000D9FD42E4A4F5A84008387ED108209749A3
:1019300008704101012000F0CDFD4FF4E06102206C
:1019400000F0C8FD41F23001032000F0C3FD00218A
:10195000042000F0BFFD40F20721082000F0BAFD8E
:101960000021092000F0B6FD00210A2000F0B2FDA0
:1019700000210C2000F0AEFD00210D2000F0AAFD9A
:1019800000210F2000F0A6FD322001F017FA40F2EE
:101990000111072000F09EFD322001F00FFA41F204
:1019A000B061102000F096FD0121112000F092FDA1
:1019B0000121172000F08EFD4FF49C71122000F0E1
:1019C00089FD4FF40061132000F084FD09212920D6
:1019D00000F080FD09212A2000F07CFD0021A420D8
:1019E00000F078FD0021502000F074FDEF2151201F
:1019F00000F070FD0021522000F06CFD40F23F111C
:101A0000532000F067FD4FF41C51602000F062FD90
:101A10000321612000F05EFD00216A2000F05AFDE4
:101A20000021802000F056FD00E02AE00021812006
:101A300000F050FD0021822000F04CFD00218320A9
:101A400000F048FD0021842000F044FD00218520A5
:101A500000F040FD1321902000F03CFD0021922079
:101A600000F038FD0321932000F034FD4FF488711D
:101A7000952000F02FFD40F27311072000F02AFDA1
:101A800027E4A4F58A4031387ED107203F49087009
:101A90000121002000F01EFD4FF4C561102000F070
:101AA00019FD0621122000F015FD40F63221132009
:101AB00000F010FD4021112000F00CFD50211520F8
:101AC00000F008FD1621122000F004FD322001F084
:101AD00075F945F26061102000F0FCFC322001F045
:101AE0006DF942F64E21132000F0F4FC4FF48071A2
:101AF000012000F0EFFC4FF44071022000F0EAFCFE
:101B000041F23001032000F0E5FC40F20221082000
:101B100000F0E0FC00210A2000F0DCFC0021302075
:101B200000F0D8FC40F20241312000F0D3FC4FF429
:101B30008371322000F0CEFC4FF4E061332000F0DE
:101B4000C9FC4FF48271342000F0C4FC40F2013132
:101B5000352000F0BFFC40F20771362000F0BAFCDF
:101B600040F20531372000F0B5FC4FF40271382007
:101B700000F0B0FC40F60B71392000F0ABFC3220D5
:101B800001F01CF9022103E031E000000000002018
:101B9000412000F09FFC4FF41C51602000F09AFCA3
:101BA0000121612000F096FC40F21911902000F014
:101BB00091FC4FF48571922000F08CFC042193205D
:101BC00000F088FC4FF48071A02000F083FC3220EC
:101BD00001F0F4F840F23311072000F07BFC3220D2
:101BE00001F0ECF80021A02000F074FC85E3A4F5DE
:101BF0008A4035387ED10C20FF49087030211520ED
:101C000000F068FC10219A2000F064FC20211120D3
:101C100000F060FC43F22841102000F05BFC022140
:101C2000122000F057FC41F23801132000F052FC62
:101C3000282001F0C3F81221084600F04BFC2820B0
:101C400001F0BCF843F22041102000F043FC43F2C5
:101C50004501132000F03EFC462001F0AFF80021C2
:101C6000302000F037FC40F20241312000F032FC1D
:101C700040F20731322000F02DFC4FF44171332047
:101C800000F028FC0421342000F024FC40F2014143
:101C9000352000F01FFC40F20771362000F01AFCDE
:101CA00040F20531372000F015FC4FF4C2613820B6
:101CB00000F010FC4FF4C261392000F00BFC4FF42F
:101CC0008071012000F006FC4FF44071022000F00A
:101CD00001FC41F23001032000F0FCFB40F608015A
:101CE000082000F0F7FB08210A2000F0F3FB4FF476
:101CF0001C5100E034E0602000F0ECFB0121612089
:101D000000F0E8FB4FF49F71902000F0E3FB4FF4EC
:101D10008071922000F0DEFB4FF48071932000F080
:101D2000D9FB4FF44051A02000F0D4FB1021A32098
:101D300000F0D0FB0121072000F0CCFB212107207F
:101D400000F0C8FB2321072000F0C4FB332107204B
:101D500000F0C0FB40F23311072000F0BBFBCCE2E7
:101D6000472C7DD10A20A44908700021EA2000F008
:101D7000B1FB2021EB2000F0ADFB0C21EC2000F0AA
:101D8000A9FBC421ED2000F0A5FB4021E82000F0D4
:101D9000A1FB3821E92000F09DFB0121F12000F09A
:101DA00099FB1021F22000F095FBA321272000F0E1
:101DB00091FB0121402000F08DFB0021412000F02B
:101DC00089FB0021422000F085FB1021432000F018
:101DD00081FB0E21442000F07DFB2421452000F0F2
:101DE00079FB0421462000F075FB5021472000F0CC
:101DF00071FB0221482000F06DFB1321492000F007
:101E000069FB19214A2000F065FB19214B2000F0E5
:101E100061FB16214C2000F05DFB1B21502000F0DF
:101E200059FB3121512000F055FB2F21522000F0A9
:101E300051FB3F21532000F04DFB3F21542000F087
:101E400049FB3E21552000F045FB2F21562000F094
:101E500041FB7B21572000F03DFB0921582000E089
:101E600065E000F037FB0621592000F033FB062126
:101E70005A2000F02FFB0C215B2000F02BFB1D21D2
:101E80005C2000F027FBCC215D2000F023FB182113
:101E90001B2000F01FFB01211A2000F01BFB152165
:101EA000242000F017FB5021252000F013FB8B218C
:101EB000232000F00FFB3621182000F00BFB01213E
:101EC000192000F007FB0021012000F003FB88210E
:101ED0001F2000F0FFFA322000F070FF80211F2049
:101EE00000F0F8FA322000F069FF90211F2000F086
:101EF000F1FA322000F062FFD0211F2000F0EAFA50
:101F0000322000F05BFF0521172000F0E3FA0021EA
:101F1000362000F0DFFA3821282000F0DBFA3220EA
:101F200000F04CFF3C21282000F0D4FAE5E1A4F5B4
:101F3000EE4083385FD106202F4908700121FF2031
:101F400000F0C8FA0821F32000F0C4FA4FF48071C1
:101F5000012000F0BFFA4FF4E061022000F0BAFA6D
:101F600041F23001032000F0B5FA40F202310820BE
:101F700000F0B0FA40F20721082000F0ABFA00218F
:101F8000092000F0A7FA00210A2000F0A3FA00219E
:101F9000102000F09FFA0521112000F09BFA00218B
:101FA000122000F097FA0021132000F093FA32205B
:101FB00000F004FF41F2B021102000F08BFA322033
:101FC00000F0FCFE0721112000F084FA322000F01E
:101FD000F5FE8B21122000F07DFA322000F0EEFE9B
:101FE0004FF4B851132000F075FA322000F0E6FEED
:101FF0002221292002E05DE00000002000F06AFAC2
:102000000021302000F066FA40F20771312000F024
:1020100061FA40F20551322000F05CFA40F20711FB
:10202000352000F057FA0821362000F053FA00213D
:10203000372000F04FFA40F20221382000F04AFA2F
:102040004FF48371392000F045FA40F202213C2020
:1020500000F040FA4FF481613D2000F03BFA32205D
:1020600000F0ACFE0021502000F034FAEF215120A6
:1020700000F030FA0021522000F02CFA40F23F111B
:10208000532000F027FA4FF42741602000F022FA95
:102090000121612000F01EFA3321902000F01AFA8D
:1020A0000B212B2000F016FA40F23311072000F02C
:1020B00011FA22E1672000F061F90446472CF8D1BB
:1020C0000B20904908700821422000F003FAB42147
:1020D000462000F0FFF94321472000F0FBF91321CF
:1020E000482000F0F7F94721492000F0F3F91421C6
:1020F0004A2000F0EFF936214B2000F0EBF90321E4
:102100004C2000F0E7F946214D2000F0E3F90521CD
:102110004E2000F0DFF910214F2000F0DBF90821FC
:10212000502000F0D7F90A21512000F0D3F9002106
:10213000022000F0CFF90021032000F0CBF90021AC
:10214000042000F0C7F9EF21052000F0C3F90021B9
:10215000062000F0BFF90021072000F0BBF90121A3
:10216000082000F0B7F93F21092000F0B3F90A2058
:1021700000F024FE0621012000F0ACF9C821162051
:1021800000F0A8F99521232000F0A4F9952124203E
:1021900000F0A0F9FF21252000F09CF90221272062
:1021A00000F098F90221282000F094F9022129205A
:1021B00000F090F902212A2000F08CF902212C2055
:1021C00000F088F902212D2000F084F901213A2045
:1021D00000F080F901213B2000F07CF9F0213C2047
:1021E00000F078F900213D2000F074F9142000F08F
:1021F000E5FD3821352000F06DF97821362000F01A
:1022000069F938213E2000F065F90F21402000F0E7
:1022100061F9F021412000F05DF90021382000F043
:1022200059F94921192000F055F90A21932000F0AD
:1022300051F90A2000F0C2FD2021084600F04AF9B9
:1022400003211D2000F046F900211E2000F042F974
:1022500009211F2000F03EF95321442000F03AF9F3
:102260001021452000F036F90A2000F0A7FD0421D6
:102270001C2000F02FF9142000F0A0FD8021432045
:1022800000F028F9052000F099FD0A211B2000F03C
:1022900021F9282000F092FD12211B2000F01AF9EC
:1022A000282000F08BFD7F21902000F013F90421FD
:1022B000262000F00FF9282000F080FD24212620A0
:1022C00000F008F92C21262000F004F9282000F065
:1022D00075FD0821702000F0FDF83C21262000F05B
:1022E000F9F80221572000F0F5F80021552000F000
:1022F000F1F80021572000F0EDF8322000F05EFDEB
:1023000010BD0000000000201849096841F4005188
:10231000174AC2F80C141146D1F80C1441F480414C
:10232000C2F80C141146D1F80C1421F400410F4AE4
:1023300011604FF044310F4A11600D4AC2F8001885
:102340001146D1F8081888B20B49096888B24FF0D5
:102350003331084A1160064AC2F800181146D1F814
:102360000C1441F40041C2F80C1470470C140140E5
:1023700000100140041801400818014070B50446DF
:102380000B48006820F480500A49C1F80C0420462C
:1023900000F07CF8FFF7B8FF05460648D0F80C04BB
:1023A00040F480500349C1F80C04284670BD000079
:1023B0000C1401400010014070B504460D461A4847
:1023C0000078001F0A2806D2DFE800F00E0F05058E
:1023D00005051918052A2146202000F07BF829461A
:1023E000212000F077F81CE000BF21464E2000F0CD
:1023F00071F829464F2000F06DF812E000BF21125D
:10240000022000F067F82146032000F063F829124B
:10241000062000F05FF82946072000F05BF800E096
:1024200000BF00BF70BD00000000002070B5064670
:102430000C461546F02E02DAB4F5A07F00DB70BD25
:1024400021463046FFF7B8FF2946222000F042F827
:1024500000BFF4E70B49096841F400510A4AC2F889
:102460000C141146C1F80C08D1F80C1421F4804169
:10247000C2F80C141146D1F80C1441F48041014A01
:10248000116070470C140140001001400F490968A9
:1024900021F400510E4AC2F80C141146D1F80C1464
:1024A00041F40041C2F80C141146C1F80C08D1F8EF
:1024B0000C1421F48041C2F80C141146D1F80C140C
:1024C00041F48041014A1160704700000C14014042
:1024D0000010014070B505460C460B48006820F41A
:1024E00080500A49C1F80C042846FFF7CFFF204668
:1024F000FFF7B0FF0548D0F80C0440F480500349C2
:10250000C1F80C0470BD00000C1401400010014023
:1025100000BFFEE7704770472DE9FF5F06460F4694
:1025200090469946DDF838B041466846FEF75EFAB7
:1025300000241FE01DF804A0002517E0C5F10700E6
:102540004AFA00F010F0010F07D03A1991B272194F
:1025500090B24A46FFF76AFF06E03A1991B2721943
:1025600090B25A46FFF762FF681C85B2082DE5DB82
:10257000601C84B2102CDDDBBDE8FF9F29B1064A48
:1025800092690243044B9A6104E0034A92698243D0
:10259000014B9A61704700000010024030B50021E5
:1025A0000022002400232D4D6D6805F00C0121B19F
:1025B000042905D0082923D105E0294D056022E032
:1025C000274D05601FE0254D6D6805F47012234D01
:1025D0006D6805F48034022505EB92421CB9214D4B
:1025E000554305600BE01D4D6D6815F4003F03D0A9
:1025F0001C4D5543056002E0194D5543056002E04E
:10260000174D056000BF00BF144D6D6805F0F00167
:102610000909154D6B5C0568DD4045600F4D6D681F
:1026200005F4E061090A104D6B5C4568DD4085608A
:102630000A4D6D6805F46051C90A0B4D6B5C456825
:10264000DD40C560054D6D6805F44041890B074DBF
:102650006B5CC568B5FBF3F5056130BD0010024049
:1026600000127A0000093D001C0000202C00002010
:1026700070B500BF02211A4800F076F90028F9D0A1
:102680000021174800F07CF900BF0121144800F038
:102690006BF90028F9D0124800F06FF905462806BA
:1026A000040C0120FEF72DF800BF02210C4800F0B9
:1026B0005BF90028F9D00021094800F061F900BF5A
:1026C0000121074800F050F90028F9D0044800F033
:1026D00054F905462C43E410C4F30B04204670BDA6
:1026E00000300140F0B597B0002748216846FDF75B
:1026F00054FDFDF7D1FF00BF15A916A800F078FA28
:1027000016984DF8270009A8159940F82710781C4D
:10271000C7B210217248FEF734F908B9092FEBDB74
:10272000092F7ED1DDE90001084402990844032104
:1027300090FBF1F01290DDE903010844059908448B
:10274000032190FBF1F01390DDE90601084408999C
:102750000844032190FBF1F01490DDE91201441AC2
:10276000DDE91301451A12991498461A002C01DD6F
:10277000204600E060420446002D01DD284600E0CE
:1027800068420546002E01DD304600E070420646F4
:10279000022C06DD022D04DD022E02DD002017B022
:1027A000F0BDAC4215DAA64209DA149A12998818DB
:1027B00000EBD071C1F34F014A4A11801EE0DDE900
:1027C0001212881800EBD071C1F34F01454A1180F5
:1027D00014E0AE4209DA149A1299881800EBD0710D
:1027E000C1F34F013F4A118008E0DDE91312881858
:1027F00000EBD071C1F34F013A4A1180DDE90910B5
:1028000001440B980844032190FBF1F01290DDE99C
:102810000C1001440E980844032190FBF1F0139032
:1028200000E05AE0DDE90F1001441198084403214B
:1028300090FBF1F01490DDE91201441ADDE9130177
:10284000451A12991498461A002C01DD204600E022
:1028500060420446002D01DD284600E0684205463E
:10286000002E01DD304600E070420646022C05DDF8
:10287000022D03DD022E01DD002090E7AC4215DAC7
:10288000A64209DA149A1299881800EBD071C1F3A4
:102890004F01144A51801EE0DDE91212881800EB46
:1028A000D071C1F34F010F4A518014E0AE4209DAF2
:1028B000149A1299881800EBD071C1F34F01094A9C
:1028C000518008E0DDE91312881800EBD071C1F3E4
:1028D0004F01044A5180034861E700205FE7000090
:1028E000001001401400002010B540210A48FEF7F6
:1028F00051F80120FDF705FF902000F013FA0120A8
:10290000FDF7FFFEFFF7B4FE044640210248FEF744
:1029100043F8204610BD00000010014010B54021D2
:102920000A48FEF737F80120FDF7EBFED02000F053
:10293000F9F90120FDF7E5FEFFF79AFE0446402174
:102940000248FEF729F8204610BD000000100140A3
:1029500021B1028842F04002028004E002884FF672
:10296000BF731A40028070470246002013890B4251
:1029700001D0012000E0002070470146888970479F
:102980008181704710B50022028802F441520B8801
:102990004C8823438C882343CC8823430C892343CE
:1029A0004C8923438C892343CC8923431A430280D7
:1029B000838B4FF2FF74234083830B8A038210BD05
:1029C000704710B500F002F810BD00000021002093
:1029D0002E4A126842F480322C4B1A6000BF2B4AF8
:1029E000126802F40030491C10B9B1F5A06FF6D19D
:1029F000264A126812F4003F01D0012000E00020B6
:102A0000012842D1224A126842F01002204B1A607B
:102A10001A46126822F003021A601A46126842F03F
:102A200002021A60194A5268184B5A601A465268D4
:102A30005A601A46526842F480625A601A465268D6
:102A400022F47C125A601A46526842F4E8125A6024
:102A50001A46126842F080721A6000BF0B4A126870
:102A600012F0007FFAD0094A526822F00302074BA5
:102A70005A601A46526842F002025A6000BF034A86
:102A8000526802F00C02082AF9D170470010024087
:102A900000200240042808D14FF0E021096941F0EC
:102AA00004014FF0E022116107E04FF0E0210969D5
:102AB00021F004014FF0E02211617047012808D194
:102AC0004FF0E021096941F001014FF0E02211616E
:102AD0000EE0811C08D14FF0E021096921F00101CD
:102AE0004FF0E022116103E000214FF0E0229161FC
:102AF000704710B50146002200230020CB10022BA6
:102B000003D14FF0E024226902E04FF0E024E269B3
:102B100001248C40144201D0012000E0002010BDAF
:102B2000704740B14FF0E021096941F002014FF0D8
:102B3000E022116107E04FF0E021096921F0020174
:102B40004FF0E022116170474FF0E021486170477B
:102B500010B51348006840F00100114908600846AC
:102B60004068104908400E494860084600680E4910
:102B700008400B4908600846006820F4802008607F
:102B80000846406820F4FE0048604FF41F0088604B
:102B9000FFF717FF4FF000600449086010BD000008
:102BA000001002400000FFF8FFFFF6FE08ED00E015
:102BB00070B505460C464FF4784221462846FFF78B
:102BC00035FC4FF478422146681C80B2FFF72EFC9A
:102BD0004FF47842601C81B22846FFF727FC4FF47F
:102BE0007842601C81B2681C80B2FFF71FFC70BD88
:102BF0002DE9F04104460D46FFF776FE064601201A
:102C0000FDF77FFDFFF78AFE074626602F60BDE8CF
:102C1000F081000008B501211420FFF7AFFCE0208F
:102C2000ADF8000018208DF8030003208DF8020095
:102C300069461248FDF71CFE4020ADF80000102048
:102C40008DF8030003208DF8020069460C48FDF75B
:102C50000FFE1020ADF8000048208DF8030003207F
:102C60008DF8020069460648FDF702FE402104483F
:102C7000FDF792FEFDF710FD08BD000000080140C1
:102C80000010014038B5002428E00020FDF7C0FE08
:102C9000002300934FF6FF7316A20A210846FDF7A2
:102CA0007DFE4FF4FA7000F099F81A4A02EB8402A4
:102CB0005188184A32F82400FDF732FD00BFFFF7B3
:102CC00011FD0546002DFAD02888134921F824006B
:102CD000688801EB84014880601CC4B2032CD4DBFB
:102CE0000E4A0D490B4800F033F90020FDF790FE25
:102CF00038BD0000546F7563682063726F7373682A
:102D000061697220746F2063616C696272617465BD
:102D100000000000080000206800002030000020B3
:102D200000BFFEE710B5044600BF02210948FFF7C7
:102D30001BFE0028F9D021460648FFF721FE00BF00
:102D400001210448FFF710FE0028F9D00148FFF7E1
:102D500014FE10BD0030014002E008C8121F08C177
:102D6000002AFAD170477047002001E001C1121F0C
:102D7000002AFBD17047000000B585B06846FFF718
:102D80000DFC6FF00400FFF785FE0020FFF7C9FE81
:102D900007490198B0FBF1F0064908704FF4FA5169
:102DA0000198B0FBF1F00449088005B000BD0000B7
:102DB00000127A000200002004000020002109E037
:102DC000002201E0531C9AB240F275439A42F9DBAB
:102DD0004B1C99B28142F3DB7047000070B504468A
:102DE0001148008800FB04F5B5F1807F01D36FF036
:102DF0007F452846FFF7A8FE0020FFF75FFE012071
:102E0000FFF75CFE00BF1020FFF773FE0749087054
:102E1000084600780128F6D1C01EFFF74FFE0020BB
:102E2000FFF74CFE70BD00000400002006000020EB
:102E30002DE9F04F8BB080460D4614464FF0010B44
:102E400000221346D4E90C613046FDF76DFB5CD0DF
:102E50006888FDF744FB8146D4E902633246FDF7FA
:102E60004DFACDE902012888FDF739FB8146D4E906
:102E700000633246FDF742FACDE90001DDE90223A5
:102E8000FDF797F9CDE90401D4E904633246FDF773
:102E900090F9CDE90601D4E90C633246FDF79FFABB
:102EA000CDE90801FDF728FBA8F800006888FDF7C8
:102EB00016FB8146D4E908633246FDF71FFACDE9D7
:102EC00002012888FDF70BFB8146D4E906633246F0
:102ED000FDF714FACDE90001DDE90223FDF769F9F8
:102EE000CDE90401D4E90A633246FDF762F9CDE980
:102EF0000601D4E90C633246FDF771FACDE9080109
:102F0000FDF7FAFAA8F8020001E04FF0000B58466E
:102F10000BB0BDE8F08F0000FFF77CFEFFF72CFF41
:102F2000FDF77AFEFFF7AEFE0CE0FFF7DBFB044691
:102F3000054A01460548FFF77BFF044A518810887F
:102F4000FFF736FEF1E700003000002018000020F7
:102F50002DE9F04705460C4690464FF001092188BF
:102F60002289891AE38862899A1A5143A28823899F
:102F7000D31A66886289B21A03FB1210FDF79EFA13
:102F8000C8E90C0100221346D8E90C613046FDF770
:102F9000CBFA02D14FF0000989E029882A89891AE1
:102FA000E38862899A1A5143AA882B89D31A6688C2
:102FB0006289B21A03FB1210FDF780FAC8E900011A
:102FC00021882289891AAA882B89D21A51432A88F2
:102FD000D21AA38826899B1B02FB1310FDF76EFAF9
:102FE000C8E902012189AA885143A2882B8902FBE2
:102FF00013116288514322885A4323892E8803FB88
:103000001623E28803FB0212A18871432388AE884D
:1030100003FB1613618903FB0120FDF74FFAC8E992
:1030200004016A886989511AE38862899A1A5143AE
:10303000EB886A899B1A66886289B21A03FB1210B0
:10304000FDF73CFAC8E9060121882289891AEB8834
:103050006A899A1A51436B886A899A1AA3882689C1
:103060009B1B02FB1310FDF729FAC8E9080121890F
:10307000EA885143A3886A8903FB1211628851438D
:1030800022886B895A4323896E8803FB1623E288C2
:1030900003FB0213A18871432688EA8806FB1212FB
:1030A000618902FB0130FDF709FAC8E90A014846C7
:1030B000BDE8F087000000000000000000000000F4
:1030C00000000000000000183C3C3C1818001818D4
:1030D00000000000000000666666000000000000BE
:1030E0000000000000000036367F3636367F363668
:1030F000000000000018183C666030180C06663CA2
:1031000018180000000070D8DA760C18306E5B1BBF
:103110000E000000000000386C6C38606F66663B83
:103120000000000000000018181800000000000057
:10313000000000000000000C18183030303030184B
:10314000180C00000000003018180C0C0C0C0C18A7
:10315000183000000000000000361C7F1C36000004
:1031600000000000000000000018187E1818000081
:1031700000000000000000000000000000001C1C17
:103180000C180000000000000000007E000000009D
:1031900000000000000000000000000000001C1CF7
:1031A0000000000000000006060C0C18183030600B
:1031B000600000000000001E333737333B3B331EF6
:1031C000000000000000000C1C7C0C0C0C0C0C0C13
:1031D000000000000000003C6666060C1830607EAF
:1031E000000000000000003C6666061C0666663CA7
:1031F000000000000000003030363636667F0606DC
:10320000000000000000007E6060607C06060C7814
:10321000000000000000001C18307C666666663CFA
:10322000000000000000007E060C0C181830303042
:10323000000000000000003C6666763C6E66663C5E
:10324000000000000000003C666666663E0C183810
:103250000000000000000000001C1C0000001C1CFE
:103260000000000000000000001C1C0000001C1CEE
:103270000C180000000000060C18306030180C0616
:10328000000000000000000000007E007E00000042
:10329000000000000000006030180C060C183060C0
:1032A000000000000000003C66660C1818001818AA
:1032B000000000000000007EC3C3CFDBDBCFC07F77
:1032C00000000000000000183C6666667E666666C8
:1032D000000000000000007C6666667C6666667C16
:1032E000000000000000003C666660606066663CAE
:1032F00000000000000000786C66666666666C7808
:10330000000000000000007E6060607C6060607E05
:10331000000000000000007E6060607C6060606013
:10332000000000000000003C666660606E66663E5D
:1033300000000000000000666666667E66666666DF
:10334000000000000000003C181818181818183C5D
:103350000000000000000006060606060666663C41
:103360000000000000000066666C6C786C6C66669D
:103370000000000000000060606060606060607ECF
:10338000000000000000006363776B6B6B63636396
:10339000000000000000006363737B6F676363637A
:1033A000000000000000003C666666666666663CDB
:1033B000000000000000007C6666667C6060606063
:1033C000000000000000003C666666666666663CBB
:1033D0000C0600000000007C6666667C6C66666613
:1033E000000000000000003C666030180C06663CDF
:1033F000000000000000007E18181818181818188F
:103400000000000000000066666666666666663C50
:1034100000000000000000666666666666663C188E
:10342000000000000000006363636B6B6B36363690
:103430000000000000000066663418182C666666FE
:1034400000000000000000666666663C1818181848
:10345000000000000000007E06060C183060607E50
:10346000000000000000003C3030303030303030A0
:1034700030303C000000006060303018180C0C0642
:10348000060000000000003C0C0C0C0C0C0C0C0C9A
:103490000C0C3C0000183C6600000000000000001E
:1034A000000000000000000000000000000000001C
:1034B0000000FF00000000181818000000000000C5
:1034C0000000000000000000003C06063E66663E6C
:1034D0000000000000000060607C66666666667C36
:1034E0000000000000000000003C66606060663C78
:1034F0000000000000000006063E66666666663E46
:103500000000000000000000003C66667E60603C39
:10351000000000000000001E3030307E30303030BF
:103520000000000000000000003E66666666663E21
:1035300006067C0000000060607C66666666666663
:103540000000000000001818007818181818187EDD
:103550000000000000000C0C003C0C0C0C0C0C0CCF
:103560000C0C7800000000606066666C786C666623
:103570000000000000000078181818181818187EAD
:103580000000000000000000007E6B6B6B6B6B6343
:103590000000000000000000007C6666666666664B
:1035A0000000000000000000003C66666666663CA5
:1035B0000000000000000000007C66666666667C15
:1035C0006060600000000000003E66666666663E61
:1035D000060606000000000000666E706060606015
:1035E0000000000000000000003E60603C06067C19
:1035F0000000000000000030307E30303030301EDF
:103600000000000000000000006666666666663E18
:1036100000000000000000000066666666663C1858
:10362000000000000000000000636B6B6B6B36361F
:1036300000000000000000000066663C183C666662
:103640000000000000000000006666666666663CDA
:103650000C18F00000000000007E060C1830607EA0
:10366000000000000000000C181818306030181816
:10367000180C00000000001818181818181818184E
:1036800018181800000000301818180C060C18182C
:103690001830000000000071DB8E00000000000008
:1036A00000000000C43600080000002030000000C8
:1036B000582D0008F43600083000002048040000AF
:1036C000682D000800000000000000002D002D0003
:1036D0002D000E01BE00BE00000000000000000032
:1036E00000000000010203040102030406070809A8
:0436F00002040608C2
:0400000508000131BD
:00000001FF
