:020000040800F2
:10000000A8060020890100084B070008F904000831
:10001000FD0400083B020008AD0D000800000000D0
:10002000000000000000000000000000910A00082D
:100030009902000800000000D5070008010C000824
:10004000A3010008A3010008A3010008A301000800
:10005000A3010008A3010008A3010008A3010008F0
:10006000A3010008A3010008A3010008A3010008E0
:10007000A3010008A3010008A3010008A3010008D0
:10008000A3010008A3010008A3010008A3010008C0
:10009000A3010008A3010008A3010008A3010008B0
:1000A000A3010008750C0008A3010008A3010008C3
:1000B0009D0C0008A3010008A3010008A30100088B
:1000C000A3010008A3010008A3010008A301000880
:1000D000A3010008A3010008A3010008A301000870
:1000E000A3010008A3010008A301000800F002F822
:1000F00000F03AF80AA090E8000C82448344AAF188
:100100000107DA4501D100F02FF8AFF2090EBAE885
:100110000F0013F0010F18BFFB1A43F0010318473B
:10012000540D0000740D0000103A24BF78C878C147
:10013000FAD8520724BF30C830C144BF04680C60ED
:10014000704700000023002400250026103A28BF35
:1001500078C1FBD8520728BF30C148BF0B60704739
:100160001FB51FBD10B510BD00F031F81146FFF7E7
:10017000F7FF00F03DFE00F04FF803B4FFF7F2FF89
:1001800003BC00F053F800000948804709480047C5
:10019000FEE7FEE7FEE7FEE7FEE7FEE7FEE7FEE737
:1001A000FEE7FEE704480549054A064B7047000094
:1001B000050C0008ED000008A8000020A80600209B
:1001C000A8020020A80200207047704770477546BB
:1001D00000F028F8AE4605006946534620F00700B7
:1001E000854618B020B5FFF7DDFFBDE820404FF091
:1001F00000064FF000074FF000084FF0000B21F011
:100200000701AC46ACE8C009ACE8C009ACE8C009DD
:10021000ACE8C0098D4670470446AFF30080204625
:10022000FFF7ABFF00487047480000200149182045
:10023000ABBEFEE726000200704700BFFEE70000ED
:100240001348006810F0807F1AD11148006820F030
:1002500080700F4908600846006840F080700860B0
:100260000C48006820F001000A4908600846006850
:1002700040F0010008600020486000BF00BF00BFE0
:100280000448406808B9012070470020FCE70000DE
:10029000FCED00E0001000E070470000054909682F
:1002A00021F01001034A11601146096801431160F1
:1002B000704700000020024001460020034A1068F9
:1002C00000F0380008431060704700000020024032
:1002D00008B50B4800F016F80121102000F07CFA58
:1002E00010208DF8030003208DF802004FF4005019
:1002F000ADF800006946024800F068F808BD00004B
:100300000010014010B504462948844208D101215B
:10031000042000F071FA0021042000F06DFA46E09C
:100320002448844208D10121082000F065FA002108
:10033000082000F061FA3AE01F48844208D1012108
:10034000102000F059FA0021102000F055FA2EE09C
:100350001A48844208D10121202000F04DFA0021E2
:10036000202000F049FA22E01548844208D10121FA
:10037000402000F041FA0021402000F03DFA16E054
:100380001048844208D10121802000F035FA002174
:10039000802000F031FA0AE00B48844207D10121A5
:1003A000801500F029FA0021A01500F025FA10BDF3
:1003B00000080140000C0140001001400014014001
:1003C00000180140001C0140002001402DE9F041CF
:1003D000024600250026002000230024002791F873
:1003E00003C00CF00F0591F803C01CF0100F03D0F0
:1003F00091F802C04CEA050591F800C0BCF1000F6D
:1004000031D0146800202BE04FF0010C0CFA00F3FF
:10041000B1F800C00CEA03069E4220D183004FF0E1
:100420000F0C0CFA03F7BC4305FA03FC4CEA040476
:1004300091F803C0BCF1280F06D14FF0010C0CFA63
:1004400000FCC2F814C00AE091F803C0BCF1480FE8
:1004500005D14FF0010C0CFA00FCC2F810C0401C92
:100460000828D1D31460B1F800C0BCF1FF0F34DD0F
:10047000546800202EE000F1080C4FF0010808FA43
:100480000CF3B1F800C00CEA03069E4221D18300B0
:100490004FF00F0C0CFA03F7BC4305FA03FC4CEACF
:1004A000040491F803C0BCF1280F05D100F1080C39
:1004B00008FA0CF8C2F8148091F803C0BCF1480F98
:1004C00007D100F1080C4FF0010808FA0CF8C2F847
:1004D0001080401C0828CED35460BDE8F08102464D
:1004E000002093680B4201D0012000E000207047FB
:1004F000416170470161704700BFFEE700BFFEE742
:100500002DE9F84307460C4615461E46DDF82080C7
:100510000121404600F060F98DF803508DF802602B
:10052000ADF8004069463846FFF750FFBDE8F88354
:1005300070B505460C460A4830F814102846FFF7F7
:10054000CEFF30B1064830F814102846FFF7D0FF30
:1005500005E0034830F814102846FFF7CBFF70BDC4
:10056000540E00082DE9F04103460C4615462E4F67
:1005700048222E48584304EB440CCCEBC41C00EB3F
:10058000CC0041192A48814202D90020BDE8F081FF
:1005900040F28F30814205D20120DFF898C0CCF8BC
:1005A000000007E040F28F30B1FBF0F0DFF884C0CC
:1005B000CCF800001F48008886B20CE01D48006897
:1005C000401CDFF870C0CCF8000001FB02F0DCF842
:1005D00000C0B0FBFCF701FB02F0DFF858C0DCF80C
:1005E00000C0B0FBFCF80CFB180010B9B7F5803F59
:1005F00004D310480068B0F5803FDFD30D48006891
:100600004FF6FF7C60450AD30A48066001FB02F002
:10061000DFF820C0DCF800C0B0FBFCF701E00648C2
:1006200007600120B2E70000FFFF0F0040420F000B
:1006300071FC8E03080000200C0000202DE9FF5FF4
:1006400080460C4615461E46DDE90FABDDF83890B6
:10065000324629462046FFF785FF20B9012032495E
:100660000870BDE8FF9F0121C80200F0B5F8192706
:100670002E480088401E80B2ADF808002C48008843
:10068000401E80B2ADF804000020ADF80A008DF8DD
:100690000C00ADF8060001A9404600F035FB012131
:1006A000404600F00DFB01221146404600F023FBBE
:1006B0000121404600F00AFBB9F1000F09D0B9F161
:1006C000010F0BD0B9F1020F0DD0B9F1040F14D105
:1006D0000EE04FF4E06000F073F813E04FF4C060F8
:1006E00000F06EF80EE04FF4A06000F069F809E049
:1006F0004FF4407000F064F804E04FF4806000F0C4
:100700005FF800BF00BF8DF800708DF801A08DF874
:1007100002B001208DF80300684600F017F80020B1
:100720000149087000BF9CE7100000200C00002069
:1007300008000020012904D1828942F0010282814F
:1007400002E08289002282817047704770B50021E3
:1007500000230F22C4780CB3164C246804F4E06420
:10076000C4F5E064210AC1F10403CA40447804FAE4
:1007700003F184781440214309010F4C0678A155F8
:10078000047804F01F050124AC4005786D114FF08A
:10079000E02606EB8505C5F8004109E0047804F081
:1007A0001F050124AC40054D0678761145F826401A
:1007B00070BD00000CED00E000E400E080E100E02E
:1007C00002490143024A1160704700000000FA0527
:1007D0000CED00E07047000029B1064A926902431F
:1007E000044B9A6104E0034A92698243014B9A6187
:1007F000704700000010024029B1064AD268024347
:10080000044BDA6004E0034AD2688243014BDA60A9
:1008100070470000001002400F48006840F00100DF
:100820000D490860084640680C4908400A4948607C
:10083000084600680A4908400749086008460068F9
:1008400020F4802008600846406820F4FE004860DC
:100850004FF41F0088607047001002400000FFF84E
:10086000FFFFF6FE30B500210022002400232D4DAD
:100870006D6805F00C0121B1042905D0082923D1A8
:1008800005E0294D056022E0274D05601FE0254D5C
:100890006D6805F47012234D6D6805F480340225EF
:1008A00005EB92421CB9214D554305600BE01D4DEF
:1008B0006D6815F4003F03D01C4D5543056002E000
:1008C000194D5543056002E0174D056000BF00BF9C
:1008D000144D6D6805F0F0010909154D6B5C056854
:1008E000DD4045600F4D6D6805F4E061090A104D6B
:1008F0006B5C4568DD4085600A4D6D6805F46051AC
:10090000C90A0B4D6B5C4568DD40C560054D6D68DF
:1009100005F44041890B074D6B5CC568B5FBF3F5E9
:10092000056130BD0010024000127A0000093D0050
:10093000160000202600002010B5014600220023EA
:1009400000204A11012A02D1094C236806E0022A3C
:1009500002D1074C236A01E0054C636A01F01F02D3
:10096000012494401C4201D0012000E0002010BD71
:10097000001002400248406800F00C007047000080
:100980000010024001460020034A506820F0F000A9
:100990000843506070470000001002401149096888
:1009A00021F480310F4A11601146096821F4802139
:1009B0001160B0F5803F03D0B0F5802F0ED106E076
:1009C0000849096841F48031064A116007E0054989
:1009D000096841F4A021034A116000E000BF00BF94
:1009E000704700000010024001460020034A506892
:1009F00020F4E0600843506070470000001002409F
:100A000001460020034A506820F4605040EAC100CB
:100A100050607047001002400149086670470000AE
:100A20000000424202460020044B586820F47C102B
:100A300042EA01031843014B58607047001002401E
:100A400001460020034A506820F00300084350602C
:100A5000704700000010024038B5002000900024CC
:100A6000002500BF3120FFF767FF05460098401CB6
:100A700000900098B0F5A06F01D0002DF2D0312089
:100A8000FFF75AFF08B1012400E00024204638BDDA
:100A9000704710B500F00AF810BD10B5FFF7BCFEA6
:100AA00000F072F8482000F083F910BD0CB500206A
:100AB000019000903248006840F48030304908606E
:100AC00000BF2F48006800F4003000900198401CDF
:100AD0000190009818B90198B0F5A06FF1D128489D
:100AE000006810F4003F02D00120009001E00020D7
:100AF00000900098012842D12248006840F0100080
:100B0000204908600846006820F007000860084691
:100B1000006840F0020008601948406818494860C1
:100B20000846406848600846406840F48060486075
:100B30000846406820F47C1048600846406840F44D
:100B4000E81048600846006840F08070086000BF08
:100B50000B48006810F0007FFAD00948406820F088
:100B60000300074948600846406840F002004860BA
:100B700000BF0348406800F00C000828F9D10CBD04
:100B8000001002400020024010B5FFF745FE4FF470
:100B90008030FFF703FFFFF75FFF18490870084632
:100BA0000078012827D11020FFF778FB0220FFF7FB
:100BB00083FB0020FFF7E6FE0020FFF721FF4FF444
:100BC0008060FFF711FF4FF4E0114FF48030FFF722
:100BD00029FF0120FFF720FF00BF3920FFF7ACFEFF
:100BE0000028FAD00220FFF72BFF00BFFFF7C2FE5C
:100BF0000828FBD101E000BFFEE710BD0400002083
:100C00007047000010B51348006840F0010011491A
:100C1000086008464068104908400E494860084688
:100C200000680E4908400B4908600846006820F437
:100C3000802008600846406820F4FE0048604FF4B9
:100C40001F008860FFF725FF4FF00060044908602F
:100C500010BD0000001002400000FFF8FFFFF6FE8C
:100C600008ED00E010B50D210148FFF761FC10BD53
:100C70000010014010B50121074800F033F818B109
:100C80000121054800F01CF80121034800F01BF881
:100C9000FFF7E8FF10BD0000002C014010B5012156
:100CA000880700F01FF838B10D210448FFF740FC19
:100CB0000121880700F004F810BD00000010014079
:100CC000CA4302827047CA430282704721B1028838
:100CD00042F00102028004E002884FF6FE731A40DF
:100CE0000280704702460020138A0B4201D0012087
:100CF00000E0002070471AB183890B43838102E032
:100D000083898B4383817047002202881D4B984260
:100D10000ED01D4B98420BD0B0F1804F08D01B4B2A
:100D2000984205D01A4B984202D01A4B984204D1EF
:100D30004FF68F731A404B881A43174B984207D0CF
:100D4000164B984204D04FF6FF431A40CB881A4303
:100D500002808B8883850B8803850A4B98420BD0D1
:100D6000094B984208D00E4B984205D00D4B984243
:100D700002D00D4B984201D10B7A03860123838266
:100D800070470000002C0140003401400004004086
:100D900000080040000C004000100040001400401B
:100DA00000400140004401400048014000BFFEE710
:100DB0004FF0E021096921F004014FF0E0221161B8
:100DC000C21700EB5272D210074B1A7019460978FD
:100DD00001EB4102C2EBC1114FF6FF7202EAC10101
:100DE000024A118070470000120000201400002009
:100DF0000EB5FFF752FE1348FFF734FDFFF768FA10
:100E00001148FFF77FFA10200323024641020090A9
:100E10000D48FFF775FB0B4800680C490860FFF7A9
:100E20000FFA0020009001900346642201460290D0
:100E30000748FFF703FC01210548FFF77BFC00BFD3
:100E4000FEE70000340000200010014030000020C8
:100E5000002C0140010002000400080010002000E6
:100E60004000800000010002000400080010002083
:100E700000400080940E00080000002034000000B4
:100E800028010008C80E0008340000207406000085
:100E90004401000800000000000000000000000005
:100EA000000000000000000000000000000001023F
:100EB00003040102030406070809020406080000EF
:080EC00000000000000000002A
:04000005080000ED02
:00000001FF
