:020000040800F2
:1000000098060020890100086904000831040008EE
:10001000330400083B020008AB08000800000000A1
:10002000000000000000000000000000A906000819
:100030003D020008000000006B040008E107000812
:10004000A3010008A3010008A3010008A301000800
:10005000A3010008A3010008A3010008A3010008F0
:10006000A3010008A3010008A3010008A3010008E0
:10007000A3010008A3010008A3010008A3010008D0
:10008000A3010008A3010008A3010008A3010008C0
:10009000A3010008A3010008A3010008A3010008B0
:1000A000A301000839080008A3010008A301000803
:1000B00065080008A3010008A3010008A3010008C7
:1000C000A3010008A3010008A3010008A301000880
:1000D000A3010008A3010008A3010008A301000870
:1000E000A3010008A3010008A301000800F002F822
:1000F00000F03AF80AA090E8000C82448344AAF188
:100100000107DA4501D100F02FF8AFF2090EBAE885
:100110000F0013F0010F18BFFB1A43F0010318473B
:100120004C0800006C080000103A24BF78C878C161
:10013000FAD8520724BF30C830C144BF04680C60ED
:10014000704700000023002400250026103A28BF35
:1001500078C1FBD8520728BF30C148BF0B60704739
:100160001FB51FBD10B510BD00F031F81146FFF7E7
:10017000F7FF00F0C5FB00F04FF803B4FFF7F2FF04
:1001800003BC00F053F800000948804709480047C5
:10019000FEE7FEE7FEE7FEE7FEE7FEE7FEE7FEE737
:1001A000FEE7FEE704480549054A064B7047000094
:1001B000E5070008ED0000089800002098060020E0
:1001C00098020020980200207047704770477546DB
:1001D00000F028F8AE4605006946534620F00700B7
:1001E000854618B020B5FFF7DDFFBDE820404FF091
:1001F00000064FF000074FF000084FF0000B21F011
:100200000701AC46ACE8C009ACE8C009ACE8C009DD
:10021000ACE8C0098D4670470446AFF30080204625
:10022000FFF7ABFF00487047340000200149182059
:10023000ABBEFEE7260002007047FEE770470000F5
:1002400004490A6822F010020A600A6802430A6040
:100250007047000000200240034A116801F0380195
:1002600001431160704700000020024038B50B4C7C
:10027000204600F015F80121102000F0F7F81021B9
:100280008DF8031003218DF802106114ADF80010F1
:100290006946204600F070F838BD000000100140AB
:1002A00010B52E49884209D10121042000F0ECF854
:1002B0000021BDE81040042000F0E6B8284988423B
:1002C00009D10121082000F0DFF80021BDE810402D
:1002D000082000F0D9B82349884209D10121102013
:1002E00000F0D2F80021BDE81040102000F0CCB89A
:1002F0001D49884209D10121202000F0C5F80021C4
:10030000BDE81040202000F0BFB81849884209D14C
:100310000121402000F0B8F80021BDE81040402045
:1003200000F0B2B81249884209D10121802000F0C2
:10033000ABF80021BDE81040802000F0A5B80D49C1
:1003400088420AD184150121204600F09DF82046FC
:10035000BDE81040002100F097B810BD0008014032
:10036000000C014000100140001401400018014041
:10037000001C0140002001402DE9F0410022CC7812
:1003800004F00F03E406002C01DA8C7823430C7888
:100390000F274FF0010CE4B105680CFA02F40E8847
:1003A0002640A64211D1960007FA06F825EA08056C
:1003B00003FA06F848EA0505CE78282E02D0482E22
:1003C00002D002E0446100E00461521C082AE4D338
:1003D00005600A88FF2A1ED94568002202F1080636
:1003E0000CFA06F40E882640A64210D1960007FAB1
:1003F00006F825EA080503FA06F848EA0505CE7866
:10040000282E00D14461CE78482E00D10461521CC0
:10041000082AE3D34560BDE8F081024600209268D7
:100420000A4200D001207047416170470161704766
:10043000FEE7FEE770B506460C460A4D304635F835
:100440001410FFF7EAFF30B135F814103046BDE85C
:100450007040FFF7E9BF35F814103046BDE8704032
:10046000FFF7E4BF4C09000870477047054A0029B0
:1004700003D0916901439161704791698143916112
:100480007047000000100240054A002903D0D168DF
:100490000143D1607047D1688143D160704700004B
:1004A000001002400C48016841F001010160416800
:1004B0000A4A114041600168094A1140016001681F
:1004C00021F480210160416821F4FE0141604FF474
:1004D0001F01816070470000001002400000FFF81B
:1004E000FFFFF6FE10B5264A516801F00C01254BBE
:1004F000002927D0042927D0082927D00360516874
:1005000001F0F0010909204B5C5C0168E1404160A9
:10051000546804F4E064240A1C5D21FA04F4846045
:10052000546804F46054E40A1B5DD940C160526809
:1005300002F44042920B144B1B1F9A5CB1FBF2F188
:10054000016110BD0360DAE70360D8E7516801F488
:100550007011536803F48033022404EB914133B1EA
:1005600053689B0307D5094B59430160C7E7074B05
:1005700059430160C3E7034B59430160BFE70000E3
:100580000010024000127A000A00002000093D001D
:10059000034600205909094A01290AD002290AD034
:1005A000516A03F01F02012393400B4200D0012047
:1005B00070471168F5E7116AF3E700000010024088
:1005C0000248406800F00C00704700000010024034
:1005D000034A516821F0F001014351607047000067
:1005E000001002400C490A6822F480320A600A684E
:1005F00022F480220A60B0F5803F07D0B0F5802F4A
:1006000003D1086840F4A02008607047086840F4EF
:10061000803008607047000000100240034A5168B3
:1006200021F4E06101435160704700000010024076
:10063000034A516821F4605141EAC000506070479C
:100640000010024001490866704700000000424265
:10065000034B5A6822F47C120843104358607047D9
:1006600000100240034A516821F003010143516028
:10067000704700000010024018B5002000904FF4B1
:10068000A0643120FFF784FF0099491C0091009974
:10069000A14201D00028F4D03120FFF779FF08B142
:1006A000012018BD002018BD704700F00BB810B530
:1006B000FFF7F8FE00F05EF8BDE81040482000F0BB
:1006C000F5B800000CB5002201920092274801689D
:1006D00041F4803101604FF4A063016801F40031FE
:1006E00000910199491C0191009911B90199994210
:1006F000F3D10168890302D50121009100E0009245
:100700000099012930D11A490A6842F010020A60A2
:100710000A6822F007020A600A6842F002020A60D0
:100720004168416041684160416841F480614160D5
:10073000416821F47C114160416841F4E811416055
:10074000016841F08071016001688901FCD5416850
:1007500021F003014160416841F0020141604168BC
:10076000C1F381010229FAD10CBD00000010024042
:100770000020024010B5FFF795FE4FF4803420466C
:10078000FFF730FFFFF778FF14490870012800D009
:10079000FEE71020FFF754FD0220FFF75DFD00206B
:1007A000FFF716FF0020FFF743FF4FF48060FFF7CD
:1007B00035FF4FF4E0112046FFF74AFF0120FFF715
:1007C00041FF3920FFF7E4FE0028FAD00220FFF7AE
:1007D00049FFFFF7F5FE0828FBD110BD00000020FF
:1007E0007047000010B50F48016841F00101016039
:1007F00041680D4A1140416001680C4A1140016096
:10080000016821F480210160416821F4FE0141600A
:100810004FF41F018160FFF748FF05494FF000606A
:10082000086010BD001002400000FFF8FFFFF6FE58
:1008300008ED00E07047000010B5094C012120468A
:1008400000F02CF818B10121204600F021F8012118
:10085000204600F020F8BDE81040FFF7EBBF000095
:10086000002C014010B501218C07204600F016F83D
:10087000002809D00D210548FFF7DCFD2046BDE822
:100880001040012100F004B810BD0000001001402C
:10089000C94301827047C943018270470246002064
:1008A000128A0A4200D001207047FEE74FF0E02193
:1008B0000A6922F004020A610649C008087000EBC8
:1008C0004002C2EBC0104FF6FF7202EAC00048803F
:1008D00070470000020000200849498848434FF053
:1008E000E021486100238B61012008610869C2078B
:1008F00001D0C003FAD50B618B6170470200002064
:10090000FFF7D5FE0E48FFF7EDFDFFF7AFFC0D4CEE
:100910002046FFF7C5FC0A490B4A096811606514B7
:1009200029462046FFF780FD6420FFF7D5FF2946C2
:100930002046FFF77BFD6420FFF7CEFFF0E70000C5
:1009400020000020001001401C00002001000200D7
:100950000400080010002000400080000001000298
:100960000004000800100020004000808C090008EE
:10097000000000202000000028010008AC09000849
:10098000200000207806000044010008000000005C
:100990000000020406080000000001020304010236
:0C09A00003040607080900000000000026
:04000005080000ED02
:00000001FF
