:020000040800F2
:100000009006002089010008FF030008FB03000898
:10001000FD0300083B0200089D07000800000000E7
:1000200000000000000000000000000019060008A9
:100030003D02000800000000010400084907000814
:10004000A3010008A3010008A3010008A301000800
:10005000A3010008A3010008A3010008A3010008F0
:10006000A3010008A3010008A3010008A3010008E0
:10007000A3010008A3010008A3010008A3010008D0
:10008000A3010008A3010008A3010008A3010008C0
:10009000A3010008A3010008A3010008A3010008B0
:1000A000A3010008A3010008A3010008A3010008A0
:1000B000A3010008A3010008A3010008A301000890
:1000C000A3010008A3010008A3010008A301000880
:1000D000A3010008A3010008A3010008A301000870
:1000E000A3010008A3010008A301000800F002F822
:1000F00000F03AF80AA090E8000C82448344AAF188
:100100000107DA4501D100F02FF8AFF2090EBAE885
:100110000F0013F0010F18BFFB1A43F0010318473B
:100120001C0700003C070000103A24BF78C878C1C3
:10013000FAD8520724BF30C830C144BF04680C60ED
:10014000704700000023002400250026103A28BF35
:1001500078C1FBD8520728BF30C148BF0B60704739
:100160001FB51FBD10B510BD00F031F81146FFF7E7
:10017000F7FF00F03FFB00F04FF803B4FFF7F2FF8A
:1001800003BC00F053F800000948804709480047C5
:10019000FEE7FEE7FEE7FEE7FEE7FEE7FEE7FEE737
:1001A000FEE7FEE704480549054A064B7047000094
:1001B0004D070008ED000008900000209006002088
:1001C00090020020900200207047704770477546EB
:1001D00000F028F8AE4605006946534620F00700B7
:1001E000854618B020B5FFF7DDFFBDE820404FF091
:1001F00000064FF000074FF000084FF0000B21F011
:100200000701AC46ACE8C009ACE8C009ACE8C009DD
:10021000ACE8C0098D4670470446AFF30080204625
:10022000FFF7ABFF004870472C0000200149182061
:10023000ABBEFEE7260002007047FEE770470000F5
:1002400004490A6822F010020A600A6802430A6040
:100250007047000000200240034A116801F0380195
:1002600001431160704700000020024038B50B4C7C
:10027000204600F015F80121102000F0C3F81020EE
:100280008DF8030003208DF802006014ADF8000023
:100290006946204600F05EF838BD000000100140BD
:1002A000254910B5884206D10121042000F0B6F896
:1002B000002104203BE02149884206D10121082089
:1002C00000F0ACF80021082031E01D49884206D139
:1002D0000121102000F0A2F80021102027E0194988
:1002E000884206D10121202000F098F8002120202A
:1002F0001DE01549884206D10121402000F08EF80A
:100300000021402013E01149884206D101218020BC
:1003100000F084F80021802009E00D4988420AD1CC
:1003200084150121204600F079F800212046BDE81F
:10033000104000F073B810BD00080140000C0140EF
:10034000001001400014014000180140001C014051
:1003500000200140F0B5CA78002502F00F03D20654
:1003600001D58A7813430C784FF00F0E0122ECB1BF
:10037000D0F800400F8802FA05F63740B74211D195
:100380004FEA850C0EFA0CF724EA070703FA0CF47F
:100390003C43CF78282F02D0482F02D002E046619C
:1003A00000E006616D1C082DE4D304600C88FF2C6E
:1003B0001ED944685FF0000606F1080702FA07F547
:1003C0000F882F40AF420FD14FEA860C0EFA0CF780
:1003D000BC4303FA0CF73C43CF78282F00D145618A
:1003E000CF78482F00D10561761C082EE4D34460F5
:1003F000F0BD4161704701617047FEE7FEE770475D
:1004000070470000044A0029916901D0014300E0CF
:10041000814391617047000000100240044A0029A6
:10042000D16801D0014300E08143D16070470000F2
:10043000001002400C48016841F001010160416870
:100440000A4A114041600168094A1140016001688F
:1004500021F480210160416821F4FE0141604FF4E4
:100460001F01816070470000001002400000FFF88B
:10047000FFFFF6FE30B520494A6812F00C031F4A10
:1004800003D0042B01D0082B22D002604A680F232E
:100490001B4C03EA1212A35C0268DA4042604B680C
:1004A000072505EA1323E35C22FA03F383604B6814
:1004B00005EAD323E35C22FA03F2C260496803230E
:1004C00003EA9131231F595CB2FBF1F1016130BDA8
:1004D0004A684B6802F470124FF0020413F4803F34
:1004E00004EB924202D04B689B0301D5054B00E020
:1004F000024B5A43C9E700000010024000127A0084
:100500000800002000093D00024600205309094967
:10051000012B0BD0022B0BD0D1F8241002F01F02BC
:10052000012393400B4200D0012070470968F5E792
:10053000096AF3E7001002400248406800F00C002E
:100540007047000000100240034A516821F0F0019A
:100550000143516070470000001002400B490A68D7
:1005600022F480320A600A6822F480220A60B0F520
:10057000803F07D0B0F5802F03D1086840F4A02059
:1005800008607047086840F48030F9E700100240C6
:10059000034A516821F4E061014351607047000053
:1005A0000010024003494A6822F4605242EAC00047
:1005B000486070470010024001490866704700001B
:1005C00000004242034A5368084323F47C13184353
:1005D0005060704700100240034A516821F0030147
:1005E00001435160704700000010024018B5002020
:1005F0004FF4A06400903120FFF786FF0099491C5A
:100600000091A14201D00028F5D03120FFF77CFFF6
:10061000002800D0012018BD704710B5FFF70AFF71
:1006200000F006F8BDE81040482000F0B9B800001E
:1006300010B5FFF7FFFE4FF480342046FFF78EFF22
:10064000FFF7D4FF15490128487000D0FEE71020BD
:10065000FFF7F6FD0220FFF7FFFD0020FFF774FF14
:100660000020FFF79FFF4FF48060FFF791FF4FF4EA
:10067000E0112046FFF7A6FF0120FFF79DFF39207C
:10068000FFF742FF0028FAD00220FFF7A5FF00BFC6
:10069000FFF752FF0828FBD110BD0000000000202A
:1006A0000CB50021264801910091026842F4803285
:1006B00002604FF4A063026802F400320092019AD3
:1006C000521C0192009A12B9019A9A42F3D102681F
:1006D000920333D5012100911A490A6842F01002B1
:1006E0000A600A6822F007020A600A6842F0020201
:1006F0000A604168416041684160416841F480613D
:100700004160416821F47C114160416841F4E81185
:100710004160016841F08071016001688901FCD588
:10072000416821F003014160416841F002014160EC
:100730004168C1F381010229FAD10CBD00910CBDC1
:100740000010024000200240704700000F4810B522
:10075000016841F00101016041680D4A11404160AA
:1007600001680C4A11400160016821F48021016098
:10077000416821F4FE0141604FF41F018160FFF7E1
:100780008FFF05494FF00060086010BD0010024067
:100790000000FFF8FFFFF6FE08ED00E0FEE70000B6
:1007A0004FF0E0210A6922F004020A610649C008FC
:1007B00000EB40020870C2EBC0104FF6FF7202EA75
:1007C000C0004880704700000000002008494988A8
:1007D00048434FF0E02148610020886101220A610E
:1007E0000A69D30701D0D203FAD50861886170473E
:1007F00000000020FFF711FF0E48FFF73BFEFFF758
:1008000035FD0D4C4FF400554FF47A7629462046BD
:10081000FFF7EFFD3046FFF7D9FF29462046FFF7E7
:10082000EAFD6420FFF7D2FF0221491C0A29FCD30C
:10083000ECE7000018000020001001405C080008F0
:1008400000000020180000002801000874080008BB
:100850001800002078060000440100080000000095
:100860000204060800000000010203040102030460
:040870000607080966
:04000005080000ED02
:00000001FF
