:020000040800F2
:1000000040080020F50C0008150C0008170C00082B
:10001000190C00081B0C00081D0C00080000000053
:100020000000000000000000000000001F0C00089D
:10003000210C000800000000230C0008250C00081B
:10004000050D0008090D00080D0D0008110D000830
:10005000150D0008190D00081D0D0008210D0008E0
:10006000250D0008290D00082D0D0008310D000890
:10007000350D0008390D00083D0D0008410D000840
:10008000450D0008490D00084D0D0008510D0008F0
:10009000550D0008590D00085D0D0008610D0008A0
:1000A000650D0008E90B0008690D00086D0D0008DA
:1000B000E7090008710D0008750D0008790D0008AA
:1000C0007D0D0008810D0008850D0008890D0008D0
:1000D0008D0D0008910D0008950D0008990D000880
:1000E0009D0D0008A10D0008A50D0008DFF83412D1
:1000F000086850F001000860DFF82C221368DFF870
:100100002C02034013600B68DFF8240203400B60ED
:10011000086830F480200860106830F4FE00106039
:100120005FF41F00DFF80C1208607047DFF8F4116D
:100130000A6832F480320A600A6832F480220A6067
:10014000B0F5803F03D0B0F5802F05D009E00868F6
:1001500050F48030086004E0086850F4A020086083
:10016000FFE7704780B5002000900020002031207C
:1001700000F0B9F80099491C00910099B1F5A06F01
:1001800002D0C0B20028F2D0312000F0ACF8002834
:1001900001D0012000E00020C0B202BD0022624B6D
:1001A0001A6832F47C121043084318607047C0B2DA
:1001B00061490860704700215B4A1168890889001D
:1001C0000843106070475848006810F00C007047F2
:1001D0000021554A116831F0F00108431060704762
:1001E0000021514A116831F4E06108431060704702
:1001F00000214D4A116831F4605151EAC00111608B
:10020000704710B40021002100210021464A1168E6
:1002100011F00C01002904D0042905D0082906D0CA
:100220001EE0474901601DE0454901601AE013687E
:1002300013F47013116811F480319B0C9B1C00297E
:1002400003D140494B43036009E01168890303D59A
:100250003C494B43036002E039494B43036001E0F2
:1002600037490160116811F0F0010909364B595CFA
:100270000468CC404460116811F4E061090A595CDB
:100280004468CC408460116811F46051C90A595C1B
:100290004368CB40C360116811F44041890B2B4A7D
:1002A000515CC268B2FBF1F1016110BC7047C9B288
:1002B000002904D026490A681043086004E0244954
:1002C0000A6832EA000008607047C9B2002904D009
:1002D00020490A681043086004E01E490A6832EAAF
:1002E0000000086070470021002100210100C9B210
:1002F0004909C9B2012902D10A49096806E002295F
:1003000002D10E49096801E013490968C0B210F032
:100310001F00C140C80701D5012000E00020C0B285
:100320007047000000100240041002400000FFF877
:10033000FFFFF6FE0810024060004242201002401B
:1003400000127A0000093D0000000020100000208B
:10035000181002400C100240241002407FB5050026
:10036000080011001A0092B289B280B200F065F85C
:10037000002803D10120584908705DE0089C012144
:100380004FF40060FFF793FF192654480068401EA1
:10039000ADF8080052480068401EADF80400002087
:1003A000ADF80A0000208DF80C000020ADF8060022
:1003B00001A9280000F0A8F80121280000F010F998
:1003C00001220121280000F0F6F80121280000F0A8
:1003D000E4F8E4B2002C06D0012C09D0022C0CD099
:1003E000042C0FD013E04FF4E06000F015F912E098
:1003F0004FF4C06000F010F90DE04FF4A06000F081
:100400000BF908E04FF4407000F006F903E04FF4F8
:10041000806000F001F90A9809998DF800608DF864
:1004200001108DF8020001208DF80300684600F0ED
:10043000F8F80020284908707FBDF0B40300294C6B
:1004400048259BB2284E89B24FF47A70414306FB8F
:10045000031392B2D3182548834201D3002038E019
:1004600040F28F30834203D201201D49086005E02D
:1004700040F28F30B3FBF0F019490860184A166853
:1004800007E01068401C106005FB03F01168B0FB2A
:10049000F1F405FB03F01168B0FBF1F7116801FB03
:1004A0001700002802D1B4F5803F03D31068B0F5DF
:1004B000803FE6D310684FF6FF71884206D3B6B28C
:1004C00016606B431068B3FBF0F001E00348046072
:1004D0000120F0BC704700003800002030000020F0
:1004E0002C000020FFFF0F0040420F0072FC8E0323
:1004F000C9B2012904D1818951F00101818102E051
:10050000818900218181704710B400220488DFF8BE
:10051000E030984212D0DFF8F02090420ED0B0F1D7
:10052000804F0BD0DFF8CC20904207D0DFF8C820F6
:10053000904203D0DFF8C420904204D14FF68F726E
:1005400014404A881443DFF8B820904208D0DFF8FE
:10055000B420904204D04FF6FF421440CA8814439E
:1005600004808A8882850A88028598420FD0DFF845
:10057000982090420BD0DFF89420904207D0DFF80B
:100580009020904203D0DFF88C20904201D1097A6C
:1005900001860121818210BC7047C9B2002904D0B4
:1005A000018851F00101018004E002884FF6FE71DC
:1005B0000A4002807047D2B2002A03D082891143D8
:1005C000818103E0828932EA010181817047002242
:1005D000008A084201D0012000E00020C0B270472C
:1005E00089B2C9430182704789B2C9430182704709
:1005F000002C01400004004000080040000C0040B6
:100600000010004000140040003401400040014050
:1006100000440140004801401A4908431A49086053
:100620007047002100210F23C17800291ED01649F0
:10063000096811F4E061D1F5E061090AD1F1040221
:10064000CB40417811FA02F281780B401A43120133
:100650000E490378CA540121027812F01F0291401A
:100660000B4A0078401142F8201009E0012102787D
:1006700012F01F029140074A0078401142F8201002
:10068000704700000000FA050CED00E000E400E017
:1006900000E100E080E100E080B56349884208D1D4
:1006A00001210420FFF711FE00210420FFF70DFEB9
:1006B00048E05E49884208D101210820FFF705FE85
:1006C00000210820FFF701FE3CE05949884208D18B
:1006D00001211020FFF7F9FD00211020FFF7F5FDA3
:1006E00030E05449884208D101212020FFF7EDFD78
:1006F00000212020FFF7E9FD24E04F49884208D17E
:1007000001214020FFF7E1FD00214020FFF7DDFD42
:1007100018E04A49884208D101218020FFF7D5FD21
:1007200000218020FFF7D1FD0CE04549884209D126
:1007300001214FF48070FFF7C8FD00214FF4807055
:10074000FFF7C3FD01BDF0B4002200220022002209
:1007500000220022CB7813F00F03CA78D20601D50D
:100760008A7813430A88D2B2002A20D0066800246F
:100770001AE0CA78482A16D1A740076113E001277A
:1007800017FA04F50A882A40AA420CD1A2000F25C4
:100790009540AE4313FA02F232431600CA78282A73
:1007A000E7D1A7404761641C082CE8D306600A889B
:1007B000B2F5807F26DB4668002420E0012714F193
:1007C000080517FA05F50A882A40AA4216D1A200A0
:1007D0000F259540AE4313FA02F232431600CA7851
:1007E000282A04D114F1080217FA02F24261CA78E9
:1007F000482A03D114F1080297400761641C082CB1
:10080000DCD34660F0BC70470022806889B20842A1
:1008100001D0012000E00020C0B2704789B2016120
:10082000704789B24161704700080140000C0140E7
:10083000001001400014014000180140001C01405C
:100840000020014080B53E49086850F00100086072
:100850003C4A13683C48034013600B683B48034024
:100860000B60086830F480200860106830F4FE00E7
:1008700010605FF41F003649086000F005F85FF073
:1008800000603449086001BD80B500F001F801BD89
:1008900082B000200190002000902949086850F49F
:1008A00080300860086810F4003000900198401C07
:1008B00001900098002803D10198B0F5A06FF1D104
:1008C0000868800302D50120009001E0002000901C
:1008D0000098012831D12048026852F010020260CD
:1008E0000268D208D2000260026852F0020202607E
:1008F00014480268026002680260026852F4806272
:100900000260026832F47C120260026852F4E8125B
:1009100002600A6852F080720A600A689201FCD58F
:100920000168890889000160016851F002010160D5
:10093000016811F00C010829FAD102B070470000DB
:1009400000100240041002400000FFF8FFFFF6FE16
:100950000810024008ED00E0002002403EB500F023
:100960005DF82A4C2000FFF74CFC00F024F8284DDD
:100970002800FFF791FE10200090032310224FF46F
:100980000051280000F08AF820682249086000F031
:10099000C7F8214C00200290002001900020009018
:1009A0000023642200212000FFF7D8FC0121200051
:1009B000FFF79EFDFEE71CB5154C2000FFF76CFE0F
:1009C00001211020FFF773FC10208DF80300032095
:1009D0008DF802004FF40050ADF800006946200089
:1009E000FFF7B1FE13BD80B501215FF08040FFF736
:1009F000EEFD002808D00D21054800F063F8012124
:100A00005FF08040FFF7ECFD01BD00001400002006
:100A10000010014028000020002C014080B5FFF7A5
:100A200065FB00F004F8482000F06AF801BD10B53D
:100A3000FFF75CFB5FF48030FFF778FB164CFFF7A5
:100A400091FB20702078012825D1102000F0A1F81A
:100A5000022000F095F80020FFF7BAFB0020FFF716
:100A6000C7FB4FF48060FFF7BBFB5FF4E0115FF45E
:100A70008030FFF793FB0120FFF799FB3920FFF748
:100A800032FC0028FAD00220FFF795FBFFF79BFB12
:100A90000828FBD110BDFEE737000020F8B50400A0
:100AA0000D0016001F0006980121FFF700FC8DF8CD
:100AB00003608DF80270ADF8005069462000FFF722
:100AC00042FEF1BD70B504000D000C4E280080B24E
:100AD00036F810102000FFF797FE002806D0ADB2C0
:100AE00036F815102000FFF79CFE05E0ADB236F891
:100AF00015102000FFF792FE70BD0000700C00087A
:100B000019490A6832F004020A601849C0B2C008E4
:100B1000087009784FF47A70414315480180704796
:100B200014480168C90116D4016831F08071016070
:100B3000016851F0807101600F480168490849005F
:100B40000160016851F00101016000200B4908605B
:100B500000BF00BF00BF09480068002801D0002086
:100B600000E001207047000010E000E036000020A7
:100B700034000020FCED00E0001000E0041000E074
:100B80000021DFF82420116811F0380108431060BB
:100B90007047DFF814100A6832F010020A600A6821
:100BA00010430860704700000020024030B5016823
:100BB00084684218416802EB5103C90703D54C44CD
:100BC00001E0491C08D19A4218BF12F9011B01D15A
:100BD0000C3030BD12F8015B002904F8015BF0D441
:100BE000491EF7D5EFE7000010B5094C01212000A0
:100BF000FFF7EDFC002803D001212000FFF7F0FCF7
:100C000001212000FFF7F0FC00F00DF810BD00BF3F
:100C1000002C01407047FEE7FEE7FEE7FEE7704765
:100C200070477047704780B50D210248FFF74AFFB3
:100C300001BD00000010014010B50749794418318A
:100C4000064C7C44163404E00A68081D11448847A9
:100C50000146A142F8D110BD0800000014000000B8
:100C60004DFFFFFF440100002A00000000000020AB
:100C70000100020004000800100020004000800075
:100C80000001000200040008001000200040008065
:100C900000F00DF8002801D0FFF7CEFFAFF3008081
:100CA0000020AFF30080FFF759FE00F002F80120AA
:100CB000704700F001B800000746384600F002F81F
:100CC000FBE7000080B5AFF30080024A1100182056
:100CD000ABBEFBE7260002000548014603B46846A8
:100CE00080F30988AFF30080AFF30080FFF7D0FFF7
:100CF000A5EDF5FE0148804701480047450800087A
:100D0000D90C0008FFF7FEBFFFF7FEBFFFF7FEBFDD
:100D1000FFF7FEBFFFF7FEBFFFF7FEBFFFF7FEBF07
:100D2000FFF7FEBFFFF7FEBFFFF7FEBFFFF7FEBFF7
:100D3000FFF7FEBFFFF7FEBFFFF7FEBFFFF7FEBFE7
:100D4000FFF7FEBFFFF7FEBFFFF7FEBFFFF7FEBFD7
:100D5000FFF7FEBFFFF7FEBFFFF7FEBFFFF7FEBFC7
:100D6000FFF7FEBFFFF7FEBFFFF7FEBFFFF7FEBFB7
:100D7000FFF7FEBFFFF7FEBFFFF7FEBFFFF7FEBFA7
:100D8000FFF7FEBFFFF7FEBFFFF7FEBFFFF7FEBF97
:100D9000FFF7FEBFFFF7FEBFFFF7FEBFFFF7FEBF87
:100DA000FFF7FEBFFFF7FEBFFC000F0102030401C7
:0D0DB0000203040607080902040608DB0020
:0400000508000CD90A
:00000001FF
