:020000040800F2
:100000004005002045010008E70E0008E50A000849
:10001000E30E00088D010008D32200080000000054
:100020000000000000000000000000007513000840
:10003000D50800080000000065110008C51C000874
:100040005F0100085F0100085F0100085F01000810
:100050005F0100085F0100085F0100085F01000800
:100060005F0100085F0100085F0100085F010008F0
:100070005F0100085F0100085F0100085F010008E0
:100080005F0100085F0100085F0100085F010008D0
:10009000712200085F0100085F0100085F0100088D
:1000A0005F0100085F0100085F0100085F010008B0
:1000B000291D00085F0100085F0100085F010008BA
:1000C0005F0100085F0100085F0100085F01000890
:1000D0005F0100085F0100085F0100085F01000880
:1000E0005F0100085F0100085F0100085F01000870
:1000F0005F0100085F0100085F0100085F01000860
:100100005F0100085F0100085F0100085F0100084F
:100110005F0100085F0100085F0100085F0100083F
:100120005F0100085F0100085F0100085F0100082F
:10013000DFF80CD000F018F8004800472F23000823
:10014000400500200648804706480047FEE7FEE7D6
:10015000FEE7FEE7FEE7FEE7FEE7FEE7FEE7FEE777
:10016000C91C000831010008064C074D06E0E06894
:1001700040F0010394E8070098471034AC42F6D3EE
:10018000FFF7DAFF3C2400085C24000800BFFEE70C
:100190000146CAB20B1243EA0220704710B5002490
:1001A00023E19748008800F00F0096490870084640
:1001B000007800287ED19448006894490880084659
:1001C000008800F03000924908809048008800F4D0
:1001D00040508E4908808F49D1F8001C89B24BF6F7
:1001E000BF7201EA020080F4005080F0200040F469
:1001F000004141F08001874AC2F8001C8048008815
:1002000010F0100F36D18048006880B248F60F71A8
:1002100000EA01001146C1F8000C00F065FC7A49C3
:10022000096889B24BF6BF7201EA02007749098872
:1002300011F4805F01D080F480507449098811F472
:10024000005F01D080F400507149098811F0100F4F
:1002500001D080F010006E49098811F0200F01D004
:1002600080F0200081B241F4004141F08001664AF3
:10027000116010BD6448006884B214F4006F39D076
:1002800061480068C0F30E0048F68F7100EA010073
:100290006049C1F8000C01F053FA5B49096889B262
:1002A0004BF6BF7201EA02005849098811F4805FD9
:1002B00003D000E059E080F480505449098811F4DB
:1002C000005F01D080F400505149098811F0100FEF
:1002D00001D080F010004E49098811F0200F01D0A4
:1002E00080F0200081B241F4004141F08001464A93
:1002F0001160BEE714F4004F77D043480068C0F3A4
:100300000E0048F68F7100EA01004249C1F8000C66
:1003100000F0EEFE3C49096889B24BF6BF7201EA73
:1003200002003A49098811F4805F01D080F48050BE
:100330003649098811F4005F01D080F40050344937
:10034000098811F0100F01D080F0100030490988A1
:1003500011F0200F01D080F0200081B241F4004163
:1003600041F08001284A116083E726480078294936
:1003700001EB8000D0F8000C84B214F4004F18D0C8
:100380002048007801EB8000D0F8000CC0F30E008C
:1003900048F68F7108401B4909781E4A02EB81011B
:1003A000C1F8000C17490978491E1B4A52F8210070
:1003B000804714F0800F18D012480078154901EBDF
:1003C0008000D0F8000C80B248F60F7108400D494B
:1003D0000978104A02EB8101C1F8000C094909783B
:1003E000491E0E4A52F8210080470D48006880B22D
:1003F0000349088010F4004F7FF4D3AE00BF38E704
:100400005C00002008010020005C00401C0100206E
:100410001E01002000500040400000202400002069
:10042000445C00400C4901EB8001D1F8001C11F440
:10043000804F10D0084901EB8001D1F8001C89B22F
:1004400048F68F7211404CF280021143024A02EBCF
:100450008002C2F8001C7047005000400C4901EBBC
:100460008001D1F8001C11F0400F10D0084901EBB9
:100470008001D1F8001C89B248F68F72114048F211
:10048000C0021143024A02EB8002C2F8001C70470E
:1004900000500040084901EB8001D1F8001C89B2EE
:1004A00048F68F62114048F280021143024A02EB83
:1004B0008002C2F8001C7047005000402DE9F04750
:1004C0002948006800F110052E8827480068077A3F
:1004D000EEB9042F1BD125480078012812D1002144
:1004E0002348006880B200F10200224A42F810104E
:1004F0004FF030002049088000BF4FF000001B493A
:10050000087003E0072710201B49088027E0AC880B
:10051000A64201D8042000E002200746B44200D9D8
:100520003446A0B2A96888478046002000F0ACFAA3
:100530008146A2B20146404601F0CEFEA1B20020A3
:1005400000F0D2FF2888001B28806888204468803B
:1005500030200949088000020849088000BF02498C
:1005600009680F72BDE8F0870C010020040100202B
:10057000505C0040006000401E0100201C01002073
:100580002DE9F0412948006800F110042688A06890
:10059000C0B1BEB1A588B54200D93546A8B2A168A0
:1005A000884707462088401B208060882844608058
:1005B000002000F057FA8046AAB20146384600F003
:1005C000BFFD00BF208850B14FF44050184908804B
:1005D0000021084600F088FF302016490880208856
:1005E000A188884204DB03201049096808721AE0D8
:1005F0002088002804DD05200C490968087212E0F3
:10060000208880B9062009490968087200210A4833
:10061000006880B200F10200084A42F810104FF062
:10062000300004490880BDE8F08100000C01002082
:100630001C0100201E010020505C004000600040B2
:100640002DE9F05F9A48006845780027BA46062DE4
:100650001AD197480068007810F07F0F13D19449A1
:1006600009688878012803D192490968CF690AE0AE
:10067000022803D18F4909680F6A04E0032802D1D8
:100680008C4909684F6A94E0002D64D1884800685D
:10069000408800285FD186480068C08802285AD167
:1006A000834800680079002855D1814800680078A7
:1006B00010F07F0F05D17E480068808808B97E4F12
:1006C00077E07B480068007800F07F00012810D1B7
:1006D000774909684879774909688A69002190470C
:1006E000002866D172480068807A002861D0724F75
:1006F0005FE06F480068007800F07F00022858D162
:100700006B480068407900F00F066948006840793E
:1007100000F0700966480068407910F0800F07D03B
:10072000664800EB8600D0F8000C00F0300806E0C8
:10073000624800EB8600D0F8000C00F44058604896
:100740000078B04235D9B9F1000F32D1B8F1000FBD
:100750002FD0594F2DE0082D07D15548006800785B
:1007600010F07F0F25D1574F23E00A2D21D150489B
:100770000068007800F07F0001281AD14C4800681A
:10078000807AB0B14A480068408890B9484800680B
:10079000007970B946480068C088012809D14449E9
:1007A00009684879434909688A690021904700B976
:1007B000454F57B13E480068A0F812A03C48006879
:1007C00087610020B84700240FE0394A126850784A
:1007D000384A1268116988470446032C05D109205C
:1007E000334909680872BDE8F09F31480068008A03
:1007F000A0F57F41FF3904D109202D49096808720D
:10080000F1E7022C03D02A480068008A20B90820AA
:10081000274909680872E6E725480068007810F063
:10082000800F3BD022480068B0F806B0204800682E
:10083000008A584504D91E490968A1F810B023E080
:100840001B480068008A1A490968C98888421BDA6F
:1008500017480068008A1749096891F82C108842E7
:1008600003DA0020194908700EE011480068008A78
:100870001049096891F82C1090FBF1F201FB12006D
:1008800010B90120114908700A48006890F82C102E
:10089000074800688182FFF711FE06E00320044943
:1008A0000968087200030A49088000BF9BE700003E
:1008B0000C01002010010020E51900080050004044
:1008C0006000002069190008B9190008040100201F
:1008D0001C0100207047704708B501217C2000F002
:1008E000AFFC4FF6FF70ADF8000000208DF803005C
:1008F00069460C4800F020F869460B4800F01CF8E7
:1009000069460A4800F018F86946094800F014F8EA
:100910006946084800F010F800217C2000F090FCA7
:1009200008BD000000080140000C0140001001401B
:1009300000140140001801402DE9F0410246002555
:100940000026002000230024002791F803C00CF0AB
:100950000F0591F803C01CF0100F03D091F802C0EE
:100960004CEA0505B1F800C01CF0FF0F31D0146847
:1009700000202BE04FF0010C0CFA00F3B1F800C09E
:100980000CEA03069E4220D183004FF00F0C0CFAB4
:1009900003F7BC4305FA03FC4CEA040491F803C0D6
:1009A000BCF1280F06D14FF0010C0CFA00FCC2F884
:1009B00014C00AE091F803C0BCF1480F05D14FF014
:1009C000010C0CFA00FCC2F810C0401C0828D1D35E
:1009D0001460B1F800C0BCF1FF0F34DD5468002092
:1009E0002EE000F1080C4FF0010808FA0CF3B1F802
:1009F00000C00CEA03069E4221D183004FF00F0C89
:100A00000CFA03F7BC4305FA03FC4CEA040491F822
:100A100003C0BCF1280F05D100F1080C08FA0CF84E
:100A2000C2F8148091F803C0BCF1480F07D100F15F
:100A3000080C4FF0010808FA0CF8C2F81080401CAE
:100A40000828CED35460BDE8F081024600209368A8
:100A50000B4201D0012000E0002070474161704747
:100A60000161704701460648006880B200EBC10092
:100A700000F10400034A52F8100080B270470000F1
:100A8000505C00400060004001460548006880B2AC
:100A900000EBC100034A52F8100080B2704700001A
:100AA000505C00400060004070B50A4804680A4885
:100AB000D0F8EC5709480668344454B10822084974
:100AC000204600F049F8042205491031284600F07C
:100AD00043F870BDE8F7FF1F00F0FF1FF0F7FF1F9E
:100AE0000300002000BFFEE710B518480068047A34
:100AF000022C01D0042C05D1FFF7E0FC134800685C
:100B0000047A1CE0062C19D11048006840780528AA
:100B10000ED10E480068007810F07F0F08D10B4905
:100B20000968C87800F030FC09490968086A8047FC
:100B30000849096888688047082400E008240349B8
:100B400009680C7200F010FB10BD00000C010020C1
:100B5000180100201001002030B50B46002100BF15
:100B600016E00A24B4EB107F05D9302404EB10748E
:100B700003F8114005E0412404EB10740A3C03F82B
:100B80001140000100254C00641C1D554C1CE1B2B5
:100B90009142E6DB30BD000010B508211648FFF792
:100BA00054FF08B9032010BD04211348FFF74DFF7F
:100BB00008B90220F7E710210F48FFF746FF08B9F0
:100BC0000420F0E702210C48FFF73FFF08B901209D
:100BD000E9E74FF400510948FFF737FF08B905204E
:100BE000E1E74FF480710648FFF72FFF08B90620B0
:100BF000D9E70020D7E700000014014000100140B1
:100C00000008014070B504460025062C18D118488C
:100C10000068007800F07F00012811D114480068B6
:100C2000407968B9124800688078222801D1114DB6
:100C300010E00F480068807821280BD10E4D09E0A4
:100C40000B480068007800F07F00212802D1032CB7
:100C500000D10A4D0DB9022070BD054800688561BC
:100C600000210348006841820020A8470020F3E7E4
:100C70000C010020D90C0008A90C0008BD0C0008CC
:100C800010B504460249204600F084FE10BD000065
:100C9000C000002010B504460249204600F07AFE4C
:100CA00010BD0000B800002010B5044602492046DF
:100CB00000F070FE10BD0000D0000020014629B9F0
:100CC0000120034A12681082002070470148FCE7A7
:100CD0000C010020F800002010B50446024920460F
:100CE00000F058FE10BD0000C800002070B5054699
:100CF00006480068C478042C01DD002070BD04485B
:100D000000EBC401284600F045FEF7E70C01002087
:100D1000D80000200246002901DD02207047002A89
:100D200001DD0220FAE70020F8E7000000B50246E6
:100D300006480068007800F07F00212804D10B2AC3
:100D400002D100F0ABF800BD0220FCE70C0100204E
:100D500010B5002023490968887222490968C872C1
:100D60002148C0791F4909684872002000F004FB3F
:100D70004FF40071002000F003FC1021002000F06F
:100D8000C3FB1821002000F029FB5821002000F0AF
:100D90009BFB0020FFF77EFB144890F82C100020EE
:100DA00000F02EFB002000F075FB4FF4C061012025
:100DB00000F0E6FB4FF48071012000F085FB042178
:100DC000012000F091FB0021012000F041FB2021D7
:100DD000012000F099FB002000F0D6FA0120044920
:100DE000086010BD0C01002064230008640000208E
:100DF000FC000020F8B507460020009000240025E4
:100E00000026072F17D2DFE807F0160D04070A1097
:100E10001300601F44B20FE0601D44B20CE0681F75
:100E200045B209E0681D45B206E046F0010603E060
:100E300046F0020600E0F8BD00BFF0B28DF80000F9
:100E4000E0B28DF80100E8B28DF802000422694694
:100E5000812001F027FA9DF8000038B100208DF8BC
:100E6000000004226946812001F01CFA012000F0F4
:100E70006DFB00BFDFE700000348817A11B1052157
:100E8000024A11607047000020010020FC00002091
:100E90000420014908607047FC00002003480068F6
:100EA000C178034801600020704700000C01002059
:100EB000F80000207047704710B5FFF7F5FD0020DF
:100EC00005490968887200F073F901F0D5F900202E
:100ED0000249086010BD00000C010020FC00002049
:100EE000704700BFFEE77047704708B54FF4E060F9
:100EF00000F052F81C208DF8000000208DF8010051
:100F00008DF8020001208DF80300684600F002F819
:100F100008BD000070B5002100230F22C4784CB337
:100F20001A4C246804F4E064C4F5E0644FEA142128
:100F3000C1F1040322FA01F2447804FA03F184783F
:100F400004EA020444EA01014FEA0111104C067858
:100F5000A155047804F01F054FF0010404FA05F4CC
:100F600005784FEA65154FF0E02606EB8505C5F8D4
:100F7000004109E0047804F01F050124AC40054D50
:100F80000678761145F8264070BD00000CED00E0B3
:100F900000E400E080E100E002490143024A116000
:100FA000704700000000FA050CED00E070B5022665
:100FB0004A480068447849480068007810F07F0F7C
:100FC0004AD1092C03D100F08DFD064665E0052CC1
:100FD00014D142480068C0787F280BDC3F48006885
:100FE000807838B93D480068808818B93B48006867
:100FF000807A08B108256DE000264EE0032C14D15C
:1010000036480068C07801280DD1344800688088CF
:1010100048B932480068407A10F0200F03D000F041
:1010200085FD064639E0022637E0012C35D12B48F4
:101030000068C07801280DD128480068808848B928
:1010400026480068407A10F0200F03D000F0D4FB4F
:10105000064622E0022620E020480068007800F0E2
:101060007F00012805D10B2C17D100F0DDFD0646CD
:1010700013E01A480068007800F07F0002280BD1C6
:10108000012C03D100F0B8FB064606E0032C04D186
:1010900000F060FD064600E002264EB110480068F0
:1010A0004169E0B288470646032E01D1092511E0C7
:1010B0000EB108250EE0062500210A48006880B21E
:1010C00000F10200084A42F810104FF030000749C2
:1010D000088000BF014909680D7270BD0C01002035
:1010E00010010020505C0040006000401E01002004
:1010F00010B511480068047A022C01D0042C01D1EB
:10110000082412E0032C01D0052C05D1FFF738FA92
:1011100009480068047A08E0072C05D107490968E6
:10112000C8688047082400E00824034909680C7255
:1011300000F01AF810BD00000C0100201001002082
:10114000F0B5561C7510064E06EB41042B4604E024
:1011500080CC20F8017B401C5B1E002BF8D1F0BD39
:10116000006000407047000010B50D4890F82C104A
:10117000002000F045F90B480068007A082805D1E6
:101180004002094908801020084908800548006885
:10119000007A092801D1012000E00020C0B210BD72
:1011A000640000200C0100201C0100201E01002012
:1011B00010B5012000F098FF01240D4804604FF0A5
:1011C00000000C490880084600880B49C1F8400C13
:1011D0004FF00000094908604FF4E05005490880CD
:1011E000084600880449C1F8400C4FF0000010BDCB
:1011F000405C00401601002000500040445C00406C
:1012000029B1064AD2690243044BDA6104E0034A79
:10121000D2698243014BDA6170470000001002403E
:1012200029B1064A12690243044B1A6104E0034AD9
:1012300012698243014B1A6170470000001002409E
:1012400029B1064A92690243044B9A6104E0034AB9
:1012500092698243014B9A6170470000001002407E
:1012600029B1064AD2680243044BDA6004E0034A1B
:10127000D2688243014BDA607047000000100240E0
:101280000149086070470000D800424270B5054629
:10129000072D01D02A48057029480078082846D231
:1012A000DFE800F0040A10162131464700F04EF83E
:1012B00006202349087040E000F048F80420204947
:1012C00008703AE002201E4948700320087034E09C
:1012D0001B484078401E1A4948700846407808B9B3
:1012E0000420087029E01748006884B244F0100414
:1012F0001548C0F8404C4FF00500114908704FF0F8
:101300000A00487019E00E484078401E0C494870A9
:101310000846407850B90B48006884B224F01004A5
:101320000948C0F8404C4FF00600087005E000BFC7
:1013300000BF06200249087000BF00BF70BD00005A
:1013400001010020405C00400050004010B50748FB
:10135000006884B224F004040548C0F8404CFFF74C
:10136000BFFD4FF43F400149086010BD405C0040A4
:1013700000500040704700004FF6F8710140014AEC
:1013800011607047505C004030B50146104B1A7830
:10139000002015E003060F4C04EB9353D3F8003CF8
:1013A0009BB248F68F74234048F280042343C4B2B2
:1013B00023430406074D05EB9454C4F8003C401C3D
:1013C0009042E7D341F08003034C236030BD00001E
:1013D00060000020005000404C5C004010B54A10F6
:1013E0005300054A126892B202EBC00202F10402F5
:1013F000024C44F8123010BD505C004000600040C8
:1014000010B502461048006880B200EBC20000F13F
:1014100006000E4C04EB40033E290BDD481111F091
:101420001F0F01D1441EA0B24FF4004444EA8024AF
:101430001C6007E0481011F0010F01D0441CA0B25D
:1014400084021C6010BD0000505C00400060004041
:1014500010B50F4B03EB8003D3F8003C9BB24BF667
:101460008F7403EA040211F4805F01D082F4805289
:1014700011F4005F01D082F4005242F4004343F0C3
:101480008003034C04EB8004C4F8003C10BD000052
:10149000005000400B4A02EB8002D2F8002C92B2BE
:1014A0004BF68F7302EA030181F4805181F40051FD
:1014B00041F4004242F08002024B03EB8003C3F888
:1014C000002C70470050004010B54A105300044AE9
:1014D000126892B202EBC002024C44F8123010BD06
:1014E000505C004000600040054A126892B202EB76
:1014F000C00202F10202034B43F8121070470000D1
:10150000505C00400060004010B50F4B03EB8003BF
:10151000D3F8003C9BB248F6BF7403EA040211F012
:10152000100F01D082F0100211F0200F01D082F0D4
:10153000200242F4004343F08003034C04EB800498
:10154000C4F8003C10BD0000005000400B4A02EB04
:101550008002D2F8002C92B248F6BF7302EA03016F
:1015600081F0100181F0200141F4004242F080023C
:10157000024B03EB8003C3F8002C7047005000407F
:10158000074A02EB8002D2F8002C92B248F68F1381
:101590001A400A43024B03EB8003C3F8002C704748
:1015A0000050004010B500F001F810BD00210020EF
:1015B0002E4A126842F480322C4B1A6000BF2B4A2C
:1015C000126802F40030491C10B9B1F5A06FF6D1D1
:1015D000264A126812F4003F01D0012000E00020EA
:1015E000012842D1224A126842F01002204B1A60B0
:1015F0001A46126822F003021A601A46126842F074
:1016000002021A60194A5268184B5A601A46526808
:101610005A601A46526842F480625A601A4652680A
:1016200022F47C125A601A46526842F4E8125A6058
:101630001A46126842F080721A6000BF0B4A1268A4
:1016400012F0007FFAD0094A526822F00302074BD9
:101650005A601A46526842F002025A6000BF034ABA
:10166000526802F00C02082AF9D1704700100240BB
:101670000020024008B5FFF72FF901211020FFF7E5
:10168000DFFD01213420FFF7DBFD4FF40070ADF8E2
:10169000000003208DF8020010208DF80300694639
:1016A0001F48FFF749F91E20ADF8000003208DF810
:1016B000020048208DF8030069461A48FFF73CF9FC
:1016C0004FF40050ADF8000003208DF802004820D0
:1016D0008DF8030069461248FFF72EF94FF4807029
:1016E000ADF8000003208DF8020048208DF80300BB
:1016F00069460D48FFF720F94FF47060ADF800001F
:1017000003208DF8020010208DF80300694605487B
:10171000FFF712F900F05AFBFFF7E7FB08BD0000E6
:1017200000100140001401400008014010B50020E5
:10173000FFF7A6FD0121C805FFF762FD10BD0000FF
:1017400038B501242948006880B200F10400284916
:1017500051F8100080B201EB40000090254800686D
:10176000007A092832D00098007822490968087068
:101770000098401C0090009800781E490968487045
:101780000098401C0090009800EB440000900099E5
:1017900031F8020B0091FEF7FBFC164909684880FE
:1017A000009800EB44000090009931F8020B009182
:1017B000FEF7EEFC0F4909688880009800EB4400B2
:1017C0000090009800880B490968C88001200949E9
:1017D0000968087207480068C08810B9FFF7E6FB7F
:1017E00001E0FEF72DFFFFF7BFFC38BD505C004065
:1017F000006000400C0100202DE9F04755480068CA
:10180000007800F07F08B8F1000F0AD15148006855
:10181000407A00F0DF004F49096848720020BDE8B7
:10182000F087B8F1020F7ED14A480068408818B9A5
:1018300048480068007908B10220F0E7DFF8189105
:1018400044480068477927F080052C4641480068E5
:10185000407910F0800F07D0404800EB8400D0F8AA
:10186000000C00F0300606E03C4800EB8400D0F8A5
:10187000000C00F4405699F80000A84204D91EB1AB
:1018800034480068807A08B90220C8E717F0800F52
:1018900010D0324800EB8400D0F8000C00F030008B
:1018A00010284DD1E0B2FEF7D9FD3021E0B2FFF7AC
:1018B0002BFE45E0294800EB8400D0F8000C00F432
:1018C0004050B0F5805F3BD1ECB9254890F82C1022
:1018D000E0B2FFF795FD214901EB8401D1F8001C2E
:1018E00089B24BF68F7201EA020080F4805080F4D6
:1018F000005040F4004141F08001184A02EB84029C
:10190000C2F8001C1CE0E0B2FEF78CFD134901EBAD
:101910008401D1F8001C89B24BF68F7201EA0200F3
:1019200080F4805000E011E080F4005040F4004169
:1019300041F08001094A02EB8402C2F8001C00BF9A
:101940000849096848698047002068E700BF02200D
:1019500065E700000C0100206000002000500040FE
:10196000640000201801002010B504462CB90120A5
:10197000064909680882002010BD05490968086801
:101980008047024800680A30F6E700000C0100209A
:101990001801002010B5024606480068438A32B993
:1019A0008888C01A034C24682082002010BD086873
:1019B0001844FBE70C01002010B504462CB90120A7
:1019C000064909680882002010BD05490968886831
:1019D0008047024800680C30F6E700000C01002048
:1019E0001801002010B504462CB9022039490968B5
:1019F0000882002010BD0020374908803548006863
:101A0000007810F07F0F23D132490968487A10F02E
:101A1000200F06D03049097841F002012E4A11709A
:101A200005E02D49097801F0FD012B4A117010F0F5
:101A3000400F06D02849097841F00101264A11706B
:101A400005E02549097801F0FE01234A11703AE0CA
:101A500020480068007800F07F00012801D11E486E
:101A6000C8E71C480068007800F07F00022828D1F1
:101A7000184A1268517901F00F0011F0800F0FD051
:101A8000164A02EB8002D2F8002C02F03002102A33
:101A900016D1114A127842F001020F4B1A700FE072
:101AA0000E4A02EB8002D2F8002C02F44052B2F54A
:101AB000805F05D1084A127842F00102064B1A7085
:101AC00001E0002096E70649096808698047024856
:101AD00090E700000C0100200601002000500040AB
:101AE0001801002010B50E480068C0780D494978EB
:101AF000884213DC0A480068807878B90848006892
:101B0000808858B906480068C07805490968887215
:101B10000549096848688047002010BD0220FCE79D
:101B20000C010020600000201801002010B50748BB
:101B30000068407A40F0200004490968487204496E
:101B40000968C8698047002010BD00000C01002012
:101B5000180100202DE9F0412F480068467926F051
:101B600080073C462C480068407910F0800F07D071
:101B70002A4800EB8400D0F8000C00F0300506E0A5
:101B8000264800EB8400D0F8000C00F440552448AF
:101B90000078A04208D920480068408820B91DB1CB
:101BA0001D480068807A10B90220BDE8F08116F067
:101BB000800F15D0194901EB8401D1F8001C89B2BE
:101BC00048F6BF7201EA020080F0100040F40041C4
:101BD00041F08001114A02EB8402C2F8001C15E0BA
:101BE0000E4901EB8401D1F8001C89B24BF68F72CB
:101BF00001EA020080F4805040F4004141F080018D
:101C0000064A02EB8402C2F8001C00BF05490968BD
:101C1000886980470020C8E70C0100200050004080
:101C2000600000201801002010B5174B1B68D97800
:101C3000154B1B685879154B1B689A6990470446E9
:101C400011480068807AE8B13CB90F480068007913
:101C500018B90D480068807808B1022010BD8CB911
:101C60000B490968C86880470748006840790649F9
:101C70000968C87204480068C07803490968087395
:101C80000020EBE70220E9E70C0100201001002012
:101C90001801002010B50948006884B244F0080417
:101CA0000748C0F8404C0548006884B244F004047A
:101CB0000348C0F8404CFEF70EFE10BD405C0040EB
:101CC000005000407047000010B51348006840F015
:101CD00001001149086008464068104908400E4953
:101CE0004860084600680E4908400B4908600846ED
:101CF000006820F4802008600846406820F4FE0058
:101D000048604FF41F008860FFF74CFC4FF0006004
:101D10000449086010BD0000001002400000FFF8F8
:101D2000FFFFF6FE08ED00E010B50121880700F086
:101D30006BF9A0B30121880700F039F81848007842
:101D4000A0B14FF480711748FEF78AFE4FF400717E
:101D50001448FEF785FE4FF480611248FEF780FEBE
:101D60004FF400610F48FEF77BFE13E04FF48071E3
:101D70000C48FEF773FE4FF400710A48FEF76EFE42
:101D80004FF480610748FEF769FE4FF40061054893
:101D9000FEF764FE02480078C0430149087010BD98
:101DA0000000002000140140CA4302827047CA4369
:101DB0000282704721B1028842F00102028004E0F1
:101DC00002884FF6FE731A40028070470EB501215B
:101DD0000846FFF715FA4FF0804000F021F84FF465
:101DE000FA60ADF8040048F69F40ADF8000000200E
:101DF000ADF80600ADF8020069464FF0804000F0F3
:101E000021F901218807FFF7CFFF01221146900732
:101E100000F00BF901218807FFF7CCFF0EBD000091
:101E200010B504466848844208D10121C014FFF768
:101E300017FA0021E014FFF713FAC4E0B4F1804F61
:101E400008D101210846FFF7EBF900210120FFF737
:101E5000E7F9B8E05D48844208D101210220FFF78C
:101E6000DFF900210220FFF7DBF9ACE0584884429B
:101E700008D101210420FFF7D3F900210420FFF746
:101E8000CFF9A0E05348844208D101210820FFF790
:101E9000C7F900210820FFF7C3F994E04E488442B7
:101EA00008D101211020FFF7BBF900211020FFF716
:101EB000B7F988E04948844208D101212020FFF782
:101EC000AFF900212020FFF7ABF97CE044488442C1
:101ED00008D101214014FFF7C3F900216014FFF776
:101EE000BFF970E03F48844209D10121C804FFF7DF
:101EF000B7F900214FF40020FFF7B2F963E03A4848
:101F0000844209D101210805FFF7AAF900214FF405
:101F10008010FFF7A5F956E03448844209D1012129
:101F20004805FFF79DF900214FF40010FFF798F9DD
:101F300049E02F48844208D101214020FFF770F981
:101F400000214020FFF76CF93DE02A48844208D187
:101F500001218020FFF764F900218020FFF760F95C
:101F600031E02548844208D101218015FFF758F956
:101F70000021A015FFF754F925E02048844209D13B
:101F800001210804FFF76CF900214FF48030FFF7BE
:101F900067F918E01A48844209D101214804FFF783
:101FA0005FF900214FF40030FFF75AF90BE01548B4
:101FB000844208D101218804FFF752F900214FF42F
:101FC0008020FFF74DF910BD002C014000040040B7
:101FD00000080040000C00400010004000140040C9
:101FE00000340140004C01400050014000540140C9
:101FF00000180040001C004000200040004001404C
:10200000004401400048014030B502460020002352
:102010000024158A05EA0103958905EA010413B134
:102020000CB1012000E0002030BD10B51AB1838949
:102030000B43838104E08389CC43A4B22340838192
:1020400010BD0000002202881D4B98420ED01D4B8F
:1020500098420BD0B0F1804F08D01B4B984205D06E
:102060001A4B984202D01A4B984204D14FF68F7304
:102070001A404B881A43174B984207D0164B984288
:1020800004D04FF6FF431A40CB881A4302808B8856
:1020900083850B8803850A4B98420BD0094B9842E5
:1020A00008D00E4B984205D00D4B984202D00D4BF4
:1020B000984201D10B7A0386012383827047000086
:1020C000002C0140003401400004004000080040A2
:1020D000000C00400010004000140040004001408F
:1020E000004401400048014010B504462CB14FF4B3
:1020F00000710548FEF7B2FC04E04FF4007102489D
:10210000FEF7AEFC10BD00000010014010B50848FD
:1021100008490860022009680872074807490860F2
:10212000074808490860054909680868804710BDE4
:10213000200100200C01002064000020100100207C
:10214000940000201801002008B54FF4A060FEF7AD
:1021500023FF14208DF8000002208DF801000020DC
:102160008DF8020001208DF803006846FEF7D2FECC
:1021700008BD000010B53848006838490880084696
:10218000008800F4004036490988084201D0FEF773
:1021900005F83248008800F4806031490988084217
:1021A00006D04FF6FF302C4908602E49486880471A
:1021B0002A48008800F4005029490988084203D0C1
:1021C0004DF6FF70244908602448008800F48050D0
:1021D00023490988084207D04EF6FF701E4908605F
:1021E0004FF00000FFF752F81C48008800F4006030
:1021F0001B49098808420CD01B48007810B1FFF732
:1022000049FD02E00220FFF741F84FF2FF7012494A
:1022100008601248008800F40070114909880842DB
:1022200009D04FF6FF500C4908601048007800F1C3
:1022300001000E4908700948008800F480700849C0
:102240000988084207D04FF6FF60034908604FF045
:102250000700FFF71BF810BD445C00405C00002045
:102260001601002064000020000100202000002052
:1022700010B5FFF77FFF10BD0020074908604FF43D
:102280003F4006490880084600880549C1F8400CCF
:102290004FF0000070470000445C00401601002031
:1022A000005000402DE9F04104460E46154604F06A
:1022B0007F00FEF7E9FB0746AAB20146304600F070
:1022C0000BF804F07F00A9B2FFF70EF90020BDE87B
:1022D000F08100BFFEE70000F0B5144604F1010CE8
:1022E0004FEA6C07DFF824C00CEB41033D460AE0DF
:1022F0000678401C90F800C046EA0C2223F8022B16
:102300009B1C401C6D1E002DF2D1F0BD00600040F2
:1023100002E008C8121F08C1002AFAD170477047AE
:10232000002001E001C1121F002AFBD17047FFF716
:10233000A1F9FFF709FFFFF7F9F9FFF7E7FE07E05B
:10234000FEF72AFC20B1FEF727FC0446FEF752FDFB
:10235000F6E712010002000000408304105700025B
:102360000102030109022200010100E03209040018
:10237000000103010200092100010001224A0007B7
:1023800005810304002005010902A1010901A10042
:10239000050919012903150025019503750181021D
:1023A000950175058101050109300931093815814B
:1023B000257F750895038106C0093C05FF090115B5
:1023C00000250175019502B12275069501B101C084
:1023D0000403090422035700570057002E00500041
:1023E0006F007700650072004D00430055002E001D
:1023F00043004F004D0046034D0075006C00740013
:10240000690020004D006500640069006100200043
:1024100044006500760065006C006F0070006D0080
:1024200065006E007400200042006F0061007200C1
:1024300064002000560031002E0030005C240008AB
:102440000000002020010000102300087C25000867
:10245000200100202004000020230008001C034A63
:10246000006F00790053007400690063006B004D39
:10247000006F0075007300650000000000000000A0
:10248000E90E0008E90E0008E90E0008E90E000850
:10249000E90E0008E90E0008E90E0008E90E000840
:1024A000E90E0008E90E0008E90E0008E90E000830
:1024B000E90E0008E90E000800000000020100001B
:1024C000B90E0008510D0008B50E0008B70E00083F
:1024D000050C00082D0D0008150D0008950C0008CE
:1024E000810C0008ED0C0008000000004000000016
:1024F000E90E0008790E0008E90E0008E90E000850
:10250000E90E0008E90E0008E90E0008E90E0008CF
:10251000910E0008522300081200000064230008F6
:1025200022000000862300084A00000076230008ED
:1025300009000000D023000804000000D423000894
:1025400022000000F62300084600000001000020E1
:102550001C0000000000000000000000010000005E
:10256000000000000000000000000000000000006B
:0C2570000000000000000000000000005F
:0400000508000131BD
:00000001FF
