:020000040800F2
:10000000180B0020D50A0008F7090008F9090008B4
:10001000FB090008FD090008FF09000800000000B6
:10002000000000000000000000000000010A0008BD
:10003000030A000800000000050A0008070A00087B
:10004000E50A0008E90A0008ED0A0008F10A0008BC
:10005000F50A0008F90A0008FD0A0008010B00086B
:10006000050B0008090B00080D0B0008110B000818
:10007000150B0008190B00081D0B0008210B0008C8
:10008000250B0008290B00082D0B0008310B000878
:10009000350B0008390B00083D0B0008410B000828
:1000A000450B0008490B00084D0B0008510B0008D8
:1000B00075090008550B0008590B00085D0B000876
:1000C000610B0008650B0008690B00086D0B000848
:1000D000710B0008750B0008790B00087D0B0008F8
:1000E000810B0008850B0008890B0008DFF8181247
:1000F000086850F001000860DFF810221368DFF88C
:100100001002034013600B68DFF8080203400B6025
:10011000086830F480200860106830F4FE00106039
:100120005FF41F00DFF8F01108607047DFF8D811A6
:100130000A6832F480320A600A6832F480220A6067
:10014000B0F5803F03D0B0F5802F05D009E00868F6
:1001500050F48030086004E0086850F4A020086083
:10016000FFE7704780B5002000900020002031207C
:1001700000F0ABF80099491C00910099B1F5A06F0F
:1001800002D0C0B20028F2D0312000F09EF8002842
:1001900001D0012000E00020C0B202BD00225B4B74
:1001A0001A6832F47C121043084318607047C0B2DA
:1001B0005A49086070470021544A1168890889002B
:1001C0000843106070475148006810F00C007047F9
:1001D00000214E4A116831F0F00108431060704769
:1001E00000214A4A116831F4E06108431060704709
:1001F0000021464A116831F4605151EAC001116092
:10020000704710B400210021002100213F4A1168ED
:1002100011F00C01002904D0042905D0082906D0CA
:100220001EE0404901601DE03E4901601AE013688C
:1002300013F47013116811F480319B0C9B1C00297E
:1002400003D139494B43036009E01168890303D5A1
:1002500035494B43036002E032494B43036001E000
:1002600030490160116811F0F00109092F4B595C08
:100270000468CC404460116811F4E061090A595CDB
:100280004468CC408460116811F46051C90A595C1B
:100290004368CB40C360116811F44041890B244A84
:1002A000515CC268B2FBF1F1016110BC7047C9B288
:1002B000002904D01F490A681043086004E01D4962
:1002C0000A6832EA0000086070470021002100211E
:1002D0000100C9B24909C9B2012902D10A49096814
:1002E00006E0022902D10E49096801E012490968B5
:1002F000C0B210F01F00C140C80701D5012000E0C6
:100300000020C0B2704700000010024004100240FC
:100310000000FFF8FFFFF6FE0810024060004242B6
:100320002010024000127A0000093D000800002061
:10033000180000201C100240241002402DE9F04754
:1003400004000D0016001F005FF001085FF00009B7
:100350004BE0DFF80C12086830F4407008600A685F
:100360002300DBB24046C0B230EA0303D9F10900F2
:1003700083401A430A600A682B00DBB24046C0B2D1
:1003800030EA0303D9F1080083401A430A60DFF81A
:10039000D411086830F4404008600A683300DBB2CA
:1003A0004046C0B230EA0303D9F10E0083401A433D
:1003B0000A600A683B00DBB24046C0B230EA030381
:1003C000D9F10F0083401A430A605FEA4808DFF85A
:1003D00088A14FF40051504600F0D3F84FF400517B
:1003E000504600F0CBF819F101094846C0B2082880
:1003F000AFDBBDE8F0872DE9F047DFF86C41DFF8AF
:100400006C01217830F81100DFF8641108800120B8
:10041000DFF860110880DFF840510821280000F063
:10042000ADF84FF48071280000F0A8F84FF4007187
:10043000280000F0A3F8DFF81C614FF40041300001
:1004400000F09CF8162744E01720DFF82CC14FF489
:10045000B87EDFF8088121780EFB01F108EB01027C
:100460009CF80030390049B200FB031302EB030192
:1004700091F8143121780EFB01F108EB01029CF890
:100480000090390049B200FB091902EB090191F80B
:10049000B82021780EFB01F108EB01099CF800A0BF
:1004A000390049B200FB0A1A09EB0A0191F85C1005
:1004B00094F800900EFB09FEC6449CF80080BC46F0
:1004C0004FFA8CFC00FB08C01EF80000FFF736FF57
:1004D0007F1E380040B20028B6D54FF48051280066
:1004E00000F04FF84FF48051280000F047F8DFF893
:1004F00088703878002805D002280ED007D303284A
:1005000011D015E00821280000F03BF810E04FF46E
:100510008071280000F035F80AE04FF400712800DF
:1005200000F02FF804E04FF40041300000F029F80B
:100530002078401C20702078022809D100202070EB
:100540003878401C38703878042801D10020387081
:10055000BDE8F08700080140000C01401C000020AD
:100560000C0801400C0C0140140300200000002086
:1005700028000040140000401303002089B20161EC
:10058000704789B24161704780B53E49086850F0B4
:10059000010008603C4A13683C48034013600B6844
:1005A0003B4803400B60086830F480200860106806
:1005B00030F4FE0010605FF41F003649086000F060
:1005C00005F85FF000603449086001BD80B500F0B7
:1005D00001F801BD82B0002001900020009029495F
:1005E000086850F480300860086810F4003000900B
:1005F0000198401C01900098002803D10198B0F5A3
:10060000A06FF1D10868800302D50120009001E0BD
:10061000002000900098012831D12048026852F053
:10062000100202600268D208D2000260026852F032
:1006300002020260144802680260026802600268F6
:1006400052F480620260026832F47C120260026836
:1006500052F4E81202600A6852F080720A600A6876
:100660009201FCD50168890889000160016851F098
:1006700002010160016811F00C010829FAD102B0F1
:100680007047000000100240041002400000FFF814
:10069000FFFFF6FE0810024008ED00E000200240D7
:1006A00010B400220488DFF8D830984212D0DFF866
:1006B000E82090420ED0B0F1804F0BD0DFF8C4207C
:1006C000904207D0DFF8C020904203D0DFF8BC2072
:1006D000904204D14FF68F7214404A881443DFF8D9
:1006E000B020904208D0DFF8AC20904204D04FF602
:1006F000FF421440CA88144304808A8882850A888D
:10070000028598420FD0DFF8902090420BD0DFF89E
:100710008C20904207D0DFF88820904203D0DFF889
:100720008420904201D1097A01860121818210BC86
:100730007047C9B2002904D0018851F0010101803D
:1007400004E002884FF6FE710A4002807047D2B280
:10075000002A03D082891143818103E0828932EA31
:100760000101818170470022008A084201D00120E6
:1007700000E00020C0B2704789B2C94301827047CF
:10078000002C01400004004000080040000C004024
:1007900000100040001400400034014000400140BF
:1007A000004401400048014080B5FFF79FFC00F085
:1007B00004F8482000F038F801BD10B5FFF796FCAA
:1007C0005FF48030FFF7B2FC164CFFF7CBFC2070D3
:1007D0002078012825D1102000F045F8022000F0F3
:1007E00039F80020FFF7F4FC0020FFF701FD4FF47B
:1007F0008060FFF7F5FC5FF4E0115FF48030FFF7F5
:10080000CDFC0120FFF7D3FC3920FFF75EFD002867
:10081000FAD00220FFF7CFFCFFF7D5FC0828FBD168
:1008200010BDFEE71503002007490A6832F00402F4
:100830000A600649C0B2C008087009784FF47A709F
:10084000414303480180704710E000E0120300209C
:10085000100300200021DFF82420116811F0380176
:10086000084310607047DFF814100A6832F0100275
:100870000A600A68104308607047000000200240C8
:10088000002100210F23C17800291ED014490968D6
:1008900011F4E061D1F5E061090AD1F10402CB4025
:1008A000417811FA02F281780B401A4312010D4986
:1008B0000378CA540121027812F01F0291400A4ABB
:1008C0000078401142F8201009E00121027812F06E
:1008D0001F029140054A0078401142F820107047ED
:1008E0000CED00E000E400E000E100E080E100E069
:1008F000F8B501210120FFF7DAFC4FF48070ADF864
:10090000040040F2DC50ADF808000020ADF806000D
:1009100001A95FF08040FFF7C3FE01215FF0804036
:10092000FFF72AFF012201215FF08040FFF70FFF50
:1009300001215FF08040FFF7FCFE1C208DF80000D5
:1009400000208DF8010000208DF8020001208DF8B4
:1009500003006846FFF794FF05B000BD80B5FFF7C0
:1009600023FF0348FFF74DFCFFF7C2FFFEE700003F
:10097000FC02002080B501215FF08040FFF7F3FE0C
:10098000002806D0FFF737FD01215FF08040FFF718
:10099000F3FE01BD30B4002512E050F8042BD3075C
:1009A00044BF4A44521E091F042942F8045BFAD28C
:1009B00013468C0744BF15809B1CC90748BF1D7098
:1009C00050F8041B0029E8D130BC70470EE00268E3
:1009D0004368024408305FEAC37C44BF4B445B1E5B
:1009E00052F804CB43F804CB091FF9D150F8041B8B
:1009F0000029ECD170477047FEE7FEE7FEE7FEE70F
:100A0000704770477047704710B5074979441831EF
:100A1000064C7C44163404E00A68081D11448847DB
:100A20000146A142F8D110BD0800000028000000D6
:100A300065FFFFFFFC0200001C000020000000001A
:100A40008DFFFFFF1C000000700000000000002070
:100A50000000000000F00DF8002801D0FFF7D4FFDF
:100A6000AFF300800020AFF30080FFF777FF00F0C6
:100A700002F80120704700F001B800000746384630
:100A800000F002F8FBE7000080B5AFF30080024AF7
:100A900011001820ABBEFBE7260002000548014606
:100AA00003B4684680F30988AFF30080AFF3008099
:100AB000FFF7D0FFA5EDF5FE40008000000000002C
:100AC00000000000010203040102030406070809F4
:100AD00002040608014880470148004789050008CC
:100AE0009D0A0008FFF7FEBFFFF7FEBFFFF7FEBF3E
:100AF000FFF7FEBFFFF7FEBFFFF7FEBFFFF7FEBF2A
:100B0000FFF7FEBFFFF7FEBFFFF7FEBFFFF7FEBF19
:100B1000FFF7FEBFFFF7FEBFFFF7FEBFFFF7FEBF09
:100B2000FFF7FEBFFFF7FEBFFFF7FEBFFFF7FEBFF9
:100B3000FFF7FEBFFFF7FEBFFFF7FEBFFFF7FEBFE9
:100B4000FFF7FEBFFFF7FEBFFFF7FEBFFFF7FEBFD9
:100B5000FFF7FEBFFFF7FEBFFFF7FEBFFFF7FEBFC9
:100B6000FFF7FEBFFFF7FEBFFFF7FEBFFFF7FEBFB9
:100B7000FFF7FEBFFFF7FEBFFFF7FEBFFFF7FEBFA9
:0C0B8000FFF7FEBFFFF7FEBFFFF7FEBF50
:0400000508000A9D48
:00000001FF
